{
  "address": "0x7A2BBB0d1644eCD88DE99E3fAd82291199703AB9",
  "abi": [
    {
      "inputs": [
        {
          "internalType": "address",
          "name": "_stakeToken",
          "type": "address"
        },
        {
          "internalType": "string",
          "name": "_baseTokenURI",
          "type": "string"
        }
      ],
      "stateMutability": "nonpayable",
      "type": "constructor"
    },
    {
      "anonymous": false,
      "inputs": [
        {
          "indexed": true,
          "internalType": "uint16",
          "name": "apr",
          "type": "uint16"
        },
        {
          "indexed": false,
          "internalType": "uint256",
          "name": "lockTime",
          "type": "uint256"
        }
      ],
      "name": "AddAprLockOption",
      "type": "event"
    },
    {
      "anonymous": false,
      "inputs": [
        {
          "indexed": true,
          "internalType": "address",
          "name": "owner",
          "type": "address"
        },
        {
          "indexed": true,
          "internalType": "address",
          "name": "approved",
          "type": "address"
        },
        {
          "indexed": true,
          "internalType": "uint256",
          "name": "tokenId",
          "type": "uint256"
        }
      ],
      "name": "Approval",
      "type": "event"
    },
    {
      "anonymous": false,
      "inputs": [
        {
          "indexed": true,
          "internalType": "address",
          "name": "owner",
          "type": "address"
        },
        {
          "indexed": true,
          "internalType": "address",
          "name": "operator",
          "type": "address"
        },
        {
          "indexed": false,
          "internalType": "bool",
          "name": "approved",
          "type": "bool"
        }
      ],
      "name": "ApprovalForAll",
      "type": "event"
    },
    {
      "anonymous": false,
      "inputs": [
        {
          "indexed": true,
          "internalType": "address",
          "name": "previousOwner",
          "type": "address"
        },
        {
          "indexed": true,
          "internalType": "address",
          "name": "newOwner",
          "type": "address"
        }
      ],
      "name": "OwnershipTransferred",
      "type": "event"
    },
    {
      "anonymous": false,
      "inputs": [
        {
          "indexed": true,
          "internalType": "uint256",
          "name": "index",
          "type": "uint256"
        },
        {
          "indexed": true,
          "internalType": "uint16",
          "name": "apr",
          "type": "uint16"
        },
        {
          "indexed": false,
          "internalType": "uint256",
          "name": "lockTime",
          "type": "uint256"
        }
      ],
      "name": "RemoveAprLockOption",
      "type": "event"
    },
    {
      "anonymous": false,
      "inputs": [
        {
          "indexed": true,
          "internalType": "uint256",
          "name": "newApr",
          "type": "uint256"
        }
      ],
      "name": "SetAnnualApr",
      "type": "event"
    },
    {
      "anonymous": false,
      "inputs": [
        {
          "indexed": true,
          "internalType": "string",
          "name": "newUri",
          "type": "string"
        }
      ],
      "name": "SetBaseTokenURI",
      "type": "event"
    },
    {
      "anonymous": false,
      "inputs": [
        {
          "indexed": true,
          "internalType": "uint256",
          "name": "tokenId",
          "type": "uint256"
        },
        {
          "indexed": false,
          "internalType": "bool",
          "name": "isBlacklisted",
          "type": "bool"
        }
      ],
      "name": "SetTokenBlacklist",
      "type": "event"
    },
    {
      "anonymous": false,
      "inputs": [
        {
          "indexed": true,
          "internalType": "address",
          "name": "user",
          "type": "address"
        },
        {
          "indexed": true,
          "internalType": "uint256",
          "name": "tokenId",
          "type": "uint256"
        },
        {
          "indexed": false,
          "internalType": "uint256",
          "name": "amountStaked",
          "type": "uint256"
        },
        {
          "indexed": false,
          "internalType": "uint256",
          "name": "lockOptionIndex",
          "type": "uint256"
        }
      ],
      "name": "StakeTokens",
      "type": "event"
    },
    {
      "anonymous": false,
      "inputs": [
        {
          "indexed": true,
          "internalType": "address",
          "name": "from",
          "type": "address"
        },
        {
          "indexed": true,
          "internalType": "address",
          "name": "to",
          "type": "address"
        },
        {
          "indexed": true,
          "internalType": "uint256",
          "name": "tokenId",
          "type": "uint256"
        }
      ],
      "name": "Transfer",
      "type": "event"
    },
    {
      "anonymous": false,
      "inputs": [
        {
          "indexed": true,
          "internalType": "address",
          "name": "user",
          "type": "address"
        },
        {
          "indexed": true,
          "internalType": "uint256",
          "name": "tokenId",
          "type": "uint256"
        }
      ],
      "name": "UnstakeTokens",
      "type": "event"
    },
    {
      "anonymous": false,
      "inputs": [
        {
          "indexed": true,
          "internalType": "uint256",
          "name": "index",
          "type": "uint256"
        },
        {
          "indexed": true,
          "internalType": "uint16",
          "name": "oldApr",
          "type": "uint16"
        },
        {
          "indexed": false,
          "internalType": "uint256",
          "name": "oldLockTime",
          "type": "uint256"
        },
        {
          "indexed": false,
          "internalType": "uint16",
          "name": "newApr",
          "type": "uint16"
        },
        {
          "indexed": false,
          "internalType": "uint256",
          "name": "newLockTime",
          "type": "uint256"
        }
      ],
      "name": "UpdateAprLockOption",
      "type": "event"
    },
    {
      "inputs": [
        {
          "internalType": "uint16",
          "name": "_apr",
          "type": "uint16"
        },
        {
          "internalType": "uint256",
          "name": "_lockTime",
          "type": "uint256"
        }
      ],
      "name": "addAprLockOption",
      "outputs": [],
      "stateMutability": "nonpayable",
      "type": "function"
    },
    {
      "inputs": [
        {
          "internalType": "address",
          "name": "",
          "type": "address"
        },
        {
          "internalType": "uint256",
          "name": "",
          "type": "uint256"
        }
      ],
      "name": "allUserOwned",
      "outputs": [
        {
          "internalType": "uint256",
          "name": "",
          "type": "uint256"
        }
      ],
      "stateMutability": "view",
      "type": "function"
    },
    {
      "inputs": [
        {
          "internalType": "address",
          "name": "to",
          "type": "address"
        },
        {
          "internalType": "uint256",
          "name": "tokenId",
          "type": "uint256"
        }
      ],
      "name": "approve",
      "outputs": [],
      "stateMutability": "nonpayable",
      "type": "function"
    },
    {
      "inputs": [
        {
          "internalType": "address",
          "name": "owner",
          "type": "address"
        }
      ],
      "name": "balanceOf",
      "outputs": [
        {
          "internalType": "uint256",
          "name": "",
          "type": "uint256"
        }
      ],
      "stateMutability": "view",
      "type": "function"
    },
    {
      "inputs": [
        {
          "internalType": "uint256",
          "name": "_tokenId",
          "type": "uint256"
        },
        {
          "internalType": "uint256",
          "name": "_lockOptIndex",
          "type": "uint256"
        }
      ],
      "name": "claimAndCompound",
      "outputs": [],
      "stateMutability": "nonpayable",
      "type": "function"
    },
    {
      "inputs": [
        {
          "internalType": "uint256[]",
          "name": "_tokenIds",
          "type": "uint256[]"
        },
        {
          "internalType": "uint256",
          "name": "_lockOptIndex",
          "type": "uint256"
        }
      ],
      "name": "claimAndCompoundMulti",
      "outputs": [],
      "stateMutability": "nonpayable",
      "type": "function"
    },
    {
      "inputs": [],
      "name": "contractURI",
      "outputs": [
        {
          "internalType": "string",
          "name": "",
          "type": "string"
        }
      ],
      "stateMutability": "view",
      "type": "function"
    },
    {
      "inputs": [],
      "name": "getAllLockOptions",
      "outputs": [
        {
          "components": [
            {
              "internalType": "uint16",
              "name": "apr",
              "type": "uint16"
            },
            {
              "internalType": "uint256",
              "name": "lockTime",
              "type": "uint256"
            }
          ],
          "internalType": "struct StakingPositions.AprLock[]",
          "name": "",
          "type": "tuple[]"
        }
      ],
      "stateMutability": "view",
      "type": "function"
    },
    {
      "inputs": [
        {
          "internalType": "address",
          "name": "_user",
          "type": "address"
        }
      ],
      "name": "getAllUserOwned",
      "outputs": [
        {
          "internalType": "uint256[]",
          "name": "",
          "type": "uint256[]"
        }
      ],
      "stateMutability": "view",
      "type": "function"
    },
    {
      "inputs": [
        {
          "internalType": "uint256",
          "name": "tokenId",
          "type": "uint256"
        }
      ],
      "name": "getApproved",
      "outputs": [
        {
          "internalType": "address",
          "name": "",
          "type": "address"
        }
      ],
      "stateMutability": "view",
      "type": "function"
    },
    {
      "inputs": [],
      "name": "getLastMintedTokenId",
      "outputs": [
        {
          "internalType": "uint256",
          "name": "",
          "type": "uint256"
        }
      ],
      "stateMutability": "view",
      "type": "function"
    },
    {
      "inputs": [
        {
          "internalType": "uint256",
          "name": "_tokenId",
          "type": "uint256"
        }
      ],
      "name": "getTotalEarnedAmount",
      "outputs": [
        {
          "internalType": "uint256",
          "name": "",
          "type": "uint256"
        }
      ],
      "stateMutability": "view",
      "type": "function"
    },
    {
      "inputs": [
        {
          "internalType": "address",
          "name": "owner",
          "type": "address"
        },
        {
          "internalType": "address",
          "name": "operator",
          "type": "address"
        }
      ],
      "name": "isApprovedForAll",
      "outputs": [
        {
          "internalType": "bool",
          "name": "",
          "type": "bool"
        }
      ],
      "stateMutability": "view",
      "type": "function"
    },
    {
      "inputs": [
        {
          "internalType": "uint256",
          "name": "",
          "type": "uint256"
        }
      ],
      "name": "isBlacklisted",
      "outputs": [
        {
          "internalType": "bool",
          "name": "",
          "type": "bool"
        }
      ],
      "stateMutability": "view",
      "type": "function"
    },
    {
      "inputs": [
        {
          "internalType": "uint256",
          "name": "_tokenId",
          "type": "uint256"
        }
      ],
      "name": "isTokenMinted",
      "outputs": [
        {
          "internalType": "bool",
          "name": "",
          "type": "bool"
        }
      ],
      "stateMutability": "view",
      "type": "function"
    },
    {
      "inputs": [],
      "name": "name",
      "outputs": [
        {
          "internalType": "string",
          "name": "",
          "type": "string"
        }
      ],
      "stateMutability": "view",
      "type": "function"
    },
    {
      "inputs": [
        {
          "internalType": "uint256",
          "name": "",
          "type": "uint256"
        }
      ],
      "name": "ownedIndex",
      "outputs": [
        {
          "internalType": "uint256",
          "name": "",
          "type": "uint256"
        }
      ],
      "stateMutability": "view",
      "type": "function"
    },
    {
      "inputs": [],
      "name": "owner",
      "outputs": [
        {
          "internalType": "address",
          "name": "",
          "type": "address"
        }
      ],
      "stateMutability": "view",
      "type": "function"
    },
    {
      "inputs": [
        {
          "internalType": "uint256",
          "name": "tokenId",
          "type": "uint256"
        }
      ],
      "name": "ownerOf",
      "outputs": [
        {
          "internalType": "address",
          "name": "",
          "type": "address"
        }
      ],
      "stateMutability": "view",
      "type": "function"
    },
    {
      "inputs": [
        {
          "internalType": "uint256",
          "name": "_index",
          "type": "uint256"
        }
      ],
      "name": "removeAprLockOption",
      "outputs": [],
      "stateMutability": "nonpayable",
      "type": "function"
    },
    {
      "inputs": [],
      "name": "renounceOwnership",
      "outputs": [],
      "stateMutability": "nonpayable",
      "type": "function"
    },
    {
      "inputs": [
        {
          "internalType": "address",
          "name": "from",
          "type": "address"
        },
        {
          "internalType": "address",
          "name": "to",
          "type": "address"
        },
        {
          "internalType": "uint256",
          "name": "tokenId",
          "type": "uint256"
        }
      ],
      "name": "safeTransferFrom",
      "outputs": [],
      "stateMutability": "nonpayable",
      "type": "function"
    },
    {
      "inputs": [
        {
          "internalType": "address",
          "name": "from",
          "type": "address"
        },
        {
          "internalType": "address",
          "name": "to",
          "type": "address"
        },
        {
          "internalType": "uint256",
          "name": "tokenId",
          "type": "uint256"
        },
        {
          "internalType": "bytes",
          "name": "data",
          "type": "bytes"
        }
      ],
      "name": "safeTransferFrom",
      "outputs": [],
      "stateMutability": "nonpayable",
      "type": "function"
    },
    {
      "inputs": [
        {
          "internalType": "address",
          "name": "operator",
          "type": "address"
        },
        {
          "internalType": "bool",
          "name": "approved",
          "type": "bool"
        }
      ],
      "name": "setApprovalForAll",
      "outputs": [],
      "stateMutability": "nonpayable",
      "type": "function"
    },
    {
      "inputs": [
        {
          "internalType": "string",
          "name": "_uri",
          "type": "string"
        }
      ],
      "name": "setBaseURI",
      "outputs": [],
      "stateMutability": "nonpayable",
      "type": "function"
    },
    {
      "inputs": [
        {
          "internalType": "uint256",
          "name": "_tokenId",
          "type": "uint256"
        },
        {
          "internalType": "bool",
          "name": "_isBlacklisted",
          "type": "bool"
        }
      ],
      "name": "setIsBlacklisted",
      "outputs": [],
      "stateMutability": "nonpayable",
      "type": "function"
    },
    {
      "inputs": [
        {
          "internalType": "uint256",
          "name": "_amount",
          "type": "uint256"
        },
        {
          "internalType": "uint256",
          "name": "_lockOptIndex",
          "type": "uint256"
        }
      ],
      "name": "stake",
      "outputs": [],
      "stateMutability": "nonpayable",
      "type": "function"
    },
    {
      "inputs": [
        {
          "internalType": "uint256",
          "name": "",
          "type": "uint256"
        }
      ],
      "name": "stakes",
      "outputs": [
        {
          "internalType": "uint256",
          "name": "created",
          "type": "uint256"
        },
        {
          "internalType": "uint256",
          "name": "amountStaked",
          "type": "uint256"
        },
        {
          "internalType": "uint16",
          "name": "apr",
          "type": "uint16"
        },
        {
          "internalType": "uint256",
          "name": "lockTime",
          "type": "uint256"
        },
        {
          "internalType": "bool",
          "name": "allowWithdrawEarly",
          "type": "bool"
        }
      ],
      "stateMutability": "view",
      "type": "function"
    },
    {
      "inputs": [
        {
          "internalType": "bytes4",
          "name": "_interfaceId",
          "type": "bytes4"
        }
      ],
      "name": "supportsInterface",
      "outputs": [
        {
          "internalType": "bool",
          "name": "",
          "type": "bool"
        }
      ],
      "stateMutability": "view",
      "type": "function"
    },
    {
      "inputs": [],
      "name": "symbol",
      "outputs": [
        {
          "internalType": "string",
          "name": "",
          "type": "string"
        }
      ],
      "stateMutability": "view",
      "type": "function"
    },
    {
      "inputs": [
        {
          "internalType": "uint256",
          "name": "index",
          "type": "uint256"
        }
      ],
      "name": "tokenByIndex",
      "outputs": [
        {
          "internalType": "uint256",
          "name": "",
          "type": "uint256"
        }
      ],
      "stateMutability": "view",
      "type": "function"
    },
    {
      "inputs": [
        {
          "internalType": "uint256",
          "name": "",
          "type": "uint256"
        }
      ],
      "name": "tokenLastTransferred",
      "outputs": [
        {
          "internalType": "uint256",
          "name": "",
          "type": "uint256"
        }
      ],
      "stateMutability": "view",
      "type": "function"
    },
    {
      "inputs": [
        {
          "internalType": "uint256",
          "name": "",
          "type": "uint256"
        }
      ],
      "name": "tokenMintedAt",
      "outputs": [
        {
          "internalType": "uint256",
          "name": "",
          "type": "uint256"
        }
      ],
      "stateMutability": "view",
      "type": "function"
    },
    {
      "inputs": [
        {
          "internalType": "address",
          "name": "owner",
          "type": "address"
        },
        {
          "internalType": "uint256",
          "name": "index",
          "type": "uint256"
        }
      ],
      "name": "tokenOfOwnerByIndex",
      "outputs": [
        {
          "internalType": "uint256",
          "name": "",
          "type": "uint256"
        }
      ],
      "stateMutability": "view",
      "type": "function"
    },
    {
      "inputs": [
        {
          "internalType": "uint256",
          "name": "_tokenId",
          "type": "uint256"
        }
      ],
      "name": "tokenURI",
      "outputs": [
        {
          "internalType": "string",
          "name": "",
          "type": "string"
        }
      ],
      "stateMutability": "view",
      "type": "function"
    },
    {
      "inputs": [],
      "name": "totalSupply",
      "outputs": [
        {
          "internalType": "uint256",
          "name": "",
          "type": "uint256"
        }
      ],
      "stateMutability": "view",
      "type": "function"
    },
    {
      "inputs": [
        {
          "internalType": "address",
          "name": "from",
          "type": "address"
        },
        {
          "internalType": "address",
          "name": "to",
          "type": "address"
        },
        {
          "internalType": "uint256",
          "name": "tokenId",
          "type": "uint256"
        }
      ],
      "name": "transferFrom",
      "outputs": [],
      "stateMutability": "nonpayable",
      "type": "function"
    },
    {
      "inputs": [
        {
          "internalType": "address",
          "name": "newOwner",
          "type": "address"
        }
      ],
      "name": "transferOwnership",
      "outputs": [],
      "stateMutability": "nonpayable",
      "type": "function"
    },
    {
      "inputs": [
        {
          "internalType": "uint256",
          "name": "_index",
          "type": "uint256"
        },
        {
          "internalType": "uint16",
          "name": "_apr",
          "type": "uint16"
        },
        {
          "internalType": "uint256",
          "name": "_lockTime",
          "type": "uint256"
        }
      ],
      "name": "updateAprLockOption",
      "outputs": [],
      "stateMutability": "nonpayable",
      "type": "function"
    },
    {
      "inputs": [
        {
          "internalType": "uint256",
          "name": "_tokenId",
          "type": "uint256"
        }
      ],
      "name": "withdrawEarly",
      "outputs": [],
      "stateMutability": "nonpayable",
      "type": "function"
    },
    {
      "inputs": [
        {
          "internalType": "uint256[]",
          "name": "_tokenIds",
          "type": "uint256[]"
        }
      ],
      "name": "withdrawEarlyMulti",
      "outputs": [],
      "stateMutability": "nonpayable",
      "type": "function"
    }
  ],
  "transactionHash": "0x4f37446bc1df1ddbb772427b9d641e4b81294d051ea99a9842931d926eddb1b7",
  "args": [
    "0xa3CbcAb39A06664b9d6e4aac298D636bcca0C08F",
    "https://api.bomb.app/metadata"
  ],
  "numDeployments": 1,
  "solcInputHash": "e42f802112d8ca115a64fc8e720581f9",
  "bytecode": "0x60806040523480156200001157600080fd5b506040516200369438038062003694833981016040819052620000349162000339565b6040518060400160405280600e81526020016d29ba30b5b2b2102124aa21a7a4a760911b815250604051806040016040528060048152602001637342544360e01b8152508383838381600090816200008d9190620004be565b5060016200009c8282620004be565b505050620000b9620000b36200026460201b60201c565b62000268565b600b80546001600160a01b0319166001600160a01b0384161790556010620000e28282620004be565b5050505050620000fe6107d06276a700620002ba60201b60201c565b6200017261096062ed4e006040805180820190915261ffff928316815260208101918252600c80546001810182556000919091529051600080516020620036548339815191526002909202918201805461ffff19169190941617909255516000805160206200367483398151915290910155565b620001e7610b22630163f5006040805180820190915261ffff928316815260208101918252600c80546001810182556000919091529051600080516020620036548339815191526002909202918201805461ffff19169190941617909255516000805160206200367483398151915290910155565b6200025c610dac6301da9c006040805180820190915261ffff928316815260208101918252600c80546001810182556000919091529051600080516020620036548339815191526002909202918201805461ffff19169190941617909255516000805160206200367483398151915290910155565b50506200058a565b3390565b600a80546001600160a01b038381166001600160a01b0319831681179093556040519116919082907f8be0079c531659141344cd1fd0a4f28419497f9722a3daafe3b4186f6b6457e090600090a35050565b6040805180820190915261ffff928316815260208101918252600c80546001810182556000919091529051600080516020620036548339815191526002909202918201805461ffff19169190941617909255516000805160206200367483398151915290910155565b634e487b7160e01b600052604160045260246000fd5b600080604083850312156200034d57600080fd5b82516001600160a01b03811681146200036557600080fd5b602084810151919350906001600160401b03808211156200038557600080fd5b818601915086601f8301126200039a57600080fd5b815181811115620003af57620003af62000323565b604051601f8201601f19908116603f01168101908382118183101715620003da57620003da62000323565b816040528281528986848701011115620003f357600080fd5b600093505b82841015620004175784840186015181850187015292850192620003f8565b60008684830101528096505050505050509250929050565b600181811c908216806200044457607f821691505b6020821081036200046557634e487b7160e01b600052602260045260246000fd5b50919050565b601f821115620004b957600081815260208120601f850160051c81016020861015620004945750805b601f850160051c820191505b81811015620004b557828155600101620004a0565b5050505b505050565b81516001600160401b03811115620004da57620004da62000323565b620004f281620004eb84546200042f565b846200046b565b602080601f8311600181146200052a5760008415620005115750858301515b600019600386901b1c1916600185901b178555620004b5565b600085815260208120601f198616915b828110156200055b578886015182559484019460019091019084016200053a565b50858210156200057a5787850151600019600388901b60f8161c191681555b5050505050600190811b01905550565b6130ba806200059a6000396000f3fe608060405234801561001057600080fd5b50600436106102535760003560e01c80636869ef651161014657806399bbbbac116100c3578063d5a44f8611610087578063d5a44f861461053b578063e8a3d485146105b3578063e92f6a15146105bb578063e985e9c5146105ce578063f2fde38b1461060a578063ffa801361461061d57600080fd5b806399bbbbac146104cd578063a22cb465146104e2578063afd50d8f146104f5578063b88d4fde14610515578063c87b56dd1461052857600080fd5b80637b0472f01161010a5780637b0472f01461047b5780637c9da68b1461048e5780638da5cb5b146104a15780638f96a7cb146104b257806395d89b41146104c557600080fd5b80636869ef651461042557806370a0823114610438578063715018a61461044b57806376772cf8146104535780637974e46a1461047357600080fd5b806323b872dd116101d45780634f4b48f2116101985780634f4b48f2146103c65780634f6ccce7146103d957806355f804b3146103ec5780636352211e146103ff57806367e650db1461041257600080fd5b806323b872dd1461034a578063274de61e1461035d5780632f745c591461037d57806342842e0e146103905780634752f9ef146103a357600080fd5b806308b742451161021b57806308b74245146102f6578063095ea7b31461030957806318160ddd1461031c57806320e3fa50146103245780632374346c1461033757600080fd5b806301ede8dc1461025857806301ffc9a71461026d57806304ece5831461029557806306fdde03146102b6578063081812fc146102cb575b600080fd5b61026b610266366004612767565b61063d565b005b61028061027b3660046127a7565b610710565b60405190151581526020015b60405180910390f35b6102a86102a33660046127cb565b610721565b60405190815260200161028c565b6102be610806565b60405161028c9190612834565b6102de6102d93660046127cb565b610898565b6040516001600160a01b03909116815260200161028c565b61026b610304366004612855565b6108bf565b61026b61031736600461289c565b610917565b6008546102a8565b6102a861033236600461289c565b610a31565b61026b6103453660046127cb565b610a62565b61026b6103583660046128b8565b610b9d565b6102a861036b3660046127cb565b60126020526000908152604090205481565b6102a861038b36600461289c565b610bce565b61026b61039e3660046128b8565b610c64565b6102806103b13660046127cb565b600e6020526000908152604090205460ff1681565b61026b6103d43660046127cb565b610c7f565b6102a86103e73660046127cb565b610f2d565b61026b6103fa366004612993565b610fc0565b6102de61040d3660046127cb565b611016565b61026b610420366004612a5c565b611076565b61026b610433366004612a91565b6110ba565b6102a8610446366004612ad6565b6110fb565b61026b611181565b6102a86104613660046127cb565b60136020526000908152604090205481565b6102a8611195565b61026b610489366004612af1565b6111a5565b61026b61049c366004612af1565b6111b3565b600a546001600160a01b03166102de565b6102806104c03660046127cb565b6112f1565b6102be611310565b6104d561131f565b60405161028c9190612b13565b61026b6104f0366004612b66565b61138f565b6102a86105033660046127cb565b60146020526000908152604090205481565b61026b610523366004612b92565b61139a565b6102be6105363660046127cb565b6113d2565b6105806105493660046127cb565b600d60205260009081526040902080546001820154600283015460038401546004909401549293919261ffff909116919060ff1685565b60408051958652602086019490945261ffff9092169284019290925260608301919091521515608082015260a00161028c565b6102be611468565b61026b6105c9366004612c0e565b611496565b6102806105dc366004612c33565b6001600160a01b03918216600090815260056020908152604080832093909416825291909152205460ff1690565b61026b610618366004612ad6565b611594565b61063061062b366004612ad6565b61160d565b60405161028c9190612c66565b610645611679565b6040805180820190915261ffff808416825260208201838152600c805460018101825560009190915292517fdf6966c971051c3d54ec59162606531493a51404a002842f56009d7e5cf4a8c76002909402938401805461ffff19169190931617909155517fdf6966c971051c3d54ec59162606531493a51404a002842f56009d7e5cf4a8c8909101558161ffff167fe01fdf33dfdfd42d6dc9b85e62d6750214967dddff00304f34c3fed1939bde0b8260405161070491815260200190565b60405180910390a25050565b600061071b826116d3565b92915050565b6000818152600d60209081526040808320815160a0810183528154808252600183015494820194909452600282015461ffff1692810192909252600381015460608301526004015460ff16151560808201529082906107809042612cc0565b90506000826060015183600001516107989190612cd3565b8211156107b757606083015183516107b09190612cd3565b90506107ba565b50805b6301e1338061271061ffff1682856040015161ffff1686602001516107df9190612ce6565b6107e99190612ce6565b6107f39190612d13565b6107fd9190612d13565b95945050505050565b60606000805461081590612d27565b80601f016020809104026020016040519081016040528092919081815260200182805461084190612d27565b801561088e5780601f106108635761010080835404028352916020019161088e565b820191906000526020600020905b81548152906001019060200180831161087157829003601f168201915b5050505050905090565b60006108a3826116f8565b506000908152600460205260409020546001600160a01b031690565b6108c7611679565b6000828152600e6020908152604091829020805460ff1916841515908117909155915191825283917fd07a67329d87579b1994579e69a7e1df196e41e2c912c37b7b9d80ef0030238d9101610704565b600061092282611016565b9050806001600160a01b0316836001600160a01b0316036109945760405162461bcd60e51b815260206004820152602160248201527f4552433732313a20617070726f76616c20746f2063757272656e74206f776e656044820152603960f91b60648201526084015b60405180910390fd5b336001600160a01b03821614806109b057506109b081336105dc565b610a225760405162461bcd60e51b815260206004820152603e60248201527f4552433732313a20617070726f76652063616c6c6572206973206e6f7420746f60448201527f6b656e206f776e6572206e6f7220617070726f76656420666f7220616c6c0000606482015260840161098b565b610a2c8383611757565b505050565b60116020528160005260406000208181548110610a4d57600080fd5b90600052602060002001600091509150505481565b610a6a611679565b6000600c8281548110610a7f57610a7f612d61565b600091825260209182902060408051808201909152600290920201805461ffff16825260019081015492820192909252600c805491935091610ac091612cc0565b81548110610ad057610ad0612d61565b9060005260206000209060020201600c8381548110610af157610af1612d61565b600091825260209091208254600290920201805461ffff191661ffff909216919091178155600191820154910155600c805480610b3057610b30612d77565b6000828152602080822060026000199490940193840201805461ffff1916815560010191909155915581518282015160405190815261ffff9091169184917f31c7ae07732186951f28c3aa4b019b67ff0b121028ec0baa0127467a57d3d340910160405180910390a35050565b610ba733826117c5565b610bc35760405162461bcd60e51b815260040161098b90612d8d565b610a2c838383611844565b6000610bd9836110fb565b8210610c3b5760405162461bcd60e51b815260206004820152602b60248201527f455243373231456e756d657261626c653a206f776e657220696e646578206f7560448201526a74206f6620626f756e647360a81b606482015260840161098b565b506001600160a01b03919091166000908152600660209081526040808320938352929052205490565b610a2c8383836040518060200160405280600081525061139a565b6000818152600d6020908152604091829020825160a08101845281548152600182015492810192909252600281015461ffff16928201929092526003820154606082015260049091015460ff16151560808201523390610cde83611016565b6001600160a01b0316826001600160a01b031614610d565760405162461bcd60e51b815260206004820152602f60248201527f6f6e6c7920746865206f776e6572206f6620746865207374616b656420746f6b60448201526e656e732063616e20756e7374616b6560881b606482015260840161098b565b60608101518151600091610d6991612cd3565b421090508015610e7a578160800151610ddd5760405162461bcd60e51b815260206004820152603060248201527f5468697320706f736974696f6e206973206e6f7420656c696769626c6520666f60448201526f72206561726c7920776974686472617760801b606482015260840161098b565b600b5460208301516001600160a01b039091169063a9059cbb908590610e0590600290612d13565b6040516001600160e01b031960e085901b1681526001600160a01b03909216600483015260248201526044016020604051808303816000875af1158015610e50573d6000803e3d6000fd5b505050506040513d601f19601f82011682018060405250810190610e749190612ddb565b50610ee8565b60405162461bcd60e51b815260206004820152603a60248201527f506f736974696f6e2063616e20636c61696d207769746820726577617264732c60448201527f206e6f206e65656420746f207769746864726177206561726c79000000000000606482015260840161098b565b610ef1846119f1565b60405184906001600160a01b038516907ff74a79d13d6fdbdf26b2c779e6a24490a43e65d60cc7e064740f8d40b2b5ea2c90600090a350505050565b6000610f3860085490565b8210610f9b5760405162461bcd60e51b815260206004820152602c60248201527f455243373231456e756d657261626c653a20676c6f62616c20696e646578206f60448201526b7574206f6620626f756e647360a01b606482015260840161098b565b60088281548110610fae57610fae612d61565b90600052602060002001549050919050565b610fc8611679565b6010610fd48282612e46565b5080604051610fe39190612f06565b604051908190038120907f199e933997358e1789d8b56ea8c551befeb05ce2fe3fe506199f1230f5a591b490600090a250565b6000818152600260205260408120546001600160a01b03168061071b5760405162461bcd60e51b8152602060048201526018602482015277115490cdcc8c4e881a5b9d985b1a59081d1bdad95b88125160421b604482015260640161098b565b60005b81518110156110b6576110a482828151811061109757611097612d61565b6020026020010151610c7f565b806110ae81612f22565b915050611079565b5050565b60005b8251811015610a2c576110e98382815181106110db576110db612d61565b6020026020010151836111b3565b806110f381612f22565b9150506110bd565b60006001600160a01b0382166111655760405162461bcd60e51b815260206004820152602960248201527f4552433732313a2061646472657373207a65726f206973206e6f7420612076616044820152683634b21037bbb732b960b91b606482015260840161098b565b506001600160a01b031660009081526003602052604090205490565b611189611679565b6111936000611aa0565b565b60006111a0600f5490565b905090565b6110b6338383600180611af2565b6000828152600e602052604090205460ff16156112045760405162461bcd60e51b815260206004820152600f60248201526e189b1858dadb1a5cdd195908139195608a1b604482015260640161098b565b6000828152600d6020908152604091829020825160a0810184528154808252600183015493820193909352600282015461ffff169381019390935260038101546060840181905260049091015460ff16151560808401523392916112689190612cd3565b42116112b65760405162461bcd60e51b815260206004820152601b60248201527f506f736974696f6e206973206e6f74206174206d617475726974790000000000604482015260640161098b565b60006112c185610721565b90506112cc856119f1565b6112ea838284602001516112e09190612cd3565b8660006001611af2565b5050505050565b6000818152600260205260408120546001600160a01b0316151561071b565b60606001805461081590612d27565b6060600c805480602002602001604051908101604052809291908181526020016000905b828210156113865760008481526020908190206040805180820190915260028502909101805461ffff168252600190810154828401529083529092019101611343565b50505050905090565b6110b6338383611e0d565b6113a433836117c5565b6113c05760405162461bcd60e51b815260040161098b90612d8d565b6113cc84848484611edb565b50505050565b6000818152600260205260409020546060906001600160a01b03166114305760405162461bcd60e51b81526020600482015260146024820152731d1bdad95b88191bd95cc81b9bdd08195e1a5cdd60621b604482015260640161098b565b611438611f0e565b61144183611f1d565b604051602001611452929190612f3b565b6040516020818303038152906040529050919050565b6060611472611f0e565b6040516020016114829190612f7a565b604051602081830303815290604052905090565b61149e611679565b6000600c84815481106114b3576114b3612d61565b60009182526020918290206040805180820182526002909302909101805461ffff908116845260019091015483850152815180830190925286168152918201849052600c8054919350908690811061150d5761150d612d61565b6000918252602091829020835160029290920201805461ffff191661ffff9283161781559282015160019093019290925582518382015160408051918252878516938201939093529182018590529091169085907f1d66929984041b98ee2942b02ecb1a94419d54cf725b2fff115bb7a6039a96c69060600160405180910390a350505050565b61159c611679565b6001600160a01b0381166116015760405162461bcd60e51b815260206004820152602660248201527f4f776e61626c653a206e6577206f776e657220697320746865207a65726f206160448201526564647265737360d01b606482015260840161098b565b61160a81611aa0565b50565b6001600160a01b03811660009081526011602090815260409182902080548351818402810184019094528084526060939283018282801561166d57602002820191906000526020600020905b815481526020019060010190808311611659575b50505050509050919050565b600a546001600160a01b031633146111935760405162461bcd60e51b815260206004820181905260248201527f4f776e61626c653a2063616c6c6572206973206e6f7420746865206f776e6572604482015260640161098b565b60006001600160e01b0319821663780e9d6360e01b148061071b575061071b8261201e565b6000818152600260205260409020546001600160a01b031661160a5760405162461bcd60e51b8152602060048201526018602482015277115490cdcc8c4e881a5b9d985b1a59081d1bdad95b88125160421b604482015260640161098b565b600081815260046020526040902080546001600160a01b0319166001600160a01b038416908117909155819061178c82611016565b6001600160a01b03167f8c5be1e5ebec7d5bd14f71427d1e84f3dd0314c0f7b2291e5b200ac8c7c3b92560405160405180910390a45050565b6000806117d183611016565b9050806001600160a01b0316846001600160a01b0316148061181857506001600160a01b0380821660009081526005602090815260408083209388168352929052205460ff165b8061183c5750836001600160a01b031661183184610898565b6001600160a01b0316145b949350505050565b826001600160a01b031661185782611016565b6001600160a01b0316146118bb5760405162461bcd60e51b815260206004820152602560248201527f4552433732313a207472616e736665722066726f6d20696e636f72726563742060448201526437bbb732b960d91b606482015260840161098b565b6001600160a01b03821661191d5760405162461bcd60e51b8152602060048201526024808201527f4552433732313a207472616e7366657220746f20746865207a65726f206164646044820152637265737360e01b606482015260840161098b565b61192883838361206e565b611933600082611757565b6001600160a01b038316600090815260036020526040812080546001929061195c908490612cc0565b90915550506001600160a01b038216600090815260036020526040812080546001929061198a908490612cd3565b909155505060008181526002602052604080822080546001600160a01b0319166001600160a01b0386811691821790925591518493918716917fddf252ad1be2c89b69c2b068fc378daa952ba7f163c4a11628f55a4df523b3ef91a4610a2c8383836120db565b60006119fc82611016565b9050611a0a8160008461206e565b611a15600083611757565b6001600160a01b0381166000908152600360205260408120805460019290611a3e908490612cc0565b909155505060008281526002602052604080822080546001600160a01b0319169055518391906001600160a01b038416907fddf252ad1be2c89b69c2b068fc378daa952ba7f163c4a11628f55a4df523b3ef908390a46110b6816000846120db565b600a80546001600160a01b038381166001600160a01b0319831681179093556040519116919082907f8be0079c531659141344cd1fd0a4f28419497f9722a3daafe3b4186f6b6457e090600090a35050565b600c548310611b395760405162461bcd60e51b815260206004820152601360248201527234b73b30b634b2103637b1b59037b83a34b7b760691b604482015260640161098b565b8315611b455783611bb3565b600b546040516370a0823160e01b81526001600160a01b038781166004830152909116906370a0823190602401602060405180830381865afa158015611b8f573d6000803e3d6000fd5b505050506040513d601f19601f82011682018060405250810190611bb39190612fab565b935060008411611c1c5760405162461bcd60e51b815260206004820152602e60248201527f6d757374207374616b6520616e64206265206561726e696e67206174206c656160448201526d737420736f6d6520746f6b656e7360901b606482015260840161098b565b8115611ca157600b546040516323b872dd60e01b81526001600160a01b03878116600483015230602483015260448201879052909116906323b872dd906064016020604051808303816000875af1158015611c7b573d6000803e3d6000fd5b505050506040513d601f19601f82011682018060405250810190611c9f9190612ddb565b505b611caf600f80546001019055565b6040518060a00160405280428152602001858152602001600c8581548110611cd957611cd9612d61565b60009182526020918290206002909102015461ffff168252600c8054929091019186908110611d0a57611d0a612d61565b9060005260206000209060020201600101548152602001821515815250600d6000611d34600f5490565b815260208082019290925260409081016000208351815591830151600183015582015160028201805461ffff191661ffff909216919091179055606082015160038201556080909101516004909101805460ff1916911515919091179055600f54611da0908690612264565b4260136000611dae600f5490565b8152602081019190915260400160002055600f5460408051868152602081018690526001600160a01b038816917f5fe79871cd2431c06447cbcf2557091da5d2ed5bc640f1028f42665913786e42910160405180910390a35050505050565b816001600160a01b0316836001600160a01b031603611e6e5760405162461bcd60e51b815260206004820152601960248201527f4552433732313a20617070726f766520746f2063616c6c657200000000000000604482015260640161098b565b6001600160a01b03838116600081815260056020908152604080832094871680845294825291829020805460ff191686151590811790915591519182527f17307eab39ab6107e8899845ad3d59bd9653f200f220920489ca2b5937696c31910160405180910390a3505050565b611ee6848484611844565b611ef28484848461227e565b6113cc5760405162461bcd60e51b815260040161098b90612fc4565b60606010805461081590612d27565b606081600003611f445750506040805180820190915260018152600360fc1b602082015290565b8160005b8115611f6e5780611f5881612f22565b9150611f679050600a83612d13565b9150611f48565b60008167ffffffffffffffff811115611f8957611f896128f4565b6040519080825280601f01601f191660200182016040528015611fb3576020820181803683370190505b5090505b841561183c57611fc8600183612cc0565b9150611fd5600a86613016565b611fe0906030612cd3565b60f81b818381518110611ff557611ff5612d61565b60200101906001600160f81b031916908160001a905350612017600a86612d13565b9450611fb7565b60006001600160e01b031982166380ac58cd60e01b148061204f57506001600160e01b03198216635b5e139f60e01b145b8061071b57506301ffc9a760e01b6001600160e01b031983161461071b565b6000818152600e602052604090205460ff16156120bf5760405162461bcd60e51b815260206004820152600f60248201526e189b1858dadb1a5cdd195908139195608a1b604482015260640161098b565b6000818152601460205260409020429055610a2c83838361237f565b6001600160a01b03831615612215576000818152601260209081526040808320546001600160a01b038716845260119092528220805491929161212090600190612cc0565b8154811061213057612130612d61565b60009182526020808320909101546001600160a01b03881683526011909152604090912080549192509061216690600190612cc0565b8154811061217657612176612d61565b906000526020600020015460116000876001600160a01b03166001600160a01b0316815260200190815260200160002083815481106121b7576121b7612d61565b60009182526020808320909101929092556001600160a01b03871681526011909152604090208054806121ec576121ec612d77565b600082815260208082208301600019908101839055909201909255918152601290915260409020555b6001600160a01b03821615610a2c576001600160a01b03919091166000908152601160208181526040808420805486865260128452918520829055928252600181018355918352909120015550565b6110b6828260405180602001604052806000815250612437565b60006001600160a01b0384163b1561237457604051630a85bd0160e11b81526001600160a01b0385169063150b7a02906122c290339089908890889060040161302a565b6020604051808303816000875af19250505080156122fd575060408051601f3d908101601f191682019092526122fa91810190613067565b60015b61235a573d80801561232b576040519150601f19603f3d011682016040523d82523d6000602084013e612330565b606091505b5080516000036123525760405162461bcd60e51b815260040161098b90612fc4565b805181602001fd5b6001600160e01b031916630a85bd0160e11b14905061183c565b506001949350505050565b6001600160a01b0383166123da576123d581600880546000838152600960205260408120829055600182018355919091527ff3f7a9fe364faab93b216da50a3214154f22a0a2b415b23a84c8169e8b636ee30155565b6123fd565b816001600160a01b0316836001600160a01b0316146123fd576123fd838261246a565b6001600160a01b03821661241457610a2c81612507565b826001600160a01b0316826001600160a01b031614610a2c57610a2c82826125b6565b61244183836125fa565b61244e600084848461227e565b610a2c5760405162461bcd60e51b815260040161098b90612fc4565b60006001612477846110fb565b6124819190612cc0565b6000838152600760205260409020549091508082146124d4576001600160a01b03841660009081526006602090815260408083208584528252808320548484528184208190558352600790915290208190555b5060009182526007602090815260408084208490556001600160a01b039094168352600681528383209183525290812055565b60085460009061251990600190612cc0565b6000838152600960205260408120546008805493945090928490811061254157612541612d61565b90600052602060002001549050806008838154811061256257612562612d61565b600091825260208083209091019290925582815260099091526040808220849055858252812055600880548061259a5761259a612d77565b6001900381819060005260206000200160009055905550505050565b60006125c1836110fb565b6001600160a01b039093166000908152600660209081526040808320868452825280832085905593825260079052919091209190915550565b6001600160a01b0382166126505760405162461bcd60e51b815260206004820181905260248201527f4552433732313a206d696e7420746f20746865207a65726f2061646472657373604482015260640161098b565b6000818152600260205260409020546001600160a01b0316156126b55760405162461bcd60e51b815260206004820152601c60248201527f4552433732313a20746f6b656e20616c7265616479206d696e74656400000000604482015260640161098b565b6126c16000838361206e565b6001600160a01b03821660009081526003602052604081208054600192906126ea908490612cd3565b909155505060008181526002602052604080822080546001600160a01b0319166001600160a01b03861690811790915590518392907fddf252ad1be2c89b69c2b068fc378daa952ba7f163c4a11628f55a4df523b3ef908290a46110b6600083836120db565b803561ffff8116811461276257600080fd5b919050565b6000806040838503121561277a57600080fd5b61278383612750565b946020939093013593505050565b6001600160e01b03198116811461160a57600080fd5b6000602082840312156127b957600080fd5b81356127c481612791565b9392505050565b6000602082840312156127dd57600080fd5b5035919050565b60005b838110156127ff5781810151838201526020016127e7565b50506000910152565b600081518084526128208160208601602086016127e4565b601f01601f19169290920160200192915050565b6020815260006127c46020830184612808565b801515811461160a57600080fd5b6000806040838503121561286857600080fd5b82359150602083013561287a81612847565b809150509250929050565b80356001600160a01b038116811461276257600080fd5b600080604083850312156128af57600080fd5b61278383612885565b6000806000606084860312156128cd57600080fd5b6128d684612885565b92506128e460208501612885565b9150604084013590509250925092565b634e487b7160e01b600052604160045260246000fd5b604051601f8201601f1916810167ffffffffffffffff81118282101715612933576129336128f4565b604052919050565b600067ffffffffffffffff831115612955576129556128f4565b612968601f8401601f191660200161290a565b905082815283838301111561297c57600080fd5b828260208301376000602084830101529392505050565b6000602082840312156129a557600080fd5b813567ffffffffffffffff8111156129bc57600080fd5b8201601f810184136129cd57600080fd5b61183c8482356020840161293b565b600082601f8301126129ed57600080fd5b8135602067ffffffffffffffff821115612a0957612a096128f4565b8160051b612a1882820161290a565b9283528481018201928281019087851115612a3257600080fd5b83870192505b84831015612a5157823582529183019190830190612a38565b979650505050505050565b600060208284031215612a6e57600080fd5b813567ffffffffffffffff811115612a8557600080fd5b61183c848285016129dc565b60008060408385031215612aa457600080fd5b823567ffffffffffffffff811115612abb57600080fd5b612ac7858286016129dc565b95602094909401359450505050565b600060208284031215612ae857600080fd5b6127c482612885565b60008060408385031215612b0457600080fd5b50508035926020909101359150565b602080825282518282018190526000919060409081850190868401855b82811015612b59578151805161ffff168552860151868501529284019290850190600101612b30565b5091979650505050505050565b60008060408385031215612b7957600080fd5b612b8283612885565b9150602083013561287a81612847565b60008060008060808587031215612ba857600080fd5b612bb185612885565b9350612bbf60208601612885565b925060408501359150606085013567ffffffffffffffff811115612be257600080fd5b8501601f81018713612bf357600080fd5b612c028782356020840161293b565b91505092959194509250565b600080600060608486031215612c2357600080fd5b833592506128e460208501612750565b60008060408385031215612c4657600080fd5b612c4f83612885565b9150612c5d60208401612885565b90509250929050565b6020808252825182820181905260009190848201906040850190845b81811015612c9e57835183529284019291840191600101612c82565b50909695505050505050565b634e487b7160e01b600052601160045260246000fd5b8181038181111561071b5761071b612caa565b8082018082111561071b5761071b612caa565b808202811582820484141761071b5761071b612caa565b634e487b7160e01b600052601260045260246000fd5b600082612d2257612d22612cfd565b500490565b600181811c90821680612d3b57607f821691505b602082108103612d5b57634e487b7160e01b600052602260045260246000fd5b50919050565b634e487b7160e01b600052603260045260246000fd5b634e487b7160e01b600052603160045260246000fd5b6020808252602e908201527f4552433732313a2063616c6c6572206973206e6f7420746f6b656e206f776e6560408201526d1c881b9bdc88185c1c1c9bdd995960921b606082015260800190565b600060208284031215612ded57600080fd5b81516127c481612847565b601f821115610a2c57600081815260208120601f850160051c81016020861015612e1f5750805b601f850160051c820191505b81811015612e3e57828155600101612e2b565b505050505050565b815167ffffffffffffffff811115612e6057612e606128f4565b612e7481612e6e8454612d27565b84612df8565b602080601f831160018114612ea95760008415612e915750858301515b600019600386901b1c1916600185901b178555612e3e565b600085815260208120601f198616915b82811015612ed857888601518255948401946001909101908401612eb9565b5085821015612ef65787850151600019600388901b60f8161c191681555b5050505050600190811b01905550565b60008251612f188184602087016127e4565b9190910192915050565b600060018201612f3457612f34612caa565b5060010190565b60008351612f4d8184602088016127e4565b835190830190612f618183602088016127e4565b64173539b7b760d91b9101908152600501949350505050565b60008251612f8c8184602087016127e4565b6c31b7b73a3930b1ba173539b7b760991b920191825250600d01919050565b600060208284031215612fbd57600080fd5b5051919050565b60208082526032908201527f4552433732313a207472616e7366657220746f206e6f6e20455243373231526560408201527131b2b4bb32b91034b6b83632b6b2b73a32b960711b606082015260800190565b60008261302557613025612cfd565b500690565b6001600160a01b038581168252841660208201526040810183905260806060820181905260009061305d90830184612808565b9695505050505050565b60006020828403121561307957600080fd5b81516127c48161279156fea26469706673582212207c3be955c65c76cb51b0ab8f6c5bb0a886990ede01573b2fc88989e487eb013b64736f6c63430008110033df6966c971051c3d54ec59162606531493a51404a002842f56009d7e5cf4a8c7df6966c971051c3d54ec59162606531493a51404a002842f56009d7e5cf4a8c8",
  "devdoc": {
    "kind": "dev",
    "methods": {
      "approve(address,uint256)": {
        "details": "See {IERC721-approve}."
      },
      "balanceOf(address)": {
        "details": "See {IERC721-balanceOf}."
      },
      "getApproved(uint256)": {
        "details": "See {IERC721-getApproved}."
      },
      "isApprovedForAll(address,address)": {
        "details": "See {IERC721-isApprovedForAll}."
      },
      "name()": {
        "details": "See {IERC721Metadata-name}."
      },
      "owner()": {
        "details": "Returns the address of the current owner."
      },
      "ownerOf(uint256)": {
        "details": "See {IERC721-ownerOf}."
      },
      "renounceOwnership()": {
        "details": "Leaves the contract without owner. It will not be possible to call `onlyOwner` functions anymore. Can only be called by the current owner. NOTE: Renouncing ownership will leave the contract without an owner, thereby removing any functionality that is only available to the owner."
      },
      "safeTransferFrom(address,address,uint256)": {
        "details": "See {IERC721-safeTransferFrom}."
      },
      "safeTransferFrom(address,address,uint256,bytes)": {
        "details": "See {IERC721-safeTransferFrom}."
      },
      "setApprovalForAll(address,bool)": {
        "details": "See {IERC721-setApprovalForAll}."
      },
      "symbol()": {
        "details": "See {IERC721Metadata-symbol}."
      },
      "tokenByIndex(uint256)": {
        "details": "See {IERC721Enumerable-tokenByIndex}."
      },
      "tokenOfOwnerByIndex(address,uint256)": {
        "details": "See {IERC721Enumerable-tokenOfOwnerByIndex}."
      },
      "totalSupply()": {
        "details": "See {IERC721Enumerable-totalSupply}."
      },
      "transferFrom(address,address,uint256)": {
        "details": "See {IERC721-transferFrom}."
      },
      "transferOwnership(address)": {
        "details": "Transfers ownership of the contract to a new account (`newOwner`). Can only be called by the current owner."
      }
    },
    "version": 1
  },
  "userdoc": {
    "kind": "user",
    "methods": {},
    "version": 1
  },
  "storageLayout": {
    "storage": [
      {
        "astId": 219,
        "contract": "contracts/sBTC.sol:sBTC",
        "label": "_name",
        "offset": 0,
        "slot": "0",
        "type": "t_string_storage"
      },
      {
        "astId": 221,
        "contract": "contracts/sBTC.sol:sBTC",
        "label": "_symbol",
        "offset": 0,
        "slot": "1",
        "type": "t_string_storage"
      },
      {
        "astId": 225,
        "contract": "contracts/sBTC.sol:sBTC",
        "label": "_owners",
        "offset": 0,
        "slot": "2",
        "type": "t_mapping(t_uint256,t_address)"
      },
      {
        "astId": 229,
        "contract": "contracts/sBTC.sol:sBTC",
        "label": "_balances",
        "offset": 0,
        "slot": "3",
        "type": "t_mapping(t_address,t_uint256)"
      },
      {
        "astId": 233,
        "contract": "contracts/sBTC.sol:sBTC",
        "label": "_tokenApprovals",
        "offset": 0,
        "slot": "4",
        "type": "t_mapping(t_uint256,t_address)"
      },
      {
        "astId": 239,
        "contract": "contracts/sBTC.sol:sBTC",
        "label": "_operatorApprovals",
        "offset": 0,
        "slot": "5",
        "type": "t_mapping(t_address,t_mapping(t_address,t_bool))"
      },
      {
        "astId": 1209,
        "contract": "contracts/sBTC.sol:sBTC",
        "label": "_ownedTokens",
        "offset": 0,
        "slot": "6",
        "type": "t_mapping(t_address,t_mapping(t_uint256,t_uint256))"
      },
      {
        "astId": 1213,
        "contract": "contracts/sBTC.sol:sBTC",
        "label": "_ownedTokensIndex",
        "offset": 0,
        "slot": "7",
        "type": "t_mapping(t_uint256,t_uint256)"
      },
      {
        "astId": 1216,
        "contract": "contracts/sBTC.sol:sBTC",
        "label": "_allTokens",
        "offset": 0,
        "slot": "8",
        "type": "t_array(t_uint256)dyn_storage"
      },
      {
        "astId": 1220,
        "contract": "contracts/sBTC.sol:sBTC",
        "label": "_allTokensIndex",
        "offset": 0,
        "slot": "9",
        "type": "t_mapping(t_uint256,t_uint256)"
      },
      {
        "astId": 7,
        "contract": "contracts/sBTC.sol:sBTC",
        "label": "_owner",
        "offset": 0,
        "slot": "10",
        "type": "t_address"
      },
      {
        "astId": 2273,
        "contract": "contracts/sBTC.sol:sBTC",
        "label": "stakeToken",
        "offset": 0,
        "slot": "11",
        "type": "t_contract(IERC20)193"
      },
      {
        "astId": 2282,
        "contract": "contracts/sBTC.sol:sBTC",
        "label": "_aprLockOptions",
        "offset": 0,
        "slot": "12",
        "type": "t_array(t_struct(AprLock)2278_storage)dyn_storage"
      },
      {
        "astId": 2298,
        "contract": "contracts/sBTC.sol:sBTC",
        "label": "stakes",
        "offset": 0,
        "slot": "13",
        "type": "t_mapping(t_uint256,t_struct(Stake)2293_storage)"
      },
      {
        "astId": 2302,
        "contract": "contracts/sBTC.sol:sBTC",
        "label": "isBlacklisted",
        "offset": 0,
        "slot": "14",
        "type": "t_mapping(t_uint256,t_bool)"
      },
      {
        "astId": 2305,
        "contract": "contracts/sBTC.sol:sBTC",
        "label": "_ids",
        "offset": 0,
        "slot": "15",
        "type": "t_struct(Counter)1913_storage"
      },
      {
        "astId": 2307,
        "contract": "contracts/sBTC.sol:sBTC",
        "label": "baseTokenURI",
        "offset": 0,
        "slot": "16",
        "type": "t_string_storage"
      },
      {
        "astId": 2312,
        "contract": "contracts/sBTC.sol:sBTC",
        "label": "allUserOwned",
        "offset": 0,
        "slot": "17",
        "type": "t_mapping(t_address,t_array(t_uint256)dyn_storage)"
      },
      {
        "astId": 2316,
        "contract": "contracts/sBTC.sol:sBTC",
        "label": "ownedIndex",
        "offset": 0,
        "slot": "18",
        "type": "t_mapping(t_uint256,t_uint256)"
      },
      {
        "astId": 2320,
        "contract": "contracts/sBTC.sol:sBTC",
        "label": "tokenMintedAt",
        "offset": 0,
        "slot": "19",
        "type": "t_mapping(t_uint256,t_uint256)"
      },
      {
        "astId": 2324,
        "contract": "contracts/sBTC.sol:sBTC",
        "label": "tokenLastTransferred",
        "offset": 0,
        "slot": "20",
        "type": "t_mapping(t_uint256,t_uint256)"
      }
    ],
    "types": {
      "t_address": {
        "encoding": "inplace",
        "label": "address",
        "numberOfBytes": "20"
      },
      "t_array(t_struct(AprLock)2278_storage)dyn_storage": {
        "base": "t_struct(AprLock)2278_storage",
        "encoding": "dynamic_array",
        "label": "struct StakingPositions.AprLock[]",
        "numberOfBytes": "32"
      },
      "t_array(t_uint256)dyn_storage": {
        "base": "t_uint256",
        "encoding": "dynamic_array",
        "label": "uint256[]",
        "numberOfBytes": "32"
      },
      "t_bool": {
        "encoding": "inplace",
        "label": "bool",
        "numberOfBytes": "1"
      },
      "t_contract(IERC20)193": {
        "encoding": "inplace",
        "label": "contract IERC20",
        "numberOfBytes": "20"
      },
      "t_mapping(t_address,t_array(t_uint256)dyn_storage)": {
        "encoding": "mapping",
        "key": "t_address",
        "label": "mapping(address => uint256[])",
        "numberOfBytes": "32",
        "value": "t_array(t_uint256)dyn_storage"
      },
      "t_mapping(t_address,t_bool)": {
        "encoding": "mapping",
        "key": "t_address",
        "label": "mapping(address => bool)",
        "numberOfBytes": "32",
        "value": "t_bool"
      },
      "t_mapping(t_address,t_mapping(t_address,t_bool))": {
        "encoding": "mapping",
        "key": "t_address",
        "label": "mapping(address => mapping(address => bool))",
        "numberOfBytes": "32",
        "value": "t_mapping(t_address,t_bool)"
      },
      "t_mapping(t_address,t_mapping(t_uint256,t_uint256))": {
        "encoding": "mapping",
        "key": "t_address",
        "label": "mapping(address => mapping(uint256 => uint256))",
        "numberOfBytes": "32",
        "value": "t_mapping(t_uint256,t_uint256)"
      },
      "t_mapping(t_address,t_uint256)": {
        "encoding": "mapping",
        "key": "t_address",
        "label": "mapping(address => uint256)",
        "numberOfBytes": "32",
        "value": "t_uint256"
      },
      "t_mapping(t_uint256,t_address)": {
        "encoding": "mapping",
        "key": "t_uint256",
        "label": "mapping(uint256 => address)",
        "numberOfBytes": "32",
        "value": "t_address"
      },
      "t_mapping(t_uint256,t_bool)": {
        "encoding": "mapping",
        "key": "t_uint256",
        "label": "mapping(uint256 => bool)",
        "numberOfBytes": "32",
        "value": "t_bool"
      },
      "t_mapping(t_uint256,t_struct(Stake)2293_storage)": {
        "encoding": "mapping",
        "key": "t_uint256",
        "label": "mapping(uint256 => struct StakingPositions.Stake)",
        "numberOfBytes": "32",
        "value": "t_struct(Stake)2293_storage"
      },
      "t_mapping(t_uint256,t_uint256)": {
        "encoding": "mapping",
        "key": "t_uint256",
        "label": "mapping(uint256 => uint256)",
        "numberOfBytes": "32",
        "value": "t_uint256"
      },
      "t_string_storage": {
        "encoding": "bytes",
        "label": "string",
        "numberOfBytes": "32"
      },
      "t_struct(AprLock)2278_storage": {
        "encoding": "inplace",
        "label": "struct StakingPositions.AprLock",
        "members": [
          {
            "astId": 2275,
            "contract": "contracts/sBTC.sol:sBTC",
            "label": "apr",
            "offset": 0,
            "slot": "0",
            "type": "t_uint16"
          },
          {
            "astId": 2277,
            "contract": "contracts/sBTC.sol:sBTC",
            "label": "lockTime",
            "offset": 0,
            "slot": "1",
            "type": "t_uint256"
          }
        ],
        "numberOfBytes": "64"
      },
      "t_struct(Counter)1913_storage": {
        "encoding": "inplace",
        "label": "struct Counters.Counter",
        "members": [
          {
            "astId": 1912,
            "contract": "contracts/sBTC.sol:sBTC",
            "label": "_value",
            "offset": 0,
            "slot": "0",
            "type": "t_uint256"
          }
        ],
        "numberOfBytes": "32"
      },
      "t_struct(Stake)2293_storage": {
        "encoding": "inplace",
        "label": "struct StakingPositions.Stake",
        "members": [
          {
            "astId": 2284,
            "contract": "contracts/sBTC.sol:sBTC",
            "label": "created",
            "offset": 0,
            "slot": "0",
            "type": "t_uint256"
          },
          {
            "astId": 2286,
            "contract": "contracts/sBTC.sol:sBTC",
            "label": "amountStaked",
            "offset": 0,
            "slot": "1",
            "type": "t_uint256"
          },
          {
            "astId": 2288,
            "contract": "contracts/sBTC.sol:sBTC",
            "label": "apr",
            "offset": 0,
            "slot": "2",
            "type": "t_uint16"
          },
          {
            "astId": 2290,
            "contract": "contracts/sBTC.sol:sBTC",
            "label": "lockTime",
            "offset": 0,
            "slot": "3",
            "type": "t_uint256"
          },
          {
            "astId": 2292,
            "contract": "contracts/sBTC.sol:sBTC",
            "label": "allowWithdrawEarly",
            "offset": 0,
            "slot": "4",
            "type": "t_bool"
          }
        ],
        "numberOfBytes": "160"
      },
      "t_uint16": {
        "encoding": "inplace",
        "label": "uint16",
        "numberOfBytes": "2"
      },
      "t_uint256": {
        "encoding": "inplace",
        "label": "uint256",
        "numberOfBytes": "32"
      }
    }
  }
}