{
  "address": "0x3b286bA4b9F4e82398F410c2705227BA0A8E8028",
  "abi": [
    {
      "inputs": [
        {
          "internalType": "address",
          "name": "_stakeToken",
          "type": "address"
        },
        {
          "internalType": "address",
          "name": "_stakeVault",
          "type": "address"
        },
        {
          "internalType": "string",
          "name": "_baseTokenURI",
          "type": "string"
        }
      ],
      "stateMutability": "nonpayable",
      "type": "constructor"
    },
    {
      "anonymous": false,
      "inputs": [
        {
          "indexed": true,
          "internalType": "uint16",
          "name": "apr",
          "type": "uint16"
        },
        {
          "indexed": false,
          "internalType": "uint256",
          "name": "lockTime",
          "type": "uint256"
        }
      ],
      "name": "AddAprLockOption",
      "type": "event"
    },
    {
      "anonymous": false,
      "inputs": [
        {
          "indexed": true,
          "internalType": "address",
          "name": "owner",
          "type": "address"
        },
        {
          "indexed": true,
          "internalType": "address",
          "name": "approved",
          "type": "address"
        },
        {
          "indexed": true,
          "internalType": "uint256",
          "name": "tokenId",
          "type": "uint256"
        }
      ],
      "name": "Approval",
      "type": "event"
    },
    {
      "anonymous": false,
      "inputs": [
        {
          "indexed": true,
          "internalType": "address",
          "name": "owner",
          "type": "address"
        },
        {
          "indexed": true,
          "internalType": "address",
          "name": "operator",
          "type": "address"
        },
        {
          "indexed": false,
          "internalType": "bool",
          "name": "approved",
          "type": "bool"
        }
      ],
      "name": "ApprovalForAll",
      "type": "event"
    },
    {
      "anonymous": false,
      "inputs": [
        {
          "indexed": true,
          "internalType": "address",
          "name": "user",
          "type": "address"
        },
        {
          "indexed": true,
          "internalType": "uint256",
          "name": "tokenId",
          "type": "uint256"
        },
        {
          "indexed": false,
          "internalType": "uint256",
          "name": "amountStaked",
          "type": "uint256"
        },
        {
          "indexed": false,
          "internalType": "uint256",
          "name": "lockOptionIndex",
          "type": "uint256"
        }
      ],
      "name": "CreateStake",
      "type": "event"
    },
    {
      "anonymous": false,
      "inputs": [
        {
          "indexed": true,
          "internalType": "address",
          "name": "previousOwner",
          "type": "address"
        },
        {
          "indexed": true,
          "internalType": "address",
          "name": "newOwner",
          "type": "address"
        }
      ],
      "name": "OwnershipTransferred",
      "type": "event"
    },
    {
      "anonymous": false,
      "inputs": [
        {
          "indexed": true,
          "internalType": "uint256",
          "name": "index",
          "type": "uint256"
        },
        {
          "indexed": true,
          "internalType": "uint16",
          "name": "apr",
          "type": "uint16"
        },
        {
          "indexed": false,
          "internalType": "uint256",
          "name": "lockTime",
          "type": "uint256"
        }
      ],
      "name": "RemoveAprLockOption",
      "type": "event"
    },
    {
      "anonymous": false,
      "inputs": [
        {
          "indexed": true,
          "internalType": "uint256",
          "name": "newApr",
          "type": "uint256"
        }
      ],
      "name": "SetAnnualApr",
      "type": "event"
    },
    {
      "anonymous": false,
      "inputs": [
        {
          "indexed": true,
          "internalType": "string",
          "name": "newUri",
          "type": "string"
        }
      ],
      "name": "SetBaseTokenURI",
      "type": "event"
    },
    {
      "anonymous": false,
      "inputs": [
        {
          "indexed": true,
          "internalType": "uint256",
          "name": "tokenId",
          "type": "uint256"
        },
        {
          "indexed": false,
          "internalType": "bool",
          "name": "isBlacklisted",
          "type": "bool"
        }
      ],
      "name": "SetTokenBlacklist",
      "type": "event"
    },
    {
      "anonymous": false,
      "inputs": [
        {
          "indexed": true,
          "internalType": "address",
          "name": "from",
          "type": "address"
        },
        {
          "indexed": true,
          "internalType": "address",
          "name": "to",
          "type": "address"
        },
        {
          "indexed": true,
          "internalType": "uint256",
          "name": "tokenId",
          "type": "uint256"
        }
      ],
      "name": "Transfer",
      "type": "event"
    },
    {
      "anonymous": false,
      "inputs": [
        {
          "indexed": true,
          "internalType": "address",
          "name": "user",
          "type": "address"
        },
        {
          "indexed": true,
          "internalType": "uint256",
          "name": "tokenId",
          "type": "uint256"
        }
      ],
      "name": "UnstakeTokens",
      "type": "event"
    },
    {
      "anonymous": false,
      "inputs": [
        {
          "indexed": true,
          "internalType": "uint256",
          "name": "index",
          "type": "uint256"
        },
        {
          "indexed": true,
          "internalType": "uint16",
          "name": "oldApr",
          "type": "uint16"
        },
        {
          "indexed": false,
          "internalType": "uint256",
          "name": "oldLockTime",
          "type": "uint256"
        },
        {
          "indexed": false,
          "internalType": "uint16",
          "name": "newApr",
          "type": "uint16"
        },
        {
          "indexed": false,
          "internalType": "uint256",
          "name": "newLockTime",
          "type": "uint256"
        }
      ],
      "name": "UpdateAprLockOption",
      "type": "event"
    },
    {
      "inputs": [
        {
          "internalType": "uint16",
          "name": "_apr",
          "type": "uint16"
        },
        {
          "internalType": "uint256",
          "name": "_lockTime",
          "type": "uint256"
        }
      ],
      "name": "addAprLockOption",
      "outputs": [],
      "stateMutability": "nonpayable",
      "type": "function"
    },
    {
      "inputs": [
        {
          "internalType": "address",
          "name": "",
          "type": "address"
        },
        {
          "internalType": "uint256",
          "name": "",
          "type": "uint256"
        }
      ],
      "name": "allUserOwned",
      "outputs": [
        {
          "internalType": "uint256",
          "name": "",
          "type": "uint256"
        }
      ],
      "stateMutability": "view",
      "type": "function"
    },
    {
      "inputs": [
        {
          "internalType": "address",
          "name": "to",
          "type": "address"
        },
        {
          "internalType": "uint256",
          "name": "tokenId",
          "type": "uint256"
        }
      ],
      "name": "approve",
      "outputs": [],
      "stateMutability": "nonpayable",
      "type": "function"
    },
    {
      "inputs": [
        {
          "internalType": "address",
          "name": "owner",
          "type": "address"
        }
      ],
      "name": "balanceOf",
      "outputs": [
        {
          "internalType": "uint256",
          "name": "",
          "type": "uint256"
        }
      ],
      "stateMutability": "view",
      "type": "function"
    },
    {
      "inputs": [
        {
          "internalType": "address",
          "name": "_user",
          "type": "address"
        },
        {
          "internalType": "uint256",
          "name": "_tokenId",
          "type": "uint256"
        },
        {
          "internalType": "uint256",
          "name": "_lockOptIndex",
          "type": "uint256"
        }
      ],
      "name": "claimAndCompound",
      "outputs": [],
      "stateMutability": "nonpayable",
      "type": "function"
    },
    {
      "inputs": [
        {
          "internalType": "address",
          "name": "_user",
          "type": "address"
        },
        {
          "internalType": "uint256[]",
          "name": "_tokenIds",
          "type": "uint256[]"
        },
        {
          "internalType": "uint256",
          "name": "_lockOptIndex",
          "type": "uint256"
        }
      ],
      "name": "claimAndCompoundMulti",
      "outputs": [],
      "stateMutability": "nonpayable",
      "type": "function"
    },
    {
      "inputs": [],
      "name": "contractURI",
      "outputs": [
        {
          "internalType": "string",
          "name": "",
          "type": "string"
        }
      ],
      "stateMutability": "view",
      "type": "function"
    },
    {
      "inputs": [],
      "name": "getAllLockOptions",
      "outputs": [
        {
          "components": [
            {
              "internalType": "uint16",
              "name": "apr",
              "type": "uint16"
            },
            {
              "internalType": "uint256",
              "name": "lockTime",
              "type": "uint256"
            }
          ],
          "internalType": "struct StakingPositions.AprLock[]",
          "name": "",
          "type": "tuple[]"
        }
      ],
      "stateMutability": "view",
      "type": "function"
    },
    {
      "inputs": [
        {
          "internalType": "address",
          "name": "_user",
          "type": "address"
        }
      ],
      "name": "getAllUserOwned",
      "outputs": [
        {
          "internalType": "uint256[]",
          "name": "",
          "type": "uint256[]"
        }
      ],
      "stateMutability": "view",
      "type": "function"
    },
    {
      "inputs": [
        {
          "internalType": "uint256",
          "name": "tokenId",
          "type": "uint256"
        }
      ],
      "name": "getApproved",
      "outputs": [
        {
          "internalType": "address",
          "name": "",
          "type": "address"
        }
      ],
      "stateMutability": "view",
      "type": "function"
    },
    {
      "inputs": [],
      "name": "getLastMintedTokenId",
      "outputs": [
        {
          "internalType": "uint256",
          "name": "",
          "type": "uint256"
        }
      ],
      "stateMutability": "view",
      "type": "function"
    },
    {
      "inputs": [],
      "name": "getStakeToken",
      "outputs": [
        {
          "internalType": "address",
          "name": "",
          "type": "address"
        }
      ],
      "stateMutability": "view",
      "type": "function"
    },
    {
      "inputs": [
        {
          "internalType": "uint256",
          "name": "_tokenId",
          "type": "uint256"
        }
      ],
      "name": "getTotalEarnedAmount",
      "outputs": [
        {
          "internalType": "uint256",
          "name": "",
          "type": "uint256"
        }
      ],
      "stateMutability": "view",
      "type": "function"
    },
    {
      "inputs": [
        {
          "internalType": "contract IERC20",
          "name": "_token",
          "type": "address"
        },
        {
          "internalType": "address",
          "name": "_to",
          "type": "address"
        }
      ],
      "name": "governanceRecoverUnsupported",
      "outputs": [],
      "stateMutability": "nonpayable",
      "type": "function"
    },
    {
      "inputs": [
        {
          "internalType": "address",
          "name": "owner",
          "type": "address"
        },
        {
          "internalType": "address",
          "name": "operator",
          "type": "address"
        }
      ],
      "name": "isApprovedForAll",
      "outputs": [
        {
          "internalType": "bool",
          "name": "",
          "type": "bool"
        }
      ],
      "stateMutability": "view",
      "type": "function"
    },
    {
      "inputs": [
        {
          "internalType": "uint256",
          "name": "",
          "type": "uint256"
        }
      ],
      "name": "isBlacklisted",
      "outputs": [
        {
          "internalType": "bool",
          "name": "",
          "type": "bool"
        }
      ],
      "stateMutability": "view",
      "type": "function"
    },
    {
      "inputs": [
        {
          "internalType": "uint256",
          "name": "_tokenId",
          "type": "uint256"
        }
      ],
      "name": "isTokenMinted",
      "outputs": [
        {
          "internalType": "bool",
          "name": "",
          "type": "bool"
        }
      ],
      "stateMutability": "view",
      "type": "function"
    },
    {
      "inputs": [],
      "name": "name",
      "outputs": [
        {
          "internalType": "string",
          "name": "",
          "type": "string"
        }
      ],
      "stateMutability": "view",
      "type": "function"
    },
    {
      "inputs": [
        {
          "internalType": "uint256",
          "name": "",
          "type": "uint256"
        }
      ],
      "name": "ownedIndex",
      "outputs": [
        {
          "internalType": "uint256",
          "name": "",
          "type": "uint256"
        }
      ],
      "stateMutability": "view",
      "type": "function"
    },
    {
      "inputs": [],
      "name": "owner",
      "outputs": [
        {
          "internalType": "address",
          "name": "",
          "type": "address"
        }
      ],
      "stateMutability": "view",
      "type": "function"
    },
    {
      "inputs": [
        {
          "internalType": "uint256",
          "name": "tokenId",
          "type": "uint256"
        }
      ],
      "name": "ownerOf",
      "outputs": [
        {
          "internalType": "address",
          "name": "",
          "type": "address"
        }
      ],
      "stateMutability": "view",
      "type": "function"
    },
    {
      "inputs": [
        {
          "internalType": "uint256",
          "name": "_index",
          "type": "uint256"
        }
      ],
      "name": "removeAprLockOption",
      "outputs": [],
      "stateMutability": "nonpayable",
      "type": "function"
    },
    {
      "inputs": [],
      "name": "renounceOwnership",
      "outputs": [],
      "stateMutability": "nonpayable",
      "type": "function"
    },
    {
      "inputs": [
        {
          "internalType": "address",
          "name": "from",
          "type": "address"
        },
        {
          "internalType": "address",
          "name": "to",
          "type": "address"
        },
        {
          "internalType": "uint256",
          "name": "tokenId",
          "type": "uint256"
        }
      ],
      "name": "safeTransferFrom",
      "outputs": [],
      "stateMutability": "nonpayable",
      "type": "function"
    },
    {
      "inputs": [
        {
          "internalType": "address",
          "name": "from",
          "type": "address"
        },
        {
          "internalType": "address",
          "name": "to",
          "type": "address"
        },
        {
          "internalType": "uint256",
          "name": "tokenId",
          "type": "uint256"
        },
        {
          "internalType": "bytes",
          "name": "data",
          "type": "bytes"
        }
      ],
      "name": "safeTransferFrom",
      "outputs": [],
      "stateMutability": "nonpayable",
      "type": "function"
    },
    {
      "inputs": [
        {
          "internalType": "address",
          "name": "operator",
          "type": "address"
        },
        {
          "internalType": "bool",
          "name": "approved",
          "type": "bool"
        }
      ],
      "name": "setApprovalForAll",
      "outputs": [],
      "stateMutability": "nonpayable",
      "type": "function"
    },
    {
      "inputs": [
        {
          "internalType": "string",
          "name": "_uri",
          "type": "string"
        }
      ],
      "name": "setBaseURI",
      "outputs": [],
      "stateMutability": "nonpayable",
      "type": "function"
    },
    {
      "inputs": [
        {
          "internalType": "uint256",
          "name": "_tokenId",
          "type": "uint256"
        },
        {
          "internalType": "bool",
          "name": "_isBlacklisted",
          "type": "bool"
        }
      ],
      "name": "setIsBlacklisted",
      "outputs": [],
      "stateMutability": "nonpayable",
      "type": "function"
    },
    {
      "inputs": [
        {
          "internalType": "address",
          "name": "_user",
          "type": "address"
        },
        {
          "internalType": "uint256",
          "name": "_amount",
          "type": "uint256"
        },
        {
          "internalType": "uint256",
          "name": "_lockOptIndex",
          "type": "uint256"
        }
      ],
      "name": "stake",
      "outputs": [],
      "stateMutability": "nonpayable",
      "type": "function"
    },
    {
      "inputs": [],
      "name": "stakeVault",
      "outputs": [
        {
          "internalType": "contract IStakeVault",
          "name": "",
          "type": "address"
        }
      ],
      "stateMutability": "view",
      "type": "function"
    },
    {
      "inputs": [
        {
          "internalType": "uint256",
          "name": "",
          "type": "uint256"
        }
      ],
      "name": "stakes",
      "outputs": [
        {
          "internalType": "uint256",
          "name": "created",
          "type": "uint256"
        },
        {
          "internalType": "uint256",
          "name": "amountStaked",
          "type": "uint256"
        },
        {
          "internalType": "uint16",
          "name": "apr",
          "type": "uint16"
        },
        {
          "internalType": "uint256",
          "name": "lockTime",
          "type": "uint256"
        },
        {
          "internalType": "bool",
          "name": "allowWithdrawEarly",
          "type": "bool"
        }
      ],
      "stateMutability": "view",
      "type": "function"
    },
    {
      "inputs": [
        {
          "internalType": "bytes4",
          "name": "_interfaceId",
          "type": "bytes4"
        }
      ],
      "name": "supportsInterface",
      "outputs": [
        {
          "internalType": "bool",
          "name": "",
          "type": "bool"
        }
      ],
      "stateMutability": "view",
      "type": "function"
    },
    {
      "inputs": [],
      "name": "symbol",
      "outputs": [
        {
          "internalType": "string",
          "name": "",
          "type": "string"
        }
      ],
      "stateMutability": "view",
      "type": "function"
    },
    {
      "inputs": [
        {
          "internalType": "uint256",
          "name": "index",
          "type": "uint256"
        }
      ],
      "name": "tokenByIndex",
      "outputs": [
        {
          "internalType": "uint256",
          "name": "",
          "type": "uint256"
        }
      ],
      "stateMutability": "view",
      "type": "function"
    },
    {
      "inputs": [
        {
          "internalType": "uint256",
          "name": "",
          "type": "uint256"
        }
      ],
      "name": "tokenLastTransferred",
      "outputs": [
        {
          "internalType": "uint256",
          "name": "",
          "type": "uint256"
        }
      ],
      "stateMutability": "view",
      "type": "function"
    },
    {
      "inputs": [
        {
          "internalType": "uint256",
          "name": "",
          "type": "uint256"
        }
      ],
      "name": "tokenMintedAt",
      "outputs": [
        {
          "internalType": "uint256",
          "name": "",
          "type": "uint256"
        }
      ],
      "stateMutability": "view",
      "type": "function"
    },
    {
      "inputs": [
        {
          "internalType": "address",
          "name": "owner",
          "type": "address"
        },
        {
          "internalType": "uint256",
          "name": "index",
          "type": "uint256"
        }
      ],
      "name": "tokenOfOwnerByIndex",
      "outputs": [
        {
          "internalType": "uint256",
          "name": "",
          "type": "uint256"
        }
      ],
      "stateMutability": "view",
      "type": "function"
    },
    {
      "inputs": [
        {
          "internalType": "uint256",
          "name": "_tokenId",
          "type": "uint256"
        }
      ],
      "name": "tokenURI",
      "outputs": [
        {
          "internalType": "string",
          "name": "",
          "type": "string"
        }
      ],
      "stateMutability": "view",
      "type": "function"
    },
    {
      "inputs": [],
      "name": "totalSupply",
      "outputs": [
        {
          "internalType": "uint256",
          "name": "",
          "type": "uint256"
        }
      ],
      "stateMutability": "view",
      "type": "function"
    },
    {
      "inputs": [
        {
          "internalType": "address",
          "name": "from",
          "type": "address"
        },
        {
          "internalType": "address",
          "name": "to",
          "type": "address"
        },
        {
          "internalType": "uint256",
          "name": "tokenId",
          "type": "uint256"
        }
      ],
      "name": "transferFrom",
      "outputs": [],
      "stateMutability": "nonpayable",
      "type": "function"
    },
    {
      "inputs": [
        {
          "internalType": "address",
          "name": "newOwner",
          "type": "address"
        }
      ],
      "name": "transferOwnership",
      "outputs": [],
      "stateMutability": "nonpayable",
      "type": "function"
    },
    {
      "inputs": [
        {
          "internalType": "uint256",
          "name": "_index",
          "type": "uint256"
        },
        {
          "internalType": "uint16",
          "name": "_apr",
          "type": "uint16"
        },
        {
          "internalType": "uint256",
          "name": "_lockTime",
          "type": "uint256"
        }
      ],
      "name": "updateAprLockOption",
      "outputs": [],
      "stateMutability": "nonpayable",
      "type": "function"
    },
    {
      "inputs": [
        {
          "internalType": "uint256",
          "name": "_tokenId",
          "type": "uint256"
        }
      ],
      "name": "withdraw",
      "outputs": [],
      "stateMutability": "nonpayable",
      "type": "function"
    },
    {
      "inputs": [
        {
          "internalType": "uint256[]",
          "name": "_tokenIds",
          "type": "uint256[]"
        }
      ],
      "name": "withdrawEarlyMulti",
      "outputs": [],
      "stateMutability": "nonpayable",
      "type": "function"
    }
  ],
  "transactionHash": "0xebd09e920d8026ce15efd30c3d7eb8b00c3a2f3c5eda3f9a52f5a561225727d3",
  "args": [
    "0x8BaBbB98678facC7342735486C851ABD7A0d17Ca",
    "0xc0820d5645cf15770542B36321844d444D718A48",
    "https://api.bomb.app/metadata/"
  ],
  "numDeployments": 2,
  "solcInputHash": "1ce140dfed6bc10864a8a5d235f8221d",
  "bytecode": "0x60806040523480156200001157600080fd5b50604051620038f6380380620038f68339810160408190526200003491620003d1565b6040518060400160405280600e81526020016d29ba30b5b2b2102124aa21a7a4a760911b815250604051806040016040528060048152602001637342544360e01b815250848484848481600090816200008e91906200055a565b5060016200009d82826200055a565b505050620000ba620000b4620002df60201b60201c565b620002e3565b600b80546001600160a01b0319166001600160a01b0385161790556011620000e382826200055a565b50600c80546001600160a01b0319166001600160a01b03848116918217909255604051634fad6bff60e01b8152918516600483015230602483015290634fad6bff90604401600060405180830381600087803b1580156200014357600080fd5b505af115801562000158573d6000803e3d6000fd5b505050505050505050620001786105dc6276a7006200033560201b60201c565b620001ec6107d062ed4e006040805180820190915261ffff928316815260208101918252600d80546001810182556000919091529051600080516020620038b68339815191526002909202918201805461ffff1916919094161790925551600080516020620038d683398151915290910155565b620002616109c4630163f5006040805180820190915261ffff928316815260208101918252600d80546001810182556000919091529051600080516020620038b68339815191526002909202918201805461ffff1916919094161790925551600080516020620038d683398151915290910155565b620002d6610bb86301da9c006040805180820190915261ffff928316815260208101918252600d80546001810182556000919091529051600080516020620038b68339815191526002909202918201805461ffff1916919094161790925551600080516020620038d683398151915290910155565b50505062000626565b3390565b600a80546001600160a01b038381166001600160a01b0319831681179093556040519116919082907f8be0079c531659141344cd1fd0a4f28419497f9722a3daafe3b4186f6b6457e090600090a35050565b6040805180820190915261ffff928316815260208101918252600d80546001810182556000919091529051600080516020620038b68339815191526002909202918201805461ffff1916919094161790925551600080516020620038d683398151915290910155565b80516001600160a01b0381168114620003b657600080fd5b919050565b634e487b7160e01b600052604160045260246000fd5b600080600060608486031215620003e757600080fd5b620003f2846200039e565b92506020620004038186016200039e565b60408601519093506001600160401b03808211156200042157600080fd5b818701915087601f8301126200043657600080fd5b8151818111156200044b576200044b620003bb565b604051601f8201601f19908116603f01168101908382118183101715620004765762000476620003bb565b816040528281528a868487010111156200048f57600080fd5b600093505b82841015620004b3578484018601518185018701529285019262000494565b60008684830101528096505050505050509250925092565b600181811c90821680620004e057607f821691505b6020821081036200050157634e487b7160e01b600052602260045260246000fd5b50919050565b601f8211156200055557600081815260208120601f850160051c81016020861015620005305750805b601f850160051c820191505b8181101562000551578281556001016200053c565b5050505b505050565b81516001600160401b03811115620005765762000576620003bb565b6200058e81620005878454620004cb565b8462000507565b602080601f831160018114620005c65760008415620005ad5750858301515b600019600386901b1c1916600185901b17855562000551565b600085815260208120601f198616915b82811015620005f757888601518255948401946001909101908401620005d6565b5085821015620006165787850151600019600388901b60f8161c191681555b5050505050600190811b01905550565b61328080620006366000396000f3fe608060405234801561001057600080fd5b50600436106102745760003560e01c80636352211e11610151578063a22cb465116100c3578063d5a44f8611610087578063d5a44f8614610593578063e8a3d4851461060b578063e92f6a1514610613578063e985e9c514610626578063f2fde38b14610662578063ffa801361461067557600080fd5b8063a22cb46514610527578063a6bba7671461053a578063afd50d8f1461054d578063b88d4fde1461056d578063c87b56dd1461058057600080fd5b80637974e46a116101155780637974e46a146104cb5780638da5cb5b146104d35780638f96a7cb146104e457806395d89b41146104f757806397d3b573146104ff57806399bbbbac1461051257600080fd5b80636352211e1461046a57806367e650db1461047d57806370a0823114610490578063715018a6146104a357806376772cf8146104ab57600080fd5b806323b872dd116101ea57806342842e0e116101ae57806342842e0e146103ea5780634670dd2d146103fd5780634752f9ef146104105780634f6ccce714610433578063500a15641461044657806355f804b31461045757600080fd5b806323b872dd1461037e578063274de61e146103915780632d788333146103b15780632e1a7d4d146103c45780632f745c59146103d757600080fd5b806308b742451161023c57806308b7424514610317578063095ea7b31461032a5780630c51b88f1461033d57806318160ddd1461035057806320e3fa50146103585780632374346c1461036b57600080fd5b806301ede8dc1461027957806301ffc9a71461028e57806304ece583146102b657806306fdde03146102d7578063081812fc146102ec575b600080fd5b61028c6102873660046128ee565b610695565b005b6102a161029c36600461292e565b610768565b60405190151581526020015b60405180910390f35b6102c96102c4366004612952565b610779565b6040519081526020016102ad565b6102df61085e565b6040516102ad91906129bb565b6102ff6102fa366004612952565b6108f0565b6040516001600160a01b0390911681526020016102ad565b61028c6103253660046129dc565b610917565b61028c610338366004612a21565b61096f565b61028c61034b366004612a3f565b610a89565b6008546102c9565b6102c9610366366004612a21565b610a97565b61028c610379366004612952565b610ac8565b61028c61038c366004612a74565b610c03565b6102c961039f366004612952565b60136020526000908152604090205481565b600c546102ff906001600160a01b031681565b61028c6103d2366004612952565b610c34565b6102c96103e5366004612a21565b610f39565b61028c6103f8366004612a74565b610fcf565b61028c61040b366004612a3f565b610fea565b6102a161041e366004612952565b600f6020526000908152604090205460ff1681565b6102c9610441366004612952565b611124565b600b546001600160a01b03166102ff565b61028c610465366004612b54565b6111b7565b6102ff610478366004612952565b61120d565b61028c61048b366004612c1d565b61126d565b6102c961049e366004612c52565b6112b1565b61028c611337565b6102c96104b9366004612952565b60146020526000908152604090205481565b6102c961134b565b600a546001600160a01b03166102ff565b6102a16104f2366004612952565b61135b565b6102df61137a565b61028c61050d366004612c6f565b611389565b61051a611472565b6040516102ad9190612c9d565b61028c610535366004612cf0565b6114e2565b61028c610548366004612d1e565b6114ed565b6102c961055b366004612952565b60156020526000908152604090205481565b61028c61057b366004612d77565b611535565b6102df61058e366004612952565b611567565b6105d86105a1366004612952565b600e60205260009081526040902080546001820154600283015460038401546004909401549293919261ffff909116919060ff1685565b60408051958652602086019490945261ffff9092169284019290925260608301919091521515608082015260a0016102ad565b6102df6115fd565b61028c610621366004612df7565b61162b565b6102a1610634366004612c6f565b6001600160a01b03918216600090815260056020908152604080832093909416825291909152205460ff1690565b61028c610670366004612c52565b611729565b610688610683366004612c52565b6117a2565b6040516102ad9190612e2c565b61069d61180e565b6040805180820190915261ffff808416825260208201838152600d805460018101825560009190915292517fd7b6990105719101dabeb77144f2a3385c8033acd3af97e9423a695e81ad1eb56002909402938401805461ffff19169190931617909155517fd7b6990105719101dabeb77144f2a3385c8033acd3af97e9423a695e81ad1eb6909101558161ffff167fe01fdf33dfdfd42d6dc9b85e62d6750214967dddff00304f34c3fed1939bde0b8260405161075c91815260200190565b60405180910390a25050565b600061077382611868565b92915050565b6000818152600e60209081526040808320815160a0810183528154808252600183015494820194909452600282015461ffff1692810192909252600381015460608301526004015460ff16151560808201529082906107d89042612e86565b90506000826060015183600001516107f09190612e99565b82111561080f57606083015183516108089190612e99565b9050610812565b50805b6301e1338061271061ffff1682856040015161ffff1686602001516108379190612eac565b6108419190612eac565b61084b9190612ed9565b6108559190612ed9565b95945050505050565b60606000805461086d90612eed565b80601f016020809104026020016040519081016040528092919081815260200182805461089990612eed565b80156108e65780601f106108bb576101008083540402835291602001916108e6565b820191906000526020600020905b8154815290600101906020018083116108c957829003601f168201915b5050505050905090565b60006108fb8261188d565b506000908152600460205260409020546001600160a01b031690565b61091f61180e565b6000828152600f6020908152604091829020805460ff1916841515908117909155915191825283917fd07a67329d87579b1994579e69a7e1df196e41e2c912c37b7b9d80ef0030238d910161075c565b600061097a8261120d565b9050806001600160a01b0316836001600160a01b0316036109ec5760405162461bcd60e51b815260206004820152602160248201527f4552433732313a20617070726f76616c20746f2063757272656e74206f776e656044820152603960f91b60648201526084015b60405180910390fd5b336001600160a01b0382161480610a085750610a088133610634565b610a7a5760405162461bcd60e51b815260206004820152603e60248201527f4552433732313a20617070726f76652063616c6c6572206973206e6f7420746f60448201527f6b656e206f776e6572206e6f7220617070726f76656420666f7220616c6c000060648201526084016109e3565b610a8483836118ec565b505050565b610a8483838360018061195a565b60126020528160005260406000208181548110610ab357600080fd5b90600052602060002001600091509150505481565b610ad061180e565b6000600d8281548110610ae557610ae5612f27565b600091825260209182902060408051808201909152600290920201805461ffff16825260019081015492820192909252600d805491935091610b2691612e86565b81548110610b3657610b36612f27565b9060005260206000209060020201600d8381548110610b5757610b57612f27565b600091825260209091208254600290920201805461ffff191661ffff909216919091178155600191820154910155600d805480610b9657610b96612f3d565b6000828152602080822060026000199490940193840201805461ffff1916815560010191909155915581518282015160405190815261ffff9091169184917f31c7ae07732186951f28c3aa4b019b67ff0b121028ec0baa0127467a57d3d340910160405180910390a35050565b610c0d3382611c67565b610c295760405162461bcd60e51b81526004016109e390612f53565b610a84838383611ce6565b6000818152600e6020908152604091829020825160a08101845281548152600182015492810192909252600281015461ffff16928201929092526003820154606082015260049091015460ff16151560808201523390610c938361120d565b6001600160a01b0316826001600160a01b031614610d0b5760405162461bcd60e51b815260206004820152602f60248201527f6f6e6c7920746865206f776e6572206f6620746865207374616b656420746f6b60448201526e656e732063616e20756e7374616b6560881b60648201526084016109e3565b60608101518151600091610d1e91612e99565b421090508015610e3d578160800151610d925760405162461bcd60e51b815260206004820152603060248201527f5468697320706f736974696f6e206973206e6f7420656c696769626c6520666f60448201526f72206561726c7920776974686472617760801b60648201526084016109e3565b600b54600c5460208401516001600160a01b03928316926323b872dd9216908690610dbf90600290612ed9565b6040516001600160e01b031960e086901b1681526001600160a01b03938416600482015292909116602483015260448201526064016020604051808303816000875af1158015610e13573d6000803e3d6000fd5b505050506040513d601f19601f82011682018060405250810190610e379190612fa1565b50610ef4565b6000610e4885610779565b600b54600c5460208601519293506001600160a01b03918216926323b872dd92909116908790610e79908690612e99565b6040516001600160e01b031960e086901b1681526001600160a01b03938416600482015292909116602483015260448201526064016020604051808303816000875af1158015610ecd573d6000803e3d6000fd5b505050506040513d601f19601f82011682018060405250810190610ef19190612fa1565b50505b610efd84611e93565b60405184906001600160a01b038516907ff74a79d13d6fdbdf26b2c779e6a24490a43e65d60cc7e064740f8d40b2b5ea2c90600090a350505050565b6000610f44836112b1565b8210610fa65760405162461bcd60e51b815260206004820152602b60248201527f455243373231456e756d657261626c653a206f776e657220696e646578206f7560448201526a74206f6620626f756e647360a81b60648201526084016109e3565b506001600160a01b03919091166000908152600660209081526040808320938352929052205490565b610a8483838360405180602001604052806000815250611535565b6000828152600f602052604090205460ff161561103b5760405162461bcd60e51b815260206004820152600f60248201526e189b1858dadb1a5cdd195908139195608a1b60448201526064016109e3565b6000828152600e6020908152604091829020825160a0810184528154808252600183015493820193909352600282015461ffff169381019390935260038101546060840181905260049091015460ff161515608084015261109b91612e99565b42116110e95760405162461bcd60e51b815260206004820152601b60248201527f506f736974696f6e206973206e6f74206174206d61747572697479000000000060448201526064016109e3565b60006110f484610779565b90506110ff84611e93565b61111d858284602001516111139190612e99565b856000600161195a565b5050505050565b600061112f60085490565b82106111925760405162461bcd60e51b815260206004820152602c60248201527f455243373231456e756d657261626c653a20676c6f62616c20696e646578206f60448201526b7574206f6620626f756e647360a01b60648201526084016109e3565b600882815481106111a5576111a5612f27565b90600052602060002001549050919050565b6111bf61180e565b60116111cb828261300c565b50806040516111da91906130cc565b604051908190038120907f199e933997358e1789d8b56ea8c551befeb05ce2fe3fe506199f1230f5a591b490600090a250565b6000818152600260205260408120546001600160a01b0316806107735760405162461bcd60e51b8152602060048201526018602482015277115490cdcc8c4e881a5b9d985b1a59081d1bdad95b88125160421b60448201526064016109e3565b60005b81518110156112ad5761129b82828151811061128e5761128e612f27565b6020026020010151610c34565b806112a5816130e8565b915050611270565b5050565b60006001600160a01b03821661131b5760405162461bcd60e51b815260206004820152602960248201527f4552433732313a2061646472657373207a65726f206973206e6f7420612076616044820152683634b21037bbb732b960b91b60648201526084016109e3565b506001600160a01b031660009081526003602052604090205490565b61133f61180e565b6113496000611f42565b565b600061135660105490565b905090565b6000818152600260205260408120546001600160a01b03161515610773565b60606001805461086d90612eed565b61139161180e565b6040516370a0823160e01b81523060048201526001600160a01b0383169063a9059cbb90839083906370a0823190602401602060405180830381865afa1580156113df573d6000803e3d6000fd5b505050506040513d601f19601f820116820180604052508101906114039190613101565b6040516001600160e01b031960e085901b1681526001600160a01b03909216600483015260248201526044016020604051808303816000875af115801561144e573d6000803e3d6000fd5b505050506040513d601f19601f82011682018060405250810190610a849190612fa1565b6060600d805480602002602001604051908101604052809291908181526020016000905b828210156114d95760008481526020908190206040805180820190915260028502909101805461ffff168252600190810154828401529083529092019101611496565b50505050905090565b6112ad338383611f94565b60005b825181101561152f5761151d8484838151811061150f5761150f612f27565b602002602001015184610fea565b80611527816130e8565b9150506114f0565b50505050565b61153f3383611c67565b61155b5760405162461bcd60e51b81526004016109e390612f53565b61152f84848484612062565b6000818152600260205260409020546060906001600160a01b03166115c55760405162461bcd60e51b81526020600482015260146024820152731d1bdad95b88191bd95cc81b9bdd08195e1a5cdd60621b60448201526064016109e3565b6115cd612095565b6115d6836120a4565b6040516020016115e792919061311a565b6040516020818303038152906040529050919050565b6060611607612095565b6040516020016116179190613159565b604051602081830303815290604052905090565b61163361180e565b6000600d848154811061164857611648612f27565b60009182526020918290206040805180820182526002909302909101805461ffff908116845260019091015483850152815180830190925286168152918201849052600d805491935090869081106116a2576116a2612f27565b6000918252602091829020835160029290920201805461ffff191661ffff9283161781559282015160019093019290925582518382015160408051918252878516938201939093529182018590529091169085907f1d66929984041b98ee2942b02ecb1a94419d54cf725b2fff115bb7a6039a96c69060600160405180910390a350505050565b61173161180e565b6001600160a01b0381166117965760405162461bcd60e51b815260206004820152602660248201527f4f776e61626c653a206e6577206f776e657220697320746865207a65726f206160448201526564647265737360d01b60648201526084016109e3565b61179f81611f42565b50565b6001600160a01b03811660009081526012602090815260409182902080548351818402810184019094528084526060939283018282801561180257602002820191906000526020600020905b8154815260200190600101908083116117ee575b50505050509050919050565b600a546001600160a01b031633146113495760405162461bcd60e51b815260206004820181905260248201527f4f776e61626c653a2063616c6c6572206973206e6f7420746865206f776e657260448201526064016109e3565b60006001600160e01b0319821663780e9d6360e01b14806107735750610773826121a5565b6000818152600260205260409020546001600160a01b031661179f5760405162461bcd60e51b8152602060048201526018602482015277115490cdcc8c4e881a5b9d985b1a59081d1bdad95b88125160421b60448201526064016109e3565b600081815260046020526040902080546001600160a01b0319166001600160a01b03841690811790915581906119218261120d565b6001600160a01b03167f8c5be1e5ebec7d5bd14f71427d1e84f3dd0314c0f7b2291e5b200ac8c7c3b92560405160405180910390a45050565b600d5483106119a15760405162461bcd60e51b815260206004820152601360248201527234b73b30b634b2103637b1b59037b83a34b7b760691b60448201526064016109e3565b83156119ad5783611a1b565b600b546040516370a0823160e01b81526001600160a01b038781166004830152909116906370a0823190602401602060405180830381865afa1580156119f7573d6000803e3d6000fd5b505050506040513d601f19601f82011682018060405250810190611a1b9190613101565b935060008411611a845760405162461bcd60e51b815260206004820152602e60248201527f6d757374207374616b6520616e64206265206561726e696e67206174206c656160448201526d737420736f6d6520746f6b656e7360901b60648201526084016109e3565b8115611afb57600c54600b54604051638340f54960e01b81526001600160a01b038881166004830152918216602482015260448101879052911690638340f54990606401600060405180830381600087803b158015611ae257600080fd5b505af1158015611af6573d6000803e3d6000fd5b505050505b611b09601080546001019055565b6040518060a00160405280428152602001858152602001600d8581548110611b3357611b33612f27565b60009182526020918290206002909102015461ffff168252600d8054929091019186908110611b6457611b64612f27565b9060005260206000209060020201600101548152602001821515815250600e6000611b8e60105490565b815260208082019290925260409081016000208351815591830151600183015582015160028201805461ffff191661ffff909216919091179055606082015160038201556080909101516004909101805460ff1916911515919091179055601054611bfa9086906121f5565b4260146000611c0860105490565b815260208101919091526040016000205560105460408051868152602081018690526001600160a01b038816917f7cc860bef2fa56b3d46227731e60b3b6ce0af9627bfdfbeca273f9ea5dae8a18910160405180910390a35050505050565b600080611c738361120d565b9050806001600160a01b0316846001600160a01b03161480611cba57506001600160a01b0380821660009081526005602090815260408083209388168352929052205460ff165b80611cde5750836001600160a01b0316611cd3846108f0565b6001600160a01b0316145b949350505050565b826001600160a01b0316611cf98261120d565b6001600160a01b031614611d5d5760405162461bcd60e51b815260206004820152602560248201527f4552433732313a207472616e736665722066726f6d20696e636f72726563742060448201526437bbb732b960d91b60648201526084016109e3565b6001600160a01b038216611dbf5760405162461bcd60e51b8152602060048201526024808201527f4552433732313a207472616e7366657220746f20746865207a65726f206164646044820152637265737360e01b60648201526084016109e3565b611dca83838361220f565b611dd56000826118ec565b6001600160a01b0383166000908152600360205260408120805460019290611dfe908490612e86565b90915550506001600160a01b0382166000908152600360205260408120805460019290611e2c908490612e99565b909155505060008181526002602052604080822080546001600160a01b0319166001600160a01b0386811691821790925591518493918716917fddf252ad1be2c89b69c2b068fc378daa952ba7f163c4a11628f55a4df523b3ef91a4610a8483838361227c565b6000611e9e8261120d565b9050611eac8160008461220f565b611eb76000836118ec565b6001600160a01b0381166000908152600360205260408120805460019290611ee0908490612e86565b909155505060008281526002602052604080822080546001600160a01b0319169055518391906001600160a01b038416907fddf252ad1be2c89b69c2b068fc378daa952ba7f163c4a11628f55a4df523b3ef908390a46112ad8160008461227c565b600a80546001600160a01b038381166001600160a01b0319831681179093556040519116919082907f8be0079c531659141344cd1fd0a4f28419497f9722a3daafe3b4186f6b6457e090600090a35050565b816001600160a01b0316836001600160a01b031603611ff55760405162461bcd60e51b815260206004820152601960248201527f4552433732313a20617070726f766520746f2063616c6c65720000000000000060448201526064016109e3565b6001600160a01b03838116600081815260056020908152604080832094871680845294825291829020805460ff191686151590811790915591519182527f17307eab39ab6107e8899845ad3d59bd9653f200f220920489ca2b5937696c31910160405180910390a3505050565b61206d848484611ce6565b61207984848484612405565b61152f5760405162461bcd60e51b81526004016109e39061318a565b60606011805461086d90612eed565b6060816000036120cb5750506040805180820190915260018152600360fc1b602082015290565b8160005b81156120f557806120df816130e8565b91506120ee9050600a83612ed9565b91506120cf565b60008167ffffffffffffffff81111561211057612110612ab5565b6040519080825280601f01601f19166020018201604052801561213a576020820181803683370190505b5090505b8415611cde5761214f600183612e86565b915061215c600a866131dc565b612167906030612e99565b60f81b81838151811061217c5761217c612f27565b60200101906001600160f81b031916908160001a90535061219e600a86612ed9565b945061213e565b60006001600160e01b031982166380ac58cd60e01b14806121d657506001600160e01b03198216635b5e139f60e01b145b8061077357506301ffc9a760e01b6001600160e01b0319831614610773565b6112ad828260405180602001604052806000815250612506565b6000818152600f602052604090205460ff16156122605760405162461bcd60e51b815260206004820152600f60248201526e189b1858dadb1a5cdd195908139195608a1b60448201526064016109e3565b6000818152601560205260409020429055610a84838383612539565b6001600160a01b038316156123b6576000818152601360209081526040808320546001600160a01b03871684526012909252822080549192916122c190600190612e86565b815481106122d1576122d1612f27565b60009182526020808320909101546001600160a01b03881683526012909152604090912080549192509061230790600190612e86565b8154811061231757612317612f27565b906000526020600020015460126000876001600160a01b03166001600160a01b03168152602001908152602001600020838154811061235857612358612f27565b60009182526020808320909101929092556001600160a01b038716815260129091526040902080548061238d5761238d612f3d565b600082815260208082208301600019908101839055909201909255918152601390915260409020555b6001600160a01b03821615610a84576001600160a01b03919091166000908152601260208181526040808420805486865260138452918520829055928252600181018355918352909120015550565b60006001600160a01b0384163b156124fb57604051630a85bd0160e11b81526001600160a01b0385169063150b7a02906124499033908990889088906004016131f0565b6020604051808303816000875af1925050508015612484575060408051601f3d908101601f191682019092526124819181019061322d565b60015b6124e1573d8080156124b2576040519150601f19603f3d011682016040523d82523d6000602084013e6124b7565b606091505b5080516000036124d95760405162461bcd60e51b81526004016109e39061318a565b805181602001fd5b6001600160e01b031916630a85bd0160e11b149050611cde565b506001949350505050565b61251083836125f1565b61251d6000848484612405565b610a845760405162461bcd60e51b81526004016109e39061318a565b6001600160a01b0383166125945761258f81600880546000838152600960205260408120829055600182018355919091527ff3f7a9fe364faab93b216da50a3214154f22a0a2b415b23a84c8169e8b636ee30155565b6125b7565b816001600160a01b0316836001600160a01b0316146125b7576125b78382612747565b6001600160a01b0382166125ce57610a84816127e4565b826001600160a01b0316826001600160a01b031614610a8457610a848282612893565b6001600160a01b0382166126475760405162461bcd60e51b815260206004820181905260248201527f4552433732313a206d696e7420746f20746865207a65726f206164647265737360448201526064016109e3565b6000818152600260205260409020546001600160a01b0316156126ac5760405162461bcd60e51b815260206004820152601c60248201527f4552433732313a20746f6b656e20616c7265616479206d696e7465640000000060448201526064016109e3565b6126b86000838361220f565b6001600160a01b03821660009081526003602052604081208054600192906126e1908490612e99565b909155505060008181526002602052604080822080546001600160a01b0319166001600160a01b03861690811790915590518392907fddf252ad1be2c89b69c2b068fc378daa952ba7f163c4a11628f55a4df523b3ef908290a46112ad6000838361227c565b60006001612754846112b1565b61275e9190612e86565b6000838152600760205260409020549091508082146127b1576001600160a01b03841660009081526006602090815260408083208584528252808320548484528184208190558352600790915290208190555b5060009182526007602090815260408084208490556001600160a01b039094168352600681528383209183525290812055565b6008546000906127f690600190612e86565b6000838152600960205260408120546008805493945090928490811061281e5761281e612f27565b90600052602060002001549050806008838154811061283f5761283f612f27565b600091825260208083209091019290925582815260099091526040808220849055858252812055600880548061287757612877612f3d565b6001900381819060005260206000200160009055905550505050565b600061289e836112b1565b6001600160a01b039093166000908152600660209081526040808320868452825280832085905593825260079052919091209190915550565b803561ffff811681146128e957600080fd5b919050565b6000806040838503121561290157600080fd5b61290a836128d7565b946020939093013593505050565b6001600160e01b03198116811461179f57600080fd5b60006020828403121561294057600080fd5b813561294b81612918565b9392505050565b60006020828403121561296457600080fd5b5035919050565b60005b8381101561298657818101518382015260200161296e565b50506000910152565b600081518084526129a781602086016020860161296b565b601f01601f19169290920160200192915050565b60208152600061294b602083018461298f565b801515811461179f57600080fd5b600080604083850312156129ef57600080fd5b823591506020830135612a01816129ce565b809150509250929050565b6001600160a01b038116811461179f57600080fd5b60008060408385031215612a3457600080fd5b823561290a81612a0c565b600080600060608486031215612a5457600080fd5b8335612a5f81612a0c565b95602085013595506040909401359392505050565b600080600060608486031215612a8957600080fd5b8335612a9481612a0c565b92506020840135612aa481612a0c565b929592945050506040919091013590565b634e487b7160e01b600052604160045260246000fd5b604051601f8201601f1916810167ffffffffffffffff81118282101715612af457612af4612ab5565b604052919050565b600067ffffffffffffffff831115612b1657612b16612ab5565b612b29601f8401601f1916602001612acb565b9050828152838383011115612b3d57600080fd5b828260208301376000602084830101529392505050565b600060208284031215612b6657600080fd5b813567ffffffffffffffff811115612b7d57600080fd5b8201601f81018413612b8e57600080fd5b611cde84823560208401612afc565b600082601f830112612bae57600080fd5b8135602067ffffffffffffffff821115612bca57612bca612ab5565b8160051b612bd9828201612acb565b9283528481018201928281019087851115612bf357600080fd5b83870192505b84831015612c1257823582529183019190830190612bf9565b979650505050505050565b600060208284031215612c2f57600080fd5b813567ffffffffffffffff811115612c4657600080fd5b611cde84828501612b9d565b600060208284031215612c6457600080fd5b813561294b81612a0c565b60008060408385031215612c8257600080fd5b8235612c8d81612a0c565b91506020830135612a0181612a0c565b602080825282518282018190526000919060409081850190868401855b82811015612ce3578151805161ffff168552860151868501529284019290850190600101612cba565b5091979650505050505050565b60008060408385031215612d0357600080fd5b8235612d0e81612a0c565b91506020830135612a01816129ce565b600080600060608486031215612d3357600080fd5b8335612d3e81612a0c565b9250602084013567ffffffffffffffff811115612d5a57600080fd5b612d6686828701612b9d565b925050604084013590509250925092565b60008060008060808587031215612d8d57600080fd5b8435612d9881612a0c565b93506020850135612da881612a0c565b925060408501359150606085013567ffffffffffffffff811115612dcb57600080fd5b8501601f81018713612ddc57600080fd5b612deb87823560208401612afc565b91505092959194509250565b600080600060608486031215612e0c57600080fd5b83359250612e1c602085016128d7565b9150604084013590509250925092565b6020808252825182820181905260009190848201906040850190845b81811015612e6457835183529284019291840191600101612e48565b50909695505050505050565b634e487b7160e01b600052601160045260246000fd5b8181038181111561077357610773612e70565b8082018082111561077357610773612e70565b808202811582820484141761077357610773612e70565b634e487b7160e01b600052601260045260246000fd5b600082612ee857612ee8612ec3565b500490565b600181811c90821680612f0157607f821691505b602082108103612f2157634e487b7160e01b600052602260045260246000fd5b50919050565b634e487b7160e01b600052603260045260246000fd5b634e487b7160e01b600052603160045260246000fd5b6020808252602e908201527f4552433732313a2063616c6c6572206973206e6f7420746f6b656e206f776e6560408201526d1c881b9bdc88185c1c1c9bdd995960921b606082015260800190565b600060208284031215612fb357600080fd5b815161294b816129ce565b601f821115610a8457600081815260208120601f850160051c81016020861015612fe55750805b601f850160051c820191505b8181101561300457828155600101612ff1565b505050505050565b815167ffffffffffffffff81111561302657613026612ab5565b61303a816130348454612eed565b84612fbe565b602080601f83116001811461306f57600084156130575750858301515b600019600386901b1c1916600185901b178555613004565b600085815260208120601f198616915b8281101561309e5788860151825594840194600190910190840161307f565b50858210156130bc5787850151600019600388901b60f8161c191681555b5050505050600190811b01905550565b600082516130de81846020870161296b565b9190910192915050565b6000600182016130fa576130fa612e70565b5060010190565b60006020828403121561311357600080fd5b5051919050565b6000835161312c81846020880161296b565b83519083019061314081836020880161296b565b64173539b7b760d91b9101908152600501949350505050565b6000825161316b81846020870161296b565b6c31b7b73a3930b1ba173539b7b760991b920191825250600d01919050565b60208082526032908201527f4552433732313a207472616e7366657220746f206e6f6e20455243373231526560408201527131b2b4bb32b91034b6b83632b6b2b73a32b960711b606082015260800190565b6000826131eb576131eb612ec3565b500690565b6001600160a01b03858116825284166020820152604081018390526080606082018190526000906132239083018461298f565b9695505050505050565b60006020828403121561323f57600080fd5b815161294b8161291856fea2646970667358221220f4d0869f920bfc61a0965ad3f303005dc778443e81bec15e15f22e7d5c20646064736f6c63430008110033d7b6990105719101dabeb77144f2a3385c8033acd3af97e9423a695e81ad1eb5d7b6990105719101dabeb77144f2a3385c8033acd3af97e9423a695e81ad1eb6",
  "devdoc": {
    "kind": "dev",
    "methods": {
      "approve(address,uint256)": {
        "details": "See {IERC721-approve}."
      },
      "balanceOf(address)": {
        "details": "See {IERC721-balanceOf}."
      },
      "getApproved(uint256)": {
        "details": "See {IERC721-getApproved}."
      },
      "isApprovedForAll(address,address)": {
        "details": "See {IERC721-isApprovedForAll}."
      },
      "name()": {
        "details": "See {IERC721Metadata-name}."
      },
      "owner()": {
        "details": "Returns the address of the current owner."
      },
      "ownerOf(uint256)": {
        "details": "See {IERC721-ownerOf}."
      },
      "renounceOwnership()": {
        "details": "Leaves the contract without owner. It will not be possible to call `onlyOwner` functions anymore. Can only be called by the current owner. NOTE: Renouncing ownership will leave the contract without an owner, thereby removing any functionality that is only available to the owner."
      },
      "safeTransferFrom(address,address,uint256)": {
        "details": "See {IERC721-safeTransferFrom}."
      },
      "safeTransferFrom(address,address,uint256,bytes)": {
        "details": "See {IERC721-safeTransferFrom}."
      },
      "setApprovalForAll(address,bool)": {
        "details": "See {IERC721-setApprovalForAll}."
      },
      "symbol()": {
        "details": "See {IERC721Metadata-symbol}."
      },
      "tokenByIndex(uint256)": {
        "details": "See {IERC721Enumerable-tokenByIndex}."
      },
      "tokenOfOwnerByIndex(address,uint256)": {
        "details": "See {IERC721Enumerable-tokenOfOwnerByIndex}."
      },
      "totalSupply()": {
        "details": "See {IERC721Enumerable-totalSupply}."
      },
      "transferFrom(address,address,uint256)": {
        "details": "See {IERC721-transferFrom}."
      },
      "transferOwnership(address)": {
        "details": "Transfers ownership of the contract to a new account (`newOwner`). Can only be called by the current owner."
      }
    },
    "version": 1
  },
  "userdoc": {
    "kind": "user",
    "methods": {},
    "version": 1
  },
  "storageLayout": {
    "storage": [
      {
        "astId": 870,
        "contract": "contracts/sBTC.sol:sBTC",
        "label": "_name",
        "offset": 0,
        "slot": "0",
        "type": "t_string_storage"
      },
      {
        "astId": 872,
        "contract": "contracts/sBTC.sol:sBTC",
        "label": "_symbol",
        "offset": 0,
        "slot": "1",
        "type": "t_string_storage"
      },
      {
        "astId": 876,
        "contract": "contracts/sBTC.sol:sBTC",
        "label": "_owners",
        "offset": 0,
        "slot": "2",
        "type": "t_mapping(t_uint256,t_address)"
      },
      {
        "astId": 880,
        "contract": "contracts/sBTC.sol:sBTC",
        "label": "_balances",
        "offset": 0,
        "slot": "3",
        "type": "t_mapping(t_address,t_uint256)"
      },
      {
        "astId": 884,
        "contract": "contracts/sBTC.sol:sBTC",
        "label": "_tokenApprovals",
        "offset": 0,
        "slot": "4",
        "type": "t_mapping(t_uint256,t_address)"
      },
      {
        "astId": 890,
        "contract": "contracts/sBTC.sol:sBTC",
        "label": "_operatorApprovals",
        "offset": 0,
        "slot": "5",
        "type": "t_mapping(t_address,t_mapping(t_address,t_bool))"
      },
      {
        "astId": 1860,
        "contract": "contracts/sBTC.sol:sBTC",
        "label": "_ownedTokens",
        "offset": 0,
        "slot": "6",
        "type": "t_mapping(t_address,t_mapping(t_uint256,t_uint256))"
      },
      {
        "astId": 1864,
        "contract": "contracts/sBTC.sol:sBTC",
        "label": "_ownedTokensIndex",
        "offset": 0,
        "slot": "7",
        "type": "t_mapping(t_uint256,t_uint256)"
      },
      {
        "astId": 1867,
        "contract": "contracts/sBTC.sol:sBTC",
        "label": "_allTokens",
        "offset": 0,
        "slot": "8",
        "type": "t_array(t_uint256)dyn_storage"
      },
      {
        "astId": 1871,
        "contract": "contracts/sBTC.sol:sBTC",
        "label": "_allTokensIndex",
        "offset": 0,
        "slot": "9",
        "type": "t_mapping(t_uint256,t_uint256)"
      },
      {
        "astId": 7,
        "contract": "contracts/sBTC.sol:sBTC",
        "label": "_owner",
        "offset": 0,
        "slot": "10",
        "type": "t_address"
      },
      {
        "astId": 2925,
        "contract": "contracts/sBTC.sol:sBTC",
        "label": "stakeToken",
        "offset": 0,
        "slot": "11",
        "type": "t_contract(IERC20)819"
      },
      {
        "astId": 2928,
        "contract": "contracts/sBTC.sol:sBTC",
        "label": "stakeVault",
        "offset": 0,
        "slot": "12",
        "type": "t_contract(IStakeVault)4143"
      },
      {
        "astId": 2937,
        "contract": "contracts/sBTC.sol:sBTC",
        "label": "_aprLockOptions",
        "offset": 0,
        "slot": "13",
        "type": "t_array(t_struct(AprLock)2933_storage)dyn_storage"
      },
      {
        "astId": 2953,
        "contract": "contracts/sBTC.sol:sBTC",
        "label": "stakes",
        "offset": 0,
        "slot": "14",
        "type": "t_mapping(t_uint256,t_struct(Stake)2948_storage)"
      },
      {
        "astId": 2957,
        "contract": "contracts/sBTC.sol:sBTC",
        "label": "isBlacklisted",
        "offset": 0,
        "slot": "15",
        "type": "t_mapping(t_uint256,t_bool)"
      },
      {
        "astId": 2960,
        "contract": "contracts/sBTC.sol:sBTC",
        "label": "_ids",
        "offset": 0,
        "slot": "16",
        "type": "t_struct(Counter)2564_storage"
      },
      {
        "astId": 2962,
        "contract": "contracts/sBTC.sol:sBTC",
        "label": "baseTokenURI",
        "offset": 0,
        "slot": "17",
        "type": "t_string_storage"
      },
      {
        "astId": 2967,
        "contract": "contracts/sBTC.sol:sBTC",
        "label": "allUserOwned",
        "offset": 0,
        "slot": "18",
        "type": "t_mapping(t_address,t_array(t_uint256)dyn_storage)"
      },
      {
        "astId": 2971,
        "contract": "contracts/sBTC.sol:sBTC",
        "label": "ownedIndex",
        "offset": 0,
        "slot": "19",
        "type": "t_mapping(t_uint256,t_uint256)"
      },
      {
        "astId": 2975,
        "contract": "contracts/sBTC.sol:sBTC",
        "label": "tokenMintedAt",
        "offset": 0,
        "slot": "20",
        "type": "t_mapping(t_uint256,t_uint256)"
      },
      {
        "astId": 2979,
        "contract": "contracts/sBTC.sol:sBTC",
        "label": "tokenLastTransferred",
        "offset": 0,
        "slot": "21",
        "type": "t_mapping(t_uint256,t_uint256)"
      }
    ],
    "types": {
      "t_address": {
        "encoding": "inplace",
        "label": "address",
        "numberOfBytes": "20"
      },
      "t_array(t_struct(AprLock)2933_storage)dyn_storage": {
        "base": "t_struct(AprLock)2933_storage",
        "encoding": "dynamic_array",
        "label": "struct StakingPositions.AprLock[]",
        "numberOfBytes": "32"
      },
      "t_array(t_uint256)dyn_storage": {
        "base": "t_uint256",
        "encoding": "dynamic_array",
        "label": "uint256[]",
        "numberOfBytes": "32"
      },
      "t_bool": {
        "encoding": "inplace",
        "label": "bool",
        "numberOfBytes": "1"
      },
      "t_contract(IERC20)819": {
        "encoding": "inplace",
        "label": "contract IERC20",
        "numberOfBytes": "20"
      },
      "t_contract(IStakeVault)4143": {
        "encoding": "inplace",
        "label": "contract IStakeVault",
        "numberOfBytes": "20"
      },
      "t_mapping(t_address,t_array(t_uint256)dyn_storage)": {
        "encoding": "mapping",
        "key": "t_address",
        "label": "mapping(address => uint256[])",
        "numberOfBytes": "32",
        "value": "t_array(t_uint256)dyn_storage"
      },
      "t_mapping(t_address,t_bool)": {
        "encoding": "mapping",
        "key": "t_address",
        "label": "mapping(address => bool)",
        "numberOfBytes": "32",
        "value": "t_bool"
      },
      "t_mapping(t_address,t_mapping(t_address,t_bool))": {
        "encoding": "mapping",
        "key": "t_address",
        "label": "mapping(address => mapping(address => bool))",
        "numberOfBytes": "32",
        "value": "t_mapping(t_address,t_bool)"
      },
      "t_mapping(t_address,t_mapping(t_uint256,t_uint256))": {
        "encoding": "mapping",
        "key": "t_address",
        "label": "mapping(address => mapping(uint256 => uint256))",
        "numberOfBytes": "32",
        "value": "t_mapping(t_uint256,t_uint256)"
      },
      "t_mapping(t_address,t_uint256)": {
        "encoding": "mapping",
        "key": "t_address",
        "label": "mapping(address => uint256)",
        "numberOfBytes": "32",
        "value": "t_uint256"
      },
      "t_mapping(t_uint256,t_address)": {
        "encoding": "mapping",
        "key": "t_uint256",
        "label": "mapping(uint256 => address)",
        "numberOfBytes": "32",
        "value": "t_address"
      },
      "t_mapping(t_uint256,t_bool)": {
        "encoding": "mapping",
        "key": "t_uint256",
        "label": "mapping(uint256 => bool)",
        "numberOfBytes": "32",
        "value": "t_bool"
      },
      "t_mapping(t_uint256,t_struct(Stake)2948_storage)": {
        "encoding": "mapping",
        "key": "t_uint256",
        "label": "mapping(uint256 => struct StakingPositions.Stake)",
        "numberOfBytes": "32",
        "value": "t_struct(Stake)2948_storage"
      },
      "t_mapping(t_uint256,t_uint256)": {
        "encoding": "mapping",
        "key": "t_uint256",
        "label": "mapping(uint256 => uint256)",
        "numberOfBytes": "32",
        "value": "t_uint256"
      },
      "t_string_storage": {
        "encoding": "bytes",
        "label": "string",
        "numberOfBytes": "32"
      },
      "t_struct(AprLock)2933_storage": {
        "encoding": "inplace",
        "label": "struct StakingPositions.AprLock",
        "members": [
          {
            "astId": 2930,
            "contract": "contracts/sBTC.sol:sBTC",
            "label": "apr",
            "offset": 0,
            "slot": "0",
            "type": "t_uint16"
          },
          {
            "astId": 2932,
            "contract": "contracts/sBTC.sol:sBTC",
            "label": "lockTime",
            "offset": 0,
            "slot": "1",
            "type": "t_uint256"
          }
        ],
        "numberOfBytes": "64"
      },
      "t_struct(Counter)2564_storage": {
        "encoding": "inplace",
        "label": "struct Counters.Counter",
        "members": [
          {
            "astId": 2563,
            "contract": "contracts/sBTC.sol:sBTC",
            "label": "_value",
            "offset": 0,
            "slot": "0",
            "type": "t_uint256"
          }
        ],
        "numberOfBytes": "32"
      },
      "t_struct(Stake)2948_storage": {
        "encoding": "inplace",
        "label": "struct StakingPositions.Stake",
        "members": [
          {
            "astId": 2939,
            "contract": "contracts/sBTC.sol:sBTC",
            "label": "created",
            "offset": 0,
            "slot": "0",
            "type": "t_uint256"
          },
          {
            "astId": 2941,
            "contract": "contracts/sBTC.sol:sBTC",
            "label": "amountStaked",
            "offset": 0,
            "slot": "1",
            "type": "t_uint256"
          },
          {
            "astId": 2943,
            "contract": "contracts/sBTC.sol:sBTC",
            "label": "apr",
            "offset": 0,
            "slot": "2",
            "type": "t_uint16"
          },
          {
            "astId": 2945,
            "contract": "contracts/sBTC.sol:sBTC",
            "label": "lockTime",
            "offset": 0,
            "slot": "3",
            "type": "t_uint256"
          },
          {
            "astId": 2947,
            "contract": "contracts/sBTC.sol:sBTC",
            "label": "allowWithdrawEarly",
            "offset": 0,
            "slot": "4",
            "type": "t_bool"
          }
        ],
        "numberOfBytes": "160"
      },
      "t_uint16": {
        "encoding": "inplace",
        "label": "uint16",
        "numberOfBytes": "2"
      },
      "t_uint256": {
        "encoding": "inplace",
        "label": "uint256",
        "numberOfBytes": "32"
      }
    }
  }
}