{
  "address": "0xe26849E19D5c1a4466A9C18E553c6Ec9A547aF9e",
  "abi": [
    {
      "inputs": [
        {
          "internalType": "address",
          "name": "_devAddress",
          "type": "address"
        }
      ],
      "stateMutability": "nonpayable",
      "type": "constructor"
    },
    {
      "anonymous": false,
      "inputs": [
        {
          "indexed": true,
          "internalType": "uint16",
          "name": "apr",
          "type": "uint16"
        },
        {
          "indexed": false,
          "internalType": "uint256",
          "name": "lockTime",
          "type": "uint256"
        }
      ],
      "name": "AddDefaultAprLockOption",
      "type": "event"
    },
    {
      "anonymous": false,
      "inputs": [
        {
          "indexed": true,
          "internalType": "address",
          "name": "previousOwner",
          "type": "address"
        },
        {
          "indexed": true,
          "internalType": "address",
          "name": "newOwner",
          "type": "address"
        }
      ],
      "name": "OwnershipTransferred",
      "type": "event"
    },
    {
      "anonymous": false,
      "inputs": [
        {
          "indexed": true,
          "internalType": "uint256",
          "name": "index",
          "type": "uint256"
        },
        {
          "indexed": true,
          "internalType": "uint16",
          "name": "apr",
          "type": "uint16"
        },
        {
          "indexed": false,
          "internalType": "uint256",
          "name": "lockTime",
          "type": "uint256"
        }
      ],
      "name": "RemoveDefaultAprLockOption",
      "type": "event"
    },
    {
      "anonymous": false,
      "inputs": [
        {
          "indexed": true,
          "internalType": "uint256",
          "name": "_stakeId",
          "type": "uint256"
        },
        {
          "indexed": false,
          "internalType": "uint256",
          "name": "_capacity",
          "type": "uint256"
        },
        {
          "indexed": false,
          "internalType": "uint256",
          "name": "_endTime",
          "type": "uint256"
        },
        {
          "indexed": false,
          "internalType": "bool",
          "name": "_active",
          "type": "bool"
        }
      ],
      "name": "UpdateAssetMetadata",
      "type": "event"
    },
    {
      "anonymous": false,
      "inputs": [
        {
          "indexed": true,
          "internalType": "uint256",
          "name": "index",
          "type": "uint256"
        },
        {
          "indexed": true,
          "internalType": "uint16",
          "name": "oldApr",
          "type": "uint16"
        },
        {
          "indexed": false,
          "internalType": "uint256",
          "name": "oldLockTime",
          "type": "uint256"
        },
        {
          "indexed": false,
          "internalType": "uint16",
          "name": "newApr",
          "type": "uint16"
        },
        {
          "indexed": false,
          "internalType": "uint256",
          "name": "newLockTime",
          "type": "uint256"
        }
      ],
      "name": "UpdateDefaultAprLockOption",
      "type": "event"
    },
    {
      "inputs": [
        {
          "internalType": "address",
          "name": "_user",
          "type": "address"
        },
        {
          "internalType": "address",
          "name": "_token",
          "type": "address"
        },
        {
          "internalType": "uint256",
          "name": "_amount",
          "type": "uint256"
        },
        {
          "internalType": "uint256",
          "name": "_yieldAtMaturity",
          "type": "uint256"
        }
      ],
      "name": "_deposit",
      "outputs": [],
      "stateMutability": "nonpayable",
      "type": "function"
    },
    {
      "inputs": [
        {
          "internalType": "address",
          "name": "_user",
          "type": "address"
        },
        {
          "internalType": "address",
          "name": "_token",
          "type": "address"
        },
        {
          "internalType": "uint256",
          "name": "_amount",
          "type": "uint256"
        }
      ],
      "name": "_withdraw",
      "outputs": [],
      "stateMutability": "nonpayable",
      "type": "function"
    },
    {
      "inputs": [
        {
          "internalType": "uint16",
          "name": "_apr",
          "type": "uint16"
        },
        {
          "internalType": "uint256",
          "name": "_lockTime",
          "type": "uint256"
        }
      ],
      "name": "defaultsAddAprLockOption",
      "outputs": [],
      "stateMutability": "nonpayable",
      "type": "function"
    },
    {
      "inputs": [],
      "name": "defaultsGetAllLockOptions",
      "outputs": [
        {
          "components": [
            {
              "internalType": "uint16",
              "name": "apr",
              "type": "uint16"
            },
            {
              "internalType": "uint256",
              "name": "lockTime",
              "type": "uint256"
            }
          ],
          "internalType": "struct StakeVault.AprLockDefaults[]",
          "name": "",
          "type": "tuple[]"
        }
      ],
      "stateMutability": "view",
      "type": "function"
    },
    {
      "inputs": [
        {
          "internalType": "uint256",
          "name": "_index",
          "type": "uint256"
        }
      ],
      "name": "defaultsRemoveAprLockOption",
      "outputs": [],
      "stateMutability": "nonpayable",
      "type": "function"
    },
    {
      "inputs": [
        {
          "internalType": "uint256",
          "name": "_index",
          "type": "uint256"
        },
        {
          "internalType": "uint16",
          "name": "_apr",
          "type": "uint16"
        },
        {
          "internalType": "uint256",
          "name": "_lockTime",
          "type": "uint256"
        }
      ],
      "name": "defaultsUpdateAprLockOption",
      "outputs": [],
      "stateMutability": "nonpayable",
      "type": "function"
    },
    {
      "inputs": [
        {
          "internalType": "string",
          "name": "_name",
          "type": "string"
        },
        {
          "internalType": "string",
          "name": "_symbol",
          "type": "string"
        },
        {
          "internalType": "address",
          "name": "_stakeToken",
          "type": "address"
        },
        {
          "internalType": "string",
          "name": "_baseTokenURI",
          "type": "string"
        },
        {
          "internalType": "uint256",
          "name": "_capacity",
          "type": "uint256"
        },
        {
          "internalType": "uint256",
          "name": "_endTime",
          "type": "uint256"
        },
        {
          "internalType": "bool",
          "name": "useDefaultLocks",
          "type": "bool"
        }
      ],
      "name": "deployStake",
      "outputs": [],
      "stateMutability": "nonpayable",
      "type": "function"
    },
    {
      "inputs": [
        {
          "internalType": "contract ERC20",
          "name": "_token",
          "type": "address"
        },
        {
          "internalType": "address",
          "name": "_to",
          "type": "address"
        }
      ],
      "name": "governanceRecoverUnsupported",
      "outputs": [],
      "stateMutability": "nonpayable",
      "type": "function"
    },
    {
      "inputs": [],
      "name": "owner",
      "outputs": [
        {
          "internalType": "address",
          "name": "",
          "type": "address"
        }
      ],
      "stateMutability": "view",
      "type": "function"
    },
    {
      "inputs": [
        {
          "internalType": "address",
          "name": "",
          "type": "address"
        }
      ],
      "name": "positionForAsset",
      "outputs": [
        {
          "internalType": "address",
          "name": "",
          "type": "address"
        }
      ],
      "stateMutability": "view",
      "type": "function"
    },
    {
      "inputs": [],
      "name": "renounceOwnership",
      "outputs": [],
      "stateMutability": "nonpayable",
      "type": "function"
    },
    {
      "inputs": [
        {
          "internalType": "uint256",
          "name": "",
          "type": "uint256"
        }
      ],
      "name": "stakeAssets",
      "outputs": [
        {
          "internalType": "address",
          "name": "stakeToken",
          "type": "address"
        },
        {
          "internalType": "address",
          "name": "positionToken",
          "type": "address"
        },
        {
          "internalType": "uint256",
          "name": "created",
          "type": "uint256"
        },
        {
          "internalType": "uint256",
          "name": "capacity",
          "type": "uint256"
        },
        {
          "internalType": "uint256",
          "name": "stakedAmount",
          "type": "uint256"
        },
        {
          "internalType": "uint256",
          "name": "yieldAtMaturity",
          "type": "uint256"
        },
        {
          "internalType": "uint256",
          "name": "endTime",
          "type": "uint256"
        },
        {
          "internalType": "bool",
          "name": "active",
          "type": "bool"
        }
      ],
      "stateMutability": "view",
      "type": "function"
    },
    {
      "inputs": [
        {
          "internalType": "address",
          "name": "",
          "type": "address"
        }
      ],
      "name": "stakePositionId",
      "outputs": [
        {
          "internalType": "uint256",
          "name": "",
          "type": "uint256"
        }
      ],
      "stateMutability": "view",
      "type": "function"
    },
    {
      "inputs": [
        {
          "internalType": "address",
          "name": "newOwner",
          "type": "address"
        }
      ],
      "name": "transferOwnership",
      "outputs": [],
      "stateMutability": "nonpayable",
      "type": "function"
    },
    {
      "inputs": [
        {
          "internalType": "uint256",
          "name": "_stakeId",
          "type": "uint256"
        },
        {
          "internalType": "uint256",
          "name": "_capacity",
          "type": "uint256"
        },
        {
          "internalType": "uint256",
          "name": "_endTime",
          "type": "uint256"
        },
        {
          "internalType": "bool",
          "name": "_active",
          "type": "bool"
        }
      ],
      "name": "updateAsset",
      "outputs": [],
      "stateMutability": "nonpayable",
      "type": "function"
    }
  ],
  "transactionHash": "0x34c9eaf6713ad5833f76781c1576a154022858aa975655f3116bbc6ee2aba1f7",
  "args": [
    "0x0D8e060CA2D847553ec14394ee6B304623E0d1d6"
  ],
  "numDeployments": 1,
  "solcInputHash": "d6fead56f7481c9d1fbb76dd619ba097",
  "bytecode": "0x60806040523480156200001157600080fd5b506040516200596038038062005960833981016040819052620000349162000229565b600160005562000044336200009a565b6200005461232861012c620000ec565b62000064612328610e10620000ec565b620000766109c4630163f500620000ec565b62000088610bb86301da9c00620000ec565b62000093816200009a565b506200025b565b600180546001600160a01b038381166001600160a01b0319831681179093556040519116919082907f8be0079c531659141344cd1fd0a4f28419497f9722a3daafe3b4186f6b6457e090600090a35050565b620000f6620001c8565b6200018582826040805180820190915261ffff92831681526020810191825260028054600181018255600082905291517f405787fa12a823e0f2b7631cc41b3ba8828b3321ca811111fa75cd3aa3bb5ace92909102918201805461ffff19169190941617909255517f405787fa12a823e0f2b7631cc41b3ba8828b3321ca811111fa75cd3aa3bb5acf90910155565b8161ffff167f9a2686eca6c511a01418325c6bbaf5fa57878dc2ca52091f4295990c2ab9ece682604051620001bc91815260200190565b60405180910390a25050565b6001546001600160a01b03163314620002275760405162461bcd60e51b815260206004820181905260248201527f4f776e61626c653a2063616c6c6572206973206e6f7420746865206f776e6572604482015260640160405180910390fd5b565b6000602082840312156200023c57600080fd5b81516001600160a01b03811681146200025457600080fd5b9392505050565b6156f5806200026b6000396000f3fe60806040523480156200001157600080fd5b5060043610620001095760003560e01c80637d848db211620000a3578063c14cfe09116200006e578063c14cfe091462000279578063d769b6f81462000290578063f2fde38b14620002bc578063f744070314620002d357600080fd5b80637d848db2146200020e5780638da5cb5b146200022557806397d3b573146200024b578063b2d35f81146200026257600080fd5b806350d86ba711620000e457806350d86ba714620001765780635831991f146200018d578063687a5f5e14620001ed578063715018a6146200020457600080fd5b806302db2b7a146200010e5780630d6af89014620001445780631208333a146200015d575b600080fd5b620001316200011f36600462001272565b60056020526000908152604090205481565b6040519081526020015b60405180910390f35b6200014e620002ea565b6040516200013b919062001299565b620001746200016e366004620012ee565b6200035c565b005b6200017462000187366004620013ee565b62000452565b620001a46200019e366004620014c1565b620005c4565b604080516001600160a01b03998a168152989097166020890152958701949094526060860192909252608085015260a084015260c0830152151560e0820152610100016200013b565b62000174620001fe366004620014f3565b6200062a565b62000174620006fe565b620001746200021f36600462001520565b62000716565b6001546001600160a01b03165b6040516001600160a01b0390911681526020016200013b565b620001746200025c36600462001564565b62000824565b6200017462000273366004620015a2565b62000938565b620001746200028a366004620015da565b62000a3b565b62000232620002a136600462001272565b6004602052600090815260409020546001600160a01b031681565b62000174620002cd36600462001272565b62000ba8565b62000174620002e4366004620014c1565b62000c27565b60606002805480602002602001604051908101604052809291908181526020016000905b82821015620003535760008481526020908190206040805180820190915260028502909101805461ffff1682526001908101548284015290835290920191016200030e565b50505050905090565b620003673362000d76565b806200037d57506001546001600160a01b031633145b620003b85760405162461bcd60e51b815260206004820152600660248201526510b7bbb732b960d11b60448201526064015b60405180910390fd5b60405163a9059cbb60e01b81526001600160a01b0384811660048301526024820183905283169063a9059cbb906044016020604051808303816000875af115801562000408573d6000803e3d6000fd5b505050506040513d601f19601f820116820180604052508101906200042e919062001625565b6200044d5760405162461bcd60e51b8152600401620003af9062001645565b505050565b6200045c62000df1565b620004678562000e4d565b15620004d45760405162461bcd60e51b815260206004820152603560248201527f5374616b6520616c72656164792065786973747320666f7220746869732061736044820152741cd95d0b081c1b19585cd9481d5c19185d19481a5d605a1b6064820152608401620003af565b600087878730888888604051620004eb906200124e565b620004fd9796959493929190620016c4565b604051809103906000f0801580156200051a573d6000803e3d6000fd5b5090506200052b8682868662000ebb565b81156200053d576200053d8162001065565b806001600160a01b031663f2fde38b6200055f6001546001600160a01b031690565b6040516001600160e01b031960e084901b1681526001600160a01b039091166004820152602401600060405180830381600087803b158015620005a157600080fd5b505af1158015620005b6573d6000803e3d6000fd5b505050505050505050505050565b60038181548110620005d557600080fd5b6000918252602090912060089091020180546001820154600283015460038401546004850154600586015460068701546007909701546001600160a01b03968716985094909516959294919390929060ff1688565b6200063462000df1565b6040805180820190915261ffff80841682526020820183815260028054600181018255600082905293517f405787fa12a823e0f2b7631cc41b3ba8828b3321ca811111fa75cd3aa3bb5ace94909102938401805461ffff19169190931617909155517f405787fa12a823e0f2b7631cc41b3ba8828b3321ca811111fa75cd3aa3bb5acf909101558161ffff167f9a2686eca6c511a01418325c6bbaf5fa57878dc2ca52091f4295990c2ab9ece682604051620006f291815260200190565b60405180910390a25050565b6200070862000df1565b620007146000620011fc565b565b6200072062000df1565b60006003858154811062000738576200073862001731565b9060005260206000209060080201905060006003868154811062000760576200076062001731565b90600052602060002090600802016002015411620007b85760405162461bcd60e51b815260206004820152601460248201527314dd185ad948191bd95cc81b9bdd08195e1a5cdd60621b6044820152606401620003af565b600381018490556006810183905560078101805460ff191683151590811790915560408051868152602081018690529081019190915285907fa6f88a8445931d6b529a698670508303a971e39660d8e73f5ee2b18517fb9f1b9060600160405180910390a25050505050565b6200082e62000df1565b6040516370a0823160e01b81523060048201526001600160a01b0383169063a9059cbb90839083906370a0823190602401602060405180830381865afa1580156200087d573d6000803e3d6000fd5b505050506040513d601f19601f82011682018060405250810190620008a3919062001747565b6040516001600160e01b031960e085901b1681526001600160a01b03909216600483015260248201526044016020604051808303816000875af1158015620008ef573d6000803e3d6000fd5b505050506040513d601f19601f8201168201806040525081019062000915919062001625565b620009345760405162461bcd60e51b8152600401620003af9062001645565b5050565b6200094262000df1565b6000600284815481106200095a576200095a62001731565b60009182526020918290206040805180820182526002938402909201805461ffff908116845260019091015483860152815180830190925287168152928301859052815490935086908110620009b457620009b462001731565b6000918252602091829020835160029290920201805461ffff191661ffff9283161781559282015160019093019290925582518382015160408051918252878516938201939093529182018590529091169085907fdd320d208886917751211c12be8869bc5eccc1b087e7202587c6068bc172a8809060600160405180910390a350505050565b62000a463362000d76565b8062000a5c57506001546001600160a01b031633145b62000a935760405162461bcd60e51b815260206004820152600660248201526510b7bbb732b960d11b6044820152606401620003af565b33600090815260056020526040812054600380549192918390811062000abd5762000abd62001731565b906000526020600020906008020190508381600401600082825462000ae3919062001777565b925050819055508281600501600082825462000b00919062001777565b90915550506040516323b872dd60e01b81526001600160a01b038781166004830152306024830152604482018690528616906323b872dd906064016020604051808303816000875af115801562000b5b573d6000803e3d6000fd5b505050506040513d601f19601f8201168201806040525081019062000b81919062001625565b62000ba05760405162461bcd60e51b8152600401620003af9062001645565b505050505050565b62000bb262000df1565b6001600160a01b03811662000c195760405162461bcd60e51b815260206004820152602660248201527f4f776e61626c653a206e6577206f776e657220697320746865207a65726f206160448201526564647265737360d01b6064820152608401620003af565b62000c2481620011fc565b50565b62000c3162000df1565b60006002828154811062000c495762000c4962001731565b6000918252602091829020604080518082019091526002928302909101805461ffff168252600190810154938201939093528154909350909162000c8d9162001793565b8154811062000ca05762000ca062001731565b90600052602060002090600202016002838154811062000cc45762000cc462001731565b6000918252602090912082546002928302909101805461ffff191661ffff90921691909117815560019283015492019190915580548062000d095762000d09620017a9565b6000828152602080822060026000199490940193840201805461ffff1916815560010191909155915581518282015160405190815261ffff9091169184917fced45780dc6f269221fefb37ed810ee28651e62e92dc7f655d574197b14105b5910160405180910390a35050565b600354600090815b8181101562000de757836001600160a01b03166003828154811062000da75762000da762001731565b60009182526020909120600160089092020101546001600160a01b03160362000dd4575060019392505050565b62000ddf81620017bf565b905062000d7e565b5060009392505050565b6001546001600160a01b03163314620007145760405162461bcd60e51b815260206004820181905260248201527f4f776e61626c653a2063616c6c6572206973206e6f7420746865206f776e65726044820152606401620003af565b600354600090815b8181101562000de757836001600160a01b03166003828154811062000e7e5762000e7e62001731565b60009182526020909120600890910201546001600160a01b03160362000ea8575060019392505050565b62000eb381620017bf565b905062000e55565b6003604051806101000160405280866001600160a01b03168152602001856001600160a01b03168152602001428152602001848152602001600081526020016000815260200183815260200160011515815250908060018154018082558091505060019003906000526020600020906008020160009091909190915060008201518160000160006101000a8154816001600160a01b0302191690836001600160a01b0316021790555060208201518160010160006101000a8154816001600160a01b0302191690836001600160a01b0316021790555060408201518160020155606082015181600301556080820151816004015560a0820151816005015560c0820151816006015560e08201518160070160006101000a81548160ff02191690831515021790555050508260046000866001600160a01b03166001600160a01b0316815260200190815260200160002060006101000a8154816001600160a01b0302191690836001600160a01b03160217905550600160038054905062001043919062001793565b6001600160a01b03909416600090815260056020526040902093909355505050565b604051627b7a3760e21b8152612328600482015261012c60248201526001600160a01b038216906301ede8dc90604401600060405180830381600087803b158015620010b057600080fd5b505af1158015620010c5573d6000803e3d6000fd5b5050604051627b7a3760e21b81526123286004820152610e1060248201526001600160a01b03841692506301ede8dc9150604401600060405180830381600087803b1580156200111457600080fd5b505af115801562001129573d6000803e3d6000fd5b5050604051627b7a3760e21b81526109c46004820152630163f50060248201526001600160a01b03841692506301ede8dc9150604401600060405180830381600087803b1580156200117a57600080fd5b505af11580156200118f573d6000803e3d6000fd5b5050604051627b7a3760e21b8152610bb860048201526301da9c0060248201526001600160a01b03841692506301ede8dc9150604401600060405180830381600087803b158015620011e057600080fd5b505af1158015620011f5573d6000803e3d6000fd5b5050505050565b600180546001600160a01b038381166001600160a01b0319831681179093556040519116919082907f8be0079c531659141344cd1fd0a4f28419497f9722a3daafe3b4186f6b6457e090600090a35050565b613ee480620017dc83390190565b6001600160a01b038116811462000c2457600080fd5b6000602082840312156200128557600080fd5b813562001292816200125c565b9392505050565b602080825282518282018190526000919060409081850190868401855b82811015620012e1578151805161ffff168552860151868501529284019290850190600101620012b6565b5091979650505050505050565b6000806000606084860312156200130457600080fd5b833562001311816200125c565b9250602084013562001323816200125c565b929592945050506040919091013590565b634e487b7160e01b600052604160045260246000fd5b600082601f8301126200135c57600080fd5b813567ffffffffffffffff808211156200137a576200137a62001334565b604051601f8301601f19908116603f01168101908282118183101715620013a557620013a562001334565b81604052838152866020858801011115620013bf57600080fd5b836020870160208301376000602085830101528094505050505092915050565b801515811462000c2457600080fd5b600080600080600080600060e0888a0312156200140a57600080fd5b873567ffffffffffffffff808211156200142357600080fd5b620014318b838c016200134a565b985060208a01359150808211156200144857600080fd5b620014568b838c016200134a565b975060408a013591506200146a826200125c565b909550606089013590808211156200148157600080fd5b50620014908a828b016200134a565b9450506080880135925060a0880135915060c0880135620014b181620013df565b8091505092959891949750929550565b600060208284031215620014d457600080fd5b5035919050565b803561ffff81168114620014ee57600080fd5b919050565b600080604083850312156200150757600080fd5b6200151283620014db565b946020939093013593505050565b600080600080608085870312156200153757600080fd5b84359350602085013592506040850135915060608501356200155981620013df565b939692955090935050565b600080604083850312156200157857600080fd5b823562001585816200125c565b9150602083013562001597816200125c565b809150509250929050565b600080600060608486031215620015b857600080fd5b83359250620015ca60208501620014db565b9150604084013590509250925092565b60008060008060808587031215620015f157600080fd5b8435620015fe816200125c565b9350602085013562001610816200125c565b93969395505050506040820135916060013590565b6000602082840312156200163857600080fd5b81516200129281620013df565b6020808252601e908201527f546f6b656e20636f756c64206e6f74206265207472616e736665727265640000604082015260600190565b6000815180845260005b81811015620016a45760208185018101518683018201520162001686565b506000602082860101526020601f19601f83011685010191505092915050565b60e081526000620016d960e083018a6200167c565b8281036020840152620016ed818a6200167c565b6001600160a01b03898116604086015288166060850152838103608085015290506200171a81876200167c565b60a0840195909552505060c0015295945050505050565b634e487b7160e01b600052603260045260246000fd5b6000602082840312156200175a57600080fd5b5051919050565b634e487b7160e01b600052601160045260246000fd5b808201808211156200178d576200178d62001761565b92915050565b818103818111156200178d576200178d62001761565b634e487b7160e01b600052603160045260246000fd5b600060018201620017d457620017d462001761565b506001019056fe6080604052660aa87bee53800060175560016018553480156200002157600080fd5b5060405162003ee438038062003ee4833981016040819052620000449162000214565b868660006200005483826200036d565b5060016200006382826200036d565b505050620000806200007a620000dc60201b60201c565b620000e0565b600b80546001600160a01b0319166001600160a01b0387161790556011620000a984826200036d565b50600c80546001600160a01b0319166001600160a01b03959095169490941790935560195550601a555062000439915050565b3390565b600a80546001600160a01b038381166001600160a01b0319831681179093556040519116919082907f8be0079c531659141344cd1fd0a4f28419497f9722a3daafe3b4186f6b6457e090600090a35050565b634e487b7160e01b600052604160045260246000fd5b600082601f8301126200015a57600080fd5b81516001600160401b038082111562000177576200017762000132565b604051601f8301601f19908116603f01168101908282118183101715620001a257620001a262000132565b81604052838152602092508683858801011115620001bf57600080fd5b600091505b83821015620001e35785820183015181830184015290820190620001c4565b600093810190920192909252949350505050565b80516001600160a01b03811681146200020f57600080fd5b919050565b600080600080600080600060e0888a0312156200023057600080fd5b87516001600160401b03808211156200024857600080fd5b620002568b838c0162000148565b985060208a01519150808211156200026d57600080fd5b6200027b8b838c0162000148565b97506200028b60408b01620001f7565b96506200029b60608b01620001f7565b955060808a0151915080821115620002b257600080fd5b50620002c18a828b0162000148565b93505060a0880151915060c0880151905092959891949750929550565b600181811c90821680620002f357607f821691505b6020821081036200031457634e487b7160e01b600052602260045260246000fd5b50919050565b601f8211156200036857600081815260208120601f850160051c81016020861015620003435750805b601f850160051c820191505b8181101562000364578281556001016200034f565b5050505b505050565b81516001600160401b0381111562000389576200038962000132565b620003a1816200039a8454620002de565b846200031a565b602080601f831160018114620003d95760008415620003c05750858301515b600019600386901b1c1916600185901b17855562000364565b600085815260208120601f198616915b828110156200040a57888601518255948401946001909101908401620003e9565b5085821015620004295787850151600019600388901b60f8161c191681555b5050505050600190811b01905550565b613a9b80620004496000396000f3fe608060405234801561001057600080fd5b50600436106103425760003560e01c80637974e46a116101b8578063afd50d8f11610104578063e92f6a15116100a2578063f2fde38b1161007c578063f2fde38b146107bc578063fab1e747146107cf578063fbfa77cf146107d8578063ffa80136146107eb57600080fd5b8063e92f6a151461075a578063e985e9c51461076d578063ed44e569146107a957600080fd5b8063c87b56dd116100de578063c87b56dd146106b4578063d1c6b0ca146106c7578063d5a44f86146106da578063e8a3d4851461075257600080fd5b8063afd50d8f1461065e578063b4f0c8301461067e578063b88d4fde146106a157600080fd5b806395d89b4111610171578063a22cb4651161014b578063a22cb4651461061c578063a49991f31461062f578063a6bba76714610642578063ad63db3d1461065557600080fd5b806395d89b41146105ec57806397d3b573146105f457806399bbbbac1461060757600080fd5b80637974e46a146105875780637b0472f01461058f5780638da5cb5b146105a25780638f96a7cb146105b357806390e78328146105c657806391915ef8146105d957600080fd5b80633197cbb61161029257806355f804b31161023057806364ed320d1161020a57806364ed320d1461053957806370a082311461054c578063715018a61461055f57806376772cf81461056757600080fd5b806355f804b31461050a5780635cfc1a511461051d5780636352211e1461052657600080fd5b806342842e0e1161026c57806342842e0e146104ae5780634670dd2d146104c15780634752f9ef146104d45780634f6ccce7146104f757600080fd5b80633197cbb61461047f57806338d074361461048857806338f57ff31461049b57600080fd5b8063095ea7b3116102ff5780632374346c116102d95780632374346c1461042657806323b872dd14610439578063274de61e1461044c5780632f745c591461046c57600080fd5b8063095ea7b3146103f857806318160ddd1461040b57806320e3fa501461041357600080fd5b806301ede8dc1461034757806301ffc9a71461035c57806304ece5831461038457806306fdde03146103a5578063081812fc146103ba57806308b74245146103e5575b600080fd5b61035a610355366004613083565b61080b565b005b61036f61036a3660046130c3565b61092d565b60405190151581526020015b60405180910390f35b6103976103923660046130e0565b61093e565b60405190815260200161037b565b6103ad610a07565b60405161037b9190613149565b6103cd6103c83660046130e0565b610a99565b6040516001600160a01b03909116815260200161037b565b61035a6103f336600461316a565b610ac0565b61035a6104063660046131af565b610b18565b600854610397565b6103976104213660046131af565b610c2d565b61035a6104343660046130e0565b610c5e565b61035a6104473660046131cd565b610ddf565b61039761045a3660046130e0565b60136020526000908152604090205481565b61039761047a3660046131af565b610e10565b610397601a5481565b61035a61049636600461316a565b610ea6565b61035a6104a936600461320e565b6111fa565b61035a6104bc3660046131cd565b611322565b61035a6104cf366004613247565b61133d565b61036f6104e23660046130e0565b600f6020526000908152604090205460ff1681565b6103976105053660046130e0565b61149d565b61035a61051836600461331b565b611530565b61039760195481565b6103cd6105343660046130e0565b611586565b6103976105473660046130e0565b6115e6565b61039761055a366004613364565b611674565b61035a6116fa565b6103976105753660046130e0565b60146020526000908152604090205481565b61039761170e565b61035a61059d366004613381565b61171e565b600a546001600160a01b03166103cd565b61036f6105c13660046130e0565b611730565b61035a6105d43660046130e0565b61174f565b61035a6105e73660046130e0565b61178a565b6103ad6117c5565b61035a6106023660046133a3565b6117d4565b61060f61194f565b60405161037b91906133d1565b61035a61062a366004613424565b6119bf565b61039761063d3660046130e0565b6119ca565b61035a6106503660046134d2565b611a60565b610397601c5481565b61039761066c3660046130e0565b60156020526000908152604090205481565b61036f61068c366004613364565b60166020526000908152604090205460ff1681565b61035a6106af36600461352b565b611aa8565b6103ad6106c23660046130e0565b611ada565b61035a6106d53660046130e0565b611b70565b61071f6106e83660046130e0565b600e60205260009081526040902080546001820154600283015460038401546004909401549293919261ffff909116919060ff1685565b60408051958652602086019490945261ffff9092169284019290925260608301919091521515608082015260a00161037b565b6103ad611bab565b61035a6107683660046135ab565b611bd9565b61036f61077b3660046133a3565b6001600160a01b03918216600090815260056020908152604080832093909416825291909152205460ff1690565b61035a6107b73660046135e0565b611d1d565b61035a6107ca366004613364565b611d5e565b610397601b5481565b600c546103cd906001600160a01b031681565b6107fe6107f9366004613364565b611dd7565b60405161037b9190613627565b600c546001600160a01b031633148061083d575033610832600a546001600160a01b031690565b6001600160a01b0316145b6108625760405162461bcd60e51b81526004016108599061366b565b60405180910390fd5b6040805180820190915261ffff808416825260208201838152600d805460018101825560009190915292517fd7b6990105719101dabeb77144f2a3385c8033acd3af97e9423a695e81ad1eb56002909402938401805461ffff19169190931617909155517fd7b6990105719101dabeb77144f2a3385c8033acd3af97e9423a695e81ad1eb6909101558161ffff167fe01fdf33dfdfd42d6dc9b85e62d6750214967dddff00304f34c3fed1939bde0b8260405161092191815260200190565b60405180910390a25050565b600061093882611e43565b92915050565b6000818152600e60209081526040808320815160a0810183528154808252600183015494820194909452600282015461ffff1692810192909252600381015460608301526004015460ff161515608082015290829061099d90426136a1565b9050600082606001518211156109b8575060608201516109bb565b50805b6301e1338061271061ffff1682856040015161ffff1686602001516109e091906136b4565b6109ea91906136b4565b6109f491906136e1565b6109fe91906136e1565b95945050505050565b606060008054610a16906136f5565b80601f0160208091040260200160405190810160405280929190818152602001828054610a42906136f5565b8015610a8f5780601f10610a6457610100808354040283529160200191610a8f565b820191906000526020600020905b815481529060010190602001808311610a7257829003601f168201915b5050505050905090565b6000610aa482611e68565b506000908152600460205260409020546001600160a01b031690565b610ac8611ec7565b6000828152600f6020908152604091829020805460ff1916841515908117909155915191825283917fd07a67329d87579b1994579e69a7e1df196e41e2c912c37b7b9d80ef0030238d9101610921565b6000610b2382611586565b9050806001600160a01b0316836001600160a01b031603610b905760405162461bcd60e51b815260206004820152602160248201527f4552433732313a20617070726f76616c20746f2063757272656e74206f776e656044820152603960f91b6064820152608401610859565b336001600160a01b0382161480610bac5750610bac813361077b565b610c1e5760405162461bcd60e51b815260206004820152603e60248201527f4552433732313a20617070726f76652063616c6c6572206973206e6f7420746f60448201527f6b656e206f776e6572206e6f7220617070726f76656420666f7220616c6c00006064820152608401610859565b610c288383611f21565b505050565b60126020528160005260406000208181548110610c4957600080fd5b90600052602060002001600091509150505481565b600c546001600160a01b0316331480610c90575033610c85600a546001600160a01b031690565b6001600160a01b0316145b610cac5760405162461bcd60e51b81526004016108599061366b565b6000600d8281548110610cc157610cc161372f565b600091825260209182902060408051808201909152600290920201805461ffff16825260019081015492820192909252600d805491935091610d02916136a1565b81548110610d1257610d1261372f565b9060005260206000209060020201600d8381548110610d3357610d3361372f565b600091825260209091208254600290920201805461ffff191661ffff909216919091178155600191820154910155600d805480610d7257610d72613745565b6000828152602080822060026000199490940193840201805461ffff1916815560010191909155915581518282015160405190815261ffff9091169184917f31c7ae07732186951f28c3aa4b019b67ff0b121028ec0baa0127467a57d3d340910160405180910390a35050565b610de93382611f8f565b610e055760405162461bcd60e51b81526004016108599061375b565b610c2883838361200e565b6000610e1b83611674565b8210610e7d5760405162461bcd60e51b815260206004820152602b60248201527f455243373231456e756d657261626c653a206f776e657220696e646578206f7560448201526a74206f6620626f756e647360a81b6064820152608401610859565b506001600160a01b03919091166000908152600660209081526040808320938352929052205490565b6000828152600e6020908152604091829020825160a08101845281548152600182015492810192909252600281015461ffff16928201929092526003820154606082015260049091015460ff16151560808201523390610f0584611586565b6001600160a01b0316826001600160a01b031614610f7d5760405162461bcd60e51b815260206004820152602f60248201527f6f6e6c7920746865206f776e6572206f6620746865207374616b656420746f6b60448201526e656e732063616e20756e7374616b6560881b6064820152608401610859565b60608101518151600091610f90916137a9565b4210905080156111115781608001516110045760405162461bcd60e51b815260206004820152603060248201527f5468697320706f736974696f6e206973206e6f7420656c696769626c6520666f60448201526f72206561726c7920776974686472617760801b6064820152608401610859565b836110775760405162461bcd60e51b815260206004820152603960248201527f4d7573742061636b6e6f776c6564676520746865206561726c7920776974686460448201527f7261772064756520746f206c6f7373206f6620746f6b656e73000000000000006064820152608401610859565b600c54600b5460208401516001600160a01b0392831692631208333a9287929116906110a5906002906136e1565b6040516001600160e01b031960e086901b1681526001600160a01b0393841660048201529290911660248301526044820152606401600060405180830381600087803b1580156110f457600080fd5b505af1158015611108573d6000803e3d6000fd5b505050506111b4565b600061111c8661093e565b600c54600b5460208601519293506001600160a01b0391821692631208333a928892169061114b9086906137a9565b6040516001600160e01b031960e086901b1681526001600160a01b0393841660048201529290911660248301526044820152606401600060405180830381600087803b15801561119a57600080fd5b505af11580156111ae573d6000803e3d6000fd5b50505050505b6111bd856121bb565b60405185906001600160a01b038516907ff74a79d13d6fdbdf26b2c779e6a24490a43e65d60cc7e064740f8d40b2b5ea2c90600090a35050505050565b3360009081526016602052604090205460ff16156112535760405162461bcd60e51b8152602060048201526016602482015275109bdb9d5cc8185b1c9958591e481c9958d95a5d995960521b6044820152606401610859565b6112623384846001600061226a565b6112743360175460185460008061226a565b6112868160175460185460008061226a565b60175460185460405133927feaaedb2f797ad9311d3350873d350ad04080ad6baa897e9cd8b891bf151f3a5e926112c592918252602082015260400190565b60405180910390a2806001600160a01b03167feaaedb2f797ad9311d3350873d350ad04080ad6baa897e9cd8b891bf151f3a5e601754601854604051611315929190918252602082015260400190565b60405180910390a2505050565b610c2883838360405180602001604052806000815250611aa8565b6000828152600f602052604090205460ff161561138e5760405162461bcd60e51b815260206004820152600f60248201526e189b1858dadb1a5cdd195908139195608a1b6044820152606401610859565b61139782611586565b6001600160a01b0316836001600160a01b0316146113b457600080fd5b6000828152600e6020908152604091829020825160a0810184528154808252600183015493820193909352600282015461ffff169381019390935260038101546060840181905260049091015460ff1615156080840152611414916137a9565b42116114625760405162461bcd60e51b815260206004820152601b60248201527f506f736974696f6e206973206e6f74206174206d6174757269747900000000006044820152606401610859565b600061146d8461093e565b9050611478846121bb565b6114968582846020015161148c91906137a9565b856000600161226a565b5050505050565b60006114a860085490565b821061150b5760405162461bcd60e51b815260206004820152602c60248201527f455243373231456e756d657261626c653a20676c6f62616c20696e646578206f60448201526b7574206f6620626f756e647360a01b6064820152608401610859565b6008828154811061151e5761151e61372f565b90600052602060002001549050919050565b611538611ec7565b6011611544828261380a565b508060405161155391906138ca565b604051908190038120907f199e933997358e1789d8b56ea8c551befeb05ce2fe3fe506199f1230f5a591b490600090a250565b6000818152600260205260408120546001600160a01b0316806109385760405162461bcd60e51b8152602060048201526018602482015277115490cdcc8c4e881a5b9d985b1a59081d1bdad95b88125160421b6044820152606401610859565b6000818152600e60209081526040808320815160a081018352815481526001820154938101849052600282015461ffff1692810183905260038201546060820181905260049092015460ff1615156080820152926301e1338092612710929161164f91906136b4565b61165991906136b4565b61166391906136e1565b61166d91906136e1565b9392505050565b60006001600160a01b0382166116de5760405162461bcd60e51b815260206004820152602960248201527f4552433732313a2061646472657373207a65726f206973206e6f7420612076616044820152683634b21037bbb732b960b91b6064820152608401610859565b506001600160a01b031660009081526003602052604090205490565b611702611ec7565b61170c60006126d7565b565b600061171960105490565b905090565b61172c33838360018061226a565b5050565b6000818152600260205260408120546001600160a01b03161515610938565b611757611ec7565b601881905560405181907fab03523d63fc2456e647e1335600dd48f2b3c9645b43f190cc1615863007e4ed90600090a250565b611792611ec7565b601981905560405181907f3e90590403178c03ff8343cdb359608fcc7678b15509de56e1be479af1b127be90600090a250565b606060018054610a16906136f5565b600c546001600160a01b03163314806118065750336117fb600a546001600160a01b031690565b6001600160a01b0316145b6118225760405162461bcd60e51b81526004016108599061366b565b6040516370a0823160e01b81523060048201526001600160a01b0383169063a9059cbb90839083906370a0823190602401602060405180830381865afa158015611870573d6000803e3d6000fd5b505050506040513d601f19601f8201168201806040525081019061189491906138e6565b6040516001600160e01b031960e085901b1681526001600160a01b03909216600483015260248201526044016020604051808303816000875af11580156118df573d6000803e3d6000fd5b505050506040513d601f19601f8201168201806040525081019061190391906138ff565b61172c5760405162461bcd60e51b815260206004820152601860248201527f436f756c64206e6f74207472616e7366657220746f6b656e00000000000000006044820152606401610859565b6060600d805480602002602001604051908101604052809291908181526020016000905b828210156119b65760008481526020908190206040805180820190915260028502909101805461ffff168252600190810154828401529083529092019101611973565b50505050905090565b61172c338383612729565b6000818152600e60209081526040808320815160a081018352815481526001820154938101849052600282015461ffff1692810183905260038201546060820181905260049092015460ff1615156080820152926301e13380926127109291611a3391906136b4565b611a3d91906136b4565b611a4791906136e1565b611a5191906136e1565b816020015161166d91906137a9565b60005b8251811015611aa257611a9084848381518110611a8257611a8261372f565b60200260200101518461133d565b80611a9a8161391c565b915050611a63565b50505050565b611ab23383611f8f565b611ace5760405162461bcd60e51b81526004016108599061375b565b611aa2848484846127f7565b6000818152600260205260409020546060906001600160a01b0316611b385760405162461bcd60e51b81526020600482015260146024820152731d1bdad95b88191bd95cc81b9bdd08195e1a5cdd60621b6044820152606401610859565b611b4061282a565b611b4983612839565b604051602001611b5a929190613935565b6040516020818303038152906040529050919050565b611b78611ec7565b601781905560405181907f489c861b26977ea518d7106a69d4254fbe2c3cfb9cbf5ca4f7784058ec1c6ba490600090a250565b6060611bb561282a565b604051602001611bc59190613974565b604051602081830303815290604052905090565b600c546001600160a01b0316331480611c0b575033611c00600a546001600160a01b031690565b6001600160a01b0316145b611c275760405162461bcd60e51b81526004016108599061366b565b6000600d8481548110611c3c57611c3c61372f565b60009182526020918290206040805180820182526002909302909101805461ffff908116845260019091015483850152815180830190925286168152918201849052600d80549193509086908110611c9657611c9661372f565b6000918252602091829020835160029290920201805461ffff191661ffff9283161781559282015160019093019290925582518382015160408051918252878516938201939093529182018590529091169085907f1d66929984041b98ee2942b02ecb1a94419d54cf725b2fff115bb7a6039a96c69060600160405180910390a350505050565b60005b8251811015610c2857611d4c838281518110611d3e57611d3e61372f565b602002602001015183610ea6565b80611d568161391c565b915050611d20565b611d66611ec7565b6001600160a01b038116611dcb5760405162461bcd60e51b815260206004820152602660248201527f4f776e61626c653a206e6577206f776e657220697320746865207a65726f206160448201526564647265737360d01b6064820152608401610859565b611dd4816126d7565b50565b6001600160a01b038116600090815260126020908152604091829020805483518184028101840190945280845260609392830182828015611e3757602002820191906000526020600020905b815481526020019060010190808311611e23575b50505050509050919050565b60006001600160e01b0319821663780e9d6360e01b148061093857506109388261293a565b6000818152600260205260409020546001600160a01b0316611dd45760405162461bcd60e51b8152602060048201526018602482015277115490cdcc8c4e881a5b9d985b1a59081d1bdad95b88125160421b6044820152606401610859565b600a546001600160a01b0316331461170c5760405162461bcd60e51b815260206004820181905260248201527f4f776e61626c653a2063616c6c6572206973206e6f7420746865206f776e65726044820152606401610859565b600081815260046020526040902080546001600160a01b0319166001600160a01b0384169081179091558190611f5682611586565b6001600160a01b03167f8c5be1e5ebec7d5bd14f71427d1e84f3dd0314c0f7b2291e5b200ac8c7c3b92560405160405180910390a45050565b600080611f9b83611586565b9050806001600160a01b0316846001600160a01b03161480611fe257506001600160a01b0380821660009081526005602090815260408083209388168352929052205460ff165b806120065750836001600160a01b0316611ffb84610a99565b6001600160a01b0316145b949350505050565b826001600160a01b031661202182611586565b6001600160a01b0316146120855760405162461bcd60e51b815260206004820152602560248201527f4552433732313a207472616e736665722066726f6d20696e636f72726563742060448201526437bbb732b960d91b6064820152608401610859565b6001600160a01b0382166120e75760405162461bcd60e51b8152602060048201526024808201527f4552433732313a207472616e7366657220746f20746865207a65726f206164646044820152637265737360e01b6064820152608401610859565b6120f283838361298a565b6120fd600082611f21565b6001600160a01b03831660009081526003602052604081208054600192906121269084906136a1565b90915550506001600160a01b03821660009081526003602052604081208054600192906121549084906137a9565b909155505060008181526002602052604080822080546001600160a01b0319166001600160a01b0386811691821790925591518493918716917fddf252ad1be2c89b69c2b068fc378daa952ba7f163c4a11628f55a4df523b3ef91a4610c288383836129f7565b60006121c682611586565b90506121d48160008461298a565b6121df600083611f21565b6001600160a01b03811660009081526003602052604081208054600192906122089084906136a1565b909155505060008281526002602052604080822080546001600160a01b0319169055518391906001600160a01b038416907fddf252ad1be2c89b69c2b068fc378daa952ba7f163c4a11628f55a4df523b3ef908390a461172c816000846129f7565b600d5483106122b15760405162461bcd60e51b815260206004820152601360248201527234b73b30b634b2103637b1b59037b83a34b7b760691b6044820152606401610859565b83156122bd578361232b565b600b546040516370a0823160e01b81526001600160a01b038781166004830152909116906370a0823190602401602060405180830381865afa158015612307573d6000803e3d6000fd5b505050506040513d601f19601f8201168201806040525081019061232b91906138e6565b9350600084116123945760405162461bcd60e51b815260206004820152602e60248201527f6d757374207374616b6520616e64206265206561726e696e67206174206c656160448201526d737420736f6d6520746f6b656e7360901b6064820152608401610859565b601954601b546123a490866137a9565b1115806123b15750601954155b6123ed5760405162461bcd60e51b815260206004820152600d60248201526c4f76657220636170616369747960981b6044820152606401610859565b601a54421115806123fe5750601a54155b61243e5760405162461bcd60e51b815260206004820152601160248201527029ba30b5b2903832b934b7b21037bb32b960791b6044820152606401610859565b83601b600082825461245091906137a9565b909155505060108054600101905560006301e1338061271061ffff16600d868154811061247f5761247f61372f565b906000526020600020906002020160010154600d87815481106124a4576124a461372f565b60009182526020909120600290910201546124c39061ffff16896136b4565b6124cd91906136b4565b6124d791906136e1565b6124e191906136e1565b905080601c60008282546124f591906137a9565b9091555050821561257857600c54600b5460405163c14cfe0960e01b81526001600160a01b0389811660048301529182166024820152604481018890526064810184905291169063c14cfe0990608401600060405180830381600087803b15801561255f57600080fd5b505af1158015612573573d6000803e3d6000fd5b505050505b6040518060a00160405280428152602001868152602001600d86815481106125a2576125a261372f565b60009182526020918290206002909102015461ffff168252600d80549290910191879081106125d3576125d361372f565b9060005260206000209060020201600101548152602001831515815250600e60006125fd60105490565b815260208082019290925260409081016000208351815591830151600183015582015160028201805461ffff191661ffff909216919091179055606082015160038201556080909101516004909101805460ff1916911515919091179055601054612669908790612b80565b426014600061267760105490565b815260208101919091526040016000205560105460408051878152602081018790526001600160a01b038916917f7cc860bef2fa56b3d46227731e60b3b6ce0af9627bfdfbeca273f9ea5dae8a18910160405180910390a3505050505050565b600a80546001600160a01b038381166001600160a01b0319831681179093556040519116919082907f8be0079c531659141344cd1fd0a4f28419497f9722a3daafe3b4186f6b6457e090600090a35050565b816001600160a01b0316836001600160a01b03160361278a5760405162461bcd60e51b815260206004820152601960248201527f4552433732313a20617070726f766520746f2063616c6c6572000000000000006044820152606401610859565b6001600160a01b03838116600081815260056020908152604080832094871680845294825291829020805460ff191686151590811790915591519182527f17307eab39ab6107e8899845ad3d59bd9653f200f220920489ca2b5937696c31910160405180910390a3505050565b61280284848461200e565b61280e84848484612b9a565b611aa25760405162461bcd60e51b8152600401610859906139a5565b606060118054610a16906136f5565b6060816000036128605750506040805180820190915260018152600360fc1b602082015290565b8160005b811561288a57806128748161391c565b91506128839050600a836136e1565b9150612864565b60008167ffffffffffffffff8111156128a5576128a561327c565b6040519080825280601f01601f1916602001820160405280156128cf576020820181803683370190505b5090505b8415612006576128e46001836136a1565b91506128f1600a866139f7565b6128fc9060306137a9565b60f81b8183815181106129115761291161372f565b60200101906001600160f81b031916908160001a905350612933600a866136e1565b94506128d3565b60006001600160e01b031982166380ac58cd60e01b148061296b57506001600160e01b03198216635b5e139f60e01b145b8061093857506301ffc9a760e01b6001600160e01b0319831614610938565b6000818152600f602052604090205460ff16156129db5760405162461bcd60e51b815260206004820152600f60248201526e189b1858dadb1a5cdd195908139195608a1b6044820152606401610859565b6000818152601560205260409020429055610c28838383612c9b565b6001600160a01b03831615612b31576000818152601360209081526040808320546001600160a01b0387168452601290925282208054919291612a3c906001906136a1565b81548110612a4c57612a4c61372f565b60009182526020808320909101546001600160a01b038816835260129091526040909120805491925090612a82906001906136a1565b81548110612a9257612a9261372f565b906000526020600020015460126000876001600160a01b03166001600160a01b031681526020019081526020016000208381548110612ad357612ad361372f565b60009182526020808320909101929092556001600160a01b0387168152601290915260409020805480612b0857612b08613745565b600082815260208082208301600019908101839055909201909255918152601390915260409020555b6001600160a01b03821615610c28576001600160a01b03919091166000908152601260208181526040808420805486865260138452918520829055928252600181018355918352909120015550565b61172c828260405180602001604052806000815250612d53565b60006001600160a01b0384163b15612c9057604051630a85bd0160e11b81526001600160a01b0385169063150b7a0290612bde903390899088908890600401613a0b565b6020604051808303816000875af1925050508015612c19575060408051601f3d908101601f19168201909252612c1691810190613a48565b60015b612c76573d808015612c47576040519150601f19603f3d011682016040523d82523d6000602084013e612c4c565b606091505b508051600003612c6e5760405162461bcd60e51b8152600401610859906139a5565b805181602001fd5b6001600160e01b031916630a85bd0160e11b149050612006565b506001949350505050565b6001600160a01b038316612cf657612cf181600880546000838152600960205260408120829055600182018355919091527ff3f7a9fe364faab93b216da50a3214154f22a0a2b415b23a84c8169e8b636ee30155565b612d19565b816001600160a01b0316836001600160a01b031614612d1957612d198382612d86565b6001600160a01b038216612d3057610c2881612e23565b826001600160a01b0316826001600160a01b031614610c2857610c288282612ed2565b612d5d8383612f16565b612d6a6000848484612b9a565b610c285760405162461bcd60e51b8152600401610859906139a5565b60006001612d9384611674565b612d9d91906136a1565b600083815260076020526040902054909150808214612df0576001600160a01b03841660009081526006602090815260408083208584528252808320548484528184208190558352600790915290208190555b5060009182526007602090815260408084208490556001600160a01b039094168352600681528383209183525290812055565b600854600090612e35906001906136a1565b60008381526009602052604081205460088054939450909284908110612e5d57612e5d61372f565b906000526020600020015490508060088381548110612e7e57612e7e61372f565b6000918252602080832090910192909255828152600990915260408082208490558582528120556008805480612eb657612eb6613745565b6001900381819060005260206000200160009055905550505050565b6000612edd83611674565b6001600160a01b039093166000908152600660209081526040808320868452825280832085905593825260079052919091209190915550565b6001600160a01b038216612f6c5760405162461bcd60e51b815260206004820181905260248201527f4552433732313a206d696e7420746f20746865207a65726f20616464726573736044820152606401610859565b6000818152600260205260409020546001600160a01b031615612fd15760405162461bcd60e51b815260206004820152601c60248201527f4552433732313a20746f6b656e20616c7265616479206d696e746564000000006044820152606401610859565b612fdd6000838361298a565b6001600160a01b03821660009081526003602052604081208054600192906130069084906137a9565b909155505060008181526002602052604080822080546001600160a01b0319166001600160a01b03861690811790915590518392907fddf252ad1be2c89b69c2b068fc378daa952ba7f163c4a11628f55a4df523b3ef908290a461172c600083836129f7565b803561ffff8116811461307e57600080fd5b919050565b6000806040838503121561309657600080fd5b61309f8361306c565b946020939093013593505050565b6001600160e01b031981168114611dd457600080fd5b6000602082840312156130d557600080fd5b813561166d816130ad565b6000602082840312156130f257600080fd5b5035919050565b60005b838110156131145781810151838201526020016130fc565b50506000910152565b600081518084526131358160208601602086016130f9565b601f01601f19169290920160200192915050565b60208152600061166d602083018461311d565b8015158114611dd457600080fd5b6000806040838503121561317d57600080fd5b82359150602083013561318f8161315c565b809150509250929050565b6001600160a01b0381168114611dd457600080fd5b600080604083850312156131c257600080fd5b823561309f8161319a565b6000806000606084860312156131e257600080fd5b83356131ed8161319a565b925060208401356131fd8161319a565b929592945050506040919091013590565b60008060006060848603121561322357600080fd5b8335925060208401359150604084013561323c8161319a565b809150509250925092565b60008060006060848603121561325c57600080fd5b83356132678161319a565b95602085013595506040909401359392505050565b634e487b7160e01b600052604160045260246000fd5b604051601f8201601f1916810167ffffffffffffffff811182821017156132bb576132bb61327c565b604052919050565b600067ffffffffffffffff8311156132dd576132dd61327c565b6132f0601f8401601f1916602001613292565b905082815283838301111561330457600080fd5b828260208301376000602084830101529392505050565b60006020828403121561332d57600080fd5b813567ffffffffffffffff81111561334457600080fd5b8201601f8101841361335557600080fd5b612006848235602084016132c3565b60006020828403121561337657600080fd5b813561166d8161319a565b6000806040838503121561339457600080fd5b50508035926020909101359150565b600080604083850312156133b657600080fd5b82356133c18161319a565b9150602083013561318f8161319a565b602080825282518282018190526000919060409081850190868401855b82811015613417578151805161ffff1685528601518685015292840192908501906001016133ee565b5091979650505050505050565b6000806040838503121561343757600080fd5b82356134428161319a565b9150602083013561318f8161315c565b600082601f83011261346357600080fd5b8135602067ffffffffffffffff82111561347f5761347f61327c565b8160051b61348e828201613292565b92835284810182019282810190878511156134a857600080fd5b83870192505b848310156134c7578235825291830191908301906134ae565b979650505050505050565b6000806000606084860312156134e757600080fd5b83356134f28161319a565b9250602084013567ffffffffffffffff81111561350e57600080fd5b61351a86828701613452565b925050604084013590509250925092565b6000806000806080858703121561354157600080fd5b843561354c8161319a565b9350602085013561355c8161319a565b925060408501359150606085013567ffffffffffffffff81111561357f57600080fd5b8501601f8101871361359057600080fd5b61359f878235602084016132c3565b91505092959194509250565b6000806000606084860312156135c057600080fd5b833592506135d06020850161306c565b9150604084013590509250925092565b600080604083850312156135f357600080fd5b823567ffffffffffffffff81111561360a57600080fd5b61361685828601613452565b925050602083013561318f8161315c565b6020808252825182820181905260009190848201906040850190845b8181101561365f57835183529284019291840191600101613643565b50909695505050505050565b60208082526006908201526510b7bbb732b960d11b604082015260600190565b634e487b7160e01b600052601160045260246000fd5b818103818111156109385761093861368b565b80820281158282048414176109385761093861368b565b634e487b7160e01b600052601260045260246000fd5b6000826136f0576136f06136cb565b500490565b600181811c9082168061370957607f821691505b60208210810361372957634e487b7160e01b600052602260045260246000fd5b50919050565b634e487b7160e01b600052603260045260246000fd5b634e487b7160e01b600052603160045260246000fd5b6020808252602e908201527f4552433732313a2063616c6c6572206973206e6f7420746f6b656e206f776e6560408201526d1c881b9bdc88185c1c1c9bdd995960921b606082015260800190565b808201808211156109385761093861368b565b601f821115610c2857600081815260208120601f850160051c810160208610156137e35750805b601f850160051c820191505b81811015613802578281556001016137ef565b505050505050565b815167ffffffffffffffff8111156138245761382461327c565b6138388161383284546136f5565b846137bc565b602080601f83116001811461386d57600084156138555750858301515b600019600386901b1c1916600185901b178555613802565b600085815260208120601f198616915b8281101561389c5788860151825594840194600190910190840161387d565b50858210156138ba5787850151600019600388901b60f8161c191681555b5050505050600190811b01905550565b600082516138dc8184602087016130f9565b9190910192915050565b6000602082840312156138f857600080fd5b5051919050565b60006020828403121561391157600080fd5b815161166d8161315c565b60006001820161392e5761392e61368b565b5060010190565b600083516139478184602088016130f9565b83519083019061395b8183602088016130f9565b64173539b7b760d91b9101908152600501949350505050565b600082516139868184602087016130f9565b6c31b7b73a3930b1ba173539b7b760991b920191825250600d01919050565b60208082526032908201527f4552433732313a207472616e7366657220746f206e6f6e20455243373231526560408201527131b2b4bb32b91034b6b83632b6b2b73a32b960711b606082015260800190565b600082613a0657613a066136cb565b500690565b6001600160a01b0385811682528416602082015260408101839052608060608201819052600090613a3e9083018461311d565b9695505050505050565b600060208284031215613a5a57600080fd5b815161166d816130ad56fea2646970667358221220e60275dda530ae6090ef6e26edc239bd2b7daba146017647a9f2a30fe9e9a0d964736f6c63430008110033a2646970667358221220d94697724d5581d74422d739f4e1f2ac8d4cd0a221bb132b0315586f3c455c1b64736f6c63430008110033",
  "devdoc": {
    "kind": "dev",
    "methods": {
      "owner()": {
        "details": "Returns the address of the current owner."
      },
      "renounceOwnership()": {
        "details": "Leaves the contract without owner. It will not be possible to call `onlyOwner` functions anymore. Can only be called by the current owner. NOTE: Renouncing ownership will leave the contract without an owner, thereby removing any functionality that is only available to the owner."
      },
      "transferOwnership(address)": {
        "details": "Transfers ownership of the contract to a new account (`newOwner`). Can only be called by the current owner."
      }
    },
    "version": 1
  },
  "userdoc": {
    "kind": "user",
    "methods": {},
    "version": 1
  },
  "storageLayout": {
    "storage": [
      {
        "astId": 126,
        "contract": "contracts/StakeVault.sol:StakeVault",
        "label": "_status",
        "offset": 0,
        "slot": "0",
        "type": "t_uint256"
      },
      {
        "astId": 7,
        "contract": "contracts/StakeVault.sol:StakeVault",
        "label": "_owner",
        "offset": 0,
        "slot": "1",
        "type": "t_address"
      },
      {
        "astId": 2940,
        "contract": "contracts/StakeVault.sol:StakeVault",
        "label": "_defaultAprLockOptions",
        "offset": 0,
        "slot": "2",
        "type": "t_array(t_struct(AprLockDefaults)2936_storage)dyn_storage"
      },
      {
        "astId": 2944,
        "contract": "contracts/StakeVault.sol:StakeVault",
        "label": "stakeAssets",
        "offset": 0,
        "slot": "3",
        "type": "t_array(t_struct(StakeAsset)2931_storage)dyn_storage"
      },
      {
        "astId": 2948,
        "contract": "contracts/StakeVault.sol:StakeVault",
        "label": "positionForAsset",
        "offset": 0,
        "slot": "4",
        "type": "t_mapping(t_address,t_address)"
      },
      {
        "astId": 2952,
        "contract": "contracts/StakeVault.sol:StakeVault",
        "label": "stakePositionId",
        "offset": 0,
        "slot": "5",
        "type": "t_mapping(t_address,t_uint256)"
      },
      {
        "astId": 2955,
        "contract": "contracts/StakeVault.sol:StakeVault",
        "label": "_ids",
        "offset": 0,
        "slot": "6",
        "type": "t_struct(Counter)2564_storage"
      }
    ],
    "types": {
      "t_address": {
        "encoding": "inplace",
        "label": "address",
        "numberOfBytes": "20"
      },
      "t_array(t_struct(AprLockDefaults)2936_storage)dyn_storage": {
        "base": "t_struct(AprLockDefaults)2936_storage",
        "encoding": "dynamic_array",
        "label": "struct StakeVault.AprLockDefaults[]",
        "numberOfBytes": "32"
      },
      "t_array(t_struct(StakeAsset)2931_storage)dyn_storage": {
        "base": "t_struct(StakeAsset)2931_storage",
        "encoding": "dynamic_array",
        "label": "struct StakeVault.StakeAsset[]",
        "numberOfBytes": "32"
      },
      "t_bool": {
        "encoding": "inplace",
        "label": "bool",
        "numberOfBytes": "1"
      },
      "t_mapping(t_address,t_address)": {
        "encoding": "mapping",
        "key": "t_address",
        "label": "mapping(address => address)",
        "numberOfBytes": "32",
        "value": "t_address"
      },
      "t_mapping(t_address,t_uint256)": {
        "encoding": "mapping",
        "key": "t_address",
        "label": "mapping(address => uint256)",
        "numberOfBytes": "32",
        "value": "t_uint256"
      },
      "t_struct(AprLockDefaults)2936_storage": {
        "encoding": "inplace",
        "label": "struct StakeVault.AprLockDefaults",
        "members": [
          {
            "astId": 2933,
            "contract": "contracts/StakeVault.sol:StakeVault",
            "label": "apr",
            "offset": 0,
            "slot": "0",
            "type": "t_uint16"
          },
          {
            "astId": 2935,
            "contract": "contracts/StakeVault.sol:StakeVault",
            "label": "lockTime",
            "offset": 0,
            "slot": "1",
            "type": "t_uint256"
          }
        ],
        "numberOfBytes": "64"
      },
      "t_struct(Counter)2564_storage": {
        "encoding": "inplace",
        "label": "struct Counters.Counter",
        "members": [
          {
            "astId": 2563,
            "contract": "contracts/StakeVault.sol:StakeVault",
            "label": "_value",
            "offset": 0,
            "slot": "0",
            "type": "t_uint256"
          }
        ],
        "numberOfBytes": "32"
      },
      "t_struct(StakeAsset)2931_storage": {
        "encoding": "inplace",
        "label": "struct StakeVault.StakeAsset",
        "members": [
          {
            "astId": 2916,
            "contract": "contracts/StakeVault.sol:StakeVault",
            "label": "stakeToken",
            "offset": 0,
            "slot": "0",
            "type": "t_address"
          },
          {
            "astId": 2918,
            "contract": "contracts/StakeVault.sol:StakeVault",
            "label": "positionToken",
            "offset": 0,
            "slot": "1",
            "type": "t_address"
          },
          {
            "astId": 2920,
            "contract": "contracts/StakeVault.sol:StakeVault",
            "label": "created",
            "offset": 0,
            "slot": "2",
            "type": "t_uint256"
          },
          {
            "astId": 2922,
            "contract": "contracts/StakeVault.sol:StakeVault",
            "label": "capacity",
            "offset": 0,
            "slot": "3",
            "type": "t_uint256"
          },
          {
            "astId": 2924,
            "contract": "contracts/StakeVault.sol:StakeVault",
            "label": "stakedAmount",
            "offset": 0,
            "slot": "4",
            "type": "t_uint256"
          },
          {
            "astId": 2926,
            "contract": "contracts/StakeVault.sol:StakeVault",
            "label": "yieldAtMaturity",
            "offset": 0,
            "slot": "5",
            "type": "t_uint256"
          },
          {
            "astId": 2928,
            "contract": "contracts/StakeVault.sol:StakeVault",
            "label": "endTime",
            "offset": 0,
            "slot": "6",
            "type": "t_uint256"
          },
          {
            "astId": 2930,
            "contract": "contracts/StakeVault.sol:StakeVault",
            "label": "active",
            "offset": 0,
            "slot": "7",
            "type": "t_bool"
          }
        ],
        "numberOfBytes": "256"
      },
      "t_uint16": {
        "encoding": "inplace",
        "label": "uint16",
        "numberOfBytes": "2"
      },
      "t_uint256": {
        "encoding": "inplace",
        "label": "uint256",
        "numberOfBytes": "32"
      }
    }
  }
}