{
  "address": "0xde5Ca893b543bBbFf3BaA37E3606013476a4e051",
  "abi": [
    {
      "inputs": [],
      "stateMutability": "nonpayable",
      "type": "constructor"
    },
    {
      "anonymous": false,
      "inputs": [
        {
          "indexed": true,
          "internalType": "contract IERC20",
          "name": "_token",
          "type": "address"
        },
        {
          "indexed": false,
          "internalType": "uint256",
          "name": "_amount",
          "type": "uint256"
        }
      ],
      "name": "Deposit",
      "type": "event"
    },
    {
      "anonymous": false,
      "inputs": [
        {
          "indexed": true,
          "internalType": "contract IERC20",
          "name": "_stakeToken",
          "type": "address"
        },
        {
          "indexed": false,
          "internalType": "address",
          "name": "_user",
          "type": "address"
        },
        {
          "indexed": false,
          "internalType": "uint256",
          "name": "_amount",
          "type": "uint256"
        }
      ],
      "name": "FundsDeployed",
      "type": "event"
    },
    {
      "anonymous": false,
      "inputs": [
        {
          "indexed": true,
          "internalType": "contract IERC20",
          "name": "_stakeToken",
          "type": "address"
        },
        {
          "indexed": false,
          "internalType": "address",
          "name": "_user",
          "type": "address"
        },
        {
          "indexed": false,
          "internalType": "uint256",
          "name": "_amount",
          "type": "uint256"
        }
      ],
      "name": "FundsReturned",
      "type": "event"
    },
    {
      "anonymous": false,
      "inputs": [
        {
          "indexed": false,
          "internalType": "uint8",
          "name": "version",
          "type": "uint8"
        }
      ],
      "name": "Initialized",
      "type": "event"
    },
    {
      "anonymous": false,
      "inputs": [
        {
          "indexed": false,
          "internalType": "address",
          "name": "account",
          "type": "address"
        }
      ],
      "name": "Paused",
      "type": "event"
    },
    {
      "anonymous": false,
      "inputs": [
        {
          "indexed": true,
          "internalType": "bytes32",
          "name": "role",
          "type": "bytes32"
        },
        {
          "indexed": true,
          "internalType": "bytes32",
          "name": "previousAdminRole",
          "type": "bytes32"
        },
        {
          "indexed": true,
          "internalType": "bytes32",
          "name": "newAdminRole",
          "type": "bytes32"
        }
      ],
      "name": "RoleAdminChanged",
      "type": "event"
    },
    {
      "anonymous": false,
      "inputs": [
        {
          "indexed": true,
          "internalType": "bytes32",
          "name": "role",
          "type": "bytes32"
        },
        {
          "indexed": true,
          "internalType": "address",
          "name": "account",
          "type": "address"
        },
        {
          "indexed": true,
          "internalType": "address",
          "name": "sender",
          "type": "address"
        }
      ],
      "name": "RoleGranted",
      "type": "event"
    },
    {
      "anonymous": false,
      "inputs": [
        {
          "indexed": true,
          "internalType": "bytes32",
          "name": "role",
          "type": "bytes32"
        },
        {
          "indexed": true,
          "internalType": "address",
          "name": "account",
          "type": "address"
        },
        {
          "indexed": true,
          "internalType": "address",
          "name": "sender",
          "type": "address"
        }
      ],
      "name": "RoleRevoked",
      "type": "event"
    },
    {
      "anonymous": false,
      "inputs": [
        {
          "indexed": false,
          "internalType": "address",
          "name": "account",
          "type": "address"
        }
      ],
      "name": "Unpaused",
      "type": "event"
    },
    {
      "anonymous": false,
      "inputs": [
        {
          "indexed": true,
          "internalType": "contract IERC20",
          "name": "_stakeToken",
          "type": "address"
        },
        {
          "indexed": false,
          "internalType": "uint256",
          "name": "_capacity",
          "type": "uint256"
        },
        {
          "indexed": false,
          "internalType": "uint256",
          "name": "_endTime",
          "type": "uint256"
        },
        {
          "indexed": false,
          "internalType": "bool",
          "name": "_active",
          "type": "bool"
        }
      ],
      "name": "UpdateAssetMetadata",
      "type": "event"
    },
    {
      "anonymous": false,
      "inputs": [
        {
          "indexed": true,
          "internalType": "contract IERC20",
          "name": "_token",
          "type": "address"
        },
        {
          "indexed": false,
          "internalType": "uint256",
          "name": "_amount",
          "type": "uint256"
        }
      ],
      "name": "Withdraw",
      "type": "event"
    },
    {
      "inputs": [],
      "name": "DEFAULT_ADMIN_ROLE",
      "outputs": [
        {
          "internalType": "bytes32",
          "name": "",
          "type": "bytes32"
        }
      ],
      "stateMutability": "view",
      "type": "function"
    },
    {
      "inputs": [],
      "name": "OPERATOR_ROLE",
      "outputs": [
        {
          "internalType": "bytes32",
          "name": "",
          "type": "bytes32"
        }
      ],
      "stateMutability": "view",
      "type": "function"
    },
    {
      "inputs": [
        {
          "internalType": "address",
          "name": "_user",
          "type": "address"
        },
        {
          "internalType": "contract IERC20",
          "name": "_token",
          "type": "address"
        },
        {
          "internalType": "uint256",
          "name": "_amount",
          "type": "uint256"
        }
      ],
      "name": "_deposit",
      "outputs": [],
      "stateMutability": "nonpayable",
      "type": "function"
    },
    {
      "inputs": [
        {
          "internalType": "address",
          "name": "_user",
          "type": "address"
        },
        {
          "internalType": "contract IERC20",
          "name": "_token",
          "type": "address"
        },
        {
          "internalType": "uint256",
          "name": "_amount",
          "type": "uint256"
        },
        {
          "internalType": "uint256",
          "name": "_yieldEarned",
          "type": "uint256"
        }
      ],
      "name": "_withdraw",
      "outputs": [],
      "stateMutability": "nonpayable",
      "type": "function"
    },
    {
      "inputs": [],
      "name": "admin",
      "outputs": [
        {
          "internalType": "address",
          "name": "",
          "type": "address"
        }
      ],
      "stateMutability": "view",
      "type": "function"
    },
    {
      "inputs": [
        {
          "internalType": "contract IStakingPosition",
          "name": "",
          "type": "address"
        }
      ],
      "name": "allStakePositions",
      "outputs": [
        {
          "internalType": "contract IERC20",
          "name": "",
          "type": "address"
        }
      ],
      "stateMutability": "view",
      "type": "function"
    },
    {
      "inputs": [
        {
          "internalType": "address",
          "name": "masterContract",
          "type": "address"
        },
        {
          "internalType": "bool",
          "name": "approved",
          "type": "bool"
        }
      ],
      "name": "allowMasterContract",
      "outputs": [],
      "stateMutability": "nonpayable",
      "type": "function"
    },
    {
      "inputs": [
        {
          "internalType": "address",
          "name": "",
          "type": "address"
        }
      ],
      "name": "allowedMasterContracts",
      "outputs": [
        {
          "internalType": "bool",
          "name": "",
          "type": "bool"
        }
      ],
      "stateMutability": "view",
      "type": "function"
    },
    {
      "inputs": [
        {
          "internalType": "contract IERC20",
          "name": "_token",
          "type": "address"
        },
        {
          "internalType": "uint256",
          "name": "_amount",
          "type": "uint256"
        },
        {
          "internalType": "address",
          "name": "_to",
          "type": "address"
        }
      ],
      "name": "deployFunds",
      "outputs": [],
      "stateMutability": "nonpayable",
      "type": "function"
    },
    {
      "inputs": [
        {
          "internalType": "address",
          "name": "_masterContract",
          "type": "address"
        },
        {
          "internalType": "string",
          "name": "_name",
          "type": "string"
        },
        {
          "internalType": "string",
          "name": "_symbol",
          "type": "string"
        },
        {
          "internalType": "contract IERC20",
          "name": "_stakeToken",
          "type": "address"
        },
        {
          "internalType": "string",
          "name": "_baseTokenURI",
          "type": "string"
        },
        {
          "internalType": "uint256",
          "name": "_capacity",
          "type": "uint256"
        },
        {
          "internalType": "uint256",
          "name": "_endTime",
          "type": "uint256"
        },
        {
          "internalType": "uint256",
          "name": "_bonusMax",
          "type": "uint256"
        },
        {
          "internalType": "bool",
          "name": "useDefaultLocks",
          "type": "bool"
        }
      ],
      "name": "deployStake",
      "outputs": [],
      "stateMutability": "nonpayable",
      "type": "function"
    },
    {
      "inputs": [
        {
          "internalType": "bytes32",
          "name": "role",
          "type": "bytes32"
        }
      ],
      "name": "getRoleAdmin",
      "outputs": [
        {
          "internalType": "bytes32",
          "name": "",
          "type": "bytes32"
        }
      ],
      "stateMutability": "view",
      "type": "function"
    },
    {
      "inputs": [
        {
          "internalType": "bytes32",
          "name": "role",
          "type": "bytes32"
        },
        {
          "internalType": "uint256",
          "name": "index",
          "type": "uint256"
        }
      ],
      "name": "getRoleMember",
      "outputs": [
        {
          "internalType": "address",
          "name": "",
          "type": "address"
        }
      ],
      "stateMutability": "view",
      "type": "function"
    },
    {
      "inputs": [
        {
          "internalType": "bytes32",
          "name": "role",
          "type": "bytes32"
        }
      ],
      "name": "getRoleMemberCount",
      "outputs": [
        {
          "internalType": "uint256",
          "name": "",
          "type": "uint256"
        }
      ],
      "stateMutability": "view",
      "type": "function"
    },
    {
      "inputs": [
        {
          "internalType": "contract IERC20",
          "name": "_token",
          "type": "address"
        },
        {
          "internalType": "address",
          "name": "_to",
          "type": "address"
        }
      ],
      "name": "governanceRecoverUnsupported",
      "outputs": [],
      "stateMutability": "nonpayable",
      "type": "function"
    },
    {
      "inputs": [
        {
          "internalType": "bytes32",
          "name": "role",
          "type": "bytes32"
        },
        {
          "internalType": "address",
          "name": "account",
          "type": "address"
        }
      ],
      "name": "grantRole",
      "outputs": [],
      "stateMutability": "nonpayable",
      "type": "function"
    },
    {
      "inputs": [
        {
          "internalType": "bytes32",
          "name": "role",
          "type": "bytes32"
        },
        {
          "internalType": "address",
          "name": "account",
          "type": "address"
        }
      ],
      "name": "hasRole",
      "outputs": [
        {
          "internalType": "bool",
          "name": "",
          "type": "bool"
        }
      ],
      "stateMutability": "view",
      "type": "function"
    },
    {
      "inputs": [
        {
          "internalType": "address",
          "name": "_admin",
          "type": "address"
        }
      ],
      "name": "initialize",
      "outputs": [],
      "stateMutability": "nonpayable",
      "type": "function"
    },
    {
      "inputs": [
        {
          "internalType": "address",
          "name": "",
          "type": "address"
        }
      ],
      "name": "masterContractOf",
      "outputs": [
        {
          "internalType": "address",
          "name": "",
          "type": "address"
        }
      ],
      "stateMutability": "view",
      "type": "function"
    },
    {
      "inputs": [],
      "name": "paused",
      "outputs": [
        {
          "internalType": "bool",
          "name": "",
          "type": "bool"
        }
      ],
      "stateMutability": "view",
      "type": "function"
    },
    {
      "inputs": [
        {
          "internalType": "bytes32",
          "name": "role",
          "type": "bytes32"
        },
        {
          "internalType": "address",
          "name": "account",
          "type": "address"
        }
      ],
      "name": "renounceRole",
      "outputs": [],
      "stateMutability": "nonpayable",
      "type": "function"
    },
    {
      "inputs": [
        {
          "internalType": "contract IERC20",
          "name": "_token",
          "type": "address"
        },
        {
          "internalType": "uint256",
          "name": "_amount",
          "type": "uint256"
        },
        {
          "internalType": "address",
          "name": "_from",
          "type": "address"
        }
      ],
      "name": "returnDeployedFunds",
      "outputs": [],
      "stateMutability": "nonpayable",
      "type": "function"
    },
    {
      "inputs": [
        {
          "internalType": "bytes32",
          "name": "role",
          "type": "bytes32"
        },
        {
          "internalType": "address",
          "name": "account",
          "type": "address"
        }
      ],
      "name": "revokeRole",
      "outputs": [],
      "stateMutability": "nonpayable",
      "type": "function"
    },
    {
      "inputs": [
        {
          "internalType": "contract IERC20",
          "name": "",
          "type": "address"
        }
      ],
      "name": "stakePosition",
      "outputs": [
        {
          "internalType": "contract IStakingPosition",
          "name": "",
          "type": "address"
        }
      ],
      "stateMutability": "view",
      "type": "function"
    },
    {
      "inputs": [
        {
          "internalType": "contract IERC20",
          "name": "",
          "type": "address"
        }
      ],
      "name": "stakePositionData",
      "outputs": [
        {
          "internalType": "uint256",
          "name": "created",
          "type": "uint256"
        },
        {
          "internalType": "uint256",
          "name": "capacity",
          "type": "uint256"
        },
        {
          "internalType": "uint256",
          "name": "stakedAmount",
          "type": "uint256"
        },
        {
          "internalType": "uint256",
          "name": "yieldEarned",
          "type": "uint256"
        },
        {
          "internalType": "uint256",
          "name": "endTime",
          "type": "uint256"
        },
        {
          "internalType": "uint256",
          "name": "deployedAmount",
          "type": "uint256"
        },
        {
          "internalType": "uint256",
          "name": "bonusMax",
          "type": "uint256"
        },
        {
          "internalType": "bool",
          "name": "active",
          "type": "bool"
        }
      ],
      "stateMutability": "view",
      "type": "function"
    },
    {
      "inputs": [
        {
          "internalType": "bytes4",
          "name": "interfaceId",
          "type": "bytes4"
        }
      ],
      "name": "supportsInterface",
      "outputs": [
        {
          "internalType": "bool",
          "name": "",
          "type": "bool"
        }
      ],
      "stateMutability": "view",
      "type": "function"
    },
    {
      "inputs": [
        {
          "internalType": "contract IERC20",
          "name": "_stakeToken",
          "type": "address"
        },
        {
          "internalType": "uint256",
          "name": "_capacity",
          "type": "uint256"
        },
        {
          "internalType": "uint256",
          "name": "_endTime",
          "type": "uint256"
        },
        {
          "internalType": "bool",
          "name": "_active",
          "type": "bool"
        }
      ],
      "name": "updateAsset",
      "outputs": [],
      "stateMutability": "nonpayable",
      "type": "function"
    }
  ],
  "transactionHash": "0xa7a25cfa11e4ff8b56a3c7e95e99f495118a1e7f547a62fb1678b8d7cc5b777d",
  "args": [],
  "numDeployments": 2,
  "solcInputHash": "fbde1aa3987adaaa99a605d1c3233d51",
  "bytecode": "0x608060405234801561001057600080fd5b5061001961001e565b6100de565b600054610100900460ff161561008a5760405162461bcd60e51b815260206004820152602760248201527f496e697469616c697a61626c653a20636f6e747261637420697320696e697469604482015266616c697a696e6760c81b606482015260840160405180910390fd5b60005460ff90811610156100dc576000805460ff191660ff9081179091556040519081527f7f26b83ff96e1f2b6a682f133852f6798a09c465da95921460cefb38474024989060200160405180910390a15b565b61209080620000ee6000396000f3fe608060405234801561001057600080fd5b506004361061018e5760003560e01c806397d3b573116100de578063c4d66de811610097578063e401050311610071578063e40105031461042d578063f5b541a614610457578063f851a4401461047e578063f8d155e01461049257600080fd5b8063c4d66de8146103f4578063ca15c87314610407578063d547741f1461041a57600080fd5b806397d3b573146102f75780639f13d5791461030a578063a217fddf1461031d578063b6c7bfea14610325578063bafe4f1414610338578063c08fe0661461036257600080fd5b80633daf24911161014b5780637160b02a116101255780637160b02a146102ab5780639010d07c146102be57806391d14854146102d157806393537a4a146102e457600080fd5b80633daf24911461024b5780634c553ce51461028d5780635c975abb146102a057600080fd5b806301ffc9a714610193578063121361aa146101bb578063248a9ca3146101d05780632f2ff15d1461020157806336568abe146102145780633d9abadb14610227575b600080fd5b6101a66101a13660046119b3565b6104a5565b60405190151581526020015b60405180910390f35b6101ce6101c93660046119fd565b6104d0565b005b6101f36101de366004611a3e565b60009081526097602052604090206001015490565b6040519081526020016101b2565b6101ce61020f366004611a57565b61060f565b6101ce610222366004611a57565b610639565b6101a6610235366004611a87565b61012d6020526000908152604090205460ff1681565b610275610259366004611a87565b610132602052600090815260409020546001600160a01b031681565b6040516001600160a01b0390911681526020016101b2565b6101ce61029b366004611b60565b6106b7565b60335460ff166101a6565b6101ce6102b9366004611c38565b61099d565b6102756102cc366004611c7a565b610b10565b6101a66102df366004611a57565b610b2f565b6101ce6102f2366004611c38565b610b5a565b6101ce610305366004611c9c565b610cbf565b6101ce610318366004611cca565b610de9565b6101f3600081565b6101ce610333366004611cf8565b610e99565b610275610346366004611a87565b61012e602052600090815260409020546001600160a01b031681565b6103b7610370366004611a87565b610131602052600090815260409020805460018201546002830154600384015460048501546005860154600687015460079097015495969495939492939192909160ff1688565b604080519889526020890197909752958701949094526060860192909252608085015260a084015260c0830152151560e0820152610100016101b2565b6101ce610402366004611a87565b610f81565b6101f3610415366004611a3e565b6110f3565b6101ce610428366004611a57565b61110a565b61027561043b366004611a87565b610130602052600090815260409020546001600160a01b031681565b6101f37f97667070c54ef182b0f5858b034beac1b6f3089aa2d3188bb1e8929f4fa9b92981565b61013354610275906001600160a01b031681565b6101ce6104a0366004611d42565b61112f565b60006001600160e01b03198216635a05180f60e01b14806104ca57506104ca826112b1565b92915050565b6104d9336112e6565b6104fe5760405162461bcd60e51b81526004016104f590611d88565b60405180910390fd5b6001600160a01b0382166000908152610131602052604081206002810180549192849261052c908490611dbe565b90915550506040516323b872dd60e01b81526001600160a01b038581166004830152306024830152604482018490528416906323b872dd906064016020604051808303816000875af1158015610586573d6000803e3d6000fd5b505050506040513d601f19601f820116820180604052508101906105aa9190611dd1565b6105c65760405162461bcd60e51b81526004016104f590611dee565b826001600160a01b03167fe1fffcc4923d04b559f4d29a8bfc6cda04eb5b0d3c460751c2402c5c5cc9109c8360405161060191815260200190565b60405180910390a250505050565b60008281526097602052604090206001015461062a81611319565b6106348383611326565b505050565b6001600160a01b03811633146106a95760405162461bcd60e51b815260206004820152602f60248201527f416363657373436f6e74726f6c3a2063616e206f6e6c792072656e6f756e636560448201526e103937b632b9903337b91039b2b63360891b60648201526084016104f5565b6106b38282611348565b5050565b6101335433906001600160a01b031681146106e45760405162461bcd60e51b81526004016104f590611d88565b6001600160a01b038a1661073a5760405162461bcd60e51b815260206004820152601d60248201527f43616e6e6f742061646420636f6e74726163742061646472657373203000000060448201526064016104f5565b6001600160a01b038a16600090815261012d602052604090205460ff166107a35760405162461bcd60e51b815260206004820152601d60248201527f436f6e747261637420686173206e6f74206265656e20616c6c6f77656400000060448201526064016104f5565b6107ac8761136a565b156108175760405162461bcd60e51b815260206004820152603560248201527f5374616b6520616c72656164792065786973747320666f7220746869732061736044820152741cd95d0b081c1b19585cd9481d5c19185d19481a5d605a1b60648201526084016104f5565b60006108228b611391565b604051633649c47960e01b81529091506001600160a01b03821690633649c4799061085b908d908d908d908d908d908d90600401611e75565b600060405180830381600087803b15801561087557600080fd5b505af1158015610889573d6000803e3d6000fd5b5050505061093788858888604080516101008101825242815260208082019485526000828401818152606084018281526080850196875260a0850183815260c08601998a52600160e087018181526001600160a01b03909c16855261013190955295909220935184559551918301919091559351600282015592516003840155905160048301555160058201559051600682015590516007909101805491151560ff19909216919091179055565b6001600160a01b039788166000818152610130602090815260408083208054958d166001600160a01b03199687168117909155835261013282528083208054861690941790935561012e90522080549b9098169a16999099179095555050505050505050565b6101335433906001600160a01b031681146109ca5760405162461bcd60e51b81526004016104f590611d88565b6001600160a01b03841660009081526101316020526040902054610a005760405162461bcd60e51b81526004016104f590611ed3565b6001600160a01b03841660009081526101316020526040812060058101805491928692610a2e908490611dbe565b909155505060405163a9059cbb60e01b81526001600160a01b0384811660048301526024820186905286169063a9059cbb906044016020604051808303816000875af1158015610a82573d6000803e3d6000fd5b505050506040513d601f19601f82011682018060405250810190610aa69190611dd1565b610ac25760405162461bcd60e51b81526004016104f590611dee565b604080516001600160a01b038581168252602082018790528716917f4e8dab10d05a07ef957b7628e008e14816b97a8fead4810029ffede230d1e17b91015b60405180910390a25050505050565b600082815260c960205260408120610b28908361142b565b9392505050565b60009182526097602090815260408084206001600160a01b0393909316845291905290205460ff1690565b6101335433906001600160a01b03168114610b875760405162461bcd60e51b81526004016104f590611d88565b6001600160a01b03841660009081526101316020526040902054610bbd5760405162461bcd60e51b81526004016104f590611ed3565b6001600160a01b03848116600081815261013160205260409081902090516323b872dd60e01b8152928516600484015230602484015260448301869052916323b872dd906064016020604051808303816000875af1158015610c23573d6000803e3d6000fd5b505050506040513d601f19601f82011682018060405250810190610c479190611dd1565b610c635760405162461bcd60e51b81526004016104f590611dee565b83816005016000828254610c779190611f01565b9091555050604080516001600160a01b038581168252602082018790528716917fd94415916610c60b0e0e439fd308b171a6e28fad608830cf17f14ff5928e22799101610b01565b6101335433906001600160a01b03168114610cec5760405162461bcd60e51b81526004016104f590611d88565b6040516370a0823160e01b81523060048201526001600160a01b0384169063a9059cbb90849083906370a0823190602401602060405180830381865afa158015610d3a573d6000803e3d6000fd5b505050506040513d601f19601f82011682018060405250810190610d5e9190611f14565b6040516001600160e01b031960e085901b1681526001600160a01b03909216600483015260248201526044016020604051808303816000875af1158015610da9573d6000803e3d6000fd5b505050506040513d601f19601f82011682018060405250810190610dcd9190611dd1565b6106345760405162461bcd60e51b81526004016104f590611dee565b6101335433906001600160a01b03168114610e165760405162461bcd60e51b81526004016104f590611d88565b6001600160a01b038316610e6c5760405162461bcd60e51b815260206004820152601d60248201527f43616e6e6f742061646420636f6e74726163742061646472657373203000000060448201526064016104f5565b506001600160a01b0391909116600090815261012d60205260409020805460ff1916911515919091179055565b6101335433906001600160a01b03168114610ec65760405162461bcd60e51b81526004016104f590611d88565b6001600160a01b03851660009081526101316020526040902054610efc5760405162461bcd60e51b81526004016104f590611ed3565b6001600160a01b03851660008181526101316020908152604091829020600181018890556004810187905560078101805487151560ff19909116811790915583518981529283018890528284015291519192917f7093a36e926ab1f412d05ee921c3689370d6897cf348f11d0a17a3965ff114c09181900360600190a2505050505050565b600054610100900460ff1615808015610fa15750600054600160ff909116105b80610fbb5750303b158015610fbb575060005460ff166001145b61101e5760405162461bcd60e51b815260206004820152602e60248201527f496e697469616c697a61626c653a20636f6e747261637420697320616c72656160448201526d191e481a5b9a5d1a585b1a5e995960921b60648201526084016104f5565b6000805460ff191660011790558015611041576000805461ff0019166101001790555b611049611437565b611051611460565b61105961148f565b61013380546001600160a01b0319166001600160a01b038416179055611080600083611326565b6110aa7f97667070c54ef182b0f5858b034beac1b6f3089aa2d3188bb1e8929f4fa9b92983611326565b80156106b3576000805461ff0019169055604051600181527f7f26b83ff96e1f2b6a682f133852f6798a09c465da95921460cefb38474024989060200160405180910390a15050565b600081815260c9602052604081206104ca906114be565b60008281526097602052604090206001015461112581611319565b6106348383611348565b611138336112e6565b6111545760405162461bcd60e51b81526004016104f590611d88565b6001600160a01b038316600090815261013160205260409020805461118b5760405162461bcd60e51b81526004016104f590611ed3565b8281600201600082825461119f9190611f01565b92505081905550818160030160008282546111ba9190611dbe565b90915550506001600160a01b0384167f884edad9ce6fa2440d8a54cc123490eb96d2768479d49ff9c7366125a94243646111f48486611dbe565b60405190815260200160405180910390a26001600160a01b03841663a9059cbb8661121f8587611dbe565b6040516001600160e01b031960e085901b1681526001600160a01b03909216600483015260248201526044016020604051808303816000875af115801561126a573d6000803e3d6000fd5b505050506040513d601f19601f8201168201806040525081019061128e9190611dd1565b6112aa5760405162461bcd60e51b81526004016104f590611dee565b5050505050565b60006001600160e01b03198216637965db0b60e01b14806104ca57506301ffc9a760e01b6001600160e01b03198316146104ca565b6001600160a01b03818116600090815261013260205260408120549091161561131157506001919050565b506000919050565b61132381336114c8565b50565b6113308282611521565b600082815260c96020526040902061063490826115a7565b61135282826115bc565b600082815260c9602052604090206106349082611623565b6001600160a01b038116600090815261013160205260408120541561131157506001919050565b6000763d602d80600a3d3981f3363d3d373d3d3d363d730000008260601b60e81c176000526e5af43d82803e903d91602b57fd5bf38260781b17602052603760096000f090506001600160a01b0381166114265760405162461bcd60e51b8152602060048201526016602482015275115490cc4c4d8dce8818dc99585d194819985a5b195960521b60448201526064016104f5565b919050565b6000610b288383611638565b600054610100900460ff1661145e5760405162461bcd60e51b81526004016104f590611f2d565b565b600054610100900460ff166114875760405162461bcd60e51b81526004016104f590611f2d565b61145e611662565b600054610100900460ff166114b65760405162461bcd60e51b81526004016104f590611f2d565b61145e611690565b60006104ca825490565b6114d28282610b2f565b6106b3576114df816116c3565b6114ea8360206116d5565b6040516020016114fb929190611f78565b60408051601f198184030181529082905262461bcd60e51b82526104f591600401611fed565b61152b8282610b2f565b6106b35760008281526097602090815260408083206001600160a01b03851684529091529020805460ff191660011790556115633390565b6001600160a01b0316816001600160a01b0316837f2f8788117e7eff1d82e926ec794901d17c78024a50270940304540a733656f0d60405160405180910390a45050565b6000610b28836001600160a01b038416611871565b6115c68282610b2f565b156106b35760008281526097602090815260408083206001600160a01b0385168085529252808320805460ff1916905551339285917ff6391f5c32d9c69d2a47ea670b442974b53935d1edc7fd64eb21e047a839171b9190a45050565b6000610b28836001600160a01b0384166118c0565b600082600001828154811061164f5761164f612000565b9060005260206000200154905092915050565b600054610100900460ff166116895760405162461bcd60e51b81526004016104f590611f2d565b600160fb55565b600054610100900460ff166116b75760405162461bcd60e51b81526004016104f590611f2d565b6033805460ff19169055565b60606104ca6001600160a01b03831660145b606060006116e4836002612016565b6116ef906002611dbe565b67ffffffffffffffff81111561170757611707611aa4565b6040519080825280601f01601f191660200182016040528015611731576020820181803683370190505b509050600360fc1b8160008151811061174c5761174c612000565b60200101906001600160f81b031916908160001a905350600f60fb1b8160018151811061177b5761177b612000565b60200101906001600160f81b031916908160001a905350600061179f846002612016565b6117aa906001611dbe565b90505b6001811115611822576f181899199a1a9b1b9c1cb0b131b232b360811b85600f16601081106117de576117de612000565b1a60f81b8282815181106117f4576117f4612000565b60200101906001600160f81b031916908160001a90535060049490941c9361181b8161202d565b90506117ad565b508315610b285760405162461bcd60e51b815260206004820181905260248201527f537472696e67733a20686578206c656e67746820696e73756666696369656e7460448201526064016104f5565b60008181526001830160205260408120546118b8575081546001818101845560008481526020808220909301849055845484825282860190935260409020919091556104ca565b5060006104ca565b600081815260018301602052604081205480156119a95760006118e4600183611f01565b85549091506000906118f890600190611f01565b905081811461195d57600086600001828154811061191857611918612000565b906000526020600020015490508087600001848154811061193b5761193b612000565b6000918252602080832090910192909255918252600188019052604090208390555b855486908061196e5761196e612044565b6001900381819060005260206000200160009055905585600101600086815260200190815260200160002060009055600193505050506104ca565b60009150506104ca565b6000602082840312156119c557600080fd5b81356001600160e01b031981168114610b2857600080fd5b6001600160a01b038116811461132357600080fd5b8035611426816119dd565b600080600060608486031215611a1257600080fd5b8335611a1d816119dd565b92506020840135611a2d816119dd565b929592945050506040919091013590565b600060208284031215611a5057600080fd5b5035919050565b60008060408385031215611a6a57600080fd5b823591506020830135611a7c816119dd565b809150509250929050565b600060208284031215611a9957600080fd5b8135610b28816119dd565b634e487b7160e01b600052604160045260246000fd5b600082601f830112611acb57600080fd5b813567ffffffffffffffff80821115611ae657611ae6611aa4565b604051601f8301601f19908116603f01168101908282118183101715611b0e57611b0e611aa4565b81604052838152866020858801011115611b2757600080fd5b836020870160208301376000602085830101528094505050505092915050565b801515811461132357600080fd5b803561142681611b47565b60008060008060008060008060006101208a8c031215611b7f57600080fd5b611b888a6119f2565b985060208a013567ffffffffffffffff80821115611ba557600080fd5b611bb18d838e01611aba565b995060408c0135915080821115611bc757600080fd5b611bd38d838e01611aba565b9850611be160608d016119f2565b975060808c0135915080821115611bf757600080fd5b50611c048c828d01611aba565b95505060a08a0135935060c08a0135925060e08a01359150611c296101008b01611b55565b90509295985092959850929598565b600080600060608486031215611c4d57600080fd5b8335611c58816119dd565b9250602084013591506040840135611c6f816119dd565b809150509250925092565b60008060408385031215611c8d57600080fd5b50508035926020909101359150565b60008060408385031215611caf57600080fd5b8235611cba816119dd565b91506020830135611a7c816119dd565b60008060408385031215611cdd57600080fd5b8235611ce8816119dd565b91506020830135611a7c81611b47565b60008060008060808587031215611d0e57600080fd5b8435611d19816119dd565b935060208501359250604085013591506060850135611d3781611b47565b939692955090935050565b60008060008060808587031215611d5857600080fd5b8435611d63816119dd565b93506020850135611d73816119dd565b93969395505050506040820135916060013590565b60208082526006908201526510b7bbb732b960d11b604082015260600190565b634e487b7160e01b600052601160045260246000fd5b808201808211156104ca576104ca611da8565b600060208284031215611de357600080fd5b8151610b2881611b47565b6020808252601e908201527f546f6b656e20636f756c64206e6f74206265207472616e736665727265640000604082015260600190565b60005b83811015611e40578181015183820152602001611e28565b50506000910152565b60008151808452611e61816020860160208601611e25565b601f01601f19169290920160200192915050565b60c081526000611e8860c0830189611e49565b8281036020840152611e9a8189611e49565b6001600160a01b038816604085015283810360608501529050611ebd8187611e49565b6080840195909552505060a00152949350505050565b60208082526014908201527314dd185ad948191bd95cc81b9bdd08195e1a5cdd60621b604082015260600190565b818103818111156104ca576104ca611da8565b600060208284031215611f2657600080fd5b5051919050565b6020808252602b908201527f496e697469616c697a61626c653a20636f6e7472616374206973206e6f74206960408201526a6e697469616c697a696e6760a81b606082015260800190565b7f416363657373436f6e74726f6c3a206163636f756e7420000000000000000000815260008351611fb0816017850160208801611e25565b7001034b99036b4b9b9b4b733903937b6329607d1b6017918401918201528351611fe1816028840160208801611e25565b01602801949350505050565b602081526000610b286020830184611e49565b634e487b7160e01b600052603260045260246000fd5b80820281158282048414176104ca576104ca611da8565b60008161203c5761203c611da8565b506000190190565b634e487b7160e01b600052603160045260246000fdfea2646970667358221220ffbcab63ef366e3a893ebf9340e6d3162d1e2c9cac9eacdf4587c7ad8db01f7664736f6c63430008110033",
  "devdoc": {
    "kind": "dev",
    "methods": {
      "constructor": {
        "custom:oz-upgrades-unsafe-allow": "constructor"
      },
      "getRoleAdmin(bytes32)": {
        "details": "Returns the admin role that controls `role`. See {grantRole} and {revokeRole}. To change a role's admin, use {_setRoleAdmin}."
      },
      "getRoleMember(bytes32,uint256)": {
        "details": "Returns one of the accounts that have `role`. `index` must be a value between 0 and {getRoleMemberCount}, non-inclusive. Role bearers are not sorted in any particular way, and their ordering may change at any point. WARNING: When using {getRoleMember} and {getRoleMemberCount}, make sure you perform all queries on the same block. See the following https://forum.openzeppelin.com/t/iterating-over-elements-on-enumerableset-in-openzeppelin-contracts/2296[forum post] for more information."
      },
      "getRoleMemberCount(bytes32)": {
        "details": "Returns the number of accounts that have `role`. Can be used together with {getRoleMember} to enumerate all bearers of a role."
      },
      "grantRole(bytes32,address)": {
        "details": "Grants `role` to `account`. If `account` had not been already granted `role`, emits a {RoleGranted} event. Requirements: - the caller must have ``role``'s admin role. May emit a {RoleGranted} event."
      },
      "hasRole(bytes32,address)": {
        "details": "Returns `true` if `account` has been granted `role`."
      },
      "paused()": {
        "details": "Returns true if the contract is paused, and false otherwise."
      },
      "renounceRole(bytes32,address)": {
        "details": "Revokes `role` from the calling account. Roles are often managed via {grantRole} and {revokeRole}: this function's purpose is to provide a mechanism for accounts to lose their privileges if they are compromised (such as when a trusted device is misplaced). If the calling account had been revoked `role`, emits a {RoleRevoked} event. Requirements: - the caller must be `account`. May emit a {RoleRevoked} event."
      },
      "revokeRole(bytes32,address)": {
        "details": "Revokes `role` from `account`. If `account` had been granted `role`, emits a {RoleRevoked} event. Requirements: - the caller must have ``role``'s admin role. May emit a {RoleRevoked} event."
      },
      "supportsInterface(bytes4)": {
        "details": "See {IERC165-supportsInterface}."
      }
    },
    "version": 1
  },
  "userdoc": {
    "kind": "user",
    "methods": {},
    "version": 1
  },
  "storageLayout": {
    "storage": [
      {
        "astId": 665,
        "contract": "contracts/StakeVaultV2.sol:StakeVaultV2",
        "label": "_initialized",
        "offset": 0,
        "slot": "0",
        "type": "t_uint8"
      },
      {
        "astId": 668,
        "contract": "contracts/StakeVaultV2.sol:StakeVaultV2",
        "label": "_initializing",
        "offset": 1,
        "slot": "0",
        "type": "t_bool"
      },
      {
        "astId": 1430,
        "contract": "contracts/StakeVaultV2.sol:StakeVaultV2",
        "label": "__gap",
        "offset": 0,
        "slot": "1",
        "type": "t_array(t_uint256)50_storage"
      },
      {
        "astId": 848,
        "contract": "contracts/StakeVaultV2.sol:StakeVaultV2",
        "label": "_paused",
        "offset": 0,
        "slot": "51",
        "type": "t_bool"
      },
      {
        "astId": 953,
        "contract": "contracts/StakeVaultV2.sol:StakeVaultV2",
        "label": "__gap",
        "offset": 0,
        "slot": "52",
        "type": "t_array(t_uint256)49_storage"
      },
      {
        "astId": 1649,
        "contract": "contracts/StakeVaultV2.sol:StakeVaultV2",
        "label": "__gap",
        "offset": 0,
        "slot": "101",
        "type": "t_array(t_uint256)50_storage"
      },
      {
        "astId": 184,
        "contract": "contracts/StakeVaultV2.sol:StakeVaultV2",
        "label": "_roles",
        "offset": 0,
        "slot": "151",
        "type": "t_mapping(t_bytes32,t_struct(RoleData)179_storage)"
      },
      {
        "astId": 479,
        "contract": "contracts/StakeVaultV2.sol:StakeVaultV2",
        "label": "__gap",
        "offset": 0,
        "slot": "152",
        "type": "t_array(t_uint256)49_storage"
      },
      {
        "astId": 33,
        "contract": "contracts/StakeVaultV2.sol:StakeVaultV2",
        "label": "_roleMembers",
        "offset": 0,
        "slot": "201",
        "type": "t_mapping(t_bytes32,t_struct(AddressSet)2853_storage)"
      },
      {
        "astId": 143,
        "contract": "contracts/StakeVaultV2.sol:StakeVaultV2",
        "label": "__gap",
        "offset": 0,
        "slot": "202",
        "type": "t_array(t_uint256)49_storage"
      },
      {
        "astId": 968,
        "contract": "contracts/StakeVaultV2.sol:StakeVaultV2",
        "label": "_status",
        "offset": 0,
        "slot": "251",
        "type": "t_uint256"
      },
      {
        "astId": 1026,
        "contract": "contracts/StakeVaultV2.sol:StakeVaultV2",
        "label": "__gap",
        "offset": 0,
        "slot": "252",
        "type": "t_array(t_uint256)49_storage"
      },
      {
        "astId": 3409,
        "contract": "contracts/StakeVaultV2.sol:StakeVaultV2",
        "label": "allowedMasterContracts",
        "offset": 0,
        "slot": "301",
        "type": "t_mapping(t_address,t_bool)"
      },
      {
        "astId": 3413,
        "contract": "contracts/StakeVaultV2.sol:StakeVaultV2",
        "label": "masterContractOf",
        "offset": 0,
        "slot": "302",
        "type": "t_mapping(t_address,t_address)"
      },
      {
        "astId": 3417,
        "contract": "contracts/StakeVaultV2.sol:StakeVaultV2",
        "label": "_defaultAprLockOptions",
        "offset": 0,
        "slot": "303",
        "type": "t_array(t_struct(AprLockDefaults)3405_storage)dyn_storage"
      },
      {
        "astId": 3423,
        "contract": "contracts/StakeVaultV2.sol:StakeVaultV2",
        "label": "stakePosition",
        "offset": 0,
        "slot": "304",
        "type": "t_mapping(t_contract(IERC20)3331,t_contract(IStakingPosition)4176)"
      },
      {
        "astId": 3429,
        "contract": "contracts/StakeVaultV2.sol:StakeVaultV2",
        "label": "stakePositionData",
        "offset": 0,
        "slot": "305",
        "type": "t_mapping(t_contract(IERC20)3331,t_struct(StakeAsset)3390_storage)"
      },
      {
        "astId": 3435,
        "contract": "contracts/StakeVaultV2.sol:StakeVaultV2",
        "label": "allStakePositions",
        "offset": 0,
        "slot": "306",
        "type": "t_mapping(t_contract(IStakingPosition)4176,t_contract(IERC20)3331)"
      },
      {
        "astId": 3437,
        "contract": "contracts/StakeVaultV2.sol:StakeVaultV2",
        "label": "admin",
        "offset": 0,
        "slot": "307",
        "type": "t_address"
      }
    ],
    "types": {
      "t_address": {
        "encoding": "inplace",
        "label": "address",
        "numberOfBytes": "20"
      },
      "t_array(t_bytes32)dyn_storage": {
        "base": "t_bytes32",
        "encoding": "dynamic_array",
        "label": "bytes32[]",
        "numberOfBytes": "32"
      },
      "t_array(t_struct(AprLockDefaults)3405_storage)dyn_storage": {
        "base": "t_struct(AprLockDefaults)3405_storage",
        "encoding": "dynamic_array",
        "label": "struct StakeVaultV2.AprLockDefaults[]",
        "numberOfBytes": "32"
      },
      "t_array(t_uint256)49_storage": {
        "base": "t_uint256",
        "encoding": "inplace",
        "label": "uint256[49]",
        "numberOfBytes": "1568"
      },
      "t_array(t_uint256)50_storage": {
        "base": "t_uint256",
        "encoding": "inplace",
        "label": "uint256[50]",
        "numberOfBytes": "1600"
      },
      "t_bool": {
        "encoding": "inplace",
        "label": "bool",
        "numberOfBytes": "1"
      },
      "t_bytes32": {
        "encoding": "inplace",
        "label": "bytes32",
        "numberOfBytes": "32"
      },
      "t_contract(IERC20)3331": {
        "encoding": "inplace",
        "label": "contract IERC20",
        "numberOfBytes": "20"
      },
      "t_contract(IStakingPosition)4176": {
        "encoding": "inplace",
        "label": "contract IStakingPosition",
        "numberOfBytes": "20"
      },
      "t_mapping(t_address,t_address)": {
        "encoding": "mapping",
        "key": "t_address",
        "label": "mapping(address => address)",
        "numberOfBytes": "32",
        "value": "t_address"
      },
      "t_mapping(t_address,t_bool)": {
        "encoding": "mapping",
        "key": "t_address",
        "label": "mapping(address => bool)",
        "numberOfBytes": "32",
        "value": "t_bool"
      },
      "t_mapping(t_bytes32,t_struct(AddressSet)2853_storage)": {
        "encoding": "mapping",
        "key": "t_bytes32",
        "label": "mapping(bytes32 => struct EnumerableSetUpgradeable.AddressSet)",
        "numberOfBytes": "32",
        "value": "t_struct(AddressSet)2853_storage"
      },
      "t_mapping(t_bytes32,t_struct(RoleData)179_storage)": {
        "encoding": "mapping",
        "key": "t_bytes32",
        "label": "mapping(bytes32 => struct AccessControlUpgradeable.RoleData)",
        "numberOfBytes": "32",
        "value": "t_struct(RoleData)179_storage"
      },
      "t_mapping(t_bytes32,t_uint256)": {
        "encoding": "mapping",
        "key": "t_bytes32",
        "label": "mapping(bytes32 => uint256)",
        "numberOfBytes": "32",
        "value": "t_uint256"
      },
      "t_mapping(t_contract(IERC20)3331,t_contract(IStakingPosition)4176)": {
        "encoding": "mapping",
        "key": "t_contract(IERC20)3331",
        "label": "mapping(contract IERC20 => contract IStakingPosition)",
        "numberOfBytes": "32",
        "value": "t_contract(IStakingPosition)4176"
      },
      "t_mapping(t_contract(IERC20)3331,t_struct(StakeAsset)3390_storage)": {
        "encoding": "mapping",
        "key": "t_contract(IERC20)3331",
        "label": "mapping(contract IERC20 => struct StakeVaultV2.StakeAsset)",
        "numberOfBytes": "32",
        "value": "t_struct(StakeAsset)3390_storage"
      },
      "t_mapping(t_contract(IStakingPosition)4176,t_contract(IERC20)3331)": {
        "encoding": "mapping",
        "key": "t_contract(IStakingPosition)4176",
        "label": "mapping(contract IStakingPosition => contract IERC20)",
        "numberOfBytes": "32",
        "value": "t_contract(IERC20)3331"
      },
      "t_struct(AddressSet)2853_storage": {
        "encoding": "inplace",
        "label": "struct EnumerableSetUpgradeable.AddressSet",
        "members": [
          {
            "astId": 2852,
            "contract": "contracts/StakeVaultV2.sol:StakeVaultV2",
            "label": "_inner",
            "offset": 0,
            "slot": "0",
            "type": "t_struct(Set)2538_storage"
          }
        ],
        "numberOfBytes": "64"
      },
      "t_struct(AprLockDefaults)3405_storage": {
        "encoding": "inplace",
        "label": "struct StakeVaultV2.AprLockDefaults",
        "members": [
          {
            "astId": 3402,
            "contract": "contracts/StakeVaultV2.sol:StakeVaultV2",
            "label": "apr",
            "offset": 0,
            "slot": "0",
            "type": "t_uint16"
          },
          {
            "astId": 3404,
            "contract": "contracts/StakeVaultV2.sol:StakeVaultV2",
            "label": "lockTime",
            "offset": 0,
            "slot": "1",
            "type": "t_uint256"
          }
        ],
        "numberOfBytes": "64"
      },
      "t_struct(RoleData)179_storage": {
        "encoding": "inplace",
        "label": "struct AccessControlUpgradeable.RoleData",
        "members": [
          {
            "astId": 176,
            "contract": "contracts/StakeVaultV2.sol:StakeVaultV2",
            "label": "members",
            "offset": 0,
            "slot": "0",
            "type": "t_mapping(t_address,t_bool)"
          },
          {
            "astId": 178,
            "contract": "contracts/StakeVaultV2.sol:StakeVaultV2",
            "label": "adminRole",
            "offset": 0,
            "slot": "1",
            "type": "t_bytes32"
          }
        ],
        "numberOfBytes": "64"
      },
      "t_struct(Set)2538_storage": {
        "encoding": "inplace",
        "label": "struct EnumerableSetUpgradeable.Set",
        "members": [
          {
            "astId": 2533,
            "contract": "contracts/StakeVaultV2.sol:StakeVaultV2",
            "label": "_values",
            "offset": 0,
            "slot": "0",
            "type": "t_array(t_bytes32)dyn_storage"
          },
          {
            "astId": 2537,
            "contract": "contracts/StakeVaultV2.sol:StakeVaultV2",
            "label": "_indexes",
            "offset": 0,
            "slot": "1",
            "type": "t_mapping(t_bytes32,t_uint256)"
          }
        ],
        "numberOfBytes": "64"
      },
      "t_struct(StakeAsset)3390_storage": {
        "encoding": "inplace",
        "label": "struct StakeVaultV2.StakeAsset",
        "members": [
          {
            "astId": 3375,
            "contract": "contracts/StakeVaultV2.sol:StakeVaultV2",
            "label": "created",
            "offset": 0,
            "slot": "0",
            "type": "t_uint256"
          },
          {
            "astId": 3377,
            "contract": "contracts/StakeVaultV2.sol:StakeVaultV2",
            "label": "capacity",
            "offset": 0,
            "slot": "1",
            "type": "t_uint256"
          },
          {
            "astId": 3379,
            "contract": "contracts/StakeVaultV2.sol:StakeVaultV2",
            "label": "stakedAmount",
            "offset": 0,
            "slot": "2",
            "type": "t_uint256"
          },
          {
            "astId": 3381,
            "contract": "contracts/StakeVaultV2.sol:StakeVaultV2",
            "label": "yieldEarned",
            "offset": 0,
            "slot": "3",
            "type": "t_uint256"
          },
          {
            "astId": 3383,
            "contract": "contracts/StakeVaultV2.sol:StakeVaultV2",
            "label": "endTime",
            "offset": 0,
            "slot": "4",
            "type": "t_uint256"
          },
          {
            "astId": 3385,
            "contract": "contracts/StakeVaultV2.sol:StakeVaultV2",
            "label": "deployedAmount",
            "offset": 0,
            "slot": "5",
            "type": "t_uint256"
          },
          {
            "astId": 3387,
            "contract": "contracts/StakeVaultV2.sol:StakeVaultV2",
            "label": "bonusMax",
            "offset": 0,
            "slot": "6",
            "type": "t_uint256"
          },
          {
            "astId": 3389,
            "contract": "contracts/StakeVaultV2.sol:StakeVaultV2",
            "label": "active",
            "offset": 0,
            "slot": "7",
            "type": "t_bool"
          }
        ],
        "numberOfBytes": "256"
      },
      "t_uint16": {
        "encoding": "inplace",
        "label": "uint16",
        "numberOfBytes": "2"
      },
      "t_uint256": {
        "encoding": "inplace",
        "label": "uint256",
        "numberOfBytes": "32"
      },
      "t_uint8": {
        "encoding": "inplace",
        "label": "uint8",
        "numberOfBytes": "1"
      }
    }
  }
}