{
  "address": "0x626F6217265ee7388470b17f513F55E96C442322",
  "abi": [
    {
      "inputs": [],
      "stateMutability": "nonpayable",
      "type": "constructor"
    },
    {
      "anonymous": false,
      "inputs": [
        {
          "indexed": true,
          "internalType": "uint16",
          "name": "apr",
          "type": "uint16"
        },
        {
          "indexed": false,
          "internalType": "uint256",
          "name": "lockTime",
          "type": "uint256"
        }
      ],
      "name": "AddDefaultAprLockOption",
      "type": "event"
    },
    {
      "anonymous": false,
      "inputs": [
        {
          "indexed": true,
          "internalType": "address",
          "name": "previousOwner",
          "type": "address"
        },
        {
          "indexed": true,
          "internalType": "address",
          "name": "newOwner",
          "type": "address"
        }
      ],
      "name": "OwnershipTransferred",
      "type": "event"
    },
    {
      "anonymous": false,
      "inputs": [
        {
          "indexed": true,
          "internalType": "uint256",
          "name": "index",
          "type": "uint256"
        },
        {
          "indexed": true,
          "internalType": "uint16",
          "name": "apr",
          "type": "uint16"
        },
        {
          "indexed": false,
          "internalType": "uint256",
          "name": "lockTime",
          "type": "uint256"
        }
      ],
      "name": "RemoveDefaultAprLockOption",
      "type": "event"
    },
    {
      "anonymous": false,
      "inputs": [
        {
          "indexed": true,
          "internalType": "uint256",
          "name": "index",
          "type": "uint256"
        },
        {
          "indexed": true,
          "internalType": "uint16",
          "name": "oldApr",
          "type": "uint16"
        },
        {
          "indexed": false,
          "internalType": "uint256",
          "name": "oldLockTime",
          "type": "uint256"
        },
        {
          "indexed": false,
          "internalType": "uint16",
          "name": "newApr",
          "type": "uint16"
        },
        {
          "indexed": false,
          "internalType": "uint256",
          "name": "newLockTime",
          "type": "uint256"
        }
      ],
      "name": "UpdateDefaultAprLockOption",
      "type": "event"
    },
    {
      "inputs": [
        {
          "internalType": "uint16",
          "name": "_apr",
          "type": "uint16"
        },
        {
          "internalType": "uint256",
          "name": "_lockTime",
          "type": "uint256"
        }
      ],
      "name": "defaultsAddAprLockOption",
      "outputs": [],
      "stateMutability": "nonpayable",
      "type": "function"
    },
    {
      "inputs": [],
      "name": "defaultsGetAllLockOptions",
      "outputs": [
        {
          "components": [
            {
              "internalType": "uint16",
              "name": "apr",
              "type": "uint16"
            },
            {
              "internalType": "uint256",
              "name": "lockTime",
              "type": "uint256"
            }
          ],
          "internalType": "struct StakeVault.AprLockDefaults[]",
          "name": "",
          "type": "tuple[]"
        }
      ],
      "stateMutability": "view",
      "type": "function"
    },
    {
      "inputs": [
        {
          "internalType": "uint256",
          "name": "_index",
          "type": "uint256"
        }
      ],
      "name": "defaultsRemoveAprLockOption",
      "outputs": [],
      "stateMutability": "nonpayable",
      "type": "function"
    },
    {
      "inputs": [
        {
          "internalType": "uint256",
          "name": "_index",
          "type": "uint256"
        },
        {
          "internalType": "uint16",
          "name": "_apr",
          "type": "uint16"
        },
        {
          "internalType": "uint256",
          "name": "_lockTime",
          "type": "uint256"
        }
      ],
      "name": "defaultsUpdateAprLockOption",
      "outputs": [],
      "stateMutability": "nonpayable",
      "type": "function"
    },
    {
      "inputs": [
        {
          "internalType": "string",
          "name": "_name",
          "type": "string"
        },
        {
          "internalType": "string",
          "name": "_symbol",
          "type": "string"
        },
        {
          "internalType": "address",
          "name": "_stakeToken",
          "type": "address"
        },
        {
          "internalType": "string",
          "name": "_baseTokenURI",
          "type": "string"
        },
        {
          "internalType": "uint256",
          "name": "_capacity",
          "type": "uint256"
        },
        {
          "internalType": "uint256",
          "name": "_endTime",
          "type": "uint256"
        },
        {
          "internalType": "bool",
          "name": "useDefaultLocks",
          "type": "bool"
        }
      ],
      "name": "deployStake",
      "outputs": [],
      "stateMutability": "nonpayable",
      "type": "function"
    },
    {
      "inputs": [
        {
          "internalType": "address",
          "name": "_user",
          "type": "address"
        },
        {
          "internalType": "address",
          "name": "_token",
          "type": "address"
        },
        {
          "internalType": "uint256",
          "name": "_amount",
          "type": "uint256"
        }
      ],
      "name": "deposit",
      "outputs": [],
      "stateMutability": "nonpayable",
      "type": "function"
    },
    {
      "inputs": [
        {
          "internalType": "contract ERC20",
          "name": "_token",
          "type": "address"
        },
        {
          "internalType": "address",
          "name": "_to",
          "type": "address"
        }
      ],
      "name": "governanceRecoverUnsupported",
      "outputs": [],
      "stateMutability": "nonpayable",
      "type": "function"
    },
    {
      "inputs": [],
      "name": "owner",
      "outputs": [
        {
          "internalType": "address",
          "name": "",
          "type": "address"
        }
      ],
      "stateMutability": "view",
      "type": "function"
    },
    {
      "inputs": [
        {
          "internalType": "address",
          "name": "",
          "type": "address"
        }
      ],
      "name": "positionForAsset",
      "outputs": [
        {
          "internalType": "address",
          "name": "",
          "type": "address"
        }
      ],
      "stateMutability": "view",
      "type": "function"
    },
    {
      "inputs": [],
      "name": "renounceOwnership",
      "outputs": [],
      "stateMutability": "nonpayable",
      "type": "function"
    },
    {
      "inputs": [
        {
          "internalType": "uint256",
          "name": "",
          "type": "uint256"
        }
      ],
      "name": "stakeAssets",
      "outputs": [
        {
          "internalType": "address",
          "name": "stakeToken",
          "type": "address"
        },
        {
          "internalType": "address",
          "name": "positionToken",
          "type": "address"
        },
        {
          "internalType": "uint256",
          "name": "created",
          "type": "uint256"
        },
        {
          "internalType": "uint256",
          "name": "capacity",
          "type": "uint256"
        },
        {
          "internalType": "uint256",
          "name": "endTime",
          "type": "uint256"
        },
        {
          "internalType": "bool",
          "name": "active",
          "type": "bool"
        }
      ],
      "stateMutability": "view",
      "type": "function"
    },
    {
      "inputs": [
        {
          "internalType": "address",
          "name": "",
          "type": "address"
        }
      ],
      "name": "stakePositionId",
      "outputs": [
        {
          "internalType": "uint256",
          "name": "",
          "type": "uint256"
        }
      ],
      "stateMutability": "view",
      "type": "function"
    },
    {
      "inputs": [
        {
          "internalType": "address",
          "name": "newOwner",
          "type": "address"
        }
      ],
      "name": "transferOwnership",
      "outputs": [],
      "stateMutability": "nonpayable",
      "type": "function"
    },
    {
      "inputs": [
        {
          "internalType": "uint256",
          "name": "_stakeId",
          "type": "uint256"
        },
        {
          "internalType": "uint256",
          "name": "_capacity",
          "type": "uint256"
        },
        {
          "internalType": "uint256",
          "name": "_endTime",
          "type": "uint256"
        },
        {
          "internalType": "bool",
          "name": "_active",
          "type": "bool"
        }
      ],
      "name": "updateAsset",
      "outputs": [],
      "stateMutability": "nonpayable",
      "type": "function"
    },
    {
      "inputs": [
        {
          "internalType": "address",
          "name": "_user",
          "type": "address"
        },
        {
          "internalType": "address",
          "name": "_token",
          "type": "address"
        },
        {
          "internalType": "uint256",
          "name": "_amount",
          "type": "uint256"
        }
      ],
      "name": "withdraw",
      "outputs": [],
      "stateMutability": "nonpayable",
      "type": "function"
    }
  ],
  "transactionHash": "0x64cc770e0a596c4158ea0b1799077470157785de3fc9a38196b346d5299c776b",
  "args": [],
  "numDeployments": 14,
  "solcInputHash": "73cbf28ba01962b8d74b43e61e0676b5",
  "bytecode": "0x60806040523480156200001157600080fd5b50600160005562000022336200006c565b6200003261232861012c620000be565b62000042612328610e10620000be565b620000546109c4630163f500620000be565b62000066610bb86301da9c00620000be565b620001fb565b600180546001600160a01b038381166001600160a01b0319831681179093556040519116919082907f8be0079c531659141344cd1fd0a4f28419497f9722a3daafe3b4186f6b6457e090600090a35050565b620000c86200019a565b6200015782826040805180820190915261ffff92831681526020810191825260028054600181018255600082905291517f405787fa12a823e0f2b7631cc41b3ba8828b3321ca811111fa75cd3aa3bb5ace92909102918201805461ffff19169190941617909255517f405787fa12a823e0f2b7631cc41b3ba8828b3321ca811111fa75cd3aa3bb5acf90910155565b8161ffff167f9a2686eca6c511a01418325c6bbaf5fa57878dc2ca52091f4295990c2ab9ece6826040516200018e91815260200190565b60405180910390a25050565b6001546001600160a01b03163314620001f95760405162461bcd60e51b815260206004820181905260248201527f4f776e61626c653a2063616c6c6572206973206e6f7420746865206f776e6572604482015260640160405180910390fd5b565b614cf7806200020b6000396000f3fe60806040523480156200001157600080fd5b5060043610620001095760003560e01c80638340f54911620000a3578063d769b6f8116200006e578063d769b6f8146200026b578063d9caed121462000297578063f2fde38b14620002ae578063f744070314620002c557600080fd5b80638340f54914620002005780638da5cb5b146200021757806397d3b573146200023d578063b2d35f81146200025457600080fd5b80635831991f11620000e45780635831991f1462000176578063687a5f5e14620001c8578063715018a614620001df5780637d848db214620001e957600080fd5b806302db2b7a146200010e5780630d6af890146200014457806350d86ba7146200015d575b600080fd5b620001316200011f36600462000fda565b60056020526000908152604090205481565b6040519081526020015b60405180910390f35b6200014e620002dc565b6040516200013b919062001001565b620001746200016e36600462001110565b6200034e565b005b6200018d62000187366004620011e3565b620003c7565b604080516001600160a01b0397881681529690951660208701529385019290925260608401526080830152151560a082015260c0016200013b565b62000174620001d936600462001215565b6200041e565b62000174620004f2565b62000174620001fa36600462001242565b6200050a565b620001746200021136600462001286565b62000622565b6001546001600160a01b03165b6040516001600160a01b0390911681526020016200013b565b620001746200024e366004620012cc565b620006f5565b62000174620002653660046200130a565b620007eb565b620002246200027c36600462000fda565b6004602052600090815260409020546001600160a01b031681565b62000174620002a836600462001286565b620008ee565b62000174620002bf36600462000fda565b6200097a565b62000174620002d6366004620011e3565b620009f9565b60606002805480602002602001604051908101604052809291908181526020016000905b82821015620003455760008481526020908190206040805180820190915260028502909101805461ffff16825260019081015482840152908352909201910162000300565b50505050905090565b6200035862000b48565b600087878730886040516200036d9062000fb6565b6200037d9594939291906200138a565b604051809103906000f0801580156200039a573d6000803e3d6000fd5b509050620003ab8682868662000ba4565b8115620003bd57620003bd8162000d52565b5050505050505050565b60038181548110620003d857600080fd5b60009182526020909120600690910201805460018201546002830154600384015460048501546005909501546001600160a01b0394851696509390921693909260ff1686565b6200042862000b48565b6040805180820190915261ffff80841682526020820183815260028054600181018255600082905293517f405787fa12a823e0f2b7631cc41b3ba8828b3321ca811111fa75cd3aa3bb5ace94909102938401805461ffff19169190931617909155517f405787fa12a823e0f2b7631cc41b3ba8828b3321ca811111fa75cd3aa3bb5acf909101558161ffff167f9a2686eca6c511a01418325c6bbaf5fa57878dc2ca52091f4295990c2ab9ece682604051620004e691815260200190565b60405180910390a25050565b620004fc62000b48565b62000508600062000ee9565b565b620005153362000f3b565b806200053b575033620005306001546001600160a01b031690565b6001600160a01b0316145b620005635760405162461bcd60e51b81526004016200055a90620013ec565b60405180910390fd5b6000600385815481106200057b576200057b6200140c565b90600052602060002090600602019050600060038681548110620005a357620005a36200140c565b90600052602060002090600602016002015411620005fb5760405162461bcd60e51b815260206004820152601460248201527314dd185ad948191bd95cc81b9bdd08195e1a5cdd60621b60448201526064016200055a565b600381019390935560048301919091556005909101805460ff191691151591909117905550565b6200062d3362000f3b565b8062000653575033620006486001546001600160a01b031690565b6001600160a01b0316145b620006725760405162461bcd60e51b81526004016200055a90620013ec565b6040516323b872dd60e01b81526001600160a01b038481166004830152306024830152604482018390528316906323b872dd906064015b6020604051808303816000875af1158015620006c9573d6000803e3d6000fd5b505050506040513d601f19601f82011682018060405250810190620006ef919062001422565b50505050565b620006ff62000b48565b6040516370a0823160e01b81523060048201526001600160a01b0383169063a9059cbb90839083906370a0823190602401602060405180830381865afa1580156200074e573d6000803e3d6000fd5b505050506040513d601f19601f8201168201806040525081019062000774919062001442565b6040516001600160e01b031960e085901b1681526001600160a01b03909216600483015260248201526044016020604051808303816000875af1158015620007c0573d6000803e3d6000fd5b505050506040513d601f19601f82011682018060405250810190620007e6919062001422565b505050565b620007f562000b48565b6000600284815481106200080d576200080d6200140c565b60009182526020918290206040805180820182526002938402909201805461ffff9081168452600190910154838601528151808301909252871681529283018590528154909350869081106200086757620008676200140c565b6000918252602091829020835160029290920201805461ffff191661ffff9283161781559282015160019093019290925582518382015160408051918252878516938201939093529182018590529091169085907fdd320d208886917751211c12be8869bc5eccc1b087e7202587c6068bc172a8809060600160405180910390a350505050565b620008f93362000f3b565b806200091f575033620009146001546001600160a01b031690565b6001600160a01b0316145b6200093e5760405162461bcd60e51b81526004016200055a90620013ec565b6040516323b872dd60e01b81523060048201526001600160a01b038481166024830152604482018390528316906323b872dd90606401620006a9565b6200098462000b48565b6001600160a01b038116620009eb5760405162461bcd60e51b815260206004820152602660248201527f4f776e61626c653a206e6577206f776e657220697320746865207a65726f206160448201526564647265737360d01b60648201526084016200055a565b620009f68162000ee9565b50565b62000a0362000b48565b60006002828154811062000a1b5762000a1b6200140c565b6000918252602091829020604080518082019091526002928302909101805461ffff168252600190810154938201939093528154909350909162000a5f9162001472565b8154811062000a725762000a726200140c565b90600052602060002090600202016002838154811062000a965762000a966200140c565b6000918252602090912082546002928302909101805461ffff191661ffff90921691909117815560019283015492019190915580548062000adb5762000adb6200148e565b6000828152602080822060026000199490940193840201805461ffff1916815560010191909155915581518282015160405190815261ffff9091169184917fced45780dc6f269221fefb37ed810ee28651e62e92dc7f655d574197b14105b5910160405180910390a35050565b6001546001600160a01b03163314620005085760405162461bcd60e51b815260206004820181905260248201527f4f776e61626c653a2063616c6c6572206973206e6f7420746865206f776e657260448201526064016200055a565b6040805160c0810182526001600160a01b03808716808352868216602080850182815242868801908152606087018a8152608088018a8152600160a08a0181815260038054808401825560008281529c5160069091027fc2575a0e9e593c00f959f8c92f12db2869c3395a3b0502d05e2516446f71f85b81018054928e166001600160a01b031993841617905597517fc2575a0e9e593c00f959f8c92f12db2869c3395a3b0502d05e2516446f71f85c8901805491909d1690821617909b5594517fc2575a0e9e593c00f959f8c92f12db2869c3395a3b0502d05e2516446f71f85d87015592517fc2575a0e9e593c00f959f8c92f12db2869c3395a3b0502d05e2516446f71f85e86015590517fc2575a0e9e593c00f959f8c92f12db2869c3395a3b0502d05e2516446f71f85f85015590517fc2575a0e9e593c00f959f8c92f12db2869c3395a3b0502d05e2516446f71f860909301805493151560ff1990941693909317909255938652600490915294909320805490921690921790555462000d30919062001472565b6001600160a01b03909416600090815260056020526040902093909355505050565b604051627b7a3760e21b8152612328600482015261012c60248201526001600160a01b038216906301ede8dc90604401600060405180830381600087803b15801562000d9d57600080fd5b505af115801562000db2573d6000803e3d6000fd5b5050604051627b7a3760e21b81526123286004820152610e1060248201526001600160a01b03841692506301ede8dc9150604401600060405180830381600087803b15801562000e0157600080fd5b505af115801562000e16573d6000803e3d6000fd5b5050604051627b7a3760e21b81526109c46004820152630163f50060248201526001600160a01b03841692506301ede8dc9150604401600060405180830381600087803b15801562000e6757600080fd5b505af115801562000e7c573d6000803e3d6000fd5b5050604051627b7a3760e21b8152610bb860048201526301da9c0060248201526001600160a01b03841692506301ede8dc9150604401600060405180830381600087803b15801562000ecd57600080fd5b505af115801562000ee2573d6000803e3d6000fd5b5050505050565b600180546001600160a01b038381166001600160a01b0319831681179093556040519116919082907f8be0079c531659141344cd1fd0a4f28419497f9722a3daafe3b4186f6b6457e090600090a35050565b600354600090815b8181101562000fac57836001600160a01b03166003828154811062000f6c5762000f6c6200140c565b60009182526020909120600160069092020101546001600160a01b03160362000f99575060019392505050565b62000fa481620014a4565b905062000f43565b5060009392505050565b61380180620014c183390190565b6001600160a01b0381168114620009f657600080fd5b60006020828403121562000fed57600080fd5b813562000ffa8162000fc4565b9392505050565b602080825282518282018190526000919060409081850190868401855b8281101562001049578151805161ffff1685528601518685015292840192908501906001016200101e565b5091979650505050505050565b634e487b7160e01b600052604160045260246000fd5b600082601f8301126200107e57600080fd5b813567ffffffffffffffff808211156200109c576200109c62001056565b604051601f8301601f19908116603f01168101908282118183101715620010c757620010c762001056565b81604052838152866020858801011115620010e157600080fd5b836020870160208301376000602085830101528094505050505092915050565b8015158114620009f657600080fd5b600080600080600080600060e0888a0312156200112c57600080fd5b873567ffffffffffffffff808211156200114557600080fd5b620011538b838c016200106c565b985060208a01359150808211156200116a57600080fd5b620011788b838c016200106c565b975060408a013591506200118c8262000fc4565b90955060608901359080821115620011a357600080fd5b50620011b28a828b016200106c565b9450506080880135925060a0880135915060c0880135620011d38162001101565b8091505092959891949750929550565b600060208284031215620011f657600080fd5b5035919050565b803561ffff811681146200121057600080fd5b919050565b600080604083850312156200122957600080fd5b6200123483620011fd565b946020939093013593505050565b600080600080608085870312156200125957600080fd5b84359350602085013592506040850135915060608501356200127b8162001101565b939692955090935050565b6000806000606084860312156200129c57600080fd5b8335620012a98162000fc4565b92506020840135620012bb8162000fc4565b929592945050506040919091013590565b60008060408385031215620012e057600080fd5b8235620012ed8162000fc4565b91506020830135620012ff8162000fc4565b809150509250929050565b6000806000606084860312156200132057600080fd5b833592506200133260208501620011fd565b9150604084013590509250925092565b6000815180845260005b818110156200136a576020818501810151868301820152016200134c565b506000602082860101526020601f19601f83011685010191505092915050565b60a0815260006200139f60a083018862001342565b8281036020840152620013b3818862001342565b6001600160a01b0387811660408601528616606085015283810360808501529050620013e0818562001342565b98975050505050505050565b60208082526006908201526510b7bbb732b960d11b604082015260600190565b634e487b7160e01b600052603260045260246000fd5b6000602082840312156200143557600080fd5b815162000ffa8162001101565b6000602082840312156200145557600080fd5b5051919050565b634e487b7160e01b600052601160045260246000fd5b818103818111156200148857620014886200145c565b92915050565b634e487b7160e01b600052603160045260246000fd5b600060018201620014b957620014b96200145c565b506001019056fe60806040523480156200001157600080fd5b5060405162003801380380620038018339810160408190526200003491620001fd565b8484600062000044838262000343565b50600162000053828262000343565b505050620000706200006a620000c560201b60201c565b620000c9565b600b80546001600160a01b0319166001600160a01b038516179055601162000099828262000343565b5050600c80546001600160a01b0319166001600160a01b0392909216919091179055506200040f915050565b3390565b600a80546001600160a01b038381166001600160a01b0319831681179093556040519116919082907f8be0079c531659141344cd1fd0a4f28419497f9722a3daafe3b4186f6b6457e090600090a35050565b634e487b7160e01b600052604160045260246000fd5b600082601f8301126200014357600080fd5b81516001600160401b03808211156200016057620001606200011b565b604051601f8301601f19908116603f011681019082821181831017156200018b576200018b6200011b565b81604052838152602092508683858801011115620001a857600080fd5b600091505b83821015620001cc5785820183015181830184015290820190620001ad565b600093810190920192909252949350505050565b80516001600160a01b0381168114620001f857600080fd5b919050565b600080600080600060a086880312156200021657600080fd5b85516001600160401b03808211156200022e57600080fd5b6200023c89838a0162000131565b965060208801519150808211156200025357600080fd5b6200026189838a0162000131565b95506200027160408901620001e0565b94506200028160608901620001e0565b935060808801519150808211156200029857600080fd5b50620002a78882890162000131565b9150509295509295909350565b600181811c90821680620002c957607f821691505b602082108103620002ea57634e487b7160e01b600052602260045260246000fd5b50919050565b601f8211156200033e57600081815260208120601f850160051c81016020861015620003195750805b601f850160051c820191505b818110156200033a5782815560010162000325565b5050505b505050565b81516001600160401b038111156200035f576200035f6200011b565b6200037781620003708454620002b4565b84620002f0565b602080601f831160018114620003af5760008415620003965750858301515b600019600386901b1c1916600185901b1785556200033a565b600085815260208120601f198616915b82811015620003e057888601518255948401946001909101908401620003bf565b5085821015620003ff5787850151600019600388901b60f8161c191681555b5050505050600190811b01905550565b6133e2806200041f6000396000f3fe608060405234801561001057600080fd5b50600436106102745760003560e01c806367e650db11610151578063a6bba767116100c3578063e8a3d48511610087578063e8a3d485146105f8578063e92f6a1514610600578063e985e9c514610613578063f2fde38b1461064f578063fbfa77cf14610662578063ffa801361461067557600080fd5b8063a6bba76714610527578063afd50d8f1461053a578063b88d4fde1461055a578063c87b56dd1461056d578063d5a44f861461058057600080fd5b80638da5cb5b116101155780638da5cb5b146104c05780638f96a7cb146104d157806395d89b41146104e457806397d3b573146104ec57806399bbbbac146104ff578063a22cb4651461051457600080fd5b806367e650db1461046a57806370a082311461047d578063715018a61461049057806376772cf8146104985780637974e46a146104b857600080fd5b806323b872dd116101ea5780634670dd2d116101ae5780634670dd2d146103ea5780634752f9ef146103fd5780634f6ccce714610420578063500a15641461043357806355f804b3146104445780636352211e1461045757600080fd5b806323b872dd1461037e578063274de61e146103915780632e1a7d4d146103b15780632f745c59146103c457806342842e0e146103d757600080fd5b806308b742451161023c57806308b7424514610317578063095ea7b31461032a5780630c51b88f1461033d57806318160ddd1461035057806320e3fa50146103585780632374346c1461036b57600080fd5b806301ede8dc1461027957806301ffc9a71461028e57806304ece583146102b657806306fdde03146102d7578063081812fc146102ec575b600080fd5b61028c610287366004612a30565b610695565b005b6102a161029c366004612a70565b6107b7565b60405190151581526020015b60405180910390f35b6102c96102c4366004612a94565b6107c8565b6040519081526020016102ad565b6102df6108ad565b6040516102ad9190612afd565b6102ff6102fa366004612a94565b61093f565b6040516001600160a01b0390911681526020016102ad565b61028c610325366004612b1e565b610966565b61028c610338366004612b63565b6109be565b61028c61034b366004612b81565b610ad3565b6008546102c9565b6102c9610366366004612b63565b610ae1565b61028c610379366004612a94565b610b12565b61028c61038c366004612bb6565b610c93565b6102c961039f366004612a94565b60136020526000908152604090205481565b61028c6103bf366004612a94565b610cc4565b6102c96103d2366004612b63565b610fc9565b61028c6103e5366004612bb6565b61105f565b61028c6103f8366004612b81565b61107a565b6102a161040b366004612a94565b600f6020526000908152604090205460ff1681565b6102c961042e366004612a94565b6111da565b600b546001600160a01b03166102ff565b61028c610452366004612c96565b61126d565b6102ff610465366004612a94565b6112c3565b61028c610478366004612d5f565b611323565b6102c961048b366004612d94565b611367565b61028c6113ed565b6102c96104a6366004612a94565b60146020526000908152604090205481565b6102c9611401565b600a546001600160a01b03166102ff565b6102a16104df366004612a94565b611411565b6102df611430565b61028c6104fa366004612db1565b61143f565b61050761156e565b6040516102ad9190612ddf565b61028c610522366004612e32565b6115de565b61028c610535366004612e60565b6115e9565b6102c9610548366004612a94565b60156020526000908152604090205481565b61028c610568366004612eb9565b611631565b6102df61057b366004612a94565b611663565b6105c561058e366004612a94565b600e60205260009081526040902080546001820154600283015460038401546004909401549293919261ffff909116919060ff1685565b60408051958652602086019490945261ffff9092169284019290925260608301919091521515608082015260a0016102ad565b6102df6116f9565b61028c61060e366004612f39565b611727565b6102a1610621366004612db1565b6001600160a01b03918216600090815260056020908152604080832093909416825291909152205460ff1690565b61028c61065d366004612d94565b61186b565b600c546102ff906001600160a01b031681565b610688610683366004612d94565b6118e4565b6040516102ad9190612f6e565b600c546001600160a01b03163314806106c75750336106bc600a546001600160a01b031690565b6001600160a01b0316145b6106ec5760405162461bcd60e51b81526004016106e390612fb2565b60405180910390fd5b6040805180820190915261ffff808416825260208201838152600d805460018101825560009190915292517fd7b6990105719101dabeb77144f2a3385c8033acd3af97e9423a695e81ad1eb56002909402938401805461ffff19169190931617909155517fd7b6990105719101dabeb77144f2a3385c8033acd3af97e9423a695e81ad1eb6909101558161ffff167fe01fdf33dfdfd42d6dc9b85e62d6750214967dddff00304f34c3fed1939bde0b826040516107ab91815260200190565b60405180910390a25050565b60006107c282611950565b92915050565b6000818152600e60209081526040808320815160a0810183528154808252600183015494820194909452600282015461ffff1692810192909252600381015460608301526004015460ff16151560808201529082906108279042612fe8565b905060008260600151836000015161083f9190612ffb565b82111561085e57606083015183516108579190612ffb565b9050610861565b50805b6301e1338061271061ffff1682856040015161ffff168660200151610886919061300e565b610890919061300e565b61089a919061303b565b6108a4919061303b565b95945050505050565b6060600080546108bc9061304f565b80601f01602080910402602001604051908101604052809291908181526020018280546108e89061304f565b80156109355780601f1061090a57610100808354040283529160200191610935565b820191906000526020600020905b81548152906001019060200180831161091857829003601f168201915b5050505050905090565b600061094a82611975565b506000908152600460205260409020546001600160a01b031690565b61096e6119d4565b6000828152600f6020908152604091829020805460ff1916841515908117909155915191825283917fd07a67329d87579b1994579e69a7e1df196e41e2c912c37b7b9d80ef0030238d91016107ab565b60006109c9826112c3565b9050806001600160a01b0316836001600160a01b031603610a365760405162461bcd60e51b815260206004820152602160248201527f4552433732313a20617070726f76616c20746f2063757272656e74206f776e656044820152603960f91b60648201526084016106e3565b336001600160a01b0382161480610a525750610a528133610621565b610ac45760405162461bcd60e51b815260206004820152603e60248201527f4552433732313a20617070726f76652063616c6c6572206973206e6f7420746f60448201527f6b656e206f776e6572206e6f7220617070726f76656420666f7220616c6c000060648201526084016106e3565b610ace8383611a2e565b505050565b610ace838383600180611a9c565b60126020528160005260406000208181548110610afd57600080fd5b90600052602060002001600091509150505481565b600c546001600160a01b0316331480610b44575033610b39600a546001600160a01b031690565b6001600160a01b0316145b610b605760405162461bcd60e51b81526004016106e390612fb2565b6000600d8281548110610b7557610b75613089565b600091825260209182902060408051808201909152600290920201805461ffff16825260019081015492820192909252600d805491935091610bb691612fe8565b81548110610bc657610bc6613089565b9060005260206000209060020201600d8381548110610be757610be7613089565b600091825260209091208254600290920201805461ffff191661ffff909216919091178155600191820154910155600d805480610c2657610c2661309f565b6000828152602080822060026000199490940193840201805461ffff1916815560010191909155915581518282015160405190815261ffff9091169184917f31c7ae07732186951f28c3aa4b019b67ff0b121028ec0baa0127467a57d3d340910160405180910390a35050565b610c9d3382611da9565b610cb95760405162461bcd60e51b81526004016106e3906130b5565b610ace838383611e28565b6000818152600e6020908152604091829020825160a08101845281548152600182015492810192909252600281015461ffff16928201929092526003820154606082015260049091015460ff16151560808201523390610d23836112c3565b6001600160a01b0316826001600160a01b031614610d9b5760405162461bcd60e51b815260206004820152602f60248201527f6f6e6c7920746865206f776e6572206f6620746865207374616b656420746f6b60448201526e656e732063616e20756e7374616b6560881b60648201526084016106e3565b60608101518151600091610dae91612ffb565b421090508015610ecd578160800151610e225760405162461bcd60e51b815260206004820152603060248201527f5468697320706f736974696f6e206973206e6f7420656c696769626c6520666f60448201526f72206561726c7920776974686472617760801b60648201526084016106e3565b600b54600c5460208401516001600160a01b03928316926323b872dd9216908690610e4f9060029061303b565b6040516001600160e01b031960e086901b1681526001600160a01b03938416600482015292909116602483015260448201526064016020604051808303816000875af1158015610ea3573d6000803e3d6000fd5b505050506040513d601f19601f82011682018060405250810190610ec79190613103565b50610f84565b6000610ed8856107c8565b600b54600c5460208601519293506001600160a01b03918216926323b872dd92909116908790610f09908690612ffb565b6040516001600160e01b031960e086901b1681526001600160a01b03938416600482015292909116602483015260448201526064016020604051808303816000875af1158015610f5d573d6000803e3d6000fd5b505050506040513d601f19601f82011682018060405250810190610f819190613103565b50505b610f8d84611fd5565b60405184906001600160a01b038516907ff74a79d13d6fdbdf26b2c779e6a24490a43e65d60cc7e064740f8d40b2b5ea2c90600090a350505050565b6000610fd483611367565b82106110365760405162461bcd60e51b815260206004820152602b60248201527f455243373231456e756d657261626c653a206f776e657220696e646578206f7560448201526a74206f6620626f756e647360a81b60648201526084016106e3565b506001600160a01b03919091166000908152600660209081526040808320938352929052205490565b610ace83838360405180602001604052806000815250611631565b6000828152600f602052604090205460ff16156110cb5760405162461bcd60e51b815260206004820152600f60248201526e189b1858dadb1a5cdd195908139195608a1b60448201526064016106e3565b6110d4826112c3565b6001600160a01b0316836001600160a01b0316146110f157600080fd5b6000828152600e6020908152604091829020825160a0810184528154808252600183015493820193909352600282015461ffff169381019390935260038101546060840181905260049091015460ff161515608084015261115191612ffb565b421161119f5760405162461bcd60e51b815260206004820152601b60248201527f506f736974696f6e206973206e6f74206174206d61747572697479000000000060448201526064016106e3565b60006111aa846107c8565b90506111b584611fd5565b6111d3858284602001516111c99190612ffb565b8560006001611a9c565b5050505050565b60006111e560085490565b82106112485760405162461bcd60e51b815260206004820152602c60248201527f455243373231456e756d657261626c653a20676c6f62616c20696e646578206f60448201526b7574206f6620626f756e647360a01b60648201526084016106e3565b6008828154811061125b5761125b613089565b90600052602060002001549050919050565b6112756119d4565b6011611281828261316e565b5080604051611290919061322e565b604051908190038120907f199e933997358e1789d8b56ea8c551befeb05ce2fe3fe506199f1230f5a591b490600090a250565b6000818152600260205260408120546001600160a01b0316806107c25760405162461bcd60e51b8152602060048201526018602482015277115490cdcc8c4e881a5b9d985b1a59081d1bdad95b88125160421b60448201526064016106e3565b60005b81518110156113635761135182828151811061134457611344613089565b6020026020010151610cc4565b8061135b8161324a565b915050611326565b5050565b60006001600160a01b0382166113d15760405162461bcd60e51b815260206004820152602960248201527f4552433732313a2061646472657373207a65726f206973206e6f7420612076616044820152683634b21037bbb732b960b91b60648201526084016106e3565b506001600160a01b031660009081526003602052604090205490565b6113f56119d4565b6113ff6000612084565b565b600061140c60105490565b905090565b6000818152600260205260408120546001600160a01b031615156107c2565b6060600180546108bc9061304f565b600c546001600160a01b0316331480611471575033611466600a546001600160a01b031690565b6001600160a01b0316145b61148d5760405162461bcd60e51b81526004016106e390612fb2565b6040516370a0823160e01b81523060048201526001600160a01b0383169063a9059cbb90839083906370a0823190602401602060405180830381865afa1580156114db573d6000803e3d6000fd5b505050506040513d601f19601f820116820180604052508101906114ff9190613263565b6040516001600160e01b031960e085901b1681526001600160a01b03909216600483015260248201526044016020604051808303816000875af115801561154a573d6000803e3d6000fd5b505050506040513d601f19601f82011682018060405250810190610ace9190613103565b6060600d805480602002602001604051908101604052809291908181526020016000905b828210156115d55760008481526020908190206040805180820190915260028502909101805461ffff168252600190810154828401529083529092019101611592565b50505050905090565b6113633383836120d6565b60005b825181101561162b576116198484838151811061160b5761160b613089565b60200260200101518461107a565b806116238161324a565b9150506115ec565b50505050565b61163b3383611da9565b6116575760405162461bcd60e51b81526004016106e3906130b5565b61162b848484846121a4565b6000818152600260205260409020546060906001600160a01b03166116c15760405162461bcd60e51b81526020600482015260146024820152731d1bdad95b88191bd95cc81b9bdd08195e1a5cdd60621b60448201526064016106e3565b6116c96121d7565b6116d2836121e6565b6040516020016116e392919061327c565b6040516020818303038152906040529050919050565b60606117036121d7565b60405160200161171391906132bb565b604051602081830303815290604052905090565b600c546001600160a01b031633148061175957503361174e600a546001600160a01b031690565b6001600160a01b0316145b6117755760405162461bcd60e51b81526004016106e390612fb2565b6000600d848154811061178a5761178a613089565b60009182526020918290206040805180820182526002909302909101805461ffff908116845260019091015483850152815180830190925286168152918201849052600d805491935090869081106117e4576117e4613089565b6000918252602091829020835160029290920201805461ffff191661ffff9283161781559282015160019093019290925582518382015160408051918252878516938201939093529182018590529091169085907f1d66929984041b98ee2942b02ecb1a94419d54cf725b2fff115bb7a6039a96c69060600160405180910390a350505050565b6118736119d4565b6001600160a01b0381166118d85760405162461bcd60e51b815260206004820152602660248201527f4f776e61626c653a206e6577206f776e657220697320746865207a65726f206160448201526564647265737360d01b60648201526084016106e3565b6118e181612084565b50565b6001600160a01b03811660009081526012602090815260409182902080548351818402810184019094528084526060939283018282801561194457602002820191906000526020600020905b815481526020019060010190808311611930575b50505050509050919050565b60006001600160e01b0319821663780e9d6360e01b14806107c257506107c2826122e7565b6000818152600260205260409020546001600160a01b03166118e15760405162461bcd60e51b8152602060048201526018602482015277115490cdcc8c4e881a5b9d985b1a59081d1bdad95b88125160421b60448201526064016106e3565b600a546001600160a01b031633146113ff5760405162461bcd60e51b815260206004820181905260248201527f4f776e61626c653a2063616c6c6572206973206e6f7420746865206f776e657260448201526064016106e3565b600081815260046020526040902080546001600160a01b0319166001600160a01b0384169081179091558190611a63826112c3565b6001600160a01b03167f8c5be1e5ebec7d5bd14f71427d1e84f3dd0314c0f7b2291e5b200ac8c7c3b92560405160405180910390a45050565b600d548310611ae35760405162461bcd60e51b815260206004820152601360248201527234b73b30b634b2103637b1b59037b83a34b7b760691b60448201526064016106e3565b8315611aef5783611b5d565b600b546040516370a0823160e01b81526001600160a01b038781166004830152909116906370a0823190602401602060405180830381865afa158015611b39573d6000803e3d6000fd5b505050506040513d601f19601f82011682018060405250810190611b5d9190613263565b935060008411611bc65760405162461bcd60e51b815260206004820152602e60248201527f6d757374207374616b6520616e64206265206561726e696e67206174206c656160448201526d737420736f6d6520746f6b656e7360901b60648201526084016106e3565b8115611c3d57600c54600b54604051638340f54960e01b81526001600160a01b038881166004830152918216602482015260448101879052911690638340f54990606401600060405180830381600087803b158015611c2457600080fd5b505af1158015611c38573d6000803e3d6000fd5b505050505b611c4b601080546001019055565b6040518060a00160405280428152602001858152602001600d8581548110611c7557611c75613089565b60009182526020918290206002909102015461ffff168252600d8054929091019186908110611ca657611ca6613089565b9060005260206000209060020201600101548152602001821515815250600e6000611cd060105490565b815260208082019290925260409081016000208351815591830151600183015582015160028201805461ffff191661ffff909216919091179055606082015160038201556080909101516004909101805460ff1916911515919091179055601054611d3c908690612337565b4260146000611d4a60105490565b815260208101919091526040016000205560105460408051868152602081018690526001600160a01b038816917f7cc860bef2fa56b3d46227731e60b3b6ce0af9627bfdfbeca273f9ea5dae8a18910160405180910390a35050505050565b600080611db5836112c3565b9050806001600160a01b0316846001600160a01b03161480611dfc57506001600160a01b0380821660009081526005602090815260408083209388168352929052205460ff165b80611e205750836001600160a01b0316611e158461093f565b6001600160a01b0316145b949350505050565b826001600160a01b0316611e3b826112c3565b6001600160a01b031614611e9f5760405162461bcd60e51b815260206004820152602560248201527f4552433732313a207472616e736665722066726f6d20696e636f72726563742060448201526437bbb732b960d91b60648201526084016106e3565b6001600160a01b038216611f015760405162461bcd60e51b8152602060048201526024808201527f4552433732313a207472616e7366657220746f20746865207a65726f206164646044820152637265737360e01b60648201526084016106e3565b611f0c838383612351565b611f17600082611a2e565b6001600160a01b0383166000908152600360205260408120805460019290611f40908490612fe8565b90915550506001600160a01b0382166000908152600360205260408120805460019290611f6e908490612ffb565b909155505060008181526002602052604080822080546001600160a01b0319166001600160a01b0386811691821790925591518493918716917fddf252ad1be2c89b69c2b068fc378daa952ba7f163c4a11628f55a4df523b3ef91a4610ace8383836123be565b6000611fe0826112c3565b9050611fee81600084612351565b611ff9600083611a2e565b6001600160a01b0381166000908152600360205260408120805460019290612022908490612fe8565b909155505060008281526002602052604080822080546001600160a01b0319169055518391906001600160a01b038416907fddf252ad1be2c89b69c2b068fc378daa952ba7f163c4a11628f55a4df523b3ef908390a4611363816000846123be565b600a80546001600160a01b038381166001600160a01b0319831681179093556040519116919082907f8be0079c531659141344cd1fd0a4f28419497f9722a3daafe3b4186f6b6457e090600090a35050565b816001600160a01b0316836001600160a01b0316036121375760405162461bcd60e51b815260206004820152601960248201527f4552433732313a20617070726f766520746f2063616c6c65720000000000000060448201526064016106e3565b6001600160a01b03838116600081815260056020908152604080832094871680845294825291829020805460ff191686151590811790915591519182527f17307eab39ab6107e8899845ad3d59bd9653f200f220920489ca2b5937696c31910160405180910390a3505050565b6121af848484611e28565b6121bb84848484612547565b61162b5760405162461bcd60e51b81526004016106e3906132ec565b6060601180546108bc9061304f565b60608160000361220d5750506040805180820190915260018152600360fc1b602082015290565b8160005b811561223757806122218161324a565b91506122309050600a8361303b565b9150612211565b60008167ffffffffffffffff81111561225257612252612bf7565b6040519080825280601f01601f19166020018201604052801561227c576020820181803683370190505b5090505b8415611e2057612291600183612fe8565b915061229e600a8661333e565b6122a9906030612ffb565b60f81b8183815181106122be576122be613089565b60200101906001600160f81b031916908160001a9053506122e0600a8661303b565b9450612280565b60006001600160e01b031982166380ac58cd60e01b148061231857506001600160e01b03198216635b5e139f60e01b145b806107c257506301ffc9a760e01b6001600160e01b03198316146107c2565b611363828260405180602001604052806000815250612648565b6000818152600f602052604090205460ff16156123a25760405162461bcd60e51b815260206004820152600f60248201526e189b1858dadb1a5cdd195908139195608a1b60448201526064016106e3565b6000818152601560205260409020429055610ace83838361267b565b6001600160a01b038316156124f8576000818152601360209081526040808320546001600160a01b038716845260129092528220805491929161240390600190612fe8565b8154811061241357612413613089565b60009182526020808320909101546001600160a01b03881683526012909152604090912080549192509061244990600190612fe8565b8154811061245957612459613089565b906000526020600020015460126000876001600160a01b03166001600160a01b03168152602001908152602001600020838154811061249a5761249a613089565b60009182526020808320909101929092556001600160a01b03871681526012909152604090208054806124cf576124cf61309f565b600082815260208082208301600019908101839055909201909255918152601390915260409020555b6001600160a01b03821615610ace576001600160a01b03919091166000908152601260208181526040808420805486865260138452918520829055928252600181018355918352909120015550565b60006001600160a01b0384163b1561263d57604051630a85bd0160e11b81526001600160a01b0385169063150b7a029061258b903390899088908890600401613352565b6020604051808303816000875af19250505080156125c6575060408051601f3d908101601f191682019092526125c39181019061338f565b60015b612623573d8080156125f4576040519150601f19603f3d011682016040523d82523d6000602084013e6125f9565b606091505b50805160000361261b5760405162461bcd60e51b81526004016106e3906132ec565b805181602001fd5b6001600160e01b031916630a85bd0160e11b149050611e20565b506001949350505050565b6126528383612733565b61265f6000848484612547565b610ace5760405162461bcd60e51b81526004016106e3906132ec565b6001600160a01b0383166126d6576126d181600880546000838152600960205260408120829055600182018355919091527ff3f7a9fe364faab93b216da50a3214154f22a0a2b415b23a84c8169e8b636ee30155565b6126f9565b816001600160a01b0316836001600160a01b0316146126f9576126f98382612889565b6001600160a01b03821661271057610ace81612926565b826001600160a01b0316826001600160a01b031614610ace57610ace82826129d5565b6001600160a01b0382166127895760405162461bcd60e51b815260206004820181905260248201527f4552433732313a206d696e7420746f20746865207a65726f206164647265737360448201526064016106e3565b6000818152600260205260409020546001600160a01b0316156127ee5760405162461bcd60e51b815260206004820152601c60248201527f4552433732313a20746f6b656e20616c7265616479206d696e7465640000000060448201526064016106e3565b6127fa60008383612351565b6001600160a01b0382166000908152600360205260408120805460019290612823908490612ffb565b909155505060008181526002602052604080822080546001600160a01b0319166001600160a01b03861690811790915590518392907fddf252ad1be2c89b69c2b068fc378daa952ba7f163c4a11628f55a4df523b3ef908290a4611363600083836123be565b6000600161289684611367565b6128a09190612fe8565b6000838152600760205260409020549091508082146128f3576001600160a01b03841660009081526006602090815260408083208584528252808320548484528184208190558352600790915290208190555b5060009182526007602090815260408084208490556001600160a01b039094168352600681528383209183525290812055565b60085460009061293890600190612fe8565b6000838152600960205260408120546008805493945090928490811061296057612960613089565b90600052602060002001549050806008838154811061298157612981613089565b60009182526020808320909101929092558281526009909152604080822084905585825281205560088054806129b9576129b961309f565b6001900381819060005260206000200160009055905550505050565b60006129e083611367565b6001600160a01b039093166000908152600660209081526040808320868452825280832085905593825260079052919091209190915550565b803561ffff81168114612a2b57600080fd5b919050565b60008060408385031215612a4357600080fd5b612a4c83612a19565b946020939093013593505050565b6001600160e01b0319811681146118e157600080fd5b600060208284031215612a8257600080fd5b8135612a8d81612a5a565b9392505050565b600060208284031215612aa657600080fd5b5035919050565b60005b83811015612ac8578181015183820152602001612ab0565b50506000910152565b60008151808452612ae9816020860160208601612aad565b601f01601f19169290920160200192915050565b602081526000612a8d6020830184612ad1565b80151581146118e157600080fd5b60008060408385031215612b3157600080fd5b823591506020830135612b4381612b10565b809150509250929050565b6001600160a01b03811681146118e157600080fd5b60008060408385031215612b7657600080fd5b8235612a4c81612b4e565b600080600060608486031215612b9657600080fd5b8335612ba181612b4e565b95602085013595506040909401359392505050565b600080600060608486031215612bcb57600080fd5b8335612bd681612b4e565b92506020840135612be681612b4e565b929592945050506040919091013590565b634e487b7160e01b600052604160045260246000fd5b604051601f8201601f1916810167ffffffffffffffff81118282101715612c3657612c36612bf7565b604052919050565b600067ffffffffffffffff831115612c5857612c58612bf7565b612c6b601f8401601f1916602001612c0d565b9050828152838383011115612c7f57600080fd5b828260208301376000602084830101529392505050565b600060208284031215612ca857600080fd5b813567ffffffffffffffff811115612cbf57600080fd5b8201601f81018413612cd057600080fd5b611e2084823560208401612c3e565b600082601f830112612cf057600080fd5b8135602067ffffffffffffffff821115612d0c57612d0c612bf7565b8160051b612d1b828201612c0d565b9283528481018201928281019087851115612d3557600080fd5b83870192505b84831015612d5457823582529183019190830190612d3b565b979650505050505050565b600060208284031215612d7157600080fd5b813567ffffffffffffffff811115612d8857600080fd5b611e2084828501612cdf565b600060208284031215612da657600080fd5b8135612a8d81612b4e565b60008060408385031215612dc457600080fd5b8235612dcf81612b4e565b91506020830135612b4381612b4e565b602080825282518282018190526000919060409081850190868401855b82811015612e25578151805161ffff168552860151868501529284019290850190600101612dfc565b5091979650505050505050565b60008060408385031215612e4557600080fd5b8235612e5081612b4e565b91506020830135612b4381612b10565b600080600060608486031215612e7557600080fd5b8335612e8081612b4e565b9250602084013567ffffffffffffffff811115612e9c57600080fd5b612ea886828701612cdf565b925050604084013590509250925092565b60008060008060808587031215612ecf57600080fd5b8435612eda81612b4e565b93506020850135612eea81612b4e565b925060408501359150606085013567ffffffffffffffff811115612f0d57600080fd5b8501601f81018713612f1e57600080fd5b612f2d87823560208401612c3e565b91505092959194509250565b600080600060608486031215612f4e57600080fd5b83359250612f5e60208501612a19565b9150604084013590509250925092565b6020808252825182820181905260009190848201906040850190845b81811015612fa657835183529284019291840191600101612f8a565b50909695505050505050565b60208082526006908201526510b7bbb732b960d11b604082015260600190565b634e487b7160e01b600052601160045260246000fd5b818103818111156107c2576107c2612fd2565b808201808211156107c2576107c2612fd2565b80820281158282048414176107c2576107c2612fd2565b634e487b7160e01b600052601260045260246000fd5b60008261304a5761304a613025565b500490565b600181811c9082168061306357607f821691505b60208210810361308357634e487b7160e01b600052602260045260246000fd5b50919050565b634e487b7160e01b600052603260045260246000fd5b634e487b7160e01b600052603160045260246000fd5b6020808252602e908201527f4552433732313a2063616c6c6572206973206e6f7420746f6b656e206f776e6560408201526d1c881b9bdc88185c1c1c9bdd995960921b606082015260800190565b60006020828403121561311557600080fd5b8151612a8d81612b10565b601f821115610ace57600081815260208120601f850160051c810160208610156131475750805b601f850160051c820191505b8181101561316657828155600101613153565b505050505050565b815167ffffffffffffffff81111561318857613188612bf7565b61319c81613196845461304f565b84613120565b602080601f8311600181146131d157600084156131b95750858301515b600019600386901b1c1916600185901b178555613166565b600085815260208120601f198616915b82811015613200578886015182559484019460019091019084016131e1565b508582101561321e5787850151600019600388901b60f8161c191681555b5050505050600190811b01905550565b60008251613240818460208701612aad565b9190910192915050565b60006001820161325c5761325c612fd2565b5060010190565b60006020828403121561327557600080fd5b5051919050565b6000835161328e818460208801612aad565b8351908301906132a2818360208801612aad565b64173539b7b760d91b9101908152600501949350505050565b600082516132cd818460208701612aad565b6c31b7b73a3930b1ba173539b7b760991b920191825250600d01919050565b60208082526032908201527f4552433732313a207472616e7366657220746f206e6f6e20455243373231526560408201527131b2b4bb32b91034b6b83632b6b2b73a32b960711b606082015260800190565b60008261334d5761334d613025565b500690565b6001600160a01b038581168252841660208201526040810183905260806060820181905260009061338590830184612ad1565b9695505050505050565b6000602082840312156133a157600080fd5b8151612a8d81612a5a56fea26469706673582212206047892da9d07245d01cb4b9349e1aa46e8aecadfed0de0fa863e4cea4ce89dd64736f6c63430008110033a2646970667358221220d0aa38d2bfdfa60b3f0a99997afae5479944d12f24f96b3c16f5fbafd27a3b7d64736f6c63430008110033",
  "devdoc": {
    "kind": "dev",
    "methods": {
      "owner()": {
        "details": "Returns the address of the current owner."
      },
      "renounceOwnership()": {
        "details": "Leaves the contract without owner. It will not be possible to call `onlyOwner` functions anymore. Can only be called by the current owner. NOTE: Renouncing ownership will leave the contract without an owner, thereby removing any functionality that is only available to the owner."
      },
      "transferOwnership(address)": {
        "details": "Transfers ownership of the contract to a new account (`newOwner`). Can only be called by the current owner."
      }
    },
    "version": 1
  },
  "userdoc": {
    "kind": "user",
    "methods": {},
    "version": 1
  },
  "storageLayout": {
    "storage": [
      {
        "astId": 126,
        "contract": "contracts/StakeVault.sol:StakeVault",
        "label": "_status",
        "offset": 0,
        "slot": "0",
        "type": "t_uint256"
      },
      {
        "astId": 7,
        "contract": "contracts/StakeVault.sol:StakeVault",
        "label": "_owner",
        "offset": 0,
        "slot": "1",
        "type": "t_address"
      },
      {
        "astId": 2927,
        "contract": "contracts/StakeVault.sol:StakeVault",
        "label": "_defaultAprLockOptions",
        "offset": 0,
        "slot": "2",
        "type": "t_array(t_struct(AprLockDefaults)2923_storage)dyn_storage"
      },
      {
        "astId": 2931,
        "contract": "contracts/StakeVault.sol:StakeVault",
        "label": "stakeAssets",
        "offset": 0,
        "slot": "3",
        "type": "t_array(t_struct(StakeAsset)2918_storage)dyn_storage"
      },
      {
        "astId": 2935,
        "contract": "contracts/StakeVault.sol:StakeVault",
        "label": "positionForAsset",
        "offset": 0,
        "slot": "4",
        "type": "t_mapping(t_address,t_address)"
      },
      {
        "astId": 2939,
        "contract": "contracts/StakeVault.sol:StakeVault",
        "label": "stakePositionId",
        "offset": 0,
        "slot": "5",
        "type": "t_mapping(t_address,t_uint256)"
      }
    ],
    "types": {
      "t_address": {
        "encoding": "inplace",
        "label": "address",
        "numberOfBytes": "20"
      },
      "t_array(t_struct(AprLockDefaults)2923_storage)dyn_storage": {
        "base": "t_struct(AprLockDefaults)2923_storage",
        "encoding": "dynamic_array",
        "label": "struct StakeVault.AprLockDefaults[]",
        "numberOfBytes": "32"
      },
      "t_array(t_struct(StakeAsset)2918_storage)dyn_storage": {
        "base": "t_struct(StakeAsset)2918_storage",
        "encoding": "dynamic_array",
        "label": "struct StakeVault.StakeAsset[]",
        "numberOfBytes": "32"
      },
      "t_bool": {
        "encoding": "inplace",
        "label": "bool",
        "numberOfBytes": "1"
      },
      "t_mapping(t_address,t_address)": {
        "encoding": "mapping",
        "key": "t_address",
        "label": "mapping(address => address)",
        "numberOfBytes": "32",
        "value": "t_address"
      },
      "t_mapping(t_address,t_uint256)": {
        "encoding": "mapping",
        "key": "t_address",
        "label": "mapping(address => uint256)",
        "numberOfBytes": "32",
        "value": "t_uint256"
      },
      "t_struct(AprLockDefaults)2923_storage": {
        "encoding": "inplace",
        "label": "struct StakeVault.AprLockDefaults",
        "members": [
          {
            "astId": 2920,
            "contract": "contracts/StakeVault.sol:StakeVault",
            "label": "apr",
            "offset": 0,
            "slot": "0",
            "type": "t_uint16"
          },
          {
            "astId": 2922,
            "contract": "contracts/StakeVault.sol:StakeVault",
            "label": "lockTime",
            "offset": 0,
            "slot": "1",
            "type": "t_uint256"
          }
        ],
        "numberOfBytes": "64"
      },
      "t_struct(StakeAsset)2918_storage": {
        "encoding": "inplace",
        "label": "struct StakeVault.StakeAsset",
        "members": [
          {
            "astId": 2907,
            "contract": "contracts/StakeVault.sol:StakeVault",
            "label": "stakeToken",
            "offset": 0,
            "slot": "0",
            "type": "t_address"
          },
          {
            "astId": 2909,
            "contract": "contracts/StakeVault.sol:StakeVault",
            "label": "positionToken",
            "offset": 0,
            "slot": "1",
            "type": "t_address"
          },
          {
            "astId": 2911,
            "contract": "contracts/StakeVault.sol:StakeVault",
            "label": "created",
            "offset": 0,
            "slot": "2",
            "type": "t_uint256"
          },
          {
            "astId": 2913,
            "contract": "contracts/StakeVault.sol:StakeVault",
            "label": "capacity",
            "offset": 0,
            "slot": "3",
            "type": "t_uint256"
          },
          {
            "astId": 2915,
            "contract": "contracts/StakeVault.sol:StakeVault",
            "label": "endTime",
            "offset": 0,
            "slot": "4",
            "type": "t_uint256"
          },
          {
            "astId": 2917,
            "contract": "contracts/StakeVault.sol:StakeVault",
            "label": "active",
            "offset": 0,
            "slot": "5",
            "type": "t_bool"
          }
        ],
        "numberOfBytes": "192"
      },
      "t_uint16": {
        "encoding": "inplace",
        "label": "uint16",
        "numberOfBytes": "2"
      },
      "t_uint256": {
        "encoding": "inplace",
        "label": "uint256",
        "numberOfBytes": "32"
      }
    }
  }
}