{
  "address": "0xA917382496031F9e81c6531d6d3a1f7622Dc4D6B",
  "abi": [
    {
      "inputs": [
        {
          "internalType": "contract IStakeVault",
          "name": "_stakeVault",
          "type": "address"
        }
      ],
      "stateMutability": "nonpayable",
      "type": "constructor"
    },
    {
      "anonymous": false,
      "inputs": [
        {
          "indexed": true,
          "internalType": "uint16",
          "name": "apr",
          "type": "uint16"
        },
        {
          "indexed": false,
          "internalType": "uint256",
          "name": "lockTime",
          "type": "uint256"
        }
      ],
      "name": "AddAprLockOption",
      "type": "event"
    },
    {
      "anonymous": false,
      "inputs": [
        {
          "indexed": true,
          "internalType": "address",
          "name": "owner",
          "type": "address"
        },
        {
          "indexed": true,
          "internalType": "address",
          "name": "approved",
          "type": "address"
        },
        {
          "indexed": true,
          "internalType": "uint256",
          "name": "tokenId",
          "type": "uint256"
        }
      ],
      "name": "Approval",
      "type": "event"
    },
    {
      "anonymous": false,
      "inputs": [
        {
          "indexed": true,
          "internalType": "address",
          "name": "owner",
          "type": "address"
        },
        {
          "indexed": true,
          "internalType": "address",
          "name": "operator",
          "type": "address"
        },
        {
          "indexed": false,
          "internalType": "bool",
          "name": "approved",
          "type": "bool"
        }
      ],
      "name": "ApprovalForAll",
      "type": "event"
    },
    {
      "anonymous": false,
      "inputs": [
        {
          "indexed": true,
          "internalType": "address",
          "name": "user",
          "type": "address"
        },
        {
          "indexed": true,
          "internalType": "uint256",
          "name": "tokenId",
          "type": "uint256"
        },
        {
          "indexed": false,
          "internalType": "uint256",
          "name": "amountStaked",
          "type": "uint256"
        },
        {
          "indexed": false,
          "internalType": "uint256",
          "name": "lockOptionIndex",
          "type": "uint256"
        },
        {
          "indexed": false,
          "internalType": "bool",
          "name": "fromCompound",
          "type": "bool"
        },
        {
          "indexed": false,
          "internalType": "bool",
          "name": "isBonus",
          "type": "bool"
        }
      ],
      "name": "CreateStake",
      "type": "event"
    },
    {
      "anonymous": false,
      "inputs": [
        {
          "indexed": true,
          "internalType": "address",
          "name": "user",
          "type": "address"
        },
        {
          "indexed": false,
          "internalType": "uint256",
          "name": "amount",
          "type": "uint256"
        },
        {
          "indexed": false,
          "internalType": "uint256",
          "name": "lockIndex",
          "type": "uint256"
        }
      ],
      "name": "FreePositionBonus",
      "type": "event"
    },
    {
      "anonymous": false,
      "inputs": [
        {
          "indexed": false,
          "internalType": "uint8",
          "name": "version",
          "type": "uint8"
        }
      ],
      "name": "Initialized",
      "type": "event"
    },
    {
      "anonymous": false,
      "inputs": [
        {
          "indexed": true,
          "internalType": "address",
          "name": "previousOwner",
          "type": "address"
        },
        {
          "indexed": true,
          "internalType": "address",
          "name": "newOwner",
          "type": "address"
        }
      ],
      "name": "OwnershipTransferred",
      "type": "event"
    },
    {
      "anonymous": false,
      "inputs": [
        {
          "indexed": true,
          "internalType": "address",
          "name": "user",
          "type": "address"
        },
        {
          "indexed": false,
          "internalType": "uint256",
          "name": "bonusAmount",
          "type": "uint256"
        },
        {
          "indexed": false,
          "internalType": "uint256",
          "name": "bonusLockIndex",
          "type": "uint256"
        }
      ],
      "name": "ReferralBonusAwarded",
      "type": "event"
    },
    {
      "anonymous": false,
      "inputs": [
        {
          "indexed": true,
          "internalType": "uint256",
          "name": "index",
          "type": "uint256"
        },
        {
          "indexed": true,
          "internalType": "uint16",
          "name": "apr",
          "type": "uint16"
        },
        {
          "indexed": false,
          "internalType": "uint256",
          "name": "lockTime",
          "type": "uint256"
        }
      ],
      "name": "RemoveAprLockOption",
      "type": "event"
    },
    {
      "anonymous": false,
      "inputs": [
        {
          "indexed": true,
          "internalType": "uint256",
          "name": "newApr",
          "type": "uint256"
        }
      ],
      "name": "SetAnnualApr",
      "type": "event"
    },
    {
      "anonymous": false,
      "inputs": [
        {
          "indexed": true,
          "internalType": "string",
          "name": "newUri",
          "type": "string"
        }
      ],
      "name": "SetBaseTokenURI",
      "type": "event"
    },
    {
      "anonymous": false,
      "inputs": [
        {
          "indexed": true,
          "internalType": "uint256",
          "name": "bonusAmount",
          "type": "uint256"
        }
      ],
      "name": "SetBonusAmount",
      "type": "event"
    },
    {
      "anonymous": false,
      "inputs": [
        {
          "indexed": true,
          "internalType": "uint256",
          "name": "lockIndex",
          "type": "uint256"
        }
      ],
      "name": "SetBonusLockIndex",
      "type": "event"
    },
    {
      "anonymous": false,
      "inputs": [
        {
          "indexed": true,
          "internalType": "uint256",
          "name": "bonusMinAmount",
          "type": "uint256"
        }
      ],
      "name": "SetBonusMinAmount",
      "type": "event"
    },
    {
      "anonymous": false,
      "inputs": [
        {
          "indexed": true,
          "internalType": "uint256",
          "name": "capacity",
          "type": "uint256"
        }
      ],
      "name": "SetCapacity",
      "type": "event"
    },
    {
      "anonymous": false,
      "inputs": [
        {
          "indexed": true,
          "internalType": "uint256",
          "name": "tokenId",
          "type": "uint256"
        },
        {
          "indexed": false,
          "internalType": "bool",
          "name": "isBlacklisted",
          "type": "bool"
        }
      ],
      "name": "SetTokenBlacklist",
      "type": "event"
    },
    {
      "anonymous": false,
      "inputs": [
        {
          "indexed": true,
          "internalType": "address",
          "name": "from",
          "type": "address"
        },
        {
          "indexed": true,
          "internalType": "address",
          "name": "to",
          "type": "address"
        },
        {
          "indexed": true,
          "internalType": "uint256",
          "name": "tokenId",
          "type": "uint256"
        }
      ],
      "name": "Transfer",
      "type": "event"
    },
    {
      "anonymous": false,
      "inputs": [
        {
          "indexed": true,
          "internalType": "address",
          "name": "user",
          "type": "address"
        },
        {
          "indexed": true,
          "internalType": "uint256",
          "name": "tokenId",
          "type": "uint256"
        },
        {
          "indexed": false,
          "internalType": "bool",
          "name": "toCompound",
          "type": "bool"
        },
        {
          "indexed": false,
          "internalType": "bool",
          "name": "earlyUnstake",
          "type": "bool"
        },
        {
          "indexed": false,
          "internalType": "bool",
          "name": "refunded",
          "type": "bool"
        }
      ],
      "name": "UnstakeTokens",
      "type": "event"
    },
    {
      "anonymous": false,
      "inputs": [
        {
          "indexed": true,
          "internalType": "uint256",
          "name": "index",
          "type": "uint256"
        },
        {
          "indexed": true,
          "internalType": "uint16",
          "name": "oldApr",
          "type": "uint16"
        },
        {
          "indexed": false,
          "internalType": "uint256",
          "name": "oldLockTime",
          "type": "uint256"
        },
        {
          "indexed": false,
          "internalType": "uint16",
          "name": "newApr",
          "type": "uint16"
        },
        {
          "indexed": false,
          "internalType": "uint256",
          "name": "newLockTime",
          "type": "uint256"
        }
      ],
      "name": "UpdateAprLockOption",
      "type": "event"
    },
    {
      "inputs": [
        {
          "internalType": "uint16",
          "name": "_apr",
          "type": "uint16"
        },
        {
          "internalType": "uint256",
          "name": "_lockTime",
          "type": "uint256"
        }
      ],
      "name": "addAprLockOption",
      "outputs": [],
      "stateMutability": "nonpayable",
      "type": "function"
    },
    {
      "inputs": [
        {
          "internalType": "uint256",
          "name": "_tokenId",
          "type": "uint256"
        }
      ],
      "name": "adminRefundDeposit",
      "outputs": [],
      "stateMutability": "nonpayable",
      "type": "function"
    },
    {
      "inputs": [
        {
          "internalType": "address",
          "name": "",
          "type": "address"
        },
        {
          "internalType": "uint256",
          "name": "",
          "type": "uint256"
        }
      ],
      "name": "allUserOwned",
      "outputs": [
        {
          "internalType": "uint256",
          "name": "",
          "type": "uint256"
        }
      ],
      "stateMutability": "view",
      "type": "function"
    },
    {
      "inputs": [],
      "name": "amountStaked",
      "outputs": [
        {
          "internalType": "uint256",
          "name": "",
          "type": "uint256"
        }
      ],
      "stateMutability": "view",
      "type": "function"
    },
    {
      "inputs": [
        {
          "internalType": "address",
          "name": "to",
          "type": "address"
        },
        {
          "internalType": "uint256",
          "name": "tokenId",
          "type": "uint256"
        }
      ],
      "name": "approve",
      "outputs": [],
      "stateMutability": "nonpayable",
      "type": "function"
    },
    {
      "inputs": [
        {
          "internalType": "address",
          "name": "owner",
          "type": "address"
        }
      ],
      "name": "balanceOf",
      "outputs": [
        {
          "internalType": "uint256",
          "name": "",
          "type": "uint256"
        }
      ],
      "stateMutability": "view",
      "type": "function"
    },
    {
      "inputs": [],
      "name": "capacity",
      "outputs": [
        {
          "internalType": "uint256",
          "name": "",
          "type": "uint256"
        }
      ],
      "stateMutability": "view",
      "type": "function"
    },
    {
      "inputs": [
        {
          "internalType": "address",
          "name": "_user",
          "type": "address"
        },
        {
          "internalType": "uint256",
          "name": "_tokenId",
          "type": "uint256"
        },
        {
          "internalType": "uint256",
          "name": "_lockOptIndex",
          "type": "uint256"
        }
      ],
      "name": "claimAndCompound",
      "outputs": [],
      "stateMutability": "nonpayable",
      "type": "function"
    },
    {
      "inputs": [
        {
          "internalType": "address",
          "name": "_user",
          "type": "address"
        },
        {
          "internalType": "uint256[]",
          "name": "_tokenIds",
          "type": "uint256[]"
        },
        {
          "internalType": "uint256",
          "name": "_lockOptIndex",
          "type": "uint256"
        }
      ],
      "name": "claimAndCompoundMulti",
      "outputs": [],
      "stateMutability": "nonpayable",
      "type": "function"
    },
    {
      "inputs": [],
      "name": "contractURI",
      "outputs": [
        {
          "internalType": "string",
          "name": "",
          "type": "string"
        }
      ],
      "stateMutability": "view",
      "type": "function"
    },
    {
      "inputs": [],
      "name": "endTime",
      "outputs": [
        {
          "internalType": "uint256",
          "name": "",
          "type": "uint256"
        }
      ],
      "stateMutability": "view",
      "type": "function"
    },
    {
      "inputs": [
        {
          "internalType": "address",
          "name": "_user",
          "type": "address"
        },
        {
          "internalType": "uint256",
          "name": "_amount",
          "type": "uint256"
        },
        {
          "internalType": "uint256",
          "name": "_lockOptIndex",
          "type": "uint256"
        }
      ],
      "name": "freeStakeBonus",
      "outputs": [],
      "stateMutability": "nonpayable",
      "type": "function"
    },
    {
      "inputs": [],
      "name": "getAllLockOptions",
      "outputs": [
        {
          "components": [
            {
              "internalType": "uint16",
              "name": "apr",
              "type": "uint16"
            },
            {
              "internalType": "uint256",
              "name": "lockTime",
              "type": "uint256"
            }
          ],
          "internalType": "struct StakingPosition.AprLock[]",
          "name": "",
          "type": "tuple[]"
        }
      ],
      "stateMutability": "view",
      "type": "function"
    },
    {
      "inputs": [
        {
          "internalType": "address",
          "name": "_user",
          "type": "address"
        }
      ],
      "name": "getAllUserOwned",
      "outputs": [
        {
          "internalType": "uint256[]",
          "name": "",
          "type": "uint256[]"
        }
      ],
      "stateMutability": "view",
      "type": "function"
    },
    {
      "inputs": [
        {
          "internalType": "uint256",
          "name": "tokenId",
          "type": "uint256"
        }
      ],
      "name": "getApproved",
      "outputs": [
        {
          "internalType": "address",
          "name": "",
          "type": "address"
        }
      ],
      "stateMutability": "view",
      "type": "function"
    },
    {
      "inputs": [],
      "name": "getLastMintedTokenId",
      "outputs": [
        {
          "internalType": "uint256",
          "name": "",
          "type": "uint256"
        }
      ],
      "stateMutability": "view",
      "type": "function"
    },
    {
      "inputs": [
        {
          "internalType": "uint256",
          "name": "_tokenId",
          "type": "uint256"
        }
      ],
      "name": "getTotalEarnedAmount",
      "outputs": [
        {
          "internalType": "uint256",
          "name": "",
          "type": "uint256"
        }
      ],
      "stateMutability": "view",
      "type": "function"
    },
    {
      "inputs": [
        {
          "internalType": "uint256",
          "name": "_tokenId",
          "type": "uint256"
        }
      ],
      "name": "getTotalValueAtMaturity",
      "outputs": [
        {
          "internalType": "uint256",
          "name": "",
          "type": "uint256"
        }
      ],
      "stateMutability": "view",
      "type": "function"
    },
    {
      "inputs": [
        {
          "internalType": "uint256",
          "name": "_tokenId",
          "type": "uint256"
        }
      ],
      "name": "getTotalYieldAtMaturity",
      "outputs": [
        {
          "internalType": "uint256",
          "name": "",
          "type": "uint256"
        }
      ],
      "stateMutability": "view",
      "type": "function"
    },
    {
      "inputs": [
        {
          "internalType": "contract IERC20",
          "name": "_token",
          "type": "address"
        },
        {
          "internalType": "address",
          "name": "_to",
          "type": "address"
        }
      ],
      "name": "governanceRecoverUnsupported",
      "outputs": [],
      "stateMutability": "nonpayable",
      "type": "function"
    },
    {
      "inputs": [
        {
          "internalType": "address",
          "name": "_user",
          "type": "address"
        }
      ],
      "name": "hasReceivedBonus",
      "outputs": [
        {
          "internalType": "bool",
          "name": "_receivedBonus",
          "type": "bool"
        }
      ],
      "stateMutability": "view",
      "type": "function"
    },
    {
      "inputs": [
        {
          "internalType": "uint256",
          "name": "_amount",
          "type": "uint256"
        }
      ],
      "name": "initialBonus",
      "outputs": [],
      "stateMutability": "nonpayable",
      "type": "function"
    },
    {
      "inputs": [
        {
          "internalType": "string",
          "name": "_name",
          "type": "string"
        },
        {
          "internalType": "string",
          "name": "_symbol",
          "type": "string"
        },
        {
          "internalType": "address",
          "name": "_stakeToken",
          "type": "address"
        },
        {
          "internalType": "string",
          "name": "_baseTokenURI",
          "type": "string"
        },
        {
          "internalType": "uint256",
          "name": "_referralBonusAmount",
          "type": "uint256"
        },
        {
          "internalType": "uint256",
          "name": "_referralMinAmount",
          "type": "uint256"
        }
      ],
      "name": "initialize",
      "outputs": [],
      "stateMutability": "nonpayable",
      "type": "function"
    },
    {
      "inputs": [
        {
          "internalType": "address",
          "name": "owner",
          "type": "address"
        },
        {
          "internalType": "address",
          "name": "operator",
          "type": "address"
        }
      ],
      "name": "isApprovedForAll",
      "outputs": [
        {
          "internalType": "bool",
          "name": "",
          "type": "bool"
        }
      ],
      "stateMutability": "view",
      "type": "function"
    },
    {
      "inputs": [
        {
          "internalType": "uint256",
          "name": "",
          "type": "uint256"
        }
      ],
      "name": "isBlacklisted",
      "outputs": [
        {
          "internalType": "bool",
          "name": "",
          "type": "bool"
        }
      ],
      "stateMutability": "view",
      "type": "function"
    },
    {
      "inputs": [
        {
          "internalType": "uint256",
          "name": "_tokenId",
          "type": "uint256"
        }
      ],
      "name": "isTokenMinted",
      "outputs": [
        {
          "internalType": "bool",
          "name": "",
          "type": "bool"
        }
      ],
      "stateMutability": "view",
      "type": "function"
    },
    {
      "inputs": [],
      "name": "masterContract",
      "outputs": [
        {
          "internalType": "contract StakingPosition",
          "name": "",
          "type": "address"
        }
      ],
      "stateMutability": "view",
      "type": "function"
    },
    {
      "inputs": [],
      "name": "name",
      "outputs": [
        {
          "internalType": "string",
          "name": "",
          "type": "string"
        }
      ],
      "stateMutability": "view",
      "type": "function"
    },
    {
      "inputs": [
        {
          "internalType": "uint256",
          "name": "",
          "type": "uint256"
        }
      ],
      "name": "ownedIndex",
      "outputs": [
        {
          "internalType": "uint256",
          "name": "",
          "type": "uint256"
        }
      ],
      "stateMutability": "view",
      "type": "function"
    },
    {
      "inputs": [],
      "name": "owner",
      "outputs": [
        {
          "internalType": "address",
          "name": "",
          "type": "address"
        }
      ],
      "stateMutability": "view",
      "type": "function"
    },
    {
      "inputs": [
        {
          "internalType": "uint256",
          "name": "tokenId",
          "type": "uint256"
        }
      ],
      "name": "ownerOf",
      "outputs": [
        {
          "internalType": "address",
          "name": "",
          "type": "address"
        }
      ],
      "stateMutability": "view",
      "type": "function"
    },
    {
      "inputs": [],
      "name": "referralBonusAmount",
      "outputs": [
        {
          "internalType": "uint256",
          "name": "",
          "type": "uint256"
        }
      ],
      "stateMutability": "view",
      "type": "function"
    },
    {
      "inputs": [],
      "name": "referralBonusLockIndex",
      "outputs": [
        {
          "internalType": "uint256",
          "name": "",
          "type": "uint256"
        }
      ],
      "stateMutability": "view",
      "type": "function"
    },
    {
      "inputs": [],
      "name": "referralMinAmount",
      "outputs": [
        {
          "internalType": "uint256",
          "name": "",
          "type": "uint256"
        }
      ],
      "stateMutability": "view",
      "type": "function"
    },
    {
      "inputs": [
        {
          "internalType": "uint256",
          "name": "_index",
          "type": "uint256"
        }
      ],
      "name": "removeAprLockOption",
      "outputs": [],
      "stateMutability": "nonpayable",
      "type": "function"
    },
    {
      "inputs": [],
      "name": "renounceOwnership",
      "outputs": [],
      "stateMutability": "nonpayable",
      "type": "function"
    },
    {
      "inputs": [
        {
          "internalType": "address",
          "name": "from",
          "type": "address"
        },
        {
          "internalType": "address",
          "name": "to",
          "type": "address"
        },
        {
          "internalType": "uint256",
          "name": "tokenId",
          "type": "uint256"
        }
      ],
      "name": "safeTransferFrom",
      "outputs": [],
      "stateMutability": "nonpayable",
      "type": "function"
    },
    {
      "inputs": [
        {
          "internalType": "address",
          "name": "from",
          "type": "address"
        },
        {
          "internalType": "address",
          "name": "to",
          "type": "address"
        },
        {
          "internalType": "uint256",
          "name": "tokenId",
          "type": "uint256"
        },
        {
          "internalType": "bytes",
          "name": "data",
          "type": "bytes"
        }
      ],
      "name": "safeTransferFrom",
      "outputs": [],
      "stateMutability": "nonpayable",
      "type": "function"
    },
    {
      "inputs": [
        {
          "internalType": "address",
          "name": "operator",
          "type": "address"
        },
        {
          "internalType": "bool",
          "name": "approved",
          "type": "bool"
        }
      ],
      "name": "setApprovalForAll",
      "outputs": [],
      "stateMutability": "nonpayable",
      "type": "function"
    },
    {
      "inputs": [
        {
          "internalType": "string",
          "name": "_uri",
          "type": "string"
        }
      ],
      "name": "setBaseURI",
      "outputs": [],
      "stateMutability": "nonpayable",
      "type": "function"
    },
    {
      "inputs": [
        {
          "internalType": "uint256",
          "name": "_bonusAmount",
          "type": "uint256"
        }
      ],
      "name": "setBonusAmount",
      "outputs": [],
      "stateMutability": "nonpayable",
      "type": "function"
    },
    {
      "inputs": [
        {
          "internalType": "uint256",
          "name": "_lockIndex",
          "type": "uint256"
        }
      ],
      "name": "setBonusLockIndex",
      "outputs": [],
      "stateMutability": "nonpayable",
      "type": "function"
    },
    {
      "inputs": [
        {
          "internalType": "uint256",
          "name": "_bonusMinAmount",
          "type": "uint256"
        }
      ],
      "name": "setBonusMinAmount",
      "outputs": [],
      "stateMutability": "nonpayable",
      "type": "function"
    },
    {
      "inputs": [
        {
          "internalType": "uint256",
          "name": "_capacity",
          "type": "uint256"
        }
      ],
      "name": "setCapacity",
      "outputs": [],
      "stateMutability": "nonpayable",
      "type": "function"
    },
    {
      "inputs": [
        {
          "internalType": "uint256",
          "name": "_tokenId",
          "type": "uint256"
        },
        {
          "internalType": "bool",
          "name": "_isBlacklisted",
          "type": "bool"
        }
      ],
      "name": "setIsBlacklisted",
      "outputs": [],
      "stateMutability": "nonpayable",
      "type": "function"
    },
    {
      "inputs": [
        {
          "internalType": "uint256",
          "name": "_amount",
          "type": "uint256"
        },
        {
          "internalType": "uint256",
          "name": "_lockOptIndex",
          "type": "uint256"
        }
      ],
      "name": "stake",
      "outputs": [],
      "stateMutability": "nonpayable",
      "type": "function"
    },
    {
      "inputs": [],
      "name": "stakeToken",
      "outputs": [
        {
          "internalType": "contract IERC20",
          "name": "",
          "type": "address"
        }
      ],
      "stateMutability": "view",
      "type": "function"
    },
    {
      "inputs": [
        {
          "internalType": "uint256",
          "name": "_amount",
          "type": "uint256"
        },
        {
          "internalType": "uint256",
          "name": "_lockOptIndex",
          "type": "uint256"
        },
        {
          "internalType": "address",
          "name": "_referrer",
          "type": "address"
        }
      ],
      "name": "stakeWithReferral",
      "outputs": [],
      "stateMutability": "nonpayable",
      "type": "function"
    },
    {
      "inputs": [
        {
          "internalType": "uint256",
          "name": "",
          "type": "uint256"
        }
      ],
      "name": "stakes",
      "outputs": [
        {
          "internalType": "uint256",
          "name": "created",
          "type": "uint256"
        },
        {
          "internalType": "uint256",
          "name": "amountStaked",
          "type": "uint256"
        },
        {
          "internalType": "uint16",
          "name": "apr",
          "type": "uint16"
        },
        {
          "internalType": "uint256",
          "name": "lockTime",
          "type": "uint256"
        },
        {
          "internalType": "bool",
          "name": "allowWithdrawEarly",
          "type": "bool"
        },
        {
          "internalType": "bool",
          "name": "assetTransferred",
          "type": "bool"
        },
        {
          "internalType": "bool",
          "name": "isBonusPosition",
          "type": "bool"
        }
      ],
      "stateMutability": "view",
      "type": "function"
    },
    {
      "inputs": [
        {
          "internalType": "bytes4",
          "name": "_interfaceId",
          "type": "bytes4"
        }
      ],
      "name": "supportsInterface",
      "outputs": [
        {
          "internalType": "bool",
          "name": "",
          "type": "bool"
        }
      ],
      "stateMutability": "view",
      "type": "function"
    },
    {
      "inputs": [],
      "name": "symbol",
      "outputs": [
        {
          "internalType": "string",
          "name": "",
          "type": "string"
        }
      ],
      "stateMutability": "view",
      "type": "function"
    },
    {
      "inputs": [
        {
          "internalType": "uint256",
          "name": "index",
          "type": "uint256"
        }
      ],
      "name": "tokenByIndex",
      "outputs": [
        {
          "internalType": "uint256",
          "name": "",
          "type": "uint256"
        }
      ],
      "stateMutability": "view",
      "type": "function"
    },
    {
      "inputs": [
        {
          "internalType": "uint256",
          "name": "",
          "type": "uint256"
        }
      ],
      "name": "tokenLastTransferred",
      "outputs": [
        {
          "internalType": "uint256",
          "name": "",
          "type": "uint256"
        }
      ],
      "stateMutability": "view",
      "type": "function"
    },
    {
      "inputs": [
        {
          "internalType": "uint256",
          "name": "",
          "type": "uint256"
        }
      ],
      "name": "tokenMintedAt",
      "outputs": [
        {
          "internalType": "uint256",
          "name": "",
          "type": "uint256"
        }
      ],
      "stateMutability": "view",
      "type": "function"
    },
    {
      "inputs": [
        {
          "internalType": "address",
          "name": "owner",
          "type": "address"
        },
        {
          "internalType": "uint256",
          "name": "index",
          "type": "uint256"
        }
      ],
      "name": "tokenOfOwnerByIndex",
      "outputs": [
        {
          "internalType": "uint256",
          "name": "",
          "type": "uint256"
        }
      ],
      "stateMutability": "view",
      "type": "function"
    },
    {
      "inputs": [
        {
          "internalType": "uint256",
          "name": "_tokenId",
          "type": "uint256"
        }
      ],
      "name": "tokenURI",
      "outputs": [
        {
          "internalType": "string",
          "name": "",
          "type": "string"
        }
      ],
      "stateMutability": "view",
      "type": "function"
    },
    {
      "inputs": [],
      "name": "totalSupply",
      "outputs": [
        {
          "internalType": "uint256",
          "name": "",
          "type": "uint256"
        }
      ],
      "stateMutability": "view",
      "type": "function"
    },
    {
      "inputs": [],
      "name": "totalYieldAtMaturity",
      "outputs": [
        {
          "internalType": "uint256",
          "name": "",
          "type": "uint256"
        }
      ],
      "stateMutability": "view",
      "type": "function"
    },
    {
      "inputs": [
        {
          "internalType": "address",
          "name": "from",
          "type": "address"
        },
        {
          "internalType": "address",
          "name": "to",
          "type": "address"
        },
        {
          "internalType": "uint256",
          "name": "tokenId",
          "type": "uint256"
        }
      ],
      "name": "transferFrom",
      "outputs": [],
      "stateMutability": "nonpayable",
      "type": "function"
    },
    {
      "inputs": [
        {
          "internalType": "address",
          "name": "newOwner",
          "type": "address"
        }
      ],
      "name": "transferOwnership",
      "outputs": [],
      "stateMutability": "nonpayable",
      "type": "function"
    },
    {
      "inputs": [
        {
          "internalType": "uint256",
          "name": "_index",
          "type": "uint256"
        },
        {
          "internalType": "uint16",
          "name": "_apr",
          "type": "uint16"
        },
        {
          "internalType": "uint256",
          "name": "_lockTime",
          "type": "uint256"
        }
      ],
      "name": "updateAprLockOption",
      "outputs": [],
      "stateMutability": "nonpayable",
      "type": "function"
    },
    {
      "inputs": [
        {
          "internalType": "address",
          "name": "_user",
          "type": "address"
        }
      ],
      "name": "usersBonus",
      "outputs": [
        {
          "internalType": "address",
          "name": "",
          "type": "address"
        },
        {
          "internalType": "uint256",
          "name": "",
          "type": "uint256"
        },
        {
          "internalType": "uint256",
          "name": "",
          "type": "uint256"
        },
        {
          "internalType": "uint256",
          "name": "",
          "type": "uint256"
        },
        {
          "internalType": "bool",
          "name": "",
          "type": "bool"
        }
      ],
      "stateMutability": "view",
      "type": "function"
    },
    {
      "inputs": [],
      "name": "vault",
      "outputs": [
        {
          "internalType": "contract IStakeVault",
          "name": "",
          "type": "address"
        }
      ],
      "stateMutability": "view",
      "type": "function"
    },
    {
      "inputs": [
        {
          "internalType": "uint256",
          "name": "_tokenId",
          "type": "uint256"
        },
        {
          "internalType": "bool",
          "name": "_isEarlyWithdraw",
          "type": "bool"
        }
      ],
      "name": "withdraw",
      "outputs": [],
      "stateMutability": "nonpayable",
      "type": "function"
    },
    {
      "inputs": [
        {
          "internalType": "uint256[]",
          "name": "_tokenIds",
          "type": "uint256[]"
        },
        {
          "internalType": "bool",
          "name": "isWithdrawEarly",
          "type": "bool"
        }
      ],
      "name": "withdrawMulti",
      "outputs": [],
      "stateMutability": "nonpayable",
      "type": "function"
    }
  ],
  "transactionHash": "0x9ffd2dfb107708cb2704b2afcc7f6eb3ab57117be6b5c949e580bdc9a11ddcdf",
  "args": [
    "0x5990988196d7b059b33FF9A08E525EA856dc181B"
  ],
  "numDeployments": 1,
  "solcInputHash": "4c2a491a0de22c380ecf681f4274f0b4",
  "bytecode": "0x60c06040523480156200001157600080fd5b5060405162005af238038062005af2833981016040819052620000349162000118565b6001600160a01b0381166080523060a0526200004f62000056565b506200014a565b600054610100900460ff1615620000c35760405162461bcd60e51b815260206004820152602760248201527f496e697469616c697a61626c653a20636f6e747261637420697320696e697469604482015266616c697a696e6760c81b606482015260840160405180910390fd5b60005460ff908116101562000116576000805460ff191660ff9081179091556040519081527f7f26b83ff96e1f2b6a682f133852f6798a09c465da95921460cefb38474024989060200160405180910390a15b565b6000602082840312156200012b57600080fd5b81516001600160a01b03811681146200014357600080fd5b9392505050565b60805160a0516158786200027a60003960006107bb01526000818161098d015281816109d101528181610a0d01528181610d6001528181610d9c015281816110000152818161103c015281816113030152818161133f01528181611764015281816118790152818161199801528181611a8f01528181611e5501528181611e910152818161215401528181612190015281816122d501528181612311015281816124120152818161244e0152818161255e0152818161259a0152818161292f015281816129c601528181612b1601528181612cc201528181612cfe01528181612e6501528181612f1b01528181612f57015281816130600152818161313c015281816131780152818161337c015281816133b801528181613c88015281816143e401526144b601526158786000f3fe608060405234801561001057600080fd5b50600436106103db5760003560e01c80637974e46a1161020a578063b88d4fde11610125578063e92f6a15116100b8578063f2fde38b11610087578063f2fde38b14610961578063f9de8c0a14610974578063fab1e7471461097e578063fbfa77cf14610988578063ffa80136146109af57600080fd5b8063e92f6a15146108ec578063e985e9c5146108ff578063ed44e5691461093b578063eeb90ba91461094e57600080fd5b8063d1c6b0ca116100f4578063d1c6b0ca146107f0578063d5a44f8614610803578063dd0fb0881461089d578063e8a3d485146108e457600080fd5b8063b88d4fde14610790578063c87b56dd146107a3578063cd446e22146107b6578063d17b9e77146107dd57600080fd5b806399bbbbac1161019d578063ad63db3d1161016c578063ad63db3d1461073f578063afd50d8f14610749578063b275d0b71461076a578063b4f0c8301461077d57600080fd5b806399bbbbac146106f1578063a22cb46514610706578063a49991f314610719578063a6bba7671461072c57600080fd5b806390e78328116101d957806390e78328146106b057806391915ef8146106c357806395d89b41146106d657806397d3b573146106de57600080fd5b80637974e46a146106715780637b0472f0146106795780638da5cb5b1461068c5780638f96a7cb1461069d57600080fd5b806338d07436116102fa5780635cfc1a511161028d57806370a082311161025c57806370a0823114610622578063715018a61461063557806376772cf81461063d5780637869684c1461065e57600080fd5b80635cfc1a51146105e85780636305b715146105f25780636352211e146105fc57806364ed320d1461060f57600080fd5b80634752f9ef116102c95780634752f9ef1461058c5780634f6ccce7146105af57806351ed6a30146105c257806355f804b3146105d557600080fd5b806338d074361461054057806338f57ff31461055357806342842e0e146105665780634670dd2d1461057957600080fd5b806318160ddd11610372578063274de61e11610341578063274de61e146104ef5780632f745c59146105105780633197cbb6146105235780633649c4791461052d57600080fd5b806318160ddd146104ae57806320e3fa50146104b65780632374346c146104c957806323b872dd146104dc57600080fd5b806306fdde03116103ae57806306fdde0314610448578063081812fc1461045d57806308b7424514610488578063095ea7b31461049b57600080fd5b806301ede8dc146103e057806301ffc9a7146103f557806303b5ffc31461041d57806304ece58314610435575b600080fd5b6103f36103ee366004614bde565b6109cf565b005b610408610403366004614c1e565b610bac565b60405190151581526020015b60405180910390f35b6104276101065481565b604051908152602001610414565b610427610443366004614c3b565b610bbd565b610450610ca5565b6040516104149190614ca4565b61047061046b366004614c3b565b610d37565b6040516001600160a01b039091168152602001610414565b6103f3610496366004614cc5565b610d5e565b6103f36104a9366004614d0a565b610eb7565b609954610427565b6104276104c4366004614d0a565b610fcc565b6103f36104d7366004614c3b565b610ffe565b6103f36104ea366004614d28565b61123a565b6104276104fd366004614c3b565b6101026020526000908152604090205481565b61042761051e366004614d0a565b61126b565b6104276101095481565b6103f361053b366004614e28565b611301565b6103f361054e366004614cc5565b611572565b6103f3610561366004614ed7565b611935565b6103f3610574366004614d28565b611bee565b6103f3610587366004614f10565b611c09565b61040861059a366004614c3b565b60fe6020526000908152604090205460ff1681565b6104276105bd366004614c3b565b611dc0565b60fb54610470906001600160a01b031681565b6103f36105e3366004614f45565b611e53565b6104276101085481565b6104276101055481565b61047061060a366004614c3b565b611fab565b61042761061d366004614c3b565b61200b565b610427610630366004614f7a565b6120b8565b6103f361213e565b61042761064b366004614c3b565b6101036020526000908152604090205481565b6103f361066c366004614c3b565b612152565b61042761228f565b6103f3610687366004614f97565b61229f565b60c9546001600160a01b0316610470565b6104086106ab366004614c3b565b6122b4565b6103f36106be366004614c3b565b6122d3565b6103f36106d1366004614c3b565b612410565b61045061254d565b6103f36106ec366004614fb9565b61255c565b6106f9612792565b6040516104149190614fe7565b6103f361071436600461503a565b612802565b610427610727366004614c3b565b61280d565b6103f361073a3660046150e8565b6128c2565b61042761010b5481565b610427610757366004614c3b565b6101046020526000908152604090205481565b6103f3610778366004614c3b565b61290a565b61040861078b366004614f7a565b612be3565b6103f361079e366004615141565b612bf8565b6104506107b1366004614c3b565b612c2a565b6104707f000000000000000000000000000000000000000000000000000000000000000081565b6103f36107eb366004614c3b565b612cc0565b6103f36107fe366004614c3b565b612f19565b61085b610811366004614c3b565b60fd60205260009081526040902080546001820154600283015460038401546004909401549293919261ffff909116919060ff808216916101008104821691620100009091041687565b60408051978852602088019690965261ffff9094169486019490945260608501919091521515608084015290151560a0830152151560c082015260e001610414565b6108b06108ab366004614f7a565b613056565b604080516001600160a01b03909616865260208601949094529284019190915260608301521515608082015260a001610414565b61045061310c565b6103f36108fa3660046151c1565b61313a565b61040861090d366004614fb9565b6001600160a01b039182166000908152606a6020908152604080832093909416825291909152205460ff1690565b6103f36109493660046151f6565b613339565b6103f361095c366004614f10565b61337a565b6103f361096f366004614f7a565b6134dd565b6104276101075481565b61042761010a5481565b6104707f000000000000000000000000000000000000000000000000000000000000000081565b6109c26109bd366004614f7a565b613556565b604051610414919061523d565b7f00000000000000000000000000000000000000000000000000000000000000006001600160a01b0316331480610a985750336001600160a01b03167f00000000000000000000000000000000000000000000000000000000000000006001600160a01b031663f851a4406040518163ffffffff1660e01b8152600401602060405180830381865afa158015610a69573d6000803e3d6000fd5b505050506040513d601f19601f82011682018060405250810190610a8d9190615281565b6001600160a01b0316145b80610abc575033610ab160c9546001600160a01b031690565b6001600160a01b0316145b610ae15760405162461bcd60e51b8152600401610ad89061529e565b60405180910390fd5b6040805180820190915261ffff80841682526020820183815260fc805460018101825560009190915292517f371f36870d18f32a11fea0f144b021c8b407bb50f8e0267c711123f454b963c06002909402938401805461ffff19169190931617909155517f371f36870d18f32a11fea0f144b021c8b407bb50f8e0267c711123f454b963c1909101558161ffff167fe01fdf33dfdfd42d6dc9b85e62d6750214967dddff00304f34c3fed1939bde0b82604051610ba091815260200190565b60405180910390a25050565b6000610bb7826135c3565b92915050565b600081815260fd60209081526040808320815160e0810183528154808252600183015494820194909452600282015461ffff1692810192909252600381015460608301526004015460ff8082161515608084015261010082048116151560a08401526201000090910416151560c0820152908290610c3b90426152d4565b905060008260600151821115610c5657506060820151610c59565b50805b6301e1338061271061ffff1682856040015161ffff168660200151610c7e91906152e7565b610c8891906152e7565b610c9291906152fe565b610c9c91906152fe565b95945050505050565b606060658054610cb490615320565b80601f0160208091040260200160405190810160405280929190818152602001828054610ce090615320565b8015610d2d5780601f10610d0257610100808354040283529160200191610d2d565b820191906000526020600020905b815481529060010190602001808311610d1057829003601f168201915b5050505050905090565b6000610d42826135e8565b506000908152606960205260409020546001600160a01b031690565b7f00000000000000000000000000000000000000000000000000000000000000006001600160a01b0316331480610e275750336001600160a01b03167f00000000000000000000000000000000000000000000000000000000000000006001600160a01b031663f851a4406040518163ffffffff1660e01b8152600401602060405180830381865afa158015610df8573d6000803e3d6000fd5b505050506040513d601f19601f82011682018060405250810190610e1c9190615281565b6001600160a01b0316145b80610e4b575033610e4060c9546001600160a01b031690565b6001600160a01b0316145b610e675760405162461bcd60e51b8152600401610ad89061529e565b600082815260fe6020908152604091829020805460ff1916841515908117909155915191825283917fd07a67329d87579b1994579e69a7e1df196e41e2c912c37b7b9d80ef0030238d9101610ba0565b6000610ec282611fab565b9050806001600160a01b0316836001600160a01b031603610f2f5760405162461bcd60e51b815260206004820152602160248201527f4552433732313a20617070726f76616c20746f2063757272656e74206f776e656044820152603960f91b6064820152608401610ad8565b336001600160a01b0382161480610f4b5750610f4b813361090d565b610fbd5760405162461bcd60e51b815260206004820152603d60248201527f4552433732313a20617070726f76652063616c6c6572206973206e6f7420746f60448201527f6b656e206f776e6572206f7220617070726f76656420666f7220616c6c0000006064820152608401610ad8565b610fc78383613647565b505050565b6101016020528160005260406000208181548110610fe957600080fd5b90600052602060002001600091509150505481565b7f00000000000000000000000000000000000000000000000000000000000000006001600160a01b03163314806110c75750336001600160a01b03167f00000000000000000000000000000000000000000000000000000000000000006001600160a01b031663f851a4406040518163ffffffff1660e01b8152600401602060405180830381865afa158015611098573d6000803e3d6000fd5b505050506040513d601f19601f820116820180604052508101906110bc9190615281565b6001600160a01b0316145b806110eb5750336110e060c9546001600160a01b031690565b6001600160a01b0316145b6111075760405162461bcd60e51b8152600401610ad89061529e565b600060fc828154811061111c5761111c61535a565b600091825260209182902060408051808201909152600290920201805461ffff1682526001908101549282019290925260fc80549193509161115d916152d4565b8154811061116d5761116d61535a565b906000526020600020906002020160fc838154811061118e5761118e61535a565b600091825260209091208254600290920201805461ffff191661ffff90921691909117815560019182015491015560fc8054806111cd576111cd615370565b6000828152602080822060026000199490940193840201805461ffff1916815560010191909155915581518282015160405190815261ffff9091169184917f31c7ae07732186951f28c3aa4b019b67ff0b121028ec0baa0127467a57d3d340910160405180910390a35050565b61124433826136b5565b6112605760405162461bcd60e51b8152600401610ad890615386565b610fc7838383613734565b6000611276836120b8565b82106112d85760405162461bcd60e51b815260206004820152602b60248201527f455243373231456e756d657261626c653a206f776e657220696e646578206f7560448201526a74206f6620626f756e647360a81b6064820152608401610ad8565b506001600160a01b03919091166000908152609760209081526040808320938352929052205490565b7f00000000000000000000000000000000000000000000000000000000000000006001600160a01b03163314806113ca5750336001600160a01b03167f00000000000000000000000000000000000000000000000000000000000000006001600160a01b031663f851a4406040518163ffffffff1660e01b8152600401602060405180830381865afa15801561139b573d6000803e3d6000fd5b505050506040513d601f19601f820116820180604052508101906113bf9190615281565b6001600160a01b0316145b806113ee5750336113e360c9546001600160a01b031690565b6001600160a01b0316145b61140a5760405162461bcd60e51b8152600401610ad89061529e565b600054610100900460ff161580801561142a5750600054600160ff909116105b806114445750303b158015611444575060005460ff166001145b6114a75760405162461bcd60e51b815260206004820152602e60248201527f496e697469616c697a61626c653a20636f6e747261637420697320616c72656160448201526d191e481a5b9a5d1a585b1a5e995960921b6064820152608401610ad8565b6000805460ff1916600117905580156114ca576000805461ff0019166101001790555b6114d487876138ad565b6114dc6138de565b60fb80546001600160a01b0319166001600160a01b0387161790556101006115048582615421565b506000610108819055610109556101058390556101068290556001610107558015611569576000805461ff0019169055604051600181527f7f26b83ff96e1f2b6a682f133852f6798a09c465da95921460cefb38474024989060200160405180910390a15b50505050505050565b600082815260fd6020908152604091829020825160e08101845281548152600182015492810192909252600281015461ffff16928201929092526003820154606082015260049091015460ff8082161515608084015261010082048116151560a08401526201000090910416151560c082015233906115f084611fab565b6001600160a01b0316826001600160a01b0316146116685760405162461bcd60e51b815260206004820152602f60248201527f6f6e6c7920746865206f776e6572206f6620746865207374616b656420746f6b60448201526e656e732063616e20756e7374616b6560881b6064820152608401610ad8565b6060810151815160009161167b916154e1565b42109050801561184c5781608001516116ef5760405162461bcd60e51b815260206004820152603060248201527f5468697320706f736974696f6e206973206e6f7420656c696769626c6520666f60448201526f72206561726c7920776974686472617760801b6064820152608401610ad8565b836117625760405162461bcd60e51b815260206004820152603960248201527f4d7573742061636b6e6f776c6564676520746865206561726c7920776974686460448201527f7261772064756520746f206c6f7373206f6620746f6b656e73000000000000006064820152608401610ad8565b7f00000000000000000000000000000000000000000000000000000000000000006001600160a01b031663f8d155e08460fb60009054906101000a90046001600160a01b0316600286602001516117b991906152fe565b60006040518563ffffffff1660e01b81526004016117da94939291906154f4565b600060405180830381600087803b1580156117f457600080fd5b505af1158015611808573d6000803e3d6000fd5b5050604080516000808252600160208301528183015290518893506001600160a01b03871692506000805160206158238339815191529181900360600190a3611925565b600061185786610bbd565b60fb5460208501516040516307c68aaf60e51b81529293506001600160a01b037f000000000000000000000000000000000000000000000000000000000000000081169363f8d155e0936118b6938a93919091169187906004016154f4565b600060405180830381600087803b1580156118d057600080fd5b505af11580156118e4573d6000803e3d6000fd5b5050604080516000808252602082018190528183015290518993506001600160a01b03881692506000805160206158238339815191529181900360600190a3505b61192e8561390d565b5050505050565b610106548310156119885760405162461bcd60e51b815260206004820152601860248201527f4d757374207374616b65206c617267657220616d6f756e7400000000000000006044820152606401610ad8565b6000808080806001600160a01b037f00000000000000000000000000000000000000000000000000000000000000001663dd0fb088336040516001600160e01b031960e084901b1681526001600160a01b03909116600482015260240160a060405180830381865afa158015611a02573d6000803e3d6000fd5b505050506040513d601f19601f82011682018060405250810190611a26919061551d565b9398509196509450925090508015611a805760405162461bcd60e51b815260206004820152601d60248201527f5573657220616c7265616479207265636569766564206120626f6e75730000006044820152606401610ad8565b6040516353b5f30560e01b81527f00000000000000000000000000000000000000000000000000000000000000006001600160a01b0316906353b5f30590611ad79033908990899089908990600190600401615575565b600060405180830381600087803b158015611af157600080fd5b505af1158015611b05573d6000803e3d6000fd5b50505050611b1b338989600160008060006139ba565b611b323361010554610107546000806000806139ba565b611b498661010554610107546000806000806139ba565b610105546101075460405133927feaaedb2f797ad9311d3350873d350ad04080ad6baa897e9cd8b891bf151f3a5e92611b8a92918252602082015260400190565b60405180910390a2856001600160a01b03167feaaedb2f797ad9311d3350873d350ad04080ad6baa897e9cd8b891bf151f3a5e6101055461010754604051611bdc929190918252602082015260400190565b60405180910390a25050505050505050565b610fc783838360405180602001604052806000815250612bf8565b600082815260fe602052604090205460ff1615611c5a5760405162461bcd60e51b815260206004820152600f60248201526e189b1858dadb1a5cdd195908139195608a1b6044820152606401610ad8565b611c6382611fab565b6001600160a01b0316836001600160a01b031614611c8057600080fd5b600082815260fd6020908152604091829020825160e0810184528154808252600183015493820193909352600282015461ffff169381019390935260038101546060840181905260049091015460ff8082161515608086015261010082048116151560a08601526201000090910416151560c0840152611cff916154e1565b4211611d4d5760405162461bcd60e51b815260206004820152601b60248201527f506f736974696f6e206973206e6f74206174206d6174757269747900000000006044820152606401610ad8565b6000611d5884610bbd565b9050611d638461390d565b604080516001815260006020820181905281830152905185916001600160a01b038816916000805160206158238339815191529181900360600190a361192e85828460200151611db391906154e1565b85600060018060006139ba565b6000611dcb60995490565b8210611e2e5760405162461bcd60e51b815260206004820152602c60248201527f455243373231456e756d657261626c653a20676c6f62616c20696e646578206f60448201526b7574206f6620626f756e647360a01b6064820152608401610ad8565b60998281548110611e4157611e4161535a565b90600052602060002001549050919050565b7f00000000000000000000000000000000000000000000000000000000000000006001600160a01b0316331480611f1c5750336001600160a01b03167f00000000000000000000000000000000000000000000000000000000000000006001600160a01b031663f851a4406040518163ffffffff1660e01b8152600401602060405180830381865afa158015611eed573d6000803e3d6000fd5b505050506040513d601f19601f82011682018060405250810190611f119190615281565b6001600160a01b0316145b80611f40575033611f3560c9546001600160a01b031690565b6001600160a01b0316145b611f5c5760405162461bcd60e51b8152600401610ad89061529e565b610100611f698282615421565b5080604051611f7891906155ab565b604051908190038120907f199e933997358e1789d8b56ea8c551befeb05ce2fe3fe506199f1230f5a591b490600090a250565b6000818152606760205260408120546001600160a01b031680610bb75760405162461bcd60e51b8152602060048201526018602482015277115490cdcc8c4e881a5b9d985b1a59081d1bdad95b88125160421b6044820152606401610ad8565b600081815260fd60209081526040808320815160e081018352815481526001820154938101849052600282015461ffff1692810183905260038201546060820181905260049092015460ff8082161515608084015261010082048116151560a08401526201000090910416151560c0820152926301e1338092612710929161209391906152e7565b61209d91906152e7565b6120a791906152fe565b6120b191906152fe565b9392505050565b60006001600160a01b0382166121225760405162461bcd60e51b815260206004820152602960248201527f4552433732313a2061646472657373207a65726f206973206e6f7420612076616044820152683634b21037bbb732b960b91b6064820152608401610ad8565b506001600160a01b031660009081526068602052604090205490565b612146613ead565b6121506000613f07565b565b7f00000000000000000000000000000000000000000000000000000000000000006001600160a01b031633148061221b5750336001600160a01b03167f00000000000000000000000000000000000000000000000000000000000000006001600160a01b031663f851a4406040518163ffffffff1660e01b8152600401602060405180830381865afa1580156121ec573d6000803e3d6000fd5b505050506040513d601f19601f820116820180604052508101906122109190615281565b6001600160a01b0316145b8061223f57503361223460c9546001600160a01b031690565b6001600160a01b0316145b61225b5760405162461bcd60e51b8152600401610ad89061529e565b61010681905560405181907f2ebf7054fda26cce68709eab0e72f86f40153730d994609a775243bd16bd32f890600090a250565b600061229a60ff5490565b905090565b6122b03383836001806000806139ba565b5050565b6000818152606760205260408120546001600160a01b03161515610bb7565b7f00000000000000000000000000000000000000000000000000000000000000006001600160a01b031633148061239c5750336001600160a01b03167f00000000000000000000000000000000000000000000000000000000000000006001600160a01b031663f851a4406040518163ffffffff1660e01b8152600401602060405180830381865afa15801561236d573d6000803e3d6000fd5b505050506040513d601f19601f820116820180604052508101906123919190615281565b6001600160a01b0316145b806123c05750336123b560c9546001600160a01b031690565b6001600160a01b0316145b6123dc5760405162461bcd60e51b8152600401610ad89061529e565b61010781905560405181907fab03523d63fc2456e647e1335600dd48f2b3c9645b43f190cc1615863007e4ed90600090a250565b7f00000000000000000000000000000000000000000000000000000000000000006001600160a01b03163314806124d95750336001600160a01b03167f00000000000000000000000000000000000000000000000000000000000000006001600160a01b031663f851a4406040518163ffffffff1660e01b8152600401602060405180830381865afa1580156124aa573d6000803e3d6000fd5b505050506040513d601f19601f820116820180604052508101906124ce9190615281565b6001600160a01b0316145b806124fd5750336124f260c9546001600160a01b031690565b6001600160a01b0316145b6125195760405162461bcd60e51b8152600401610ad89061529e565b61010881905560405181907f3e90590403178c03ff8343cdb359608fcc7678b15509de56e1be479af1b127be90600090a250565b606060668054610cb490615320565b7f00000000000000000000000000000000000000000000000000000000000000006001600160a01b03163314806126255750336001600160a01b03167f00000000000000000000000000000000000000000000000000000000000000006001600160a01b031663f851a4406040518163ffffffff1660e01b8152600401602060405180830381865afa1580156125f6573d6000803e3d6000fd5b505050506040513d601f19601f8201168201806040525081019061261a9190615281565b6001600160a01b0316145b8061264957503361263e60c9546001600160a01b031690565b6001600160a01b0316145b6126655760405162461bcd60e51b8152600401610ad89061529e565b6040516370a0823160e01b81523060048201526001600160a01b0383169063a9059cbb90839083906370a0823190602401602060405180830381865afa1580156126b3573d6000803e3d6000fd5b505050506040513d601f19601f820116820180604052508101906126d791906155c7565b6040516001600160e01b031960e085901b1681526001600160a01b03909216600483015260248201526044016020604051808303816000875af1158015612722573d6000803e3d6000fd5b505050506040513d601f19601f8201168201806040525081019061274691906155e0565b6122b05760405162461bcd60e51b815260206004820152601860248201527f436f756c64206e6f74207472616e7366657220746f6b656e00000000000000006044820152606401610ad8565b606060fc805480602002602001604051908101604052809291908181526020016000905b828210156127f95760008481526020908190206040805180820190915260028502909101805461ffff1682526001908101548284015290835290920191016127b6565b50505050905090565b6122b0338383613f59565b600081815260fd60209081526040808320815160e081018352815481526001820154938101849052600282015461ffff1692810183905260038201546060820181905260049092015460ff8082161515608084015261010082048116151560a08401526201000090910416151560c0820152926301e1338092612710929161289591906152e7565b61289f91906152e7565b6128a991906152fe565b6128b391906152fe565b81602001516120b191906154e1565b60005b8251811015612904576128f2848483815181106128e4576128e461535a565b602002602001015184611c09565b806128fc816155fd565b9150506128c5565b50505050565b60fb54604051636047f03360e11b81526001600160a01b0391821660048201526000917f0000000000000000000000000000000000000000000000000000000000000000169063c08fe0669060240161010060405180830381865afa158015612977573d6000803e3d6000fd5b505050506040513d601f19601f8201168201806040525081019061299b9190615616565b5060408051631ba1f61160e31b81523360048201529051919850600097508796506001600160a01b037f000000000000000000000000000000000000000000000000000000000000000016955063dd0fb08894506024808201945060a09350908290030181865afa158015612a14573d6000803e3d6000fd5b505050506040513d601f19601f82011682018060405250810190612a38919061551d565b9195509093505083159150612a9190505760405162461bcd60e51b815260206004820152601d60248201527f5573657220616c7265616479207265636569766564206120626f6e75730000006044820152606401610ad8565b82841115612afc5760405162461bcd60e51b815260206004820152603260248201527f426f6e757320616d6f756e74206d757374206265206c657373207468616e206f6044820152710e440cae2eac2d840e8de40e8d0ca40dac2f60731b6064820152608401610ad8565b60fb546040516353b5f30560e01b81526001600160a01b037f00000000000000000000000000000000000000000000000000000000000000008116926353b5f30592612b579233921690899042906000908990600401615575565b600060405180830381600087803b158015612b7157600080fd5b505af1158015612b85573d6000803e3d6000fd5b50505050612ba2612b933390565b856001600080600060016139ba565b604080518581526001602082015233917f39411aa5454233dea52e69983fc74412c7abbe65976705dc07402ecdcb3a768b910160405180910390a250505050565b6000612bee82613056565b9695505050505050565b612c0233836136b5565b612c1e5760405162461bcd60e51b8152600401610ad890615386565b61290484848484614027565b6000818152606760205260409020546060906001600160a01b0316612c885760405162461bcd60e51b81526020600482015260146024820152731d1bdad95b88191bd95cc81b9bdd08195e1a5cdd60621b6044820152606401610ad8565b612c9061405a565b612c998361406a565b604051602001612caa929190615680565b6040516020818303038152906040529050919050565b7f00000000000000000000000000000000000000000000000000000000000000006001600160a01b0316331480612d895750336001600160a01b03167f00000000000000000000000000000000000000000000000000000000000000006001600160a01b031663f851a4406040518163ffffffff1660e01b8152600401602060405180830381865afa158015612d5a573d6000803e3d6000fd5b505050506040513d601f19601f82011682018060405250810190612d7e9190615281565b6001600160a01b0316145b80612dad575033612da260c9546001600160a01b031690565b6001600160a01b0316145b612dc95760405162461bcd60e51b8152600401610ad89061529e565b600081815260fd60209081526040808320815160e08101835281548152600182015493810193909352600281015461ffff1691830191909152600381015460608301526004015460ff8082161515608084015261010082048116151560a08401526201000090910416151560c082015290612e4383611fab565b60fb5460208401516040516307c68aaf60e51b81529293506001600160a01b037f000000000000000000000000000000000000000000000000000000000000000081169363f8d155e093612ea393879391909116916000906004016154f4565b600060405180830381600087803b158015612ebd57600080fd5b505af1158015612ed1573d6000803e3d6000fd5b5050604080516000808252602082015260018183015290518693506001600160a01b03851692506000805160206158238339815191529181900360600190a3610fc78361390d565b7f00000000000000000000000000000000000000000000000000000000000000006001600160a01b0316331480612fe25750336001600160a01b03167f00000000000000000000000000000000000000000000000000000000000000006001600160a01b031663f851a4406040518163ffffffff1660e01b8152600401602060405180830381865afa158015612fb3573d6000803e3d6000fd5b505050506040513d601f19601f82011682018060405250810190612fd79190615281565b6001600160a01b0316145b80613006575033612ffb60c9546001600160a01b031690565b6001600160a01b0316145b6130225760405162461bcd60e51b8152600401610ad89061529e565b61010581905560405181907f489c861b26977ea518d7106a69d4254fbe2c3cfb9cbf5ca4f7784058ec1c6ba490600090a250565b60008060008060007f00000000000000000000000000000000000000000000000000000000000000006001600160a01b031663dd0fb088876040518263ffffffff1660e01b81526004016130b991906001600160a01b0391909116815260200190565b60a060405180830381865afa1580156130d6573d6000803e3d6000fd5b505050506040513d601f19601f820116820180604052508101906130fa919061551d565b939a9299509097509550909350915050565b606061311661405a565b60405160200161312691906156bf565b604051602081830303815290604052905090565b7f00000000000000000000000000000000000000000000000000000000000000006001600160a01b03163314806132035750336001600160a01b03167f00000000000000000000000000000000000000000000000000000000000000006001600160a01b031663f851a4406040518163ffffffff1660e01b8152600401602060405180830381865afa1580156131d4573d6000803e3d6000fd5b505050506040513d601f19601f820116820180604052508101906131f89190615281565b6001600160a01b0316145b8061322757503361321c60c9546001600160a01b031690565b6001600160a01b0316145b6132435760405162461bcd60e51b8152600401610ad89061529e565b600060fc84815481106132585761325861535a565b60009182526020918290206040805180820182526002909302909101805461ffff90811684526001909101548385015281518083019092528616815291820184905260fc805491935090869081106132b2576132b261535a565b6000918252602091829020835160029290920201805461ffff191661ffff9283161781559282015160019093019290925582518382015160408051918252878516938201939093529182018590529091169085907f1d66929984041b98ee2942b02ecb1a94419d54cf725b2fff115bb7a6039a96c69060600160405180910390a350505050565b60005b8251811015610fc75761336883828151811061335a5761335a61535a565b602002602001015183611572565b80613372816155fd565b91505061333c565b7f00000000000000000000000000000000000000000000000000000000000000006001600160a01b03163314806134435750336001600160a01b03167f00000000000000000000000000000000000000000000000000000000000000006001600160a01b031663f851a4406040518163ffffffff1660e01b8152600401602060405180830381865afa158015613414573d6000803e3d6000fd5b505050506040513d601f19601f820116820180604052508101906134389190615281565b6001600160a01b0316145b8061346757503361345c60c9546001600160a01b031690565b6001600160a01b0316145b6134835760405162461bcd60e51b8152600401610ad89061529e565b6134948383836000806000806139ba565b60408051838152602081018390526001600160a01b038516917f39411aa5454233dea52e69983fc74412c7abbe65976705dc07402ecdcb3a768b910160405180910390a2505050565b6134e5613ead565b6001600160a01b03811661354a5760405162461bcd60e51b815260206004820152602660248201527f4f776e61626c653a206e6577206f776e657220697320746865207a65726f206160448201526564647265737360d01b6064820152608401610ad8565b61355381613f07565b50565b6001600160a01b038116600090815261010160209081526040918290208054835181840281018401909452808452606093928301828280156135b757602002820191906000526020600020905b8154815260200190600101908083116135a3575b50505050509050919050565b60006001600160e01b0319821663780e9d6360e01b1480610bb75750610bb7826140fd565b6000818152606760205260409020546001600160a01b03166135535760405162461bcd60e51b8152602060048201526018602482015277115490cdcc8c4e881a5b9d985b1a59081d1bdad95b88125160421b6044820152606401610ad8565b600081815260696020526040902080546001600160a01b0319166001600160a01b038416908117909155819061367c82611fab565b6001600160a01b03167f8c5be1e5ebec7d5bd14f71427d1e84f3dd0314c0f7b2291e5b200ac8c7c3b92560405160405180910390a45050565b6000806136c183611fab565b9050806001600160a01b0316846001600160a01b0316148061370857506001600160a01b038082166000908152606a602090815260408083209388168352929052205460ff165b8061372c5750836001600160a01b031661372184610d37565b6001600160a01b0316145b949350505050565b826001600160a01b031661374782611fab565b6001600160a01b03161461376d5760405162461bcd60e51b8152600401610ad8906156f0565b6001600160a01b0382166137cf5760405162461bcd60e51b8152602060048201526024808201527f4552433732313a207472616e7366657220746f20746865207a65726f206164646044820152637265737360e01b6064820152608401610ad8565b6137dc838383600161414d565b826001600160a01b03166137ef82611fab565b6001600160a01b0316146138155760405162461bcd60e51b8152600401610ad8906156f0565b600081815260696020908152604080832080546001600160a01b03199081169091556001600160a01b0387811680865260688552838620805460001901905590871680865283862080546001019055868652606790945282852080549092168417909155905184937fddf252ad1be2c89b69c2b068fc378daa952ba7f163c4a11628f55a4df523b3ef91a4610fc783838360016141bc565b600054610100900460ff166138d45760405162461bcd60e51b8152600401610ad890615735565b6122b08282614350565b600054610100900460ff166139055760405162461bcd60e51b8152600401610ad890615735565b612150614390565b600061391882611fab565b905061392881600084600161414d565b61393182611fab565b600083815260696020908152604080832080546001600160a01b03199081169091556001600160a01b0385168085526068845282852080546000190190558785526067909352818420805490911690555192935084927fddf252ad1be2c89b69c2b068fc378daa952ba7f163c4a11628f55a4df523b3ef908390a46122b08160008460016141bc565b60fc548510613a015760405162461bcd60e51b815260206004820152601360248201527234b73b30b634b2103637b1b59037b83a34b7b760691b6044820152606401610ad8565b8515613a0d5785613a7b565b60fb546040516370a0823160e01b81526001600160a01b038981166004830152909116906370a0823190602401602060405180830381865afa158015613a57573d6000803e3d6000fd5b505050506040513d601f19601f82011682018060405250810190613a7b91906155c7565b955060008611613ae45760405162461bcd60e51b815260206004820152602e60248201527f6d757374207374616b6520616e64206265206561726e696e67206174206c656160448201526d737420736f6d6520746f6b656e7360901b6064820152608401610ad8565b6101085461010a54613af690886154e1565b111580613b04575061010854155b613b405760405162461bcd60e51b815260206004820152600d60248201526c4f76657220636170616369747960981b6044820152606401610ad8565b6101095442111580613b53575061010954155b613b935760405162461bcd60e51b815260206004820152601160248201527029ba30b5b2903832b934b7b21037bb32b960791b6044820152606401610ad8565b8561010a6000828254613ba691906154e1565b909155505060ff8054600101905560006301e1338061271061ffff1660fc8881548110613bd557613bd561535a565b90600052602060002090600202016001015460fc8981548110613bfa57613bfa61535a565b6000918252602090912060029091020154613c199061ffff168b6152e7565b613c2391906152e7565b613c2d91906152fe565b613c3791906152fe565b90508061010b6000828254613c4c91906154e1565b90915550508415613ce75760fb54604051630909b0d560e11b81526001600160a01b038a811660048301529182166024820152604481018990527f00000000000000000000000000000000000000000000000000000000000000009091169063121361aa90606401600060405180830381600087803b158015613cce57600080fd5b505af1158015613ce2573d6000803e3d6000fd5b505050505b6040518060e0016040528042815260200188815260200160fc8881548110613d1157613d1161535a565b60009182526020918290206002909102015461ffff16825260fc8054929091019189908110613d4257613d4261535a565b90600052602060002090600202016001015481526020018515158152602001861515815260200183151581525060fd6000613d7c60ff5490565b815260208082019290925260409081016000208351815591830151600183015582015160028201805461ffff90921661ffff199283161790556060830151600383015560808301516004909201805460a085015160c0909501511515620100000262ff0000199515156101000261ff00199515159590951691909316179290921792909216919091179055613e1988613e1460ff5490565b6143c0565b426101036000613e2860ff5490565b81526020810191909152604001600020558415613e4b57613e4988886143da565b505b60ff54604080518981526020810189905285151581830152841515606082015290516001600160a01b038b16917f1e5878b7dcf3d6931c5620f2b711acd129181797fc121b28507730ba2cef8b2f919081900360800190a35050505050505050565b60c9546001600160a01b031633146121505760405162461bcd60e51b815260206004820181905260248201527f4f776e61626c653a2063616c6c6572206973206e6f7420746865206f776e65726044820152606401610ad8565b60c980546001600160a01b038381166001600160a01b0319831681179093556040519116919082907f8be0079c531659141344cd1fd0a4f28419497f9722a3daafe3b4186f6b6457e090600090a35050565b816001600160a01b0316836001600160a01b031603613fba5760405162461bcd60e51b815260206004820152601960248201527f4552433732313a20617070726f766520746f2063616c6c6572000000000000006044820152606401610ad8565b6001600160a01b038381166000818152606a6020908152604080832094871680845294825291829020805460ff191686151590811790915591519182527f17307eab39ab6107e8899845ad3d59bd9653f200f220920489ca2b5937696c31910160405180910390a3505050565b614032848484613734565b61403e8484848461455b565b6129045760405162461bcd60e51b8152600401610ad890615780565b60606101008054610cb490615320565b606060006140778361465c565b600101905060008167ffffffffffffffff81111561409757614097614d69565b6040519080825280601f01601f1916602001820160405280156140c1576020820181803683370190505b5090508181016020015b600019016f181899199a1a9b1b9c1cb0b131b232b360811b600a86061a8153600a85049450846140cb57509392505050565b60006001600160e01b031982166380ac58cd60e01b148061412e57506001600160e01b03198216635b5e139f60e01b145b80610bb757506301ffc9a760e01b6001600160e01b0319831614610bb7565b600082815260fe602052604090205460ff161561419e5760405162461bcd60e51b815260206004820152600f60248201526e189b1858dadb1a5cdd195908139195608a1b6044820152606401610ad8565b60008281526101046020526040902042905561290484848484614734565b6001600160a01b038416156142fc57600082815261010260209081526040808320546001600160a01b038816845261010190925282208054919291614203906001906152d4565b815481106142135761421361535a565b60009182526020808320909101546001600160a01b0389168352610101909152604090912080549192509061424a906001906152d4565b8154811061425a5761425a61535a565b90600052602060002001546101016000886001600160a01b03166001600160a01b03168152602001908152602001600020838154811061429c5761429c61535a565b60009182526020808320909101929092556001600160a01b0388168152610101909152604090208054806142d2576142d2615370565b60008281526020808220830160001990810183905590920190925591815261010290915260409020555b6001600160a01b0383161561434b576001600160a01b03831660009081526101016020818152604080842080548786526101028452918520829055928252600181018355918352909120018290555b612904565b600054610100900460ff166143775760405162461bcd60e51b8152600401610ad890615735565b60656143838382615421565b506066610fc78282615421565b600054610100900460ff166143b75760405162461bcd60e51b8152600401610ad890615735565b61215033613f07565b6122b0828260405180602001604052806000815250614861565b60008060008060007f00000000000000000000000000000000000000000000000000000000000000006001600160a01b031663dd0fb088886040518263ffffffff1660e01b815260040161443d91906001600160a01b0391909116815260200190565b60a060405180830381865afa15801561445a573d6000803e3d6000fd5b505050506040513d601f19601f8201168201806040525081019061447e919061551d565b92975090955093509150614499905060026301e133806152fe565b6144a390846154e1565b421161454e5760fb546001600160a01b037f00000000000000000000000000000000000000000000000000000000000000008116916353b5f305918a911687876144ed8c896154e1565b876040518763ffffffff1660e01b815260040161450f96959493929190615575565b600060405180830381600087803b15801561452957600080fd5b505af115801561453d573d6000803e3d6000fd5b505050506001945050505050610bb7565b5060009695505050505050565b60006001600160a01b0384163b1561465157604051630a85bd0160e11b81526001600160a01b0385169063150b7a029061459f9033908990889088906004016157d2565b6020604051808303816000875af19250505080156145da575060408051601f3d908101601f191682019092526145d791810190615805565b60015b614637573d808015614608576040519150601f19603f3d011682016040523d82523d6000602084013e61460d565b606091505b50805160000361462f5760405162461bcd60e51b8152600401610ad890615780565b805181602001fd5b6001600160e01b031916630a85bd0160e11b14905061372c565b506001949350505050565b60008072184f03e93ff9f4daa797ed6e38ed64bf6a1f0160401b831061469b5772184f03e93ff9f4daa797ed6e38ed64bf6a1f0160401b830492506040015b6d04ee2d6d415b85acef810000000083106146c7576d04ee2d6d415b85acef8100000000830492506020015b662386f26fc1000083106146e557662386f26fc10000830492506010015b6305f5e10083106146fd576305f5e100830492506008015b612710831061471157612710830492506004015b60648310614723576064830492506002015b600a8310610bb75760010192915050565b60018111156147a35760405162461bcd60e51b815260206004820152603560248201527f455243373231456e756d657261626c653a20636f6e7365637574697665207472604482015274185b9cd9995c9cc81b9bdd081cdd5c1c1bdc9d1959605a1b6064820152608401610ad8565b816001600160a01b0385166147ff576147fa81609980546000838152609a60205260408120829055600182018355919091527f72a152ddfb8e864297c917af52ea6c1c68aead0fee1a62673fcc7e0c94979d000155565b614822565b836001600160a01b0316856001600160a01b031614614822576148228582614894565b6001600160a01b03841661483e5761483981614931565b61192e565b846001600160a01b0316846001600160a01b03161461192e5761192e84826149e0565b61486b8383614a24565b614878600084848461455b565b610fc75760405162461bcd60e51b8152600401610ad890615780565b600060016148a1846120b8565b6148ab91906152d4565b6000838152609860205260409020549091508082146148fe576001600160a01b03841660009081526097602090815260408083208584528252808320548484528184208190558352609890915290208190555b5060009182526098602090815260408084208490556001600160a01b039094168352609781528383209183525290812055565b609954600090614943906001906152d4565b6000838152609a60205260408120546099805493945090928490811061496b5761496b61535a565b90600052602060002001549050806099838154811061498c5761498c61535a565b6000918252602080832090910192909255828152609a909152604080822084905585825281205560998054806149c4576149c4615370565b6001900381819060005260206000200160009055905550505050565b60006149eb836120b8565b6001600160a01b039093166000908152609760209081526040808320868452825280832085905593825260989052919091209190915550565b6001600160a01b038216614a7a5760405162461bcd60e51b815260206004820181905260248201527f4552433732313a206d696e7420746f20746865207a65726f20616464726573736044820152606401610ad8565b6000818152606760205260409020546001600160a01b031615614adf5760405162461bcd60e51b815260206004820152601c60248201527f4552433732313a20746f6b656e20616c7265616479206d696e746564000000006044820152606401610ad8565b614aed60008383600161414d565b6000818152606760205260409020546001600160a01b031615614b525760405162461bcd60e51b815260206004820152601c60248201527f4552433732313a20746f6b656e20616c7265616479206d696e746564000000006044820152606401610ad8565b6001600160a01b038216600081815260686020908152604080832080546001019055848352606790915280822080546001600160a01b0319168417905551839291907fddf252ad1be2c89b69c2b068fc378daa952ba7f163c4a11628f55a4df523b3ef908290a46122b06000838360016141bc565b803561ffff81168114614bd957600080fd5b919050565b60008060408385031215614bf157600080fd5b614bfa83614bc7565b946020939093013593505050565b6001600160e01b03198116811461355357600080fd5b600060208284031215614c3057600080fd5b81356120b181614c08565b600060208284031215614c4d57600080fd5b5035919050565b60005b83811015614c6f578181015183820152602001614c57565b50506000910152565b60008151808452614c90816020860160208601614c54565b601f01601f19169290920160200192915050565b6020815260006120b16020830184614c78565b801515811461355357600080fd5b60008060408385031215614cd857600080fd5b823591506020830135614cea81614cb7565b809150509250929050565b6001600160a01b038116811461355357600080fd5b60008060408385031215614d1d57600080fd5b8235614bfa81614cf5565b600080600060608486031215614d3d57600080fd5b8335614d4881614cf5565b92506020840135614d5881614cf5565b929592945050506040919091013590565b634e487b7160e01b600052604160045260246000fd5b604051601f8201601f1916810167ffffffffffffffff81118282101715614da857614da8614d69565b604052919050565b600067ffffffffffffffff831115614dca57614dca614d69565b614ddd601f8401601f1916602001614d7f565b9050828152838383011115614df157600080fd5b828260208301376000602084830101529392505050565b600082601f830112614e1957600080fd5b6120b183833560208501614db0565b60008060008060008060c08789031215614e4157600080fd5b863567ffffffffffffffff80821115614e5957600080fd5b614e658a838b01614e08565b97506020890135915080821115614e7b57600080fd5b614e878a838b01614e08565b965060408901359150614e9982614cf5565b90945060608801359080821115614eaf57600080fd5b50614ebc89828a01614e08565b9350506080870135915060a087013590509295509295509295565b600080600060608486031215614eec57600080fd5b83359250602084013591506040840135614f0581614cf5565b809150509250925092565b600080600060608486031215614f2557600080fd5b8335614f3081614cf5565b95602085013595506040909401359392505050565b600060208284031215614f5757600080fd5b813567ffffffffffffffff811115614f6e57600080fd5b61372c84828501614e08565b600060208284031215614f8c57600080fd5b81356120b181614cf5565b60008060408385031215614faa57600080fd5b50508035926020909101359150565b60008060408385031215614fcc57600080fd5b8235614fd781614cf5565b91506020830135614cea81614cf5565b602080825282518282018190526000919060409081850190868401855b8281101561502d578151805161ffff168552860151868501529284019290850190600101615004565b5091979650505050505050565b6000806040838503121561504d57600080fd5b823561505881614cf5565b91506020830135614cea81614cb7565b600082601f83011261507957600080fd5b8135602067ffffffffffffffff82111561509557615095614d69565b8160051b6150a4828201614d7f565b92835284810182019282810190878511156150be57600080fd5b83870192505b848310156150dd578235825291830191908301906150c4565b979650505050505050565b6000806000606084860312156150fd57600080fd5b833561510881614cf5565b9250602084013567ffffffffffffffff81111561512457600080fd5b61513086828701615068565b925050604084013590509250925092565b6000806000806080858703121561515757600080fd5b843561516281614cf5565b9350602085013561517281614cf5565b925060408501359150606085013567ffffffffffffffff81111561519557600080fd5b8501601f810187136151a657600080fd5b6151b587823560208401614db0565b91505092959194509250565b6000806000606084860312156151d657600080fd5b833592506151e660208501614bc7565b9150604084013590509250925092565b6000806040838503121561520957600080fd5b823567ffffffffffffffff81111561522057600080fd5b61522c85828601615068565b9250506020830135614cea81614cb7565b6020808252825182820181905260009190848201906040850190845b8181101561527557835183529284019291840191600101615259565b50909695505050505050565b60006020828403121561529357600080fd5b81516120b181614cf5565b60208082526006908201526510b7bbb732b960d11b604082015260600190565b634e487b7160e01b600052601160045260246000fd5b81810381811115610bb757610bb76152be565b8082028115828204841417610bb757610bb76152be565b60008261531b57634e487b7160e01b600052601260045260246000fd5b500490565b600181811c9082168061533457607f821691505b60208210810361535457634e487b7160e01b600052602260045260246000fd5b50919050565b634e487b7160e01b600052603260045260246000fd5b634e487b7160e01b600052603160045260246000fd5b6020808252602d908201527f4552433732313a2063616c6c6572206973206e6f7420746f6b656e206f776e6560408201526c1c881bdc88185c1c1c9bdd9959609a1b606082015260800190565b601f821115610fc757600081815260208120601f850160051c810160208610156153fa5750805b601f850160051c820191505b8181101561541957828155600101615406565b505050505050565b815167ffffffffffffffff81111561543b5761543b614d69565b61544f816154498454615320565b846153d3565b602080601f831160018114615484576000841561546c5750858301515b600019600386901b1c1916600185901b178555615419565b600085815260208120601f198616915b828110156154b357888601518255948401946001909101908401615494565b50858210156154d15787850151600019600388901b60f8161c191681555b5050505050600190811b01905550565b80820180821115610bb757610bb76152be565b6001600160a01b0394851681529290931660208301526040820152606081019190915260800190565b600080600080600060a0868803121561553557600080fd5b855161554081614cf5565b80955050602086015193506040860151925060608601519150608086015161556781614cb7565b809150509295509295909350565b6001600160a01b03968716815294909516602085015260408401929092526060830152608082015290151560a082015260c00190565b600082516155bd818460208701614c54565b9190910192915050565b6000602082840312156155d957600080fd5b5051919050565b6000602082840312156155f257600080fd5b81516120b181614cb7565b60006001820161560f5761560f6152be565b5060010190565b600080600080600080600080610100898b03121561563357600080fd5b885197506020890151965060408901519550606089015194506080890151935060a0890151925060c0890151915060e089015161566f81614cb7565b809150509295985092959890939650565b60008351615692818460208801614c54565b8351908301906156a6818360208801614c54565b64173539b7b760d91b9101908152600501949350505050565b600082516156d1818460208701614c54565b6c31b7b73a3930b1ba173539b7b760991b920191825250600d01919050565b60208082526025908201527f4552433732313a207472616e736665722066726f6d20696e636f72726563742060408201526437bbb732b960d91b606082015260800190565b6020808252602b908201527f496e697469616c697a61626c653a20636f6e7472616374206973206e6f74206960408201526a6e697469616c697a696e6760a81b606082015260800190565b60208082526032908201527f4552433732313a207472616e7366657220746f206e6f6e20455243373231526560408201527131b2b4bb32b91034b6b83632b6b2b73a32b960711b606082015260800190565b6001600160a01b0385811682528416602082015260408101839052608060608201819052600090612bee90830184614c78565b60006020828403121561581757600080fd5b81516120b181614c0856feddb878cba785b7e990dc6cf5429da531907ba82da43d525a522696e153ea45c6a2646970667358221220d5fe84ef7043b19a16becec33e5814c9ad5e1d3bcb097f98e6e4402a968c0b6964736f6c63430008110033",
  "devdoc": {
    "kind": "dev",
    "methods": {
      "approve(address,uint256)": {
        "details": "See {IERC721-approve}."
      },
      "balanceOf(address)": {
        "details": "See {IERC721-balanceOf}."
      },
      "getApproved(uint256)": {
        "details": "See {IERC721-getApproved}."
      },
      "isApprovedForAll(address,address)": {
        "details": "See {IERC721-isApprovedForAll}."
      },
      "name()": {
        "details": "See {IERC721Metadata-name}."
      },
      "owner()": {
        "details": "Returns the address of the current owner."
      },
      "ownerOf(uint256)": {
        "details": "See {IERC721-ownerOf}."
      },
      "renounceOwnership()": {
        "details": "Leaves the contract without owner. It will not be possible to call `onlyOwner` functions anymore. Can only be called by the current owner. NOTE: Renouncing ownership will leave the contract without an owner, thereby removing any functionality that is only available to the owner."
      },
      "safeTransferFrom(address,address,uint256)": {
        "details": "See {IERC721-safeTransferFrom}."
      },
      "safeTransferFrom(address,address,uint256,bytes)": {
        "details": "See {IERC721-safeTransferFrom}."
      },
      "setApprovalForAll(address,bool)": {
        "details": "See {IERC721-setApprovalForAll}."
      },
      "symbol()": {
        "details": "See {IERC721Metadata-symbol}."
      },
      "tokenByIndex(uint256)": {
        "details": "See {IERC721Enumerable-tokenByIndex}."
      },
      "tokenOfOwnerByIndex(address,uint256)": {
        "details": "See {IERC721Enumerable-tokenOfOwnerByIndex}."
      },
      "totalSupply()": {
        "details": "See {IERC721Enumerable-totalSupply}."
      },
      "transferFrom(address,address,uint256)": {
        "details": "See {IERC721-transferFrom}."
      },
      "transferOwnership(address)": {
        "details": "Transfers ownership of the contract to a new account (`newOwner`). Can only be called by the current owner."
      }
    },
    "version": 1
  },
  "userdoc": {
    "kind": "user",
    "methods": {},
    "version": 1
  },
  "storageLayout": {
    "storage": [
      {
        "astId": 797,
        "contract": "contracts/StakingPosition.sol:StakingPosition",
        "label": "_initialized",
        "offset": 0,
        "slot": "0",
        "type": "t_uint8"
      },
      {
        "astId": 800,
        "contract": "contracts/StakingPosition.sol:StakingPosition",
        "label": "_initializing",
        "offset": 1,
        "slot": "0",
        "type": "t_bool"
      },
      {
        "astId": 3080,
        "contract": "contracts/StakingPosition.sol:StakingPosition",
        "label": "__gap",
        "offset": 0,
        "slot": "1",
        "type": "t_array(t_uint256)50_storage"
      },
      {
        "astId": 3373,
        "contract": "contracts/StakingPosition.sol:StakingPosition",
        "label": "__gap",
        "offset": 0,
        "slot": "51",
        "type": "t_array(t_uint256)50_storage"
      },
      {
        "astId": 1266,
        "contract": "contracts/StakingPosition.sol:StakingPosition",
        "label": "_name",
        "offset": 0,
        "slot": "101",
        "type": "t_string_storage"
      },
      {
        "astId": 1268,
        "contract": "contracts/StakingPosition.sol:StakingPosition",
        "label": "_symbol",
        "offset": 0,
        "slot": "102",
        "type": "t_string_storage"
      },
      {
        "astId": 1272,
        "contract": "contracts/StakingPosition.sol:StakingPosition",
        "label": "_owners",
        "offset": 0,
        "slot": "103",
        "type": "t_mapping(t_uint256,t_address)"
      },
      {
        "astId": 1276,
        "contract": "contracts/StakingPosition.sol:StakingPosition",
        "label": "_balances",
        "offset": 0,
        "slot": "104",
        "type": "t_mapping(t_address,t_uint256)"
      },
      {
        "astId": 1280,
        "contract": "contracts/StakingPosition.sol:StakingPosition",
        "label": "_tokenApprovals",
        "offset": 0,
        "slot": "105",
        "type": "t_mapping(t_uint256,t_address)"
      },
      {
        "astId": 1286,
        "contract": "contracts/StakingPosition.sol:StakingPosition",
        "label": "_operatorApprovals",
        "offset": 0,
        "slot": "106",
        "type": "t_mapping(t_address,t_mapping(t_address,t_bool))"
      },
      {
        "astId": 2188,
        "contract": "contracts/StakingPosition.sol:StakingPosition",
        "label": "__gap",
        "offset": 0,
        "slot": "107",
        "type": "t_array(t_uint256)44_storage"
      },
      {
        "astId": 2353,
        "contract": "contracts/StakingPosition.sol:StakingPosition",
        "label": "_ownedTokens",
        "offset": 0,
        "slot": "151",
        "type": "t_mapping(t_address,t_mapping(t_uint256,t_uint256))"
      },
      {
        "astId": 2357,
        "contract": "contracts/StakingPosition.sol:StakingPosition",
        "label": "_ownedTokensIndex",
        "offset": 0,
        "slot": "152",
        "type": "t_mapping(t_uint256,t_uint256)"
      },
      {
        "astId": 2360,
        "contract": "contracts/StakingPosition.sol:StakingPosition",
        "label": "_allTokens",
        "offset": 0,
        "slot": "153",
        "type": "t_array(t_uint256)dyn_storage"
      },
      {
        "astId": 2364,
        "contract": "contracts/StakingPosition.sol:StakingPosition",
        "label": "_allTokensIndex",
        "offset": 0,
        "slot": "154",
        "type": "t_mapping(t_uint256,t_uint256)"
      },
      {
        "astId": 2696,
        "contract": "contracts/StakingPosition.sol:StakingPosition",
        "label": "__gap",
        "offset": 0,
        "slot": "155",
        "type": "t_array(t_uint256)46_storage"
      },
      {
        "astId": 589,
        "contract": "contracts/StakingPosition.sol:StakingPosition",
        "label": "_owner",
        "offset": 0,
        "slot": "201",
        "type": "t_address"
      },
      {
        "astId": 709,
        "contract": "contracts/StakingPosition.sol:StakingPosition",
        "label": "__gap",
        "offset": 0,
        "slot": "202",
        "type": "t_array(t_uint256)49_storage"
      },
      {
        "astId": 8564,
        "contract": "contracts/StakingPosition.sol:StakingPosition",
        "label": "stakeToken",
        "offset": 0,
        "slot": "251",
        "type": "t_contract(IERC20)5058"
      },
      {
        "astId": 8582,
        "contract": "contracts/StakingPosition.sol:StakingPosition",
        "label": "_aprLockOptions",
        "offset": 0,
        "slot": "252",
        "type": "t_array(t_struct(AprLock)8578_storage)dyn_storage"
      },
      {
        "astId": 8602,
        "contract": "contracts/StakingPosition.sol:StakingPosition",
        "label": "stakes",
        "offset": 0,
        "slot": "253",
        "type": "t_mapping(t_uint256,t_struct(Stake)8597_storage)"
      },
      {
        "astId": 8606,
        "contract": "contracts/StakingPosition.sol:StakingPosition",
        "label": "isBlacklisted",
        "offset": 0,
        "slot": "254",
        "type": "t_mapping(t_uint256,t_bool)"
      },
      {
        "astId": 8609,
        "contract": "contracts/StakingPosition.sol:StakingPosition",
        "label": "_ids",
        "offset": 0,
        "slot": "255",
        "type": "t_struct(Counter)3087_storage"
      },
      {
        "astId": 8611,
        "contract": "contracts/StakingPosition.sol:StakingPosition",
        "label": "baseTokenURI",
        "offset": 0,
        "slot": "256",
        "type": "t_string_storage"
      },
      {
        "astId": 8616,
        "contract": "contracts/StakingPosition.sol:StakingPosition",
        "label": "allUserOwned",
        "offset": 0,
        "slot": "257",
        "type": "t_mapping(t_address,t_array(t_uint256)dyn_storage)"
      },
      {
        "astId": 8620,
        "contract": "contracts/StakingPosition.sol:StakingPosition",
        "label": "ownedIndex",
        "offset": 0,
        "slot": "258",
        "type": "t_mapping(t_uint256,t_uint256)"
      },
      {
        "astId": 8624,
        "contract": "contracts/StakingPosition.sol:StakingPosition",
        "label": "tokenMintedAt",
        "offset": 0,
        "slot": "259",
        "type": "t_mapping(t_uint256,t_uint256)"
      },
      {
        "astId": 8628,
        "contract": "contracts/StakingPosition.sol:StakingPosition",
        "label": "tokenLastTransferred",
        "offset": 0,
        "slot": "260",
        "type": "t_mapping(t_uint256,t_uint256)"
      },
      {
        "astId": 8630,
        "contract": "contracts/StakingPosition.sol:StakingPosition",
        "label": "referralBonusAmount",
        "offset": 0,
        "slot": "261",
        "type": "t_uint256"
      },
      {
        "astId": 8632,
        "contract": "contracts/StakingPosition.sol:StakingPosition",
        "label": "referralMinAmount",
        "offset": 0,
        "slot": "262",
        "type": "t_uint256"
      },
      {
        "astId": 8634,
        "contract": "contracts/StakingPosition.sol:StakingPosition",
        "label": "referralBonusLockIndex",
        "offset": 0,
        "slot": "263",
        "type": "t_uint256"
      },
      {
        "astId": 8636,
        "contract": "contracts/StakingPosition.sol:StakingPosition",
        "label": "capacity",
        "offset": 0,
        "slot": "264",
        "type": "t_uint256"
      },
      {
        "astId": 8638,
        "contract": "contracts/StakingPosition.sol:StakingPosition",
        "label": "endTime",
        "offset": 0,
        "slot": "265",
        "type": "t_uint256"
      },
      {
        "astId": 8640,
        "contract": "contracts/StakingPosition.sol:StakingPosition",
        "label": "amountStaked",
        "offset": 0,
        "slot": "266",
        "type": "t_uint256"
      },
      {
        "astId": 8642,
        "contract": "contracts/StakingPosition.sol:StakingPosition",
        "label": "totalYieldAtMaturity",
        "offset": 0,
        "slot": "267",
        "type": "t_uint256"
      },
      {
        "astId": 8644,
        "contract": "contracts/StakingPosition.sol:StakingPosition",
        "label": "_operator",
        "offset": 0,
        "slot": "268",
        "type": "t_address"
      }
    ],
    "types": {
      "t_address": {
        "encoding": "inplace",
        "label": "address",
        "numberOfBytes": "20"
      },
      "t_array(t_struct(AprLock)8578_storage)dyn_storage": {
        "base": "t_struct(AprLock)8578_storage",
        "encoding": "dynamic_array",
        "label": "struct StakingPosition.AprLock[]",
        "numberOfBytes": "32"
      },
      "t_array(t_uint256)44_storage": {
        "base": "t_uint256",
        "encoding": "inplace",
        "label": "uint256[44]",
        "numberOfBytes": "1408"
      },
      "t_array(t_uint256)46_storage": {
        "base": "t_uint256",
        "encoding": "inplace",
        "label": "uint256[46]",
        "numberOfBytes": "1472"
      },
      "t_array(t_uint256)49_storage": {
        "base": "t_uint256",
        "encoding": "inplace",
        "label": "uint256[49]",
        "numberOfBytes": "1568"
      },
      "t_array(t_uint256)50_storage": {
        "base": "t_uint256",
        "encoding": "inplace",
        "label": "uint256[50]",
        "numberOfBytes": "1600"
      },
      "t_array(t_uint256)dyn_storage": {
        "base": "t_uint256",
        "encoding": "dynamic_array",
        "label": "uint256[]",
        "numberOfBytes": "32"
      },
      "t_bool": {
        "encoding": "inplace",
        "label": "bool",
        "numberOfBytes": "1"
      },
      "t_contract(IERC20)5058": {
        "encoding": "inplace",
        "label": "contract IERC20",
        "numberOfBytes": "20"
      },
      "t_mapping(t_address,t_array(t_uint256)dyn_storage)": {
        "encoding": "mapping",
        "key": "t_address",
        "label": "mapping(address => uint256[])",
        "numberOfBytes": "32",
        "value": "t_array(t_uint256)dyn_storage"
      },
      "t_mapping(t_address,t_bool)": {
        "encoding": "mapping",
        "key": "t_address",
        "label": "mapping(address => bool)",
        "numberOfBytes": "32",
        "value": "t_bool"
      },
      "t_mapping(t_address,t_mapping(t_address,t_bool))": {
        "encoding": "mapping",
        "key": "t_address",
        "label": "mapping(address => mapping(address => bool))",
        "numberOfBytes": "32",
        "value": "t_mapping(t_address,t_bool)"
      },
      "t_mapping(t_address,t_mapping(t_uint256,t_uint256))": {
        "encoding": "mapping",
        "key": "t_address",
        "label": "mapping(address => mapping(uint256 => uint256))",
        "numberOfBytes": "32",
        "value": "t_mapping(t_uint256,t_uint256)"
      },
      "t_mapping(t_address,t_uint256)": {
        "encoding": "mapping",
        "key": "t_address",
        "label": "mapping(address => uint256)",
        "numberOfBytes": "32",
        "value": "t_uint256"
      },
      "t_mapping(t_uint256,t_address)": {
        "encoding": "mapping",
        "key": "t_uint256",
        "label": "mapping(uint256 => address)",
        "numberOfBytes": "32",
        "value": "t_address"
      },
      "t_mapping(t_uint256,t_bool)": {
        "encoding": "mapping",
        "key": "t_uint256",
        "label": "mapping(uint256 => bool)",
        "numberOfBytes": "32",
        "value": "t_bool"
      },
      "t_mapping(t_uint256,t_struct(Stake)8597_storage)": {
        "encoding": "mapping",
        "key": "t_uint256",
        "label": "mapping(uint256 => struct StakingPosition.Stake)",
        "numberOfBytes": "32",
        "value": "t_struct(Stake)8597_storage"
      },
      "t_mapping(t_uint256,t_uint256)": {
        "encoding": "mapping",
        "key": "t_uint256",
        "label": "mapping(uint256 => uint256)",
        "numberOfBytes": "32",
        "value": "t_uint256"
      },
      "t_string_storage": {
        "encoding": "bytes",
        "label": "string",
        "numberOfBytes": "32"
      },
      "t_struct(AprLock)8578_storage": {
        "encoding": "inplace",
        "label": "struct StakingPosition.AprLock",
        "members": [
          {
            "astId": 8575,
            "contract": "contracts/StakingPosition.sol:StakingPosition",
            "label": "apr",
            "offset": 0,
            "slot": "0",
            "type": "t_uint16"
          },
          {
            "astId": 8577,
            "contract": "contracts/StakingPosition.sol:StakingPosition",
            "label": "lockTime",
            "offset": 0,
            "slot": "1",
            "type": "t_uint256"
          }
        ],
        "numberOfBytes": "64"
      },
      "t_struct(Counter)3087_storage": {
        "encoding": "inplace",
        "label": "struct CountersUpgradeable.Counter",
        "members": [
          {
            "astId": 3086,
            "contract": "contracts/StakingPosition.sol:StakingPosition",
            "label": "_value",
            "offset": 0,
            "slot": "0",
            "type": "t_uint256"
          }
        ],
        "numberOfBytes": "32"
      },
      "t_struct(Stake)8597_storage": {
        "encoding": "inplace",
        "label": "struct StakingPosition.Stake",
        "members": [
          {
            "astId": 8584,
            "contract": "contracts/StakingPosition.sol:StakingPosition",
            "label": "created",
            "offset": 0,
            "slot": "0",
            "type": "t_uint256"
          },
          {
            "astId": 8586,
            "contract": "contracts/StakingPosition.sol:StakingPosition",
            "label": "amountStaked",
            "offset": 0,
            "slot": "1",
            "type": "t_uint256"
          },
          {
            "astId": 8588,
            "contract": "contracts/StakingPosition.sol:StakingPosition",
            "label": "apr",
            "offset": 0,
            "slot": "2",
            "type": "t_uint16"
          },
          {
            "astId": 8590,
            "contract": "contracts/StakingPosition.sol:StakingPosition",
            "label": "lockTime",
            "offset": 0,
            "slot": "3",
            "type": "t_uint256"
          },
          {
            "astId": 8592,
            "contract": "contracts/StakingPosition.sol:StakingPosition",
            "label": "allowWithdrawEarly",
            "offset": 0,
            "slot": "4",
            "type": "t_bool"
          },
          {
            "astId": 8594,
            "contract": "contracts/StakingPosition.sol:StakingPosition",
            "label": "assetTransferred",
            "offset": 1,
            "slot": "4",
            "type": "t_bool"
          },
          {
            "astId": 8596,
            "contract": "contracts/StakingPosition.sol:StakingPosition",
            "label": "isBonusPosition",
            "offset": 2,
            "slot": "4",
            "type": "t_bool"
          }
        ],
        "numberOfBytes": "160"
      },
      "t_uint16": {
        "encoding": "inplace",
        "label": "uint16",
        "numberOfBytes": "2"
      },
      "t_uint256": {
        "encoding": "inplace",
        "label": "uint256",
        "numberOfBytes": "32"
      },
      "t_uint8": {
        "encoding": "inplace",
        "label": "uint8",
        "numberOfBytes": "1"
      }
    }
  }
}