{
  "address": "0x716409c763E33318970B1B185F2e48F788013Dd4",
  "abi": [
    {
      "inputs": [
        {
          "internalType": "contract IStakeVault",
          "name": "_stakeVault",
          "type": "address"
        }
      ],
      "stateMutability": "nonpayable",
      "type": "constructor"
    },
    {
      "anonymous": false,
      "inputs": [
        {
          "indexed": true,
          "internalType": "uint16",
          "name": "apr",
          "type": "uint16"
        },
        {
          "indexed": false,
          "internalType": "uint256",
          "name": "lockTime",
          "type": "uint256"
        }
      ],
      "name": "AddAprLockOption",
      "type": "event"
    },
    {
      "anonymous": false,
      "inputs": [
        {
          "indexed": true,
          "internalType": "address",
          "name": "owner",
          "type": "address"
        },
        {
          "indexed": true,
          "internalType": "address",
          "name": "approved",
          "type": "address"
        },
        {
          "indexed": true,
          "internalType": "uint256",
          "name": "tokenId",
          "type": "uint256"
        }
      ],
      "name": "Approval",
      "type": "event"
    },
    {
      "anonymous": false,
      "inputs": [
        {
          "indexed": true,
          "internalType": "address",
          "name": "owner",
          "type": "address"
        },
        {
          "indexed": true,
          "internalType": "address",
          "name": "operator",
          "type": "address"
        },
        {
          "indexed": false,
          "internalType": "bool",
          "name": "approved",
          "type": "bool"
        }
      ],
      "name": "ApprovalForAll",
      "type": "event"
    },
    {
      "anonymous": false,
      "inputs": [
        {
          "indexed": true,
          "internalType": "address",
          "name": "user",
          "type": "address"
        },
        {
          "indexed": true,
          "internalType": "uint256",
          "name": "tokenId",
          "type": "uint256"
        },
        {
          "indexed": false,
          "internalType": "uint256",
          "name": "amountStaked",
          "type": "uint256"
        },
        {
          "indexed": false,
          "internalType": "uint256",
          "name": "lockOptionIndex",
          "type": "uint256"
        },
        {
          "indexed": false,
          "internalType": "bool",
          "name": "fromCompound",
          "type": "bool"
        }
      ],
      "name": "CreateStake",
      "type": "event"
    },
    {
      "anonymous": false,
      "inputs": [
        {
          "indexed": true,
          "internalType": "address",
          "name": "user",
          "type": "address"
        },
        {
          "indexed": false,
          "internalType": "uint256",
          "name": "amount",
          "type": "uint256"
        },
        {
          "indexed": false,
          "internalType": "uint256",
          "name": "lockIndex",
          "type": "uint256"
        }
      ],
      "name": "FreePositionBonus",
      "type": "event"
    },
    {
      "anonymous": false,
      "inputs": [
        {
          "indexed": false,
          "internalType": "uint8",
          "name": "version",
          "type": "uint8"
        }
      ],
      "name": "Initialized",
      "type": "event"
    },
    {
      "anonymous": false,
      "inputs": [
        {
          "indexed": true,
          "internalType": "address",
          "name": "previousOwner",
          "type": "address"
        },
        {
          "indexed": true,
          "internalType": "address",
          "name": "newOwner",
          "type": "address"
        }
      ],
      "name": "OwnershipTransferred",
      "type": "event"
    },
    {
      "anonymous": false,
      "inputs": [
        {
          "indexed": true,
          "internalType": "address",
          "name": "user",
          "type": "address"
        },
        {
          "indexed": false,
          "internalType": "uint256",
          "name": "bonusAmount",
          "type": "uint256"
        },
        {
          "indexed": false,
          "internalType": "uint256",
          "name": "bonusLockIndex",
          "type": "uint256"
        }
      ],
      "name": "ReferralBonusAwarded",
      "type": "event"
    },
    {
      "anonymous": false,
      "inputs": [
        {
          "indexed": true,
          "internalType": "uint256",
          "name": "index",
          "type": "uint256"
        },
        {
          "indexed": true,
          "internalType": "uint16",
          "name": "apr",
          "type": "uint16"
        },
        {
          "indexed": false,
          "internalType": "uint256",
          "name": "lockTime",
          "type": "uint256"
        }
      ],
      "name": "RemoveAprLockOption",
      "type": "event"
    },
    {
      "anonymous": false,
      "inputs": [
        {
          "indexed": true,
          "internalType": "uint256",
          "name": "newApr",
          "type": "uint256"
        }
      ],
      "name": "SetAnnualApr",
      "type": "event"
    },
    {
      "anonymous": false,
      "inputs": [
        {
          "indexed": true,
          "internalType": "string",
          "name": "newUri",
          "type": "string"
        }
      ],
      "name": "SetBaseTokenURI",
      "type": "event"
    },
    {
      "anonymous": false,
      "inputs": [
        {
          "indexed": true,
          "internalType": "uint256",
          "name": "bonusAmount",
          "type": "uint256"
        }
      ],
      "name": "SetBonusAmount",
      "type": "event"
    },
    {
      "anonymous": false,
      "inputs": [
        {
          "indexed": true,
          "internalType": "uint256",
          "name": "lockIndex",
          "type": "uint256"
        }
      ],
      "name": "SetBonusLockIndex",
      "type": "event"
    },
    {
      "anonymous": false,
      "inputs": [
        {
          "indexed": true,
          "internalType": "uint256",
          "name": "bonusMinAmount",
          "type": "uint256"
        }
      ],
      "name": "SetBonusMinAmount",
      "type": "event"
    },
    {
      "anonymous": false,
      "inputs": [
        {
          "indexed": true,
          "internalType": "uint256",
          "name": "capacity",
          "type": "uint256"
        }
      ],
      "name": "SetCapacity",
      "type": "event"
    },
    {
      "anonymous": false,
      "inputs": [
        {
          "indexed": true,
          "internalType": "uint256",
          "name": "tokenId",
          "type": "uint256"
        },
        {
          "indexed": false,
          "internalType": "bool",
          "name": "isBlacklisted",
          "type": "bool"
        }
      ],
      "name": "SetTokenBlacklist",
      "type": "event"
    },
    {
      "anonymous": false,
      "inputs": [
        {
          "indexed": true,
          "internalType": "address",
          "name": "from",
          "type": "address"
        },
        {
          "indexed": true,
          "internalType": "address",
          "name": "to",
          "type": "address"
        },
        {
          "indexed": true,
          "internalType": "uint256",
          "name": "tokenId",
          "type": "uint256"
        }
      ],
      "name": "Transfer",
      "type": "event"
    },
    {
      "anonymous": false,
      "inputs": [
        {
          "indexed": true,
          "internalType": "address",
          "name": "user",
          "type": "address"
        },
        {
          "indexed": true,
          "internalType": "uint256",
          "name": "tokenId",
          "type": "uint256"
        },
        {
          "indexed": false,
          "internalType": "bool",
          "name": "toCompound",
          "type": "bool"
        },
        {
          "indexed": false,
          "internalType": "bool",
          "name": "earlyUnstake",
          "type": "bool"
        },
        {
          "indexed": false,
          "internalType": "bool",
          "name": "refunded",
          "type": "bool"
        }
      ],
      "name": "UnstakeTokens",
      "type": "event"
    },
    {
      "anonymous": false,
      "inputs": [
        {
          "indexed": true,
          "internalType": "uint256",
          "name": "index",
          "type": "uint256"
        },
        {
          "indexed": true,
          "internalType": "uint16",
          "name": "oldApr",
          "type": "uint16"
        },
        {
          "indexed": false,
          "internalType": "uint256",
          "name": "oldLockTime",
          "type": "uint256"
        },
        {
          "indexed": false,
          "internalType": "uint16",
          "name": "newApr",
          "type": "uint16"
        },
        {
          "indexed": false,
          "internalType": "uint256",
          "name": "newLockTime",
          "type": "uint256"
        }
      ],
      "name": "UpdateAprLockOption",
      "type": "event"
    },
    {
      "inputs": [
        {
          "internalType": "uint16",
          "name": "_apr",
          "type": "uint16"
        },
        {
          "internalType": "uint256",
          "name": "_lockTime",
          "type": "uint256"
        }
      ],
      "name": "addAprLockOption",
      "outputs": [],
      "stateMutability": "nonpayable",
      "type": "function"
    },
    {
      "inputs": [
        {
          "internalType": "uint256",
          "name": "_tokenId",
          "type": "uint256"
        }
      ],
      "name": "adminRefundDeposit",
      "outputs": [],
      "stateMutability": "nonpayable",
      "type": "function"
    },
    {
      "inputs": [
        {
          "internalType": "address",
          "name": "",
          "type": "address"
        },
        {
          "internalType": "uint256",
          "name": "",
          "type": "uint256"
        }
      ],
      "name": "allUserOwned",
      "outputs": [
        {
          "internalType": "uint256",
          "name": "",
          "type": "uint256"
        }
      ],
      "stateMutability": "view",
      "type": "function"
    },
    {
      "inputs": [],
      "name": "amountStaked",
      "outputs": [
        {
          "internalType": "uint256",
          "name": "",
          "type": "uint256"
        }
      ],
      "stateMutability": "view",
      "type": "function"
    },
    {
      "inputs": [
        {
          "internalType": "address",
          "name": "to",
          "type": "address"
        },
        {
          "internalType": "uint256",
          "name": "tokenId",
          "type": "uint256"
        }
      ],
      "name": "approve",
      "outputs": [],
      "stateMutability": "nonpayable",
      "type": "function"
    },
    {
      "inputs": [
        {
          "internalType": "address",
          "name": "owner",
          "type": "address"
        }
      ],
      "name": "balanceOf",
      "outputs": [
        {
          "internalType": "uint256",
          "name": "",
          "type": "uint256"
        }
      ],
      "stateMutability": "view",
      "type": "function"
    },
    {
      "inputs": [],
      "name": "capacity",
      "outputs": [
        {
          "internalType": "uint256",
          "name": "",
          "type": "uint256"
        }
      ],
      "stateMutability": "view",
      "type": "function"
    },
    {
      "inputs": [
        {
          "internalType": "address",
          "name": "_user",
          "type": "address"
        },
        {
          "internalType": "uint256",
          "name": "_tokenId",
          "type": "uint256"
        },
        {
          "internalType": "uint256",
          "name": "_lockOptIndex",
          "type": "uint256"
        }
      ],
      "name": "claimAndCompound",
      "outputs": [],
      "stateMutability": "nonpayable",
      "type": "function"
    },
    {
      "inputs": [
        {
          "internalType": "address",
          "name": "_user",
          "type": "address"
        },
        {
          "internalType": "uint256[]",
          "name": "_tokenIds",
          "type": "uint256[]"
        },
        {
          "internalType": "uint256",
          "name": "_lockOptIndex",
          "type": "uint256"
        }
      ],
      "name": "claimAndCompoundMulti",
      "outputs": [],
      "stateMutability": "nonpayable",
      "type": "function"
    },
    {
      "inputs": [],
      "name": "contractURI",
      "outputs": [
        {
          "internalType": "string",
          "name": "",
          "type": "string"
        }
      ],
      "stateMutability": "view",
      "type": "function"
    },
    {
      "inputs": [],
      "name": "endTime",
      "outputs": [
        {
          "internalType": "uint256",
          "name": "",
          "type": "uint256"
        }
      ],
      "stateMutability": "view",
      "type": "function"
    },
    {
      "inputs": [
        {
          "internalType": "address",
          "name": "_user",
          "type": "address"
        },
        {
          "internalType": "uint256",
          "name": "_amount",
          "type": "uint256"
        },
        {
          "internalType": "uint256",
          "name": "_lockOptIndex",
          "type": "uint256"
        }
      ],
      "name": "freeStakeBonus",
      "outputs": [],
      "stateMutability": "nonpayable",
      "type": "function"
    },
    {
      "inputs": [],
      "name": "getAllLockOptions",
      "outputs": [
        {
          "components": [
            {
              "internalType": "uint16",
              "name": "apr",
              "type": "uint16"
            },
            {
              "internalType": "uint256",
              "name": "lockTime",
              "type": "uint256"
            }
          ],
          "internalType": "struct StakingPosition.AprLock[]",
          "name": "",
          "type": "tuple[]"
        }
      ],
      "stateMutability": "view",
      "type": "function"
    },
    {
      "inputs": [
        {
          "internalType": "address",
          "name": "_user",
          "type": "address"
        }
      ],
      "name": "getAllUserOwned",
      "outputs": [
        {
          "internalType": "uint256[]",
          "name": "",
          "type": "uint256[]"
        }
      ],
      "stateMutability": "view",
      "type": "function"
    },
    {
      "inputs": [
        {
          "internalType": "uint256",
          "name": "tokenId",
          "type": "uint256"
        }
      ],
      "name": "getApproved",
      "outputs": [
        {
          "internalType": "address",
          "name": "",
          "type": "address"
        }
      ],
      "stateMutability": "view",
      "type": "function"
    },
    {
      "inputs": [],
      "name": "getLastMintedTokenId",
      "outputs": [
        {
          "internalType": "uint256",
          "name": "",
          "type": "uint256"
        }
      ],
      "stateMutability": "view",
      "type": "function"
    },
    {
      "inputs": [
        {
          "internalType": "uint256",
          "name": "_tokenId",
          "type": "uint256"
        }
      ],
      "name": "getTotalEarnedAmount",
      "outputs": [
        {
          "internalType": "uint256",
          "name": "",
          "type": "uint256"
        }
      ],
      "stateMutability": "view",
      "type": "function"
    },
    {
      "inputs": [
        {
          "internalType": "uint256",
          "name": "_tokenId",
          "type": "uint256"
        }
      ],
      "name": "getTotalValueAtMaturity",
      "outputs": [
        {
          "internalType": "uint256",
          "name": "",
          "type": "uint256"
        }
      ],
      "stateMutability": "view",
      "type": "function"
    },
    {
      "inputs": [
        {
          "internalType": "uint256",
          "name": "_tokenId",
          "type": "uint256"
        }
      ],
      "name": "getTotalYieldAtMaturity",
      "outputs": [
        {
          "internalType": "uint256",
          "name": "",
          "type": "uint256"
        }
      ],
      "stateMutability": "view",
      "type": "function"
    },
    {
      "inputs": [
        {
          "internalType": "contract IERC20",
          "name": "_token",
          "type": "address"
        },
        {
          "internalType": "address",
          "name": "_to",
          "type": "address"
        }
      ],
      "name": "governanceRecoverUnsupported",
      "outputs": [],
      "stateMutability": "nonpayable",
      "type": "function"
    },
    {
      "inputs": [
        {
          "internalType": "address",
          "name": "",
          "type": "address"
        }
      ],
      "name": "hasReceivedBonus",
      "outputs": [
        {
          "internalType": "bool",
          "name": "",
          "type": "bool"
        }
      ],
      "stateMutability": "view",
      "type": "function"
    },
    {
      "inputs": [
        {
          "internalType": "string",
          "name": "_name",
          "type": "string"
        },
        {
          "internalType": "string",
          "name": "_symbol",
          "type": "string"
        },
        {
          "internalType": "address",
          "name": "_stakeToken",
          "type": "address"
        },
        {
          "internalType": "string",
          "name": "_baseTokenURI",
          "type": "string"
        },
        {
          "internalType": "uint256",
          "name": "_capacity",
          "type": "uint256"
        },
        {
          "internalType": "uint256",
          "name": "_endTime",
          "type": "uint256"
        }
      ],
      "name": "initialize",
      "outputs": [],
      "stateMutability": "nonpayable",
      "type": "function"
    },
    {
      "inputs": [
        {
          "internalType": "address",
          "name": "owner",
          "type": "address"
        },
        {
          "internalType": "address",
          "name": "operator",
          "type": "address"
        }
      ],
      "name": "isApprovedForAll",
      "outputs": [
        {
          "internalType": "bool",
          "name": "",
          "type": "bool"
        }
      ],
      "stateMutability": "view",
      "type": "function"
    },
    {
      "inputs": [
        {
          "internalType": "uint256",
          "name": "",
          "type": "uint256"
        }
      ],
      "name": "isBlacklisted",
      "outputs": [
        {
          "internalType": "bool",
          "name": "",
          "type": "bool"
        }
      ],
      "stateMutability": "view",
      "type": "function"
    },
    {
      "inputs": [
        {
          "internalType": "uint256",
          "name": "_tokenId",
          "type": "uint256"
        }
      ],
      "name": "isTokenMinted",
      "outputs": [
        {
          "internalType": "bool",
          "name": "",
          "type": "bool"
        }
      ],
      "stateMutability": "view",
      "type": "function"
    },
    {
      "inputs": [],
      "name": "masterContract",
      "outputs": [
        {
          "internalType": "contract StakingPosition",
          "name": "",
          "type": "address"
        }
      ],
      "stateMutability": "view",
      "type": "function"
    },
    {
      "inputs": [],
      "name": "name",
      "outputs": [
        {
          "internalType": "string",
          "name": "",
          "type": "string"
        }
      ],
      "stateMutability": "view",
      "type": "function"
    },
    {
      "inputs": [
        {
          "internalType": "uint256",
          "name": "",
          "type": "uint256"
        }
      ],
      "name": "ownedIndex",
      "outputs": [
        {
          "internalType": "uint256",
          "name": "",
          "type": "uint256"
        }
      ],
      "stateMutability": "view",
      "type": "function"
    },
    {
      "inputs": [],
      "name": "owner",
      "outputs": [
        {
          "internalType": "address",
          "name": "",
          "type": "address"
        }
      ],
      "stateMutability": "view",
      "type": "function"
    },
    {
      "inputs": [
        {
          "internalType": "uint256",
          "name": "tokenId",
          "type": "uint256"
        }
      ],
      "name": "ownerOf",
      "outputs": [
        {
          "internalType": "address",
          "name": "",
          "type": "address"
        }
      ],
      "stateMutability": "view",
      "type": "function"
    },
    {
      "inputs": [
        {
          "internalType": "uint256",
          "name": "_index",
          "type": "uint256"
        }
      ],
      "name": "removeAprLockOption",
      "outputs": [],
      "stateMutability": "nonpayable",
      "type": "function"
    },
    {
      "inputs": [],
      "name": "renounceOwnership",
      "outputs": [],
      "stateMutability": "nonpayable",
      "type": "function"
    },
    {
      "inputs": [
        {
          "internalType": "address",
          "name": "from",
          "type": "address"
        },
        {
          "internalType": "address",
          "name": "to",
          "type": "address"
        },
        {
          "internalType": "uint256",
          "name": "tokenId",
          "type": "uint256"
        }
      ],
      "name": "safeTransferFrom",
      "outputs": [],
      "stateMutability": "nonpayable",
      "type": "function"
    },
    {
      "inputs": [
        {
          "internalType": "address",
          "name": "from",
          "type": "address"
        },
        {
          "internalType": "address",
          "name": "to",
          "type": "address"
        },
        {
          "internalType": "uint256",
          "name": "tokenId",
          "type": "uint256"
        },
        {
          "internalType": "bytes",
          "name": "data",
          "type": "bytes"
        }
      ],
      "name": "safeTransferFrom",
      "outputs": [],
      "stateMutability": "nonpayable",
      "type": "function"
    },
    {
      "inputs": [
        {
          "internalType": "address",
          "name": "operator",
          "type": "address"
        },
        {
          "internalType": "bool",
          "name": "approved",
          "type": "bool"
        }
      ],
      "name": "setApprovalForAll",
      "outputs": [],
      "stateMutability": "nonpayable",
      "type": "function"
    },
    {
      "inputs": [
        {
          "internalType": "string",
          "name": "_uri",
          "type": "string"
        }
      ],
      "name": "setBaseURI",
      "outputs": [],
      "stateMutability": "nonpayable",
      "type": "function"
    },
    {
      "inputs": [
        {
          "internalType": "uint256",
          "name": "_bonusAmount",
          "type": "uint256"
        }
      ],
      "name": "setBonusAmount",
      "outputs": [],
      "stateMutability": "nonpayable",
      "type": "function"
    },
    {
      "inputs": [
        {
          "internalType": "uint256",
          "name": "_lockIndex",
          "type": "uint256"
        }
      ],
      "name": "setBonusLockIndex",
      "outputs": [],
      "stateMutability": "nonpayable",
      "type": "function"
    },
    {
      "inputs": [
        {
          "internalType": "uint256",
          "name": "_bonusMinAmount",
          "type": "uint256"
        }
      ],
      "name": "setBonusMinAmount",
      "outputs": [],
      "stateMutability": "nonpayable",
      "type": "function"
    },
    {
      "inputs": [
        {
          "internalType": "uint256",
          "name": "_capacity",
          "type": "uint256"
        }
      ],
      "name": "setCapacity",
      "outputs": [],
      "stateMutability": "nonpayable",
      "type": "function"
    },
    {
      "inputs": [
        {
          "internalType": "uint256",
          "name": "_tokenId",
          "type": "uint256"
        },
        {
          "internalType": "bool",
          "name": "_isBlacklisted",
          "type": "bool"
        }
      ],
      "name": "setIsBlacklisted",
      "outputs": [],
      "stateMutability": "nonpayable",
      "type": "function"
    },
    {
      "inputs": [
        {
          "internalType": "uint256",
          "name": "_amount",
          "type": "uint256"
        },
        {
          "internalType": "uint256",
          "name": "_lockOptIndex",
          "type": "uint256"
        }
      ],
      "name": "stake",
      "outputs": [],
      "stateMutability": "nonpayable",
      "type": "function"
    },
    {
      "inputs": [],
      "name": "stakeToken",
      "outputs": [
        {
          "internalType": "contract IERC20",
          "name": "",
          "type": "address"
        }
      ],
      "stateMutability": "view",
      "type": "function"
    },
    {
      "inputs": [
        {
          "internalType": "uint256",
          "name": "_amount",
          "type": "uint256"
        },
        {
          "internalType": "uint256",
          "name": "_lockOptIndex",
          "type": "uint256"
        },
        {
          "internalType": "address",
          "name": "_referrer",
          "type": "address"
        }
      ],
      "name": "stakeWithReferral",
      "outputs": [],
      "stateMutability": "nonpayable",
      "type": "function"
    },
    {
      "inputs": [
        {
          "internalType": "uint256",
          "name": "",
          "type": "uint256"
        }
      ],
      "name": "stakes",
      "outputs": [
        {
          "internalType": "uint256",
          "name": "created",
          "type": "uint256"
        },
        {
          "internalType": "uint256",
          "name": "amountStaked",
          "type": "uint256"
        },
        {
          "internalType": "uint16",
          "name": "apr",
          "type": "uint16"
        },
        {
          "internalType": "uint256",
          "name": "lockTime",
          "type": "uint256"
        },
        {
          "internalType": "bool",
          "name": "allowWithdrawEarly",
          "type": "bool"
        },
        {
          "internalType": "bool",
          "name": "assetTransferred",
          "type": "bool"
        }
      ],
      "stateMutability": "view",
      "type": "function"
    },
    {
      "inputs": [
        {
          "internalType": "bytes4",
          "name": "_interfaceId",
          "type": "bytes4"
        }
      ],
      "name": "supportsInterface",
      "outputs": [
        {
          "internalType": "bool",
          "name": "",
          "type": "bool"
        }
      ],
      "stateMutability": "view",
      "type": "function"
    },
    {
      "inputs": [],
      "name": "symbol",
      "outputs": [
        {
          "internalType": "string",
          "name": "",
          "type": "string"
        }
      ],
      "stateMutability": "view",
      "type": "function"
    },
    {
      "inputs": [
        {
          "internalType": "uint256",
          "name": "index",
          "type": "uint256"
        }
      ],
      "name": "tokenByIndex",
      "outputs": [
        {
          "internalType": "uint256",
          "name": "",
          "type": "uint256"
        }
      ],
      "stateMutability": "view",
      "type": "function"
    },
    {
      "inputs": [
        {
          "internalType": "uint256",
          "name": "",
          "type": "uint256"
        }
      ],
      "name": "tokenLastTransferred",
      "outputs": [
        {
          "internalType": "uint256",
          "name": "",
          "type": "uint256"
        }
      ],
      "stateMutability": "view",
      "type": "function"
    },
    {
      "inputs": [
        {
          "internalType": "uint256",
          "name": "",
          "type": "uint256"
        }
      ],
      "name": "tokenMintedAt",
      "outputs": [
        {
          "internalType": "uint256",
          "name": "",
          "type": "uint256"
        }
      ],
      "stateMutability": "view",
      "type": "function"
    },
    {
      "inputs": [
        {
          "internalType": "address",
          "name": "owner",
          "type": "address"
        },
        {
          "internalType": "uint256",
          "name": "index",
          "type": "uint256"
        }
      ],
      "name": "tokenOfOwnerByIndex",
      "outputs": [
        {
          "internalType": "uint256",
          "name": "",
          "type": "uint256"
        }
      ],
      "stateMutability": "view",
      "type": "function"
    },
    {
      "inputs": [
        {
          "internalType": "uint256",
          "name": "_tokenId",
          "type": "uint256"
        }
      ],
      "name": "tokenURI",
      "outputs": [
        {
          "internalType": "string",
          "name": "",
          "type": "string"
        }
      ],
      "stateMutability": "view",
      "type": "function"
    },
    {
      "inputs": [],
      "name": "totalSupply",
      "outputs": [
        {
          "internalType": "uint256",
          "name": "",
          "type": "uint256"
        }
      ],
      "stateMutability": "view",
      "type": "function"
    },
    {
      "inputs": [],
      "name": "totalYieldAtMaturity",
      "outputs": [
        {
          "internalType": "uint256",
          "name": "",
          "type": "uint256"
        }
      ],
      "stateMutability": "view",
      "type": "function"
    },
    {
      "inputs": [
        {
          "internalType": "address",
          "name": "from",
          "type": "address"
        },
        {
          "internalType": "address",
          "name": "to",
          "type": "address"
        },
        {
          "internalType": "uint256",
          "name": "tokenId",
          "type": "uint256"
        }
      ],
      "name": "transferFrom",
      "outputs": [],
      "stateMutability": "nonpayable",
      "type": "function"
    },
    {
      "inputs": [
        {
          "internalType": "address",
          "name": "newOwner",
          "type": "address"
        }
      ],
      "name": "transferOwnership",
      "outputs": [],
      "stateMutability": "nonpayable",
      "type": "function"
    },
    {
      "inputs": [
        {
          "internalType": "uint256",
          "name": "_index",
          "type": "uint256"
        },
        {
          "internalType": "uint16",
          "name": "_apr",
          "type": "uint16"
        },
        {
          "internalType": "uint256",
          "name": "_lockTime",
          "type": "uint256"
        }
      ],
      "name": "updateAprLockOption",
      "outputs": [],
      "stateMutability": "nonpayable",
      "type": "function"
    },
    {
      "inputs": [],
      "name": "vault",
      "outputs": [
        {
          "internalType": "contract IStakeVault",
          "name": "",
          "type": "address"
        }
      ],
      "stateMutability": "view",
      "type": "function"
    },
    {
      "inputs": [
        {
          "internalType": "uint256",
          "name": "_tokenId",
          "type": "uint256"
        },
        {
          "internalType": "bool",
          "name": "_isEarlyWithdraw",
          "type": "bool"
        }
      ],
      "name": "withdraw",
      "outputs": [],
      "stateMutability": "nonpayable",
      "type": "function"
    },
    {
      "inputs": [
        {
          "internalType": "uint256[]",
          "name": "_tokenIds",
          "type": "uint256[]"
        },
        {
          "internalType": "bool",
          "name": "isWithdrawEarly",
          "type": "bool"
        }
      ],
      "name": "withdrawMulti",
      "outputs": [],
      "stateMutability": "nonpayable",
      "type": "function"
    }
  ],
  "transactionHash": "0x2e74830108607e516c2fd080311c6e88f3bd9c52a398c3cbd66bae35e80ec262",
  "args": [
    "0x230319f254A72F38f3BF4D37A20cA2D236287817"
  ],
  "numDeployments": 4,
  "solcInputHash": "e619c63d90d7c9e07ad7f205f6a02cf7",
  "bytecode": "0x60c0604052660aa87bee53800061010655662386f26fc10000610107556001610108553480156200002f57600080fd5b506040516200464738038062004647833981016040819052620000529162000068565b6001600160a01b03166080523060a0526200009a565b6000602082840312156200007b57600080fd5b81516001600160a01b03811681146200009357600080fd5b9392505050565b60805160a051614548620000ff600039600061076e0152600081816108db0152818161091f01528181610da101528181611007015281816113aa015281816114bf01528181611c68015281816120c5015281816121e50152612be401526145486000f3fe608060405234801561001057600080fd5b50600436106103a45760003560e01c80637974e46a116101e9578063b88d4fde1161010f578063e92f6a15116100ad578063f2fde38b1161007c578063f2fde38b146108b9578063fab1e747146108cc578063fbfa77cf146108d6578063ffa80136146108fd57600080fd5b8063e92f6a1514610844578063e985e9c514610857578063ed44e56914610893578063eeb90ba9146108a657600080fd5b8063d17b9e77116100e9578063d17b9e7714610790578063d1c6b0ca146107a3578063d5a44f86146107b6578063e8a3d4851461083c57600080fd5b8063b88d4fde14610743578063c87b56dd14610756578063cd446e221461076957600080fd5b806397d3b57311610187578063a6bba76711610156578063a6bba767146106e1578063ad63db3d146106f4578063afd50d8f146106fe578063b4f0c8301461071f57600080fd5b806397d3b5731461069357806399bbbbac146106a6578063a22cb465146106bb578063a49991f3146106ce57600080fd5b80638f96a7cb116101c35780638f96a7cb1461065257806390e783281461066557806391915ef81461067857806395d89b411461068b57600080fd5b80637974e46a146106265780637b0472f01461062e5780638da5cb5b1461064157600080fd5b806338d07436116102ce57806355f804b31161026c57806370a082311161023b57806370a08231146105d7578063715018a6146105ea57806376772cf8146105f25780637869684c1461061357600080fd5b806355f804b3146105945780635cfc1a51146105a75780636352211e146105b157806364ed320d146105c457600080fd5b80634670dd2d116102a85780634670dd2d146105385780634752f9ef1461054b5780634f6ccce71461056e57806351ed6a301461058157600080fd5b806338d07436146104ff57806338f57ff31461051257806342842e0e1461052557600080fd5b806318160ddd11610346578063274de61e11610315578063274de61e146104ae5780632f745c59146104cf5780633197cbb6146104e25780633649c479146104ec57600080fd5b806318160ddd1461046d57806320e3fa50146104755780632374346c1461048857806323b872dd1461049b57600080fd5b806306fdde031161038257806306fdde0314610407578063081812fc1461041c57806308b7424514610447578063095ea7b31461045a57600080fd5b806301ede8dc146103a957806301ffc9a7146103be57806304ece583146103e6575b600080fd5b6103bc6103b73660046139b9565b61091d565b005b6103d16103cc3660046139f9565b610a5d565b60405190151581526020015b60405180910390f35b6103f96103f4366004613a16565b610a6e565b6040519081526020016103dd565b61040f610b47565b6040516103dd9190613a7f565b61042f61042a366004613a16565b610bd9565b6040516001600160a01b0390911681526020016103dd565b6103bc610455366004613aa0565b610c00565b6103bc610468366004613ae5565b610c58565b6099546103f9565b6103f9610483366004613ae5565b610d6d565b6103bc610496366004613a16565b610d9f565b6103bc6104a9366004613b03565b610f3e565b6103f96104bc366004613a16565b6101026020526000908152604090205481565b6103f96104dd366004613ae5565b610f6f565b6103f961010a5481565b6103bc6104fa366004613c03565b611005565b6103bc61050d366004613aa0565b6111c7565b6103bc610520366004613cb2565b61157b565b6103bc610533366004613b03565b61171d565b6103bc610546366004613ceb565b611738565b6103d1610559366004613a16565b60fe6020526000908152604090205460ff1681565b6103f961057c366004613a16565b6118de565b60fb5461042f906001600160a01b031681565b6103bc6105a2366004613d20565b611971565b6103f96101095481565b61042f6105bf366004613a16565b6119c8565b6103f96105d2366004613a16565b611a28565b6103f96105e5366004613d55565b611ac6565b6103bc611b4c565b6103f9610600366004613a16565b6101036020526000908152604090205481565b6103bc610621366004613a16565b611b60565b6103f9611b9c565b6103bc61063c366004613d72565b611bac565b60c9546001600160a01b031661042f565b6103d1610660366004613a16565b611bc0565b6103bc610673366004613a16565b611bdf565b6103bc610686366004613a16565b611c1b565b61040f611c57565b6103bc6106a1366004613d94565b611c66565b6106ae611dff565b6040516103dd9190613dc2565b6103bc6106c9366004613e15565b611e6f565b6103f96106dc366004613a16565b611e7a565b6103bc6106ef366004613ec3565b611f20565b6103f961010c5481565b6103f961070c366004613a16565b6101046020526000908152604090205481565b6103d161072d366004613d55565b6101056020526000908152604090205460ff1681565b6103bc610751366004613f1c565b611f68565b61040f610764366004613a16565b611f9a565b61042f7f000000000000000000000000000000000000000000000000000000000000000081565b6103bc61079e366004613a16565b612030565b6103bc6107b1366004613a16565b612179565b6108046107c4366004613a16565b60fd60205260009081526040902080546001820154600283015460038401546004909401549293919261ffff909116919060ff8082169161010090041686565b60408051968752602087019590955261ffff9093169385019390935260608401529015156080830152151560a082015260c0016103dd565b61040f6121b5565b6103bc610852366004613f9c565b6121e3565b6103d1610865366004613d94565b6001600160a01b039182166000908152606a6020908152604080832093909416825291909152205460ff1690565b6103bc6108a1366004613fd1565b612345565b6103bc6108b4366004613ceb565b612386565b6103bc6108c7366004613d55565b6123df565b6103f961010b5481565b61042f7f000000000000000000000000000000000000000000000000000000000000000081565b61091061090b366004613d55565b612458565b6040516103dd9190614018565b7f00000000000000000000000000000000000000000000000000000000000000006001600160a01b031633148061096d57503361096260c9546001600160a01b031690565b6001600160a01b0316145b6109925760405162461bcd60e51b81526004016109899061405c565b60405180910390fd5b6040805180820190915261ffff80841682526020820183815260fc805460018101825560009190915292517f371f36870d18f32a11fea0f144b021c8b407bb50f8e0267c711123f454b963c06002909402938401805461ffff19169190931617909155517f371f36870d18f32a11fea0f144b021c8b407bb50f8e0267c711123f454b963c1909101558161ffff167fe01fdf33dfdfd42d6dc9b85e62d6750214967dddff00304f34c3fed1939bde0b82604051610a5191815260200190565b60405180910390a25050565b6000610a68826124c5565b92915050565b600081815260fd60209081526040808320815160c0810183528154808252600183015494820194909452600282015461ffff1692810192909252600381015460608301526004015460ff8082161515608084015261010090910416151560a0820152908290610add9042614092565b905060008260600151821115610af857506060820151610afb565b50805b6301e1338061271061ffff1682856040015161ffff168660200151610b2091906140a5565b610b2a91906140a5565b610b3491906140bc565b610b3e91906140bc565b95945050505050565b606060658054610b56906140de565b80601f0160208091040260200160405190810160405280929190818152602001828054610b82906140de565b8015610bcf5780601f10610ba457610100808354040283529160200191610bcf565b820191906000526020600020905b815481529060010190602001808311610bb257829003601f168201915b5050505050905090565b6000610be4826124ea565b506000908152606960205260409020546001600160a01b031690565b610c08612549565b600082815260fe6020908152604091829020805460ff1916841515908117909155915191825283917fd07a67329d87579b1994579e69a7e1df196e41e2c912c37b7b9d80ef0030238d9101610a51565b6000610c63826119c8565b9050806001600160a01b0316836001600160a01b031603610cd05760405162461bcd60e51b815260206004820152602160248201527f4552433732313a20617070726f76616c20746f2063757272656e74206f776e656044820152603960f91b6064820152608401610989565b336001600160a01b0382161480610cec5750610cec8133610865565b610d5e5760405162461bcd60e51b815260206004820152603d60248201527f4552433732313a20617070726f76652063616c6c6572206973206e6f7420746f60448201527f6b656e206f776e6572206f7220617070726f76656420666f7220616c6c0000006064820152608401610989565b610d6883836125a3565b505050565b6101016020528160005260406000208181548110610d8a57600080fd5b90600052602060002001600091509150505481565b7f00000000000000000000000000000000000000000000000000000000000000006001600160a01b0316331480610def575033610de460c9546001600160a01b031690565b6001600160a01b0316145b610e0b5760405162461bcd60e51b81526004016109899061405c565b600060fc8281548110610e2057610e20614118565b600091825260209182902060408051808201909152600290920201805461ffff1682526001908101549282019290925260fc805491935091610e6191614092565b81548110610e7157610e71614118565b906000526020600020906002020160fc8381548110610e9257610e92614118565b600091825260209091208254600290920201805461ffff191661ffff90921691909117815560019182015491015560fc805480610ed157610ed161412e565b6000828152602080822060026000199490940193840201805461ffff1916815560010191909155915581518282015160405190815261ffff9091169184917f31c7ae07732186951f28c3aa4b019b67ff0b121028ec0baa0127467a57d3d340910160405180910390a35050565b610f483382612611565b610f645760405162461bcd60e51b815260040161098990614144565b610d68838383612690565b6000610f7a83611ac6565b8210610fdc5760405162461bcd60e51b815260206004820152602b60248201527f455243373231456e756d657261626c653a206f776e657220696e646578206f7560448201526a74206f6620626f756e647360a81b6064820152608401610989565b506001600160a01b03919091166000908152609760209081526040808320938352929052205490565b7f00000000000000000000000000000000000000000000000000000000000000006001600160a01b031633148061105557503361104a60c9546001600160a01b031690565b6001600160a01b0316145b6110715760405162461bcd60e51b81526004016109899061405c565b600054610100900460ff16158080156110915750600054600160ff909116105b806110ab5750303b1580156110ab575060005460ff166001145b61110e5760405162461bcd60e51b815260206004820152602e60248201527f496e697469616c697a61626c653a20636f6e747261637420697320616c72656160448201526d191e481a5b9a5d1a585b1a5e995960921b6064820152608401610989565b6000805460ff191660011790558015611131576000805461ff0019166101001790555b61113b8787612809565b61114361283a565b60fb80546001600160a01b0319166001600160a01b03871617905561010061116b85826141df565b5061010983905561010a82905580156111be576000805461ff0019169055604051600181527f7f26b83ff96e1f2b6a682f133852f6798a09c465da95921460cefb38474024989060200160405180910390a15b50505050505050565b600082815260fd6020908152604091829020825160c08101845281548152600182015492810192909252600281015461ffff16928201929092526003820154606082015260049091015460ff8082161515608084015261010090910416151560a08201523390611236846119c8565b6001600160a01b0316826001600160a01b0316146112ae5760405162461bcd60e51b815260206004820152602f60248201527f6f6e6c7920746865206f776e6572206f6620746865207374616b656420746f6b60448201526e656e732063616e20756e7374616b6560881b6064820152608401610989565b606081015181516000916112c19161429f565b4210905080156114925781608001516113355760405162461bcd60e51b815260206004820152603060248201527f5468697320706f736974696f6e206973206e6f7420656c696769626c6520666f60448201526f72206561726c7920776974686472617760801b6064820152608401610989565b836113a85760405162461bcd60e51b815260206004820152603960248201527f4d7573742061636b6e6f776c6564676520746865206561726c7920776974686460448201527f7261772064756520746f206c6f7373206f6620746f6b656e73000000000000006064820152608401610989565b7f00000000000000000000000000000000000000000000000000000000000000006001600160a01b031663f8d155e08460fb60009054906101000a90046001600160a01b0316600286602001516113ff91906140bc565b60006040518563ffffffff1660e01b815260040161142094939291906142b2565b600060405180830381600087803b15801561143a57600080fd5b505af115801561144e573d6000803e3d6000fd5b5050604080516000808252600160208301528183015290518893506001600160a01b03871692506000805160206144f38339815191529181900360600190a361156b565b600061149d86610a6e565b60fb5460208501516040516307c68aaf60e51b81529293506001600160a01b037f000000000000000000000000000000000000000000000000000000000000000081169363f8d155e0936114fc938a93919091169187906004016142b2565b600060405180830381600087803b15801561151657600080fd5b505af115801561152a573d6000803e3d6000fd5b5050604080516000808252602082018190528183015290518993506001600160a01b03881692506000805160206144f38339815191529181900360600190a3505b61157485612869565b5050505050565b336000908152610105602052604090205460ff16156115d55760405162461bcd60e51b8152602060048201526016602482015275109bdb9d5cc8185b1c9958591e481c9958d95a5d995960521b6044820152606401610989565b610107548310156116285760405162461bcd60e51b815260206004820152601860248201527f4d757374207374616b65206c617267657220616d6f756e7400000000000000006044820152606401610989565b6116383384846001600080612916565b33600081815261010560205260408120805460ff19166001179055610106546101085461166793928080612916565b61167d8161010654610108546000806000612916565b610106546101085460405133927feaaedb2f797ad9311d3350873d350ad04080ad6baa897e9cd8b891bf151f3a5e926116be92918252602082015260400190565b60405180910390a2806001600160a01b03167feaaedb2f797ad9311d3350873d350ad04080ad6baa897e9cd8b891bf151f3a5e6101065461010854604051611710929190918252602082015260400190565b60405180910390a2505050565b610d6883838360405180602001604052806000815250611f68565b600082815260fe602052604090205460ff16156117895760405162461bcd60e51b815260206004820152600f60248201526e189b1858dadb1a5cdd195908139195608a1b6044820152606401610989565b611792826119c8565b6001600160a01b0316836001600160a01b0316146117af57600080fd5b600082815260fd6020908152604091829020825160c0810184528154808252600183015493820193909352600282015461ffff169381019390935260038101546060840181905260049091015460ff8082161515608086015261010090910416151560a084015261181f9161429f565b421161186d5760405162461bcd60e51b815260206004820152601b60248201527f506f736974696f6e206973206e6f74206174206d6174757269747900000000006044820152606401610989565b600061187884610a6e565b905061188384612869565b604080516001815260006020820181905281830152905185916001600160a01b038816916000805160206144f38339815191529181900360600190a3611574858284602001516118d3919061429f565b856000600180612916565b60006118e960995490565b821061194c5760405162461bcd60e51b815260206004820152602c60248201527f455243373231456e756d657261626c653a20676c6f62616c20696e646578206f60448201526b7574206f6620626f756e647360a01b6064820152608401610989565b6099828154811061195f5761195f614118565b90600052602060002001549050919050565b611979612549565b61010061198682826141df565b508060405161199591906142db565b604051908190038120907f199e933997358e1789d8b56ea8c551befeb05ce2fe3fe506199f1230f5a591b490600090a250565b6000818152606760205260408120546001600160a01b031680610a685760405162461bcd60e51b8152602060048201526018602482015277115490cdcc8c4e881a5b9d985b1a59081d1bdad95b88125160421b6044820152606401610989565b600081815260fd60209081526040808320815160c081018352815481526001820154938101849052600282015461ffff1692810183905260038201546060820181905260049092015460ff8082161515608084015261010090910416151560a0820152926301e13380926127109291611aa191906140a5565b611aab91906140a5565b611ab591906140bc565b611abf91906140bc565b9392505050565b60006001600160a01b038216611b305760405162461bcd60e51b815260206004820152602960248201527f4552433732313a2061646472657373207a65726f206973206e6f7420612076616044820152683634b21037bbb732b960b91b6064820152608401610989565b506001600160a01b031660009081526068602052604090205490565b611b54612549565b611b5e6000612dcf565b565b611b68612549565b61010781905560405181907f2ebf7054fda26cce68709eab0e72f86f40153730d994609a775243bd16bd32f890600090a250565b6000611ba760ff5490565b905090565b611bbc3383836001806000612916565b5050565b6000818152606760205260408120546001600160a01b03161515610a68565b611be7612549565b61010881905560405181907fab03523d63fc2456e647e1335600dd48f2b3c9645b43f190cc1615863007e4ed90600090a250565b611c23612549565b61010981905560405181907f3e90590403178c03ff8343cdb359608fcc7678b15509de56e1be479af1b127be90600090a250565b606060668054610b56906140de565b7f00000000000000000000000000000000000000000000000000000000000000006001600160a01b0316331480611cb6575033611cab60c9546001600160a01b031690565b6001600160a01b0316145b611cd25760405162461bcd60e51b81526004016109899061405c565b6040516370a0823160e01b81523060048201526001600160a01b0383169063a9059cbb90839083906370a0823190602401602060405180830381865afa158015611d20573d6000803e3d6000fd5b505050506040513d601f19601f82011682018060405250810190611d4491906142f7565b6040516001600160e01b031960e085901b1681526001600160a01b03909216600483015260248201526044016020604051808303816000875af1158015611d8f573d6000803e3d6000fd5b505050506040513d601f19601f82011682018060405250810190611db39190614310565b611bbc5760405162461bcd60e51b815260206004820152601860248201527f436f756c64206e6f74207472616e7366657220746f6b656e00000000000000006044820152606401610989565b606060fc805480602002602001604051908101604052809291908181526020016000905b82821015611e665760008481526020908190206040805180820190915260028502909101805461ffff168252600190810154828401529083529092019101611e23565b50505050905090565b611bbc338383612e21565b600081815260fd60209081526040808320815160c081018352815481526001820154938101849052600282015461ffff1692810183905260038201546060820181905260049092015460ff8082161515608084015261010090910416151560a0820152926301e13380926127109291611ef391906140a5565b611efd91906140a5565b611f0791906140bc565b611f1191906140bc565b8160200151611abf919061429f565b60005b8251811015611f6257611f5084848381518110611f4257611f42614118565b602002602001015184611738565b80611f5a8161432d565b915050611f23565b50505050565b611f723383612611565b611f8e5760405162461bcd60e51b815260040161098990614144565b611f6284848484612eef565b6000818152606760205260409020546060906001600160a01b0316611ff85760405162461bcd60e51b81526020600482015260146024820152731d1bdad95b88191bd95cc81b9bdd08195e1a5cdd60621b6044820152606401610989565b612000612f22565b61200983612f32565b60405160200161201a929190614346565b6040516020818303038152906040529050919050565b612038612549565b600081815260fd60209081526040808320815160c08101835281548152600182015493810193909352600281015461ffff1691830191909152600381015460608301526004015460ff8082161515608084015261010090910416151560a0820152906120a3836119c8565b60fb5460208401516040516307c68aaf60e51b81529293506001600160a01b037f000000000000000000000000000000000000000000000000000000000000000081169363f8d155e09361210393879391909116916000906004016142b2565b600060405180830381600087803b15801561211d57600080fd5b505af1158015612131573d6000803e3d6000fd5b5050604080516000808252602082015260018183015290518693506001600160a01b03851692506000805160206144f38339815191529181900360600190a3610d6883612869565b612181612549565b61010681905560405181907f489c861b26977ea518d7106a69d4254fbe2c3cfb9cbf5ca4f7784058ec1c6ba490600090a250565b60606121bf612f22565b6040516020016121cf9190614385565b604051602081830303815290604052905090565b7f00000000000000000000000000000000000000000000000000000000000000006001600160a01b031633148061223357503361222860c9546001600160a01b031690565b6001600160a01b0316145b61224f5760405162461bcd60e51b81526004016109899061405c565b600060fc848154811061226457612264614118565b60009182526020918290206040805180820182526002909302909101805461ffff90811684526001909101548385015281518083019092528616815291820184905260fc805491935090869081106122be576122be614118565b6000918252602091829020835160029290920201805461ffff191661ffff9283161781559282015160019093019290925582518382015160408051918252878516938201939093529182018590529091169085907f1d66929984041b98ee2942b02ecb1a94419d54cf725b2fff115bb7a6039a96c69060600160405180910390a350505050565b60005b8251811015610d685761237483828151811061236657612366614118565b6020026020010151836111c7565b8061237e8161432d565b915050612348565b61238e612549565b61239e8383836000806000612916565b60408051838152602081018390526001600160a01b038516917f39411aa5454233dea52e69983fc74412c7abbe65976705dc07402ecdcb3a768b9101611710565b6123e7612549565b6001600160a01b03811661244c5760405162461bcd60e51b815260206004820152602660248201527f4f776e61626c653a206e6577206f776e657220697320746865207a65726f206160448201526564647265737360d01b6064820152608401610989565b61245581612dcf565b50565b6001600160a01b038116600090815261010160209081526040918290208054835181840281018401909452808452606093928301828280156124b957602002820191906000526020600020905b8154815260200190600101908083116124a5575b50505050509050919050565b60006001600160e01b0319821663780e9d6360e01b1480610a685750610a6882612fc5565b6000818152606760205260409020546001600160a01b03166124555760405162461bcd60e51b8152602060048201526018602482015277115490cdcc8c4e881a5b9d985b1a59081d1bdad95b88125160421b6044820152606401610989565b60c9546001600160a01b03163314611b5e5760405162461bcd60e51b815260206004820181905260248201527f4f776e61626c653a2063616c6c6572206973206e6f7420746865206f776e65726044820152606401610989565b600081815260696020526040902080546001600160a01b0319166001600160a01b03841690811790915581906125d8826119c8565b6001600160a01b03167f8c5be1e5ebec7d5bd14f71427d1e84f3dd0314c0f7b2291e5b200ac8c7c3b92560405160405180910390a45050565b60008061261d836119c8565b9050806001600160a01b0316846001600160a01b0316148061266457506001600160a01b038082166000908152606a602090815260408083209388168352929052205460ff165b806126885750836001600160a01b031661267d84610bd9565b6001600160a01b0316145b949350505050565b826001600160a01b03166126a3826119c8565b6001600160a01b0316146126c95760405162461bcd60e51b8152600401610989906143b6565b6001600160a01b03821661272b5760405162461bcd60e51b8152602060048201526024808201527f4552433732313a207472616e7366657220746f20746865207a65726f206164646044820152637265737360e01b6064820152608401610989565b6127388383836001613015565b826001600160a01b031661274b826119c8565b6001600160a01b0316146127715760405162461bcd60e51b8152600401610989906143b6565b600081815260696020908152604080832080546001600160a01b03199081169091556001600160a01b0387811680865260688552838620805460001901905590871680865283862080546001019055868652606790945282852080549092168417909155905184937fddf252ad1be2c89b69c2b068fc378daa952ba7f163c4a11628f55a4df523b3ef91a4610d688383836001613084565b600054610100900460ff166128305760405162461bcd60e51b8152600401610989906143fb565b611bbc8282613218565b600054610100900460ff166128615760405162461bcd60e51b8152600401610989906143fb565b611b5e613258565b6000612874826119c8565b9050612884816000846001613015565b61288d826119c8565b600083815260696020908152604080832080546001600160a01b03199081169091556001600160a01b0385168085526068845282852080546000190190558785526067909352818420805490911690555192935084927fddf252ad1be2c89b69c2b068fc378daa952ba7f163c4a11628f55a4df523b3ef908390a4611bbc816000846001613084565b60fc54841061295d5760405162461bcd60e51b815260206004820152601360248201527234b73b30b634b2103637b1b59037b83a34b7b760691b6044820152606401610989565b841561296957846129d7565b60fb546040516370a0823160e01b81526001600160a01b038881166004830152909116906370a0823190602401602060405180830381865afa1580156129b3573d6000803e3d6000fd5b505050506040513d601f19601f820116820180604052508101906129d791906142f7565b945060008511612a405760405162461bcd60e51b815260206004820152602e60248201527f6d757374207374616b6520616e64206265206561726e696e67206174206c656160448201526d737420736f6d6520746f6b656e7360901b6064820152608401610989565b6101095461010b54612a52908761429f565b111580612a60575061010954155b612a9c5760405162461bcd60e51b815260206004820152600d60248201526c4f76657220636170616369747960981b6044820152606401610989565b61010a5442111580612aaf575061010a54155b612aef5760405162461bcd60e51b815260206004820152601160248201527029ba30b5b2903832b934b7b21037bb32b960791b6044820152606401610989565b8461010b6000828254612b02919061429f565b909155505060ff8054600101905560006301e1338061271061ffff1660fc8781548110612b3157612b31614118565b90600052602060002090600202016001015460fc8881548110612b5657612b56614118565b6000918252602090912060029091020154612b759061ffff168a6140a5565b612b7f91906140a5565b612b8991906140bc565b612b9391906140bc565b90508061010c6000828254612ba8919061429f565b90915550508315612c435760fb54604051630909b0d560e11b81526001600160a01b0389811660048301529182166024820152604481018890527f00000000000000000000000000000000000000000000000000000000000000009091169063121361aa90606401600060405180830381600087803b158015612c2a57600080fd5b505af1158015612c3e573d6000803e3d6000fd5b505050505b6040518060c0016040528042815260200187815260200160fc8781548110612c6d57612c6d614118565b60009182526020918290206002909102015461ffff16825260fc8054929091019188908110612c9e57612c9e614118565b9060005260206000209060020201600101548152602001841515815260200185151581525060fd6000612cd060ff5490565b815260208082019290925260409081016000208351815591830151600183015582015160028201805461ffff90921661ffff199283161790556060830151600383015560808301516004909201805460a09094015115156101000261ff0019931515939093169390911692909217179055612d5387612d4e60ff5490565b613288565b426101036000612d6260ff5490565b815260208101919091526040016000205560ff546040805188815260208101889052841515918101919091526001600160a01b038916907fa49c1c928980f2db155623150cf810e7c643408e6f25c3b315d0e2c476a076dd9060600160405180910390a350505050505050565b60c980546001600160a01b038381166001600160a01b0319831681179093556040519116919082907f8be0079c531659141344cd1fd0a4f28419497f9722a3daafe3b4186f6b6457e090600090a35050565b816001600160a01b0316836001600160a01b031603612e825760405162461bcd60e51b815260206004820152601960248201527f4552433732313a20617070726f766520746f2063616c6c6572000000000000006044820152606401610989565b6001600160a01b038381166000818152606a6020908152604080832094871680845294825291829020805460ff191686151590811790915591519182527f17307eab39ab6107e8899845ad3d59bd9653f200f220920489ca2b5937696c31910160405180910390a3505050565b612efa848484612690565b612f06848484846132a2565b611f625760405162461bcd60e51b815260040161098990614446565b60606101008054610b56906140de565b60606000612f3f836133a3565b600101905060008167ffffffffffffffff811115612f5f57612f5f613b44565b6040519080825280601f01601f191660200182016040528015612f89576020820181803683370190505b5090508181016020015b600019016f181899199a1a9b1b9c1cb0b131b232b360811b600a86061a8153600a8504945084612f9357509392505050565b60006001600160e01b031982166380ac58cd60e01b1480612ff657506001600160e01b03198216635b5e139f60e01b145b80610a6857506301ffc9a760e01b6001600160e01b0319831614610a68565b600082815260fe602052604090205460ff16156130665760405162461bcd60e51b815260206004820152600f60248201526e189b1858dadb1a5cdd195908139195608a1b6044820152606401610989565b600082815261010460205260409020429055611f628484848461347b565b6001600160a01b038416156131c457600082815261010260209081526040808320546001600160a01b0388168452610101909252822080549192916130cb90600190614092565b815481106130db576130db614118565b60009182526020808320909101546001600160a01b0389168352610101909152604090912080549192509061311290600190614092565b8154811061312257613122614118565b90600052602060002001546101016000886001600160a01b03166001600160a01b03168152602001908152602001600020838154811061316457613164614118565b60009182526020808320909101929092556001600160a01b03881681526101019091526040902080548061319a5761319a61412e565b60008281526020808220830160001990810183905590920190925591815261010290915260409020555b6001600160a01b03831615613213576001600160a01b03831660009081526101016020818152604080842080548786526101028452918520829055928252600181018355918352909120018290555b611f62565b600054610100900460ff1661323f5760405162461bcd60e51b8152600401610989906143fb565b606561324b83826141df565b506066610d6882826141df565b600054610100900460ff1661327f5760405162461bcd60e51b8152600401610989906143fb565b611b5e33612dcf565b611bbc8282604051806020016040528060008152506135b4565b60006001600160a01b0384163b1561339857604051630a85bd0160e11b81526001600160a01b0385169063150b7a02906132e6903390899088908890600401614498565b6020604051808303816000875af1925050508015613321575060408051601f3d908101601f1916820190925261331e918101906144d5565b60015b61337e573d80801561334f576040519150601f19603f3d011682016040523d82523d6000602084013e613354565b606091505b5080516000036133765760405162461bcd60e51b815260040161098990614446565b805181602001fd5b6001600160e01b031916630a85bd0160e11b149050612688565b506001949350505050565b60008072184f03e93ff9f4daa797ed6e38ed64bf6a1f0160401b83106133e25772184f03e93ff9f4daa797ed6e38ed64bf6a1f0160401b830492506040015b6d04ee2d6d415b85acef8100000000831061340e576d04ee2d6d415b85acef8100000000830492506020015b662386f26fc10000831061342c57662386f26fc10000830492506010015b6305f5e1008310613444576305f5e100830492506008015b612710831061345857612710830492506004015b6064831061346a576064830492506002015b600a8310610a685760010192915050565b613487848484846135e7565b60018111156134f65760405162461bcd60e51b815260206004820152603560248201527f455243373231456e756d657261626c653a20636f6e7365637574697665207472604482015274185b9cd9995c9cc81b9bdd081cdd5c1c1bdc9d1959605a1b6064820152608401610989565b816001600160a01b0385166135525761354d81609980546000838152609a60205260408120829055600182018355919091527f72a152ddfb8e864297c917af52ea6c1c68aead0fee1a62673fcc7e0c94979d000155565b613575565b836001600160a01b0316856001600160a01b03161461357557613575858261366f565b6001600160a01b0384166135915761358c8161370c565b611574565b846001600160a01b0316846001600160a01b0316146115745761157484826137bb565b6135be83836137ff565b6135cb60008484846132a2565b610d685760405162461bcd60e51b815260040161098990614446565b6001811115611f62576001600160a01b0384161561362d576001600160a01b03841660009081526068602052604081208054839290613627908490614092565b90915550505b6001600160a01b03831615611f62576001600160a01b0383166000908152606860205260408120805483929061366490849061429f565b909155505050505050565b6000600161367c84611ac6565b6136869190614092565b6000838152609860205260409020549091508082146136d9576001600160a01b03841660009081526097602090815260408083208584528252808320548484528184208190558352609890915290208190555b5060009182526098602090815260408084208490556001600160a01b039094168352609781528383209183525290812055565b60995460009061371e90600190614092565b6000838152609a60205260408120546099805493945090928490811061374657613746614118565b90600052602060002001549050806099838154811061376757613767614118565b6000918252602080832090910192909255828152609a9091526040808220849055858252812055609980548061379f5761379f61412e565b6001900381819060005260206000200160009055905550505050565b60006137c683611ac6565b6001600160a01b039093166000908152609760209081526040808320868452825280832085905593825260989052919091209190915550565b6001600160a01b0382166138555760405162461bcd60e51b815260206004820181905260248201527f4552433732313a206d696e7420746f20746865207a65726f20616464726573736044820152606401610989565b6000818152606760205260409020546001600160a01b0316156138ba5760405162461bcd60e51b815260206004820152601c60248201527f4552433732313a20746f6b656e20616c7265616479206d696e746564000000006044820152606401610989565b6138c8600083836001613015565b6000818152606760205260409020546001600160a01b03161561392d5760405162461bcd60e51b815260206004820152601c60248201527f4552433732313a20746f6b656e20616c7265616479206d696e746564000000006044820152606401610989565b6001600160a01b038216600081815260686020908152604080832080546001019055848352606790915280822080546001600160a01b0319168417905551839291907fddf252ad1be2c89b69c2b068fc378daa952ba7f163c4a11628f55a4df523b3ef908290a4611bbc600083836001613084565b803561ffff811681146139b457600080fd5b919050565b600080604083850312156139cc57600080fd5b6139d5836139a2565b946020939093013593505050565b6001600160e01b03198116811461245557600080fd5b600060208284031215613a0b57600080fd5b8135611abf816139e3565b600060208284031215613a2857600080fd5b5035919050565b60005b83811015613a4a578181015183820152602001613a32565b50506000910152565b60008151808452613a6b816020860160208601613a2f565b601f01601f19169290920160200192915050565b602081526000611abf6020830184613a53565b801515811461245557600080fd5b60008060408385031215613ab357600080fd5b823591506020830135613ac581613a92565b809150509250929050565b6001600160a01b038116811461245557600080fd5b60008060408385031215613af857600080fd5b82356139d581613ad0565b600080600060608486031215613b1857600080fd5b8335613b2381613ad0565b92506020840135613b3381613ad0565b929592945050506040919091013590565b634e487b7160e01b600052604160045260246000fd5b604051601f8201601f1916810167ffffffffffffffff81118282101715613b8357613b83613b44565b604052919050565b600067ffffffffffffffff831115613ba557613ba5613b44565b613bb8601f8401601f1916602001613b5a565b9050828152838383011115613bcc57600080fd5b828260208301376000602084830101529392505050565b600082601f830112613bf457600080fd5b611abf83833560208501613b8b565b60008060008060008060c08789031215613c1c57600080fd5b863567ffffffffffffffff80821115613c3457600080fd5b613c408a838b01613be3565b97506020890135915080821115613c5657600080fd5b613c628a838b01613be3565b965060408901359150613c7482613ad0565b90945060608801359080821115613c8a57600080fd5b50613c9789828a01613be3565b9350506080870135915060a087013590509295509295509295565b600080600060608486031215613cc757600080fd5b83359250602084013591506040840135613ce081613ad0565b809150509250925092565b600080600060608486031215613d0057600080fd5b8335613d0b81613ad0565b95602085013595506040909401359392505050565b600060208284031215613d3257600080fd5b813567ffffffffffffffff811115613d4957600080fd5b61268884828501613be3565b600060208284031215613d6757600080fd5b8135611abf81613ad0565b60008060408385031215613d8557600080fd5b50508035926020909101359150565b60008060408385031215613da757600080fd5b8235613db281613ad0565b91506020830135613ac581613ad0565b602080825282518282018190526000919060409081850190868401855b82811015613e08578151805161ffff168552860151868501529284019290850190600101613ddf565b5091979650505050505050565b60008060408385031215613e2857600080fd5b8235613e3381613ad0565b91506020830135613ac581613a92565b600082601f830112613e5457600080fd5b8135602067ffffffffffffffff821115613e7057613e70613b44565b8160051b613e7f828201613b5a565b9283528481018201928281019087851115613e9957600080fd5b83870192505b84831015613eb857823582529183019190830190613e9f565b979650505050505050565b600080600060608486031215613ed857600080fd5b8335613ee381613ad0565b9250602084013567ffffffffffffffff811115613eff57600080fd5b613f0b86828701613e43565b925050604084013590509250925092565b60008060008060808587031215613f3257600080fd5b8435613f3d81613ad0565b93506020850135613f4d81613ad0565b925060408501359150606085013567ffffffffffffffff811115613f7057600080fd5b8501601f81018713613f8157600080fd5b613f9087823560208401613b8b565b91505092959194509250565b600080600060608486031215613fb157600080fd5b83359250613fc1602085016139a2565b9150604084013590509250925092565b60008060408385031215613fe457600080fd5b823567ffffffffffffffff811115613ffb57600080fd5b61400785828601613e43565b9250506020830135613ac581613a92565b6020808252825182820181905260009190848201906040850190845b8181101561405057835183529284019291840191600101614034565b50909695505050505050565b60208082526006908201526510b7bbb732b960d11b604082015260600190565b634e487b7160e01b600052601160045260246000fd5b81810381811115610a6857610a6861407c565b8082028115828204841417610a6857610a6861407c565b6000826140d957634e487b7160e01b600052601260045260246000fd5b500490565b600181811c908216806140f257607f821691505b60208210810361411257634e487b7160e01b600052602260045260246000fd5b50919050565b634e487b7160e01b600052603260045260246000fd5b634e487b7160e01b600052603160045260246000fd5b6020808252602d908201527f4552433732313a2063616c6c6572206973206e6f7420746f6b656e206f776e6560408201526c1c881bdc88185c1c1c9bdd9959609a1b606082015260800190565b601f821115610d6857600081815260208120601f850160051c810160208610156141b85750805b601f850160051c820191505b818110156141d7578281556001016141c4565b505050505050565b815167ffffffffffffffff8111156141f9576141f9613b44565b61420d8161420784546140de565b84614191565b602080601f831160018114614242576000841561422a5750858301515b600019600386901b1c1916600185901b1785556141d7565b600085815260208120601f198616915b8281101561427157888601518255948401946001909101908401614252565b508582101561428f5787850151600019600388901b60f8161c191681555b5050505050600190811b01905550565b80820180821115610a6857610a6861407c565b6001600160a01b0394851681529290931660208301526040820152606081019190915260800190565b600082516142ed818460208701613a2f565b9190910192915050565b60006020828403121561430957600080fd5b5051919050565b60006020828403121561432257600080fd5b8151611abf81613a92565b60006001820161433f5761433f61407c565b5060010190565b60008351614358818460208801613a2f565b83519083019061436c818360208801613a2f565b64173539b7b760d91b9101908152600501949350505050565b60008251614397818460208701613a2f565b6c31b7b73a3930b1ba173539b7b760991b920191825250600d01919050565b60208082526025908201527f4552433732313a207472616e736665722066726f6d20696e636f72726563742060408201526437bbb732b960d91b606082015260800190565b6020808252602b908201527f496e697469616c697a61626c653a20636f6e7472616374206973206e6f74206960408201526a6e697469616c697a696e6760a81b606082015260800190565b60208082526032908201527f4552433732313a207472616e7366657220746f206e6f6e20455243373231526560408201527131b2b4bb32b91034b6b83632b6b2b73a32b960711b606082015260800190565b6001600160a01b03858116825284166020820152604081018390526080606082018190526000906144cb90830184613a53565b9695505050505050565b6000602082840312156144e757600080fd5b8151611abf816139e356feddb878cba785b7e990dc6cf5429da531907ba82da43d525a522696e153ea45c6a2646970667358221220297c7e35c875ab606f95d52eb50e63e8836c1699d259b25ca3685d21d92b074064736f6c63430008110033",
  "devdoc": {
    "kind": "dev",
    "methods": {
      "approve(address,uint256)": {
        "details": "See {IERC721-approve}."
      },
      "balanceOf(address)": {
        "details": "See {IERC721-balanceOf}."
      },
      "getApproved(uint256)": {
        "details": "See {IERC721-getApproved}."
      },
      "isApprovedForAll(address,address)": {
        "details": "See {IERC721-isApprovedForAll}."
      },
      "name()": {
        "details": "See {IERC721Metadata-name}."
      },
      "owner()": {
        "details": "Returns the address of the current owner."
      },
      "ownerOf(uint256)": {
        "details": "See {IERC721-ownerOf}."
      },
      "renounceOwnership()": {
        "details": "Leaves the contract without owner. It will not be possible to call `onlyOwner` functions anymore. Can only be called by the current owner. NOTE: Renouncing ownership will leave the contract without an owner, thereby removing any functionality that is only available to the owner."
      },
      "safeTransferFrom(address,address,uint256)": {
        "details": "See {IERC721-safeTransferFrom}."
      },
      "safeTransferFrom(address,address,uint256,bytes)": {
        "details": "See {IERC721-safeTransferFrom}."
      },
      "setApprovalForAll(address,bool)": {
        "details": "See {IERC721-setApprovalForAll}."
      },
      "symbol()": {
        "details": "See {IERC721Metadata-symbol}."
      },
      "tokenByIndex(uint256)": {
        "details": "See {IERC721Enumerable-tokenByIndex}."
      },
      "tokenOfOwnerByIndex(address,uint256)": {
        "details": "See {IERC721Enumerable-tokenOfOwnerByIndex}."
      },
      "totalSupply()": {
        "details": "See {IERC721Enumerable-totalSupply}."
      },
      "transferFrom(address,address,uint256)": {
        "details": "See {IERC721-transferFrom}."
      },
      "transferOwnership(address)": {
        "details": "Transfers ownership of the contract to a new account (`newOwner`). Can only be called by the current owner."
      }
    },
    "version": 1
  },
  "userdoc": {
    "kind": "user",
    "methods": {},
    "version": 1
  },
  "storageLayout": {
    "storage": [
      {
        "astId": 138,
        "contract": "contracts/StakingPosition.sol:StakingPosition",
        "label": "_initialized",
        "offset": 0,
        "slot": "0",
        "type": "t_uint8"
      },
      {
        "astId": 141,
        "contract": "contracts/StakingPosition.sol:StakingPosition",
        "label": "_initializing",
        "offset": 1,
        "slot": "0",
        "type": "t_bool"
      },
      {
        "astId": 2161,
        "contract": "contracts/StakingPosition.sol:StakingPosition",
        "label": "__gap",
        "offset": 0,
        "slot": "1",
        "type": "t_array(t_uint256)50_storage"
      },
      {
        "astId": 2454,
        "contract": "contracts/StakingPosition.sol:StakingPosition",
        "label": "__gap",
        "offset": 0,
        "slot": "51",
        "type": "t_array(t_uint256)50_storage"
      },
      {
        "astId": 329,
        "contract": "contracts/StakingPosition.sol:StakingPosition",
        "label": "_name",
        "offset": 0,
        "slot": "101",
        "type": "t_string_storage"
      },
      {
        "astId": 331,
        "contract": "contracts/StakingPosition.sol:StakingPosition",
        "label": "_symbol",
        "offset": 0,
        "slot": "102",
        "type": "t_string_storage"
      },
      {
        "astId": 335,
        "contract": "contracts/StakingPosition.sol:StakingPosition",
        "label": "_owners",
        "offset": 0,
        "slot": "103",
        "type": "t_mapping(t_uint256,t_address)"
      },
      {
        "astId": 339,
        "contract": "contracts/StakingPosition.sol:StakingPosition",
        "label": "_balances",
        "offset": 0,
        "slot": "104",
        "type": "t_mapping(t_address,t_uint256)"
      },
      {
        "astId": 343,
        "contract": "contracts/StakingPosition.sol:StakingPosition",
        "label": "_tokenApprovals",
        "offset": 0,
        "slot": "105",
        "type": "t_mapping(t_uint256,t_address)"
      },
      {
        "astId": 349,
        "contract": "contracts/StakingPosition.sol:StakingPosition",
        "label": "_operatorApprovals",
        "offset": 0,
        "slot": "106",
        "type": "t_mapping(t_address,t_mapping(t_address,t_bool))"
      },
      {
        "astId": 1269,
        "contract": "contracts/StakingPosition.sol:StakingPosition",
        "label": "__gap",
        "offset": 0,
        "slot": "107",
        "type": "t_array(t_uint256)44_storage"
      },
      {
        "astId": 1434,
        "contract": "contracts/StakingPosition.sol:StakingPosition",
        "label": "_ownedTokens",
        "offset": 0,
        "slot": "151",
        "type": "t_mapping(t_address,t_mapping(t_uint256,t_uint256))"
      },
      {
        "astId": 1438,
        "contract": "contracts/StakingPosition.sol:StakingPosition",
        "label": "_ownedTokensIndex",
        "offset": 0,
        "slot": "152",
        "type": "t_mapping(t_uint256,t_uint256)"
      },
      {
        "astId": 1441,
        "contract": "contracts/StakingPosition.sol:StakingPosition",
        "label": "_allTokens",
        "offset": 0,
        "slot": "153",
        "type": "t_array(t_uint256)dyn_storage"
      },
      {
        "astId": 1445,
        "contract": "contracts/StakingPosition.sol:StakingPosition",
        "label": "_allTokensIndex",
        "offset": 0,
        "slot": "154",
        "type": "t_mapping(t_uint256,t_uint256)"
      },
      {
        "astId": 1777,
        "contract": "contracts/StakingPosition.sol:StakingPosition",
        "label": "__gap",
        "offset": 0,
        "slot": "155",
        "type": "t_array(t_uint256)46_storage"
      },
      {
        "astId": 10,
        "contract": "contracts/StakingPosition.sol:StakingPosition",
        "label": "_owner",
        "offset": 0,
        "slot": "201",
        "type": "t_address"
      },
      {
        "astId": 130,
        "contract": "contracts/StakingPosition.sol:StakingPosition",
        "label": "__gap",
        "offset": 0,
        "slot": "202",
        "type": "t_array(t_uint256)49_storage"
      },
      {
        "astId": 6187,
        "contract": "contracts/StakingPosition.sol:StakingPosition",
        "label": "stakeToken",
        "offset": 0,
        "slot": "251",
        "type": "t_contract(IERC20)3526"
      },
      {
        "astId": 6205,
        "contract": "contracts/StakingPosition.sol:StakingPosition",
        "label": "_aprLockOptions",
        "offset": 0,
        "slot": "252",
        "type": "t_array(t_struct(AprLock)6201_storage)dyn_storage"
      },
      {
        "astId": 6223,
        "contract": "contracts/StakingPosition.sol:StakingPosition",
        "label": "stakes",
        "offset": 0,
        "slot": "253",
        "type": "t_mapping(t_uint256,t_struct(Stake)6218_storage)"
      },
      {
        "astId": 6227,
        "contract": "contracts/StakingPosition.sol:StakingPosition",
        "label": "isBlacklisted",
        "offset": 0,
        "slot": "254",
        "type": "t_mapping(t_uint256,t_bool)"
      },
      {
        "astId": 6230,
        "contract": "contracts/StakingPosition.sol:StakingPosition",
        "label": "_ids",
        "offset": 0,
        "slot": "255",
        "type": "t_struct(Counter)2168_storage"
      },
      {
        "astId": 6232,
        "contract": "contracts/StakingPosition.sol:StakingPosition",
        "label": "baseTokenURI",
        "offset": 0,
        "slot": "256",
        "type": "t_string_storage"
      },
      {
        "astId": 6237,
        "contract": "contracts/StakingPosition.sol:StakingPosition",
        "label": "allUserOwned",
        "offset": 0,
        "slot": "257",
        "type": "t_mapping(t_address,t_array(t_uint256)dyn_storage)"
      },
      {
        "astId": 6241,
        "contract": "contracts/StakingPosition.sol:StakingPosition",
        "label": "ownedIndex",
        "offset": 0,
        "slot": "258",
        "type": "t_mapping(t_uint256,t_uint256)"
      },
      {
        "astId": 6245,
        "contract": "contracts/StakingPosition.sol:StakingPosition",
        "label": "tokenMintedAt",
        "offset": 0,
        "slot": "259",
        "type": "t_mapping(t_uint256,t_uint256)"
      },
      {
        "astId": 6249,
        "contract": "contracts/StakingPosition.sol:StakingPosition",
        "label": "tokenLastTransferred",
        "offset": 0,
        "slot": "260",
        "type": "t_mapping(t_uint256,t_uint256)"
      },
      {
        "astId": 6253,
        "contract": "contracts/StakingPosition.sol:StakingPosition",
        "label": "hasReceivedBonus",
        "offset": 0,
        "slot": "261",
        "type": "t_mapping(t_address,t_bool)"
      },
      {
        "astId": 6256,
        "contract": "contracts/StakingPosition.sol:StakingPosition",
        "label": "referralBonusAmount",
        "offset": 0,
        "slot": "262",
        "type": "t_uint256"
      },
      {
        "astId": 6259,
        "contract": "contracts/StakingPosition.sol:StakingPosition",
        "label": "referralMinAmount",
        "offset": 0,
        "slot": "263",
        "type": "t_uint256"
      },
      {
        "astId": 6262,
        "contract": "contracts/StakingPosition.sol:StakingPosition",
        "label": "referralBonusLockIndex",
        "offset": 0,
        "slot": "264",
        "type": "t_uint256"
      },
      {
        "astId": 6264,
        "contract": "contracts/StakingPosition.sol:StakingPosition",
        "label": "capacity",
        "offset": 0,
        "slot": "265",
        "type": "t_uint256"
      },
      {
        "astId": 6266,
        "contract": "contracts/StakingPosition.sol:StakingPosition",
        "label": "endTime",
        "offset": 0,
        "slot": "266",
        "type": "t_uint256"
      },
      {
        "astId": 6268,
        "contract": "contracts/StakingPosition.sol:StakingPosition",
        "label": "amountStaked",
        "offset": 0,
        "slot": "267",
        "type": "t_uint256"
      },
      {
        "astId": 6270,
        "contract": "contracts/StakingPosition.sol:StakingPosition",
        "label": "totalYieldAtMaturity",
        "offset": 0,
        "slot": "268",
        "type": "t_uint256"
      },
      {
        "astId": 6272,
        "contract": "contracts/StakingPosition.sol:StakingPosition",
        "label": "_operator",
        "offset": 0,
        "slot": "269",
        "type": "t_address"
      }
    ],
    "types": {
      "t_address": {
        "encoding": "inplace",
        "label": "address",
        "numberOfBytes": "20"
      },
      "t_array(t_struct(AprLock)6201_storage)dyn_storage": {
        "base": "t_struct(AprLock)6201_storage",
        "encoding": "dynamic_array",
        "label": "struct StakingPosition.AprLock[]",
        "numberOfBytes": "32"
      },
      "t_array(t_uint256)44_storage": {
        "base": "t_uint256",
        "encoding": "inplace",
        "label": "uint256[44]",
        "numberOfBytes": "1408"
      },
      "t_array(t_uint256)46_storage": {
        "base": "t_uint256",
        "encoding": "inplace",
        "label": "uint256[46]",
        "numberOfBytes": "1472"
      },
      "t_array(t_uint256)49_storage": {
        "base": "t_uint256",
        "encoding": "inplace",
        "label": "uint256[49]",
        "numberOfBytes": "1568"
      },
      "t_array(t_uint256)50_storage": {
        "base": "t_uint256",
        "encoding": "inplace",
        "label": "uint256[50]",
        "numberOfBytes": "1600"
      },
      "t_array(t_uint256)dyn_storage": {
        "base": "t_uint256",
        "encoding": "dynamic_array",
        "label": "uint256[]",
        "numberOfBytes": "32"
      },
      "t_bool": {
        "encoding": "inplace",
        "label": "bool",
        "numberOfBytes": "1"
      },
      "t_contract(IERC20)3526": {
        "encoding": "inplace",
        "label": "contract IERC20",
        "numberOfBytes": "20"
      },
      "t_mapping(t_address,t_array(t_uint256)dyn_storage)": {
        "encoding": "mapping",
        "key": "t_address",
        "label": "mapping(address => uint256[])",
        "numberOfBytes": "32",
        "value": "t_array(t_uint256)dyn_storage"
      },
      "t_mapping(t_address,t_bool)": {
        "encoding": "mapping",
        "key": "t_address",
        "label": "mapping(address => bool)",
        "numberOfBytes": "32",
        "value": "t_bool"
      },
      "t_mapping(t_address,t_mapping(t_address,t_bool))": {
        "encoding": "mapping",
        "key": "t_address",
        "label": "mapping(address => mapping(address => bool))",
        "numberOfBytes": "32",
        "value": "t_mapping(t_address,t_bool)"
      },
      "t_mapping(t_address,t_mapping(t_uint256,t_uint256))": {
        "encoding": "mapping",
        "key": "t_address",
        "label": "mapping(address => mapping(uint256 => uint256))",
        "numberOfBytes": "32",
        "value": "t_mapping(t_uint256,t_uint256)"
      },
      "t_mapping(t_address,t_uint256)": {
        "encoding": "mapping",
        "key": "t_address",
        "label": "mapping(address => uint256)",
        "numberOfBytes": "32",
        "value": "t_uint256"
      },
      "t_mapping(t_uint256,t_address)": {
        "encoding": "mapping",
        "key": "t_uint256",
        "label": "mapping(uint256 => address)",
        "numberOfBytes": "32",
        "value": "t_address"
      },
      "t_mapping(t_uint256,t_bool)": {
        "encoding": "mapping",
        "key": "t_uint256",
        "label": "mapping(uint256 => bool)",
        "numberOfBytes": "32",
        "value": "t_bool"
      },
      "t_mapping(t_uint256,t_struct(Stake)6218_storage)": {
        "encoding": "mapping",
        "key": "t_uint256",
        "label": "mapping(uint256 => struct StakingPosition.Stake)",
        "numberOfBytes": "32",
        "value": "t_struct(Stake)6218_storage"
      },
      "t_mapping(t_uint256,t_uint256)": {
        "encoding": "mapping",
        "key": "t_uint256",
        "label": "mapping(uint256 => uint256)",
        "numberOfBytes": "32",
        "value": "t_uint256"
      },
      "t_string_storage": {
        "encoding": "bytes",
        "label": "string",
        "numberOfBytes": "32"
      },
      "t_struct(AprLock)6201_storage": {
        "encoding": "inplace",
        "label": "struct StakingPosition.AprLock",
        "members": [
          {
            "astId": 6198,
            "contract": "contracts/StakingPosition.sol:StakingPosition",
            "label": "apr",
            "offset": 0,
            "slot": "0",
            "type": "t_uint16"
          },
          {
            "astId": 6200,
            "contract": "contracts/StakingPosition.sol:StakingPosition",
            "label": "lockTime",
            "offset": 0,
            "slot": "1",
            "type": "t_uint256"
          }
        ],
        "numberOfBytes": "64"
      },
      "t_struct(Counter)2168_storage": {
        "encoding": "inplace",
        "label": "struct CountersUpgradeable.Counter",
        "members": [
          {
            "astId": 2167,
            "contract": "contracts/StakingPosition.sol:StakingPosition",
            "label": "_value",
            "offset": 0,
            "slot": "0",
            "type": "t_uint256"
          }
        ],
        "numberOfBytes": "32"
      },
      "t_struct(Stake)6218_storage": {
        "encoding": "inplace",
        "label": "struct StakingPosition.Stake",
        "members": [
          {
            "astId": 6207,
            "contract": "contracts/StakingPosition.sol:StakingPosition",
            "label": "created",
            "offset": 0,
            "slot": "0",
            "type": "t_uint256"
          },
          {
            "astId": 6209,
            "contract": "contracts/StakingPosition.sol:StakingPosition",
            "label": "amountStaked",
            "offset": 0,
            "slot": "1",
            "type": "t_uint256"
          },
          {
            "astId": 6211,
            "contract": "contracts/StakingPosition.sol:StakingPosition",
            "label": "apr",
            "offset": 0,
            "slot": "2",
            "type": "t_uint16"
          },
          {
            "astId": 6213,
            "contract": "contracts/StakingPosition.sol:StakingPosition",
            "label": "lockTime",
            "offset": 0,
            "slot": "3",
            "type": "t_uint256"
          },
          {
            "astId": 6215,
            "contract": "contracts/StakingPosition.sol:StakingPosition",
            "label": "allowWithdrawEarly",
            "offset": 0,
            "slot": "4",
            "type": "t_bool"
          },
          {
            "astId": 6217,
            "contract": "contracts/StakingPosition.sol:StakingPosition",
            "label": "assetTransferred",
            "offset": 1,
            "slot": "4",
            "type": "t_bool"
          }
        ],
        "numberOfBytes": "160"
      },
      "t_uint16": {
        "encoding": "inplace",
        "label": "uint16",
        "numberOfBytes": "2"
      },
      "t_uint256": {
        "encoding": "inplace",
        "label": "uint256",
        "numberOfBytes": "32"
      },
      "t_uint8": {
        "encoding": "inplace",
        "label": "uint8",
        "numberOfBytes": "1"
      }
    }
  }
}