{
  "address": "0x87460B9F21763aee800b94362062a06dA1B5f6Ee",
  "abi": [
    {
      "inputs": [],
      "stateMutability": "nonpayable",
      "type": "constructor"
    },
    {
      "anonymous": false,
      "inputs": [
        {
          "indexed": true,
          "internalType": "address",
          "name": "previousOwner",
          "type": "address"
        },
        {
          "indexed": true,
          "internalType": "address",
          "name": "newOwner",
          "type": "address"
        }
      ],
      "name": "OwnershipTransferred",
      "type": "event"
    },
    {
      "inputs": [
        {
          "internalType": "string",
          "name": "_name",
          "type": "string"
        },
        {
          "internalType": "string",
          "name": "_symbol",
          "type": "string"
        },
        {
          "internalType": "address",
          "name": "_stakeToken",
          "type": "address"
        },
        {
          "internalType": "string",
          "name": "_baseTokenURI",
          "type": "string"
        }
      ],
      "name": "deployStakableAsset",
      "outputs": [],
      "stateMutability": "nonpayable",
      "type": "function"
    },
    {
      "inputs": [
        {
          "internalType": "address",
          "name": "_user",
          "type": "address"
        },
        {
          "internalType": "address",
          "name": "_token",
          "type": "address"
        },
        {
          "internalType": "uint256",
          "name": "_amount",
          "type": "uint256"
        }
      ],
      "name": "deposit",
      "outputs": [],
      "stateMutability": "nonpayable",
      "type": "function"
    },
    {
      "inputs": [
        {
          "internalType": "contract ERC20",
          "name": "_token",
          "type": "address"
        },
        {
          "internalType": "address",
          "name": "_to",
          "type": "address"
        }
      ],
      "name": "governanceRecoverUnsupported",
      "outputs": [],
      "stateMutability": "nonpayable",
      "type": "function"
    },
    {
      "inputs": [],
      "name": "owner",
      "outputs": [
        {
          "internalType": "address",
          "name": "",
          "type": "address"
        }
      ],
      "stateMutability": "view",
      "type": "function"
    },
    {
      "inputs": [],
      "name": "renounceOwnership",
      "outputs": [],
      "stateMutability": "nonpayable",
      "type": "function"
    },
    {
      "inputs": [
        {
          "internalType": "address",
          "name": "newOwner",
          "type": "address"
        }
      ],
      "name": "transferOwnership",
      "outputs": [],
      "stateMutability": "nonpayable",
      "type": "function"
    },
    {
      "inputs": [
        {
          "internalType": "address",
          "name": "_user",
          "type": "address"
        },
        {
          "internalType": "address",
          "name": "_token",
          "type": "address"
        },
        {
          "internalType": "uint256",
          "name": "_amount",
          "type": "uint256"
        }
      ],
      "name": "withdraw",
      "outputs": [],
      "stateMutability": "nonpayable",
      "type": "function"
    }
  ],
  "transactionHash": "0xe11d914d96b0201e8e545c79b435a51e3f736cfc5f5a08def39300dd1fbbe000",
  "args": [],
  "numDeployments": 1,
  "solcInputHash": "9db3203c95d81e51b76558547a4ccfc5",
  "bytecode": "0x608060405234801561001057600080fd5b50600160005561001f33610024565b610076565b600180546001600160a01b038381166001600160a01b0319831681179093556040519116919082907f8be0079c531659141344cd1fd0a4f28419497f9722a3daafe3b4186f6b6457e090600090a35050565b613e8b806100856000396000f3fe60806040523480156200001157600080fd5b5060043610620000875760003560e01c806397d3b573116200006257806397d3b57314620000ce578063d9caed121462000098578063f2fde38b14620000e5578063fe953f7714620000fc57600080fd5b8063715018a6146200008c5780638340f54914620000985780638da5cb5b14620000af575b600080fd5b6200009662000113565b005b62000096620000a93660046200044d565b6200012b565b600154604080516001600160a01b039092168252519081900360200190f35b62000096620000df36600462000493565b620001ad565b62000096620000f6366004620004d1565b620002a3565b620000966200010d366004620005a3565b62000326565b6200011d6200037b565b620001296000620003d7565b565b6040516323b872dd60e01b81526001600160a01b038481166004830152306024830152604482018390528316906323b872dd906064016020604051808303816000875af115801562000181573d6000803e3d6000fd5b505050506040513d601f19601f82011682018060405250810190620001a791906200064c565b50505050565b620001b76200037b565b6040516370a0823160e01b81523060048201526001600160a01b0383169063a9059cbb90839083906370a0823190602401602060405180830381865afa15801562000206573d6000803e3d6000fd5b505050506040513d601f19601f820116820180604052508101906200022c919062000670565b6040516001600160e01b031960e085901b1681526001600160a01b03909216600483015260248201526044016020604051808303816000875af115801562000278573d6000803e3d6000fd5b505050506040513d601f19601f820116820180604052508101906200029e91906200064c565b505050565b620002ad6200037b565b6001600160a01b038116620003185760405162461bcd60e51b815260206004820152602660248201527f4f776e61626c653a206e6577206f776e657220697320746865207a65726f206160448201526564647265737360d01b60648201526084015b60405180910390fd5b6200032381620003d7565b50565b620003306200037b565b60008484843085604051620003459062000429565b62000355959493929190620006d2565b604051809103906000f08015801562000372573d6000803e3d6000fd5b50505050505050565b6001546001600160a01b03163314620001295760405162461bcd60e51b815260206004820181905260248201527f4f776e61626c653a2063616c6c6572206973206e6f7420746865206f776e657260448201526064016200030f565b600180546001600160a01b038381166001600160a01b0319831681179093556040519116919082907f8be0079c531659141344cd1fd0a4f28419497f9722a3daafe3b4186f6b6457e090600090a35050565b613721806200073583390190565b6001600160a01b03811681146200032357600080fd5b6000806000606084860312156200046357600080fd5b8335620004708162000437565b92506020840135620004828162000437565b929592945050506040919091013590565b60008060408385031215620004a757600080fd5b8235620004b48162000437565b91506020830135620004c68162000437565b809150509250929050565b600060208284031215620004e457600080fd5b8135620004f18162000437565b9392505050565b634e487b7160e01b600052604160045260246000fd5b600082601f8301126200052057600080fd5b813567ffffffffffffffff808211156200053e576200053e620004f8565b604051601f8301601f19908116603f01168101908282118183101715620005695762000569620004f8565b816040528381528660208588010111156200058357600080fd5b836020870160208301376000602085830101528094505050505092915050565b60008060008060808587031215620005ba57600080fd5b843567ffffffffffffffff80821115620005d357600080fd5b620005e1888389016200050e565b95506020870135915080821115620005f857600080fd5b62000606888389016200050e565b9450604087013591506200061a8262000437565b909250606086013590808211156200063157600080fd5b5062000640878288016200050e565b91505092959194509250565b6000602082840312156200065f57600080fd5b81518015158114620004f157600080fd5b6000602082840312156200068357600080fd5b5051919050565b6000815180845260005b81811015620006b25760208185018101518683018201520162000694565b506000602082860101526020601f19601f83011685010191505092915050565b60a081526000620006e760a08301886200068a565b8281036020840152620006fb81886200068a565b6001600160a01b03878116604086015286166060850152838103608085015290506200072881856200068a565b9897505050505050505056fe60806040523480156200001157600080fd5b506040516200372138038062003721833981016040819052620000349162000270565b84846000620000448382620003b6565b506001620000538282620003b6565b505050620000706200006a6200013860201b60201c565b6200013c565b600b80546001600160a01b0319166001600160a01b0385161790556011620000998282620003b6565b50600c80546001600160a01b0319166001600160a01b03848116918217909255600b5460405163095ea7b360e01b8152600481019290925260001960248301529091169063095ea7b3906044016020604051808303816000875af115801562000106573d6000803e3d6000fd5b505050506040513d601f19601f820116820180604052508101906200012c919062000482565b505050505050620004ad565b3390565b600a80546001600160a01b038381166001600160a01b0319831681179093556040519116919082907f8be0079c531659141344cd1fd0a4f28419497f9722a3daafe3b4186f6b6457e090600090a35050565b634e487b7160e01b600052604160045260246000fd5b600082601f830112620001b657600080fd5b81516001600160401b0380821115620001d357620001d36200018e565b604051601f8301601f19908116603f01168101908282118183101715620001fe57620001fe6200018e565b816040528381526020925086838588010111156200021b57600080fd5b600091505b838210156200023f578582018301518183018401529082019062000220565b600093810190920192909252949350505050565b80516001600160a01b03811681146200026b57600080fd5b919050565b600080600080600060a086880312156200028957600080fd5b85516001600160401b0380821115620002a157600080fd5b620002af89838a01620001a4565b96506020880151915080821115620002c657600080fd5b620002d489838a01620001a4565b9550620002e46040890162000253565b9450620002f46060890162000253565b935060808801519150808211156200030b57600080fd5b506200031a88828901620001a4565b9150509295509295909350565b600181811c908216806200033c57607f821691505b6020821081036200035d57634e487b7160e01b600052602260045260246000fd5b50919050565b601f821115620003b157600081815260208120601f850160051c810160208610156200038c5750805b601f850160051c820191505b81811015620003ad5782815560010162000398565b5050505b505050565b81516001600160401b03811115620003d257620003d26200018e565b620003ea81620003e3845462000327565b8462000363565b602080601f831160018114620004225760008415620004095750858301515b600019600386901b1c1916600185901b178555620003ad565b600085815260208120601f198616915b82811015620004535788860151825594840194600190910190840162000432565b5085821015620004725787850151600019600388901b60f8161c191681555b5050505050600190811b01905550565b6000602082840312156200049557600080fd5b81518015158114620004a657600080fd5b9392505050565b61326480620004bd6000396000f3fe608060405234801561001057600080fd5b50600436106102695760003560e01c80636352211e11610151578063a22cb465116100c3578063d5a44f8611610087578063d5a44f8614610577578063e8a3d485146105ef578063e92f6a15146105f7578063e985e9c51461060a578063f2fde38b14610646578063ffa801361461065957600080fd5b8063a22cb4651461050b578063a6bba7671461051e578063afd50d8f14610531578063b88d4fde14610551578063c87b56dd1461056457600080fd5b80637974e46a116101155780637974e46a146104af5780638da5cb5b146104b75780638f96a7cb146104c857806395d89b41146104db57806397d3b573146104e357806399bbbbac146104f657600080fd5b80636352211e1461044e57806367e650db1461046157806370a0823114610474578063715018a61461048757806376772cf81461048f57600080fd5b80632374346c116101ea5780632f745c59116101ae5780632f745c59146103cc57806342842e0e146103df5780634670dd2d146103f25780634752f9ef146104055780634f6ccce71461042857806355f804b31461043b57600080fd5b80632374346c1461036057806323b872dd14610373578063274de61e146103865780632d788333146103a65780632e1a7d4d146103b957600080fd5b806308b742451161023157806308b742451461030c578063095ea7b31461031f5780630c51b88f1461033257806318160ddd1461034557806320e3fa501461034d57600080fd5b806301ede8dc1461026e57806301ffc9a71461028357806304ece583146102ab57806306fdde03146102cc578063081812fc146102e1575b600080fd5b61028161027c3660046128d2565b610679565b005b610296610291366004612912565b61074c565b60405190151581526020015b60405180910390f35b6102be6102b9366004612936565b61075d565b6040519081526020016102a2565b6102d4610842565b6040516102a2919061299f565b6102f46102ef366004612936565b6108d4565b6040516001600160a01b0390911681526020016102a2565b61028161031a3660046129c0565b6108fb565b61028161032d366004612a05565b610953565b610281610340366004612a23565b610a6d565b6008546102be565b6102be61035b366004612a05565b610a7b565b61028161036e366004612936565b610aac565b610281610381366004612a58565b610be7565b6102be610394366004612936565b60136020526000908152604090205481565b600c546102f4906001600160a01b031681565b6102816103c7366004612936565b610c18565b6102be6103da366004612a05565b610f1d565b6102816103ed366004612a58565b610fb3565b610281610400366004612a23565b610fce565b610296610413366004612936565b600f6020526000908152604090205460ff1681565b6102be610436366004612936565b611108565b610281610449366004612b38565b61119b565b6102f461045c366004612936565b6111f1565b61028161046f366004612c01565b611251565b6102be610482366004612c36565b611295565b61028161131b565b6102be61049d366004612936565b60146020526000908152604090205481565b6102be61132f565b600a546001600160a01b03166102f4565b6102966104d6366004612936565b61133f565b6102d461135e565b6102816104f1366004612c53565b61136d565b6104fe611456565b6040516102a29190612c81565b610281610519366004612cd4565b6114c6565b61028161052c366004612d02565b6114d1565b6102be61053f366004612936565b60156020526000908152604090205481565b61028161055f366004612d5b565b611519565b6102d4610572366004612936565b61154b565b6105bc610585366004612936565b600e60205260009081526040902080546001820154600283015460038401546004909401549293919261ffff909116919060ff1685565b60408051958652602086019490945261ffff9092169284019290925260608301919091521515608082015260a0016102a2565b6102d46115e1565b610281610605366004612ddb565b61160f565b610296610618366004612c53565b6001600160a01b03918216600090815260056020908152604080832093909416825291909152205460ff1690565b610281610654366004612c36565b61170d565b61066c610667366004612c36565b611786565b6040516102a29190612e10565b6106816117f2565b6040805180820190915261ffff808416825260208201838152600d805460018101825560009190915292517fd7b6990105719101dabeb77144f2a3385c8033acd3af97e9423a695e81ad1eb56002909402938401805461ffff19169190931617909155517fd7b6990105719101dabeb77144f2a3385c8033acd3af97e9423a695e81ad1eb6909101558161ffff167fe01fdf33dfdfd42d6dc9b85e62d6750214967dddff00304f34c3fed1939bde0b8260405161074091815260200190565b60405180910390a25050565b60006107578261184c565b92915050565b6000818152600e60209081526040808320815160a0810183528154808252600183015494820194909452600282015461ffff1692810192909252600381015460608301526004015460ff16151560808201529082906107bc9042612e6a565b90506000826060015183600001516107d49190612e7d565b8211156107f357606083015183516107ec9190612e7d565b90506107f6565b50805b6301e1338061271061ffff1682856040015161ffff16866020015161081b9190612e90565b6108259190612e90565b61082f9190612ebd565b6108399190612ebd565b95945050505050565b60606000805461085190612ed1565b80601f016020809104026020016040519081016040528092919081815260200182805461087d90612ed1565b80156108ca5780601f1061089f576101008083540402835291602001916108ca565b820191906000526020600020905b8154815290600101906020018083116108ad57829003601f168201915b5050505050905090565b60006108df82611871565b506000908152600460205260409020546001600160a01b031690565b6109036117f2565b6000828152600f6020908152604091829020805460ff1916841515908117909155915191825283917fd07a67329d87579b1994579e69a7e1df196e41e2c912c37b7b9d80ef0030238d9101610740565b600061095e826111f1565b9050806001600160a01b0316836001600160a01b0316036109d05760405162461bcd60e51b815260206004820152602160248201527f4552433732313a20617070726f76616c20746f2063757272656e74206f776e656044820152603960f91b60648201526084015b60405180910390fd5b336001600160a01b03821614806109ec57506109ec8133610618565b610a5e5760405162461bcd60e51b815260206004820152603e60248201527f4552433732313a20617070726f76652063616c6c6572206973206e6f7420746f60448201527f6b656e206f776e6572206e6f7220617070726f76656420666f7220616c6c000060648201526084016109c7565b610a6883836118d0565b505050565b610a6883838360018061193e565b60126020528160005260406000208181548110610a9757600080fd5b90600052602060002001600091509150505481565b610ab46117f2565b6000600d8281548110610ac957610ac9612f0b565b600091825260209182902060408051808201909152600290920201805461ffff16825260019081015492820192909252600d805491935091610b0a91612e6a565b81548110610b1a57610b1a612f0b565b9060005260206000209060020201600d8381548110610b3b57610b3b612f0b565b600091825260209091208254600290920201805461ffff191661ffff909216919091178155600191820154910155600d805480610b7a57610b7a612f21565b6000828152602080822060026000199490940193840201805461ffff1916815560010191909155915581518282015160405190815261ffff9091169184917f31c7ae07732186951f28c3aa4b019b67ff0b121028ec0baa0127467a57d3d340910160405180910390a35050565b610bf13382611c4b565b610c0d5760405162461bcd60e51b81526004016109c790612f37565b610a68838383611cca565b6000818152600e6020908152604091829020825160a08101845281548152600182015492810192909252600281015461ffff16928201929092526003820154606082015260049091015460ff16151560808201523390610c77836111f1565b6001600160a01b0316826001600160a01b031614610cef5760405162461bcd60e51b815260206004820152602f60248201527f6f6e6c7920746865206f776e6572206f6620746865207374616b656420746f6b60448201526e656e732063616e20756e7374616b6560881b60648201526084016109c7565b60608101518151600091610d0291612e7d565b421090508015610e21578160800151610d765760405162461bcd60e51b815260206004820152603060248201527f5468697320706f736974696f6e206973206e6f7420656c696769626c6520666f60448201526f72206561726c7920776974686472617760801b60648201526084016109c7565b600b54600c5460208401516001600160a01b03928316926323b872dd9216908690610da390600290612ebd565b6040516001600160e01b031960e086901b1681526001600160a01b03938416600482015292909116602483015260448201526064016020604051808303816000875af1158015610df7573d6000803e3d6000fd5b505050506040513d601f19601f82011682018060405250810190610e1b9190612f85565b50610ed8565b6000610e2c8561075d565b600b54600c5460208601519293506001600160a01b03918216926323b872dd92909116908790610e5d908690612e7d565b6040516001600160e01b031960e086901b1681526001600160a01b03938416600482015292909116602483015260448201526064016020604051808303816000875af1158015610eb1573d6000803e3d6000fd5b505050506040513d601f19601f82011682018060405250810190610ed59190612f85565b50505b610ee184611e77565b60405184906001600160a01b038516907ff74a79d13d6fdbdf26b2c779e6a24490a43e65d60cc7e064740f8d40b2b5ea2c90600090a350505050565b6000610f2883611295565b8210610f8a5760405162461bcd60e51b815260206004820152602b60248201527f455243373231456e756d657261626c653a206f776e657220696e646578206f7560448201526a74206f6620626f756e647360a81b60648201526084016109c7565b506001600160a01b03919091166000908152600660209081526040808320938352929052205490565b610a6883838360405180602001604052806000815250611519565b6000828152600f602052604090205460ff161561101f5760405162461bcd60e51b815260206004820152600f60248201526e189b1858dadb1a5cdd195908139195608a1b60448201526064016109c7565b6000828152600e6020908152604091829020825160a0810184528154808252600183015493820193909352600282015461ffff169381019390935260038101546060840181905260049091015460ff161515608084015261107f91612e7d565b42116110cd5760405162461bcd60e51b815260206004820152601b60248201527f506f736974696f6e206973206e6f74206174206d61747572697479000000000060448201526064016109c7565b60006110d88461075d565b90506110e384611e77565b611101858284602001516110f79190612e7d565b856000600161193e565b5050505050565b600061111360085490565b82106111765760405162461bcd60e51b815260206004820152602c60248201527f455243373231456e756d657261626c653a20676c6f62616c20696e646578206f60448201526b7574206f6620626f756e647360a01b60648201526084016109c7565b6008828154811061118957611189612f0b565b90600052602060002001549050919050565b6111a36117f2565b60116111af8282612ff0565b50806040516111be91906130b0565b604051908190038120907f199e933997358e1789d8b56ea8c551befeb05ce2fe3fe506199f1230f5a591b490600090a250565b6000818152600260205260408120546001600160a01b0316806107575760405162461bcd60e51b8152602060048201526018602482015277115490cdcc8c4e881a5b9d985b1a59081d1bdad95b88125160421b60448201526064016109c7565b60005b81518110156112915761127f82828151811061127257611272612f0b565b6020026020010151610c18565b80611289816130cc565b915050611254565b5050565b60006001600160a01b0382166112ff5760405162461bcd60e51b815260206004820152602960248201527f4552433732313a2061646472657373207a65726f206973206e6f7420612076616044820152683634b21037bbb732b960b91b60648201526084016109c7565b506001600160a01b031660009081526003602052604090205490565b6113236117f2565b61132d6000611f26565b565b600061133a60105490565b905090565b6000818152600260205260408120546001600160a01b03161515610757565b60606001805461085190612ed1565b6113756117f2565b6040516370a0823160e01b81523060048201526001600160a01b0383169063a9059cbb90839083906370a0823190602401602060405180830381865afa1580156113c3573d6000803e3d6000fd5b505050506040513d601f19601f820116820180604052508101906113e791906130e5565b6040516001600160e01b031960e085901b1681526001600160a01b03909216600483015260248201526044016020604051808303816000875af1158015611432573d6000803e3d6000fd5b505050506040513d601f19601f82011682018060405250810190610a689190612f85565b6060600d805480602002602001604051908101604052809291908181526020016000905b828210156114bd5760008481526020908190206040805180820190915260028502909101805461ffff16825260019081015482840152908352909201910161147a565b50505050905090565b611291338383611f78565b60005b825181101561151357611501848483815181106114f3576114f3612f0b565b602002602001015184610fce565b8061150b816130cc565b9150506114d4565b50505050565b6115233383611c4b565b61153f5760405162461bcd60e51b81526004016109c790612f37565b61151384848484612046565b6000818152600260205260409020546060906001600160a01b03166115a95760405162461bcd60e51b81526020600482015260146024820152731d1bdad95b88191bd95cc81b9bdd08195e1a5cdd60621b60448201526064016109c7565b6115b1612079565b6115ba83612088565b6040516020016115cb9291906130fe565b6040516020818303038152906040529050919050565b60606115eb612079565b6040516020016115fb919061313d565b604051602081830303815290604052905090565b6116176117f2565b6000600d848154811061162c5761162c612f0b565b60009182526020918290206040805180820182526002909302909101805461ffff908116845260019091015483850152815180830190925286168152918201849052600d8054919350908690811061168657611686612f0b565b6000918252602091829020835160029290920201805461ffff191661ffff9283161781559282015160019093019290925582518382015160408051918252878516938201939093529182018590529091169085907f1d66929984041b98ee2942b02ecb1a94419d54cf725b2fff115bb7a6039a96c69060600160405180910390a350505050565b6117156117f2565b6001600160a01b03811661177a5760405162461bcd60e51b815260206004820152602660248201527f4f776e61626c653a206e6577206f776e657220697320746865207a65726f206160448201526564647265737360d01b60648201526084016109c7565b61178381611f26565b50565b6001600160a01b0381166000908152601260209081526040918290208054835181840281018401909452808452606093928301828280156117e657602002820191906000526020600020905b8154815260200190600101908083116117d2575b50505050509050919050565b600a546001600160a01b0316331461132d5760405162461bcd60e51b815260206004820181905260248201527f4f776e61626c653a2063616c6c6572206973206e6f7420746865206f776e657260448201526064016109c7565b60006001600160e01b0319821663780e9d6360e01b1480610757575061075782612189565b6000818152600260205260409020546001600160a01b03166117835760405162461bcd60e51b8152602060048201526018602482015277115490cdcc8c4e881a5b9d985b1a59081d1bdad95b88125160421b60448201526064016109c7565b600081815260046020526040902080546001600160a01b0319166001600160a01b0384169081179091558190611905826111f1565b6001600160a01b03167f8c5be1e5ebec7d5bd14f71427d1e84f3dd0314c0f7b2291e5b200ac8c7c3b92560405160405180910390a45050565b600d5483106119855760405162461bcd60e51b815260206004820152601360248201527234b73b30b634b2103637b1b59037b83a34b7b760691b60448201526064016109c7565b831561199157836119ff565b600b546040516370a0823160e01b81526001600160a01b038781166004830152909116906370a0823190602401602060405180830381865afa1580156119db573d6000803e3d6000fd5b505050506040513d601f19601f820116820180604052508101906119ff91906130e5565b935060008411611a685760405162461bcd60e51b815260206004820152602e60248201527f6d757374207374616b6520616e64206265206561726e696e67206174206c656160448201526d737420736f6d6520746f6b656e7360901b60648201526084016109c7565b8115611adf57600c54600b54604051638340f54960e01b81526001600160a01b038881166004830152918216602482015260448101879052911690638340f54990606401600060405180830381600087803b158015611ac657600080fd5b505af1158015611ada573d6000803e3d6000fd5b505050505b611aed601080546001019055565b6040518060a00160405280428152602001858152602001600d8581548110611b1757611b17612f0b565b60009182526020918290206002909102015461ffff168252600d8054929091019186908110611b4857611b48612f0b565b9060005260206000209060020201600101548152602001821515815250600e6000611b7260105490565b815260208082019290925260409081016000208351815591830151600183015582015160028201805461ffff191661ffff909216919091179055606082015160038201556080909101516004909101805460ff1916911515919091179055601054611bde9086906121d9565b4260146000611bec60105490565b815260208101919091526040016000205560105460408051868152602081018690526001600160a01b038816917f7cc860bef2fa56b3d46227731e60b3b6ce0af9627bfdfbeca273f9ea5dae8a18910160405180910390a35050505050565b600080611c57836111f1565b9050806001600160a01b0316846001600160a01b03161480611c9e57506001600160a01b0380821660009081526005602090815260408083209388168352929052205460ff165b80611cc25750836001600160a01b0316611cb7846108d4565b6001600160a01b0316145b949350505050565b826001600160a01b0316611cdd826111f1565b6001600160a01b031614611d415760405162461bcd60e51b815260206004820152602560248201527f4552433732313a207472616e736665722066726f6d20696e636f72726563742060448201526437bbb732b960d91b60648201526084016109c7565b6001600160a01b038216611da35760405162461bcd60e51b8152602060048201526024808201527f4552433732313a207472616e7366657220746f20746865207a65726f206164646044820152637265737360e01b60648201526084016109c7565b611dae8383836121f3565b611db96000826118d0565b6001600160a01b0383166000908152600360205260408120805460019290611de2908490612e6a565b90915550506001600160a01b0382166000908152600360205260408120805460019290611e10908490612e7d565b909155505060008181526002602052604080822080546001600160a01b0319166001600160a01b0386811691821790925591518493918716917fddf252ad1be2c89b69c2b068fc378daa952ba7f163c4a11628f55a4df523b3ef91a4610a68838383612260565b6000611e82826111f1565b9050611e90816000846121f3565b611e9b6000836118d0565b6001600160a01b0381166000908152600360205260408120805460019290611ec4908490612e6a565b909155505060008281526002602052604080822080546001600160a01b0319169055518391906001600160a01b038416907fddf252ad1be2c89b69c2b068fc378daa952ba7f163c4a11628f55a4df523b3ef908390a461129181600084612260565b600a80546001600160a01b038381166001600160a01b0319831681179093556040519116919082907f8be0079c531659141344cd1fd0a4f28419497f9722a3daafe3b4186f6b6457e090600090a35050565b816001600160a01b0316836001600160a01b031603611fd95760405162461bcd60e51b815260206004820152601960248201527f4552433732313a20617070726f766520746f2063616c6c65720000000000000060448201526064016109c7565b6001600160a01b03838116600081815260056020908152604080832094871680845294825291829020805460ff191686151590811790915591519182527f17307eab39ab6107e8899845ad3d59bd9653f200f220920489ca2b5937696c31910160405180910390a3505050565b612051848484611cca565b61205d848484846123e9565b6115135760405162461bcd60e51b81526004016109c79061316e565b60606011805461085190612ed1565b6060816000036120af5750506040805180820190915260018152600360fc1b602082015290565b8160005b81156120d957806120c3816130cc565b91506120d29050600a83612ebd565b91506120b3565b60008167ffffffffffffffff8111156120f4576120f4612a99565b6040519080825280601f01601f19166020018201604052801561211e576020820181803683370190505b5090505b8415611cc257612133600183612e6a565b9150612140600a866131c0565b61214b906030612e7d565b60f81b81838151811061216057612160612f0b565b60200101906001600160f81b031916908160001a905350612182600a86612ebd565b9450612122565b60006001600160e01b031982166380ac58cd60e01b14806121ba57506001600160e01b03198216635b5e139f60e01b145b8061075757506301ffc9a760e01b6001600160e01b0319831614610757565b6112918282604051806020016040528060008152506124ea565b6000818152600f602052604090205460ff16156122445760405162461bcd60e51b815260206004820152600f60248201526e189b1858dadb1a5cdd195908139195608a1b60448201526064016109c7565b6000818152601560205260409020429055610a6883838361251d565b6001600160a01b0383161561239a576000818152601360209081526040808320546001600160a01b03871684526012909252822080549192916122a590600190612e6a565b815481106122b5576122b5612f0b565b60009182526020808320909101546001600160a01b0388168352601290915260409091208054919250906122eb90600190612e6a565b815481106122fb576122fb612f0b565b906000526020600020015460126000876001600160a01b03166001600160a01b03168152602001908152602001600020838154811061233c5761233c612f0b565b60009182526020808320909101929092556001600160a01b038716815260129091526040902080548061237157612371612f21565b600082815260208082208301600019908101839055909201909255918152601390915260409020555b6001600160a01b03821615610a68576001600160a01b03919091166000908152601260208181526040808420805486865260138452918520829055928252600181018355918352909120015550565b60006001600160a01b0384163b156124df57604051630a85bd0160e11b81526001600160a01b0385169063150b7a029061242d9033908990889088906004016131d4565b6020604051808303816000875af1925050508015612468575060408051601f3d908101601f1916820190925261246591810190613211565b60015b6124c5573d808015612496576040519150601f19603f3d011682016040523d82523d6000602084013e61249b565b606091505b5080516000036124bd5760405162461bcd60e51b81526004016109c79061316e565b805181602001fd5b6001600160e01b031916630a85bd0160e11b149050611cc2565b506001949350505050565b6124f483836125d5565b61250160008484846123e9565b610a685760405162461bcd60e51b81526004016109c79061316e565b6001600160a01b0383166125785761257381600880546000838152600960205260408120829055600182018355919091527ff3f7a9fe364faab93b216da50a3214154f22a0a2b415b23a84c8169e8b636ee30155565b61259b565b816001600160a01b0316836001600160a01b03161461259b5761259b838261272b565b6001600160a01b0382166125b257610a68816127c8565b826001600160a01b0316826001600160a01b031614610a6857610a688282612877565b6001600160a01b03821661262b5760405162461bcd60e51b815260206004820181905260248201527f4552433732313a206d696e7420746f20746865207a65726f206164647265737360448201526064016109c7565b6000818152600260205260409020546001600160a01b0316156126905760405162461bcd60e51b815260206004820152601c60248201527f4552433732313a20746f6b656e20616c7265616479206d696e7465640000000060448201526064016109c7565b61269c600083836121f3565b6001600160a01b03821660009081526003602052604081208054600192906126c5908490612e7d565b909155505060008181526002602052604080822080546001600160a01b0319166001600160a01b03861690811790915590518392907fddf252ad1be2c89b69c2b068fc378daa952ba7f163c4a11628f55a4df523b3ef908290a461129160008383612260565b6000600161273884611295565b6127429190612e6a565b600083815260076020526040902054909150808214612795576001600160a01b03841660009081526006602090815260408083208584528252808320548484528184208190558352600790915290208190555b5060009182526007602090815260408084208490556001600160a01b039094168352600681528383209183525290812055565b6008546000906127da90600190612e6a565b6000838152600960205260408120546008805493945090928490811061280257612802612f0b565b90600052602060002001549050806008838154811061282357612823612f0b565b600091825260208083209091019290925582815260099091526040808220849055858252812055600880548061285b5761285b612f21565b6001900381819060005260206000200160009055905550505050565b600061288283611295565b6001600160a01b039093166000908152600660209081526040808320868452825280832085905593825260079052919091209190915550565b803561ffff811681146128cd57600080fd5b919050565b600080604083850312156128e557600080fd5b6128ee836128bb565b946020939093013593505050565b6001600160e01b03198116811461178357600080fd5b60006020828403121561292457600080fd5b813561292f816128fc565b9392505050565b60006020828403121561294857600080fd5b5035919050565b60005b8381101561296a578181015183820152602001612952565b50506000910152565b6000815180845261298b81602086016020860161294f565b601f01601f19169290920160200192915050565b60208152600061292f6020830184612973565b801515811461178357600080fd5b600080604083850312156129d357600080fd5b8235915060208301356129e5816129b2565b809150509250929050565b6001600160a01b038116811461178357600080fd5b60008060408385031215612a1857600080fd5b82356128ee816129f0565b600080600060608486031215612a3857600080fd5b8335612a43816129f0565b95602085013595506040909401359392505050565b600080600060608486031215612a6d57600080fd5b8335612a78816129f0565b92506020840135612a88816129f0565b929592945050506040919091013590565b634e487b7160e01b600052604160045260246000fd5b604051601f8201601f1916810167ffffffffffffffff81118282101715612ad857612ad8612a99565b604052919050565b600067ffffffffffffffff831115612afa57612afa612a99565b612b0d601f8401601f1916602001612aaf565b9050828152838383011115612b2157600080fd5b828260208301376000602084830101529392505050565b600060208284031215612b4a57600080fd5b813567ffffffffffffffff811115612b6157600080fd5b8201601f81018413612b7257600080fd5b611cc284823560208401612ae0565b600082601f830112612b9257600080fd5b8135602067ffffffffffffffff821115612bae57612bae612a99565b8160051b612bbd828201612aaf565b9283528481018201928281019087851115612bd757600080fd5b83870192505b84831015612bf657823582529183019190830190612bdd565b979650505050505050565b600060208284031215612c1357600080fd5b813567ffffffffffffffff811115612c2a57600080fd5b611cc284828501612b81565b600060208284031215612c4857600080fd5b813561292f816129f0565b60008060408385031215612c6657600080fd5b8235612c71816129f0565b915060208301356129e5816129f0565b602080825282518282018190526000919060409081850190868401855b82811015612cc7578151805161ffff168552860151868501529284019290850190600101612c9e565b5091979650505050505050565b60008060408385031215612ce757600080fd5b8235612cf2816129f0565b915060208301356129e5816129b2565b600080600060608486031215612d1757600080fd5b8335612d22816129f0565b9250602084013567ffffffffffffffff811115612d3e57600080fd5b612d4a86828701612b81565b925050604084013590509250925092565b60008060008060808587031215612d7157600080fd5b8435612d7c816129f0565b93506020850135612d8c816129f0565b925060408501359150606085013567ffffffffffffffff811115612daf57600080fd5b8501601f81018713612dc057600080fd5b612dcf87823560208401612ae0565b91505092959194509250565b600080600060608486031215612df057600080fd5b83359250612e00602085016128bb565b9150604084013590509250925092565b6020808252825182820181905260009190848201906040850190845b81811015612e4857835183529284019291840191600101612e2c565b50909695505050505050565b634e487b7160e01b600052601160045260246000fd5b8181038181111561075757610757612e54565b8082018082111561075757610757612e54565b808202811582820484141761075757610757612e54565b634e487b7160e01b600052601260045260246000fd5b600082612ecc57612ecc612ea7565b500490565b600181811c90821680612ee557607f821691505b602082108103612f0557634e487b7160e01b600052602260045260246000fd5b50919050565b634e487b7160e01b600052603260045260246000fd5b634e487b7160e01b600052603160045260246000fd5b6020808252602e908201527f4552433732313a2063616c6c6572206973206e6f7420746f6b656e206f776e6560408201526d1c881b9bdc88185c1c1c9bdd995960921b606082015260800190565b600060208284031215612f9757600080fd5b815161292f816129b2565b601f821115610a6857600081815260208120601f850160051c81016020861015612fc95750805b601f850160051c820191505b81811015612fe857828155600101612fd5565b505050505050565b815167ffffffffffffffff81111561300a5761300a612a99565b61301e816130188454612ed1565b84612fa2565b602080601f831160018114613053576000841561303b5750858301515b600019600386901b1c1916600185901b178555612fe8565b600085815260208120601f198616915b8281101561308257888601518255948401946001909101908401613063565b50858210156130a05787850151600019600388901b60f8161c191681555b5050505050600190811b01905550565b600082516130c281846020870161294f565b9190910192915050565b6000600182016130de576130de612e54565b5060010190565b6000602082840312156130f757600080fd5b5051919050565b6000835161311081846020880161294f565b83519083019061312481836020880161294f565b64173539b7b760d91b9101908152600501949350505050565b6000825161314f81846020870161294f565b6c31b7b73a3930b1ba173539b7b760991b920191825250600d01919050565b60208082526032908201527f4552433732313a207472616e7366657220746f206e6f6e20455243373231526560408201527131b2b4bb32b91034b6b83632b6b2b73a32b960711b606082015260800190565b6000826131cf576131cf612ea7565b500690565b6001600160a01b038581168252841660208201526040810183905260806060820181905260009061320790830184612973565b9695505050505050565b60006020828403121561322357600080fd5b815161292f816128fc56fea26469706673582212200f84e75dd472f9e338910cca2e1c234e2fd752a428100d20b9f3f48e038b208e64736f6c63430008110033a26469706673582212201695c4815dae240343409c3da45a4a805c07fe03687df9d449917346a09c87c064736f6c63430008110033",
  "devdoc": {
    "kind": "dev",
    "methods": {
      "constructor": {
        "custom:oz-upgrades-unsafe-allow": "constructor"
      },
      "owner()": {
        "details": "Returns the address of the current owner."
      },
      "renounceOwnership()": {
        "details": "Leaves the contract without owner. It will not be possible to call `onlyOwner` functions anymore. Can only be called by the current owner. NOTE: Renouncing ownership will leave the contract without an owner, thereby removing any functionality that is only available to the owner."
      },
      "transferOwnership(address)": {
        "details": "Transfers ownership of the contract to a new account (`newOwner`). Can only be called by the current owner."
      }
    },
    "version": 1
  },
  "userdoc": {
    "kind": "user",
    "methods": {},
    "version": 1
  },
  "storageLayout": {
    "storage": [
      {
        "astId": 126,
        "contract": "contracts/StakeVault.sol:StakeVault",
        "label": "_status",
        "offset": 0,
        "slot": "0",
        "type": "t_uint256"
      },
      {
        "astId": 7,
        "contract": "contracts/StakeVault.sol:StakeVault",
        "label": "_owner",
        "offset": 0,
        "slot": "1",
        "type": "t_address"
      }
    ],
    "types": {
      "t_address": {
        "encoding": "inplace",
        "label": "address",
        "numberOfBytes": "20"
      },
      "t_uint256": {
        "encoding": "inplace",
        "label": "uint256",
        "numberOfBytes": "32"
      }
    }
  }
}