{
  "address": "0xf07cF1B4602b765bD88e43B5012bdd3b73ad8601",
  "abi": [
    {
      "inputs": [
        {
          "internalType": "contract IStakeVault",
          "name": "_stakeVault",
          "type": "address"
        }
      ],
      "stateMutability": "nonpayable",
      "type": "constructor"
    },
    {
      "anonymous": false,
      "inputs": [
        {
          "indexed": true,
          "internalType": "uint16",
          "name": "apr",
          "type": "uint16"
        },
        {
          "indexed": false,
          "internalType": "uint256",
          "name": "lockTime",
          "type": "uint256"
        }
      ],
      "name": "AddAprLockOption",
      "type": "event"
    },
    {
      "anonymous": false,
      "inputs": [
        {
          "indexed": true,
          "internalType": "address",
          "name": "owner",
          "type": "address"
        },
        {
          "indexed": true,
          "internalType": "address",
          "name": "approved",
          "type": "address"
        },
        {
          "indexed": true,
          "internalType": "uint256",
          "name": "tokenId",
          "type": "uint256"
        }
      ],
      "name": "Approval",
      "type": "event"
    },
    {
      "anonymous": false,
      "inputs": [
        {
          "indexed": true,
          "internalType": "address",
          "name": "owner",
          "type": "address"
        },
        {
          "indexed": true,
          "internalType": "address",
          "name": "operator",
          "type": "address"
        },
        {
          "indexed": false,
          "internalType": "bool",
          "name": "approved",
          "type": "bool"
        }
      ],
      "name": "ApprovalForAll",
      "type": "event"
    },
    {
      "anonymous": false,
      "inputs": [
        {
          "indexed": true,
          "internalType": "address",
          "name": "user",
          "type": "address"
        },
        {
          "indexed": true,
          "internalType": "uint256",
          "name": "tokenId",
          "type": "uint256"
        },
        {
          "indexed": false,
          "internalType": "uint256",
          "name": "amountStaked",
          "type": "uint256"
        },
        {
          "indexed": false,
          "internalType": "uint256",
          "name": "lockOptionIndex",
          "type": "uint256"
        },
        {
          "indexed": false,
          "internalType": "bool",
          "name": "fromCompound",
          "type": "bool"
        },
        {
          "indexed": false,
          "internalType": "bool",
          "name": "isBonus",
          "type": "bool"
        }
      ],
      "name": "CreateStake",
      "type": "event"
    },
    {
      "anonymous": false,
      "inputs": [
        {
          "indexed": true,
          "internalType": "address",
          "name": "user",
          "type": "address"
        },
        {
          "indexed": false,
          "internalType": "uint256",
          "name": "amount",
          "type": "uint256"
        },
        {
          "indexed": false,
          "internalType": "uint256",
          "name": "lockIndex",
          "type": "uint256"
        }
      ],
      "name": "FreePositionBonus",
      "type": "event"
    },
    {
      "anonymous": false,
      "inputs": [
        {
          "indexed": false,
          "internalType": "uint8",
          "name": "version",
          "type": "uint8"
        }
      ],
      "name": "Initialized",
      "type": "event"
    },
    {
      "anonymous": false,
      "inputs": [
        {
          "indexed": true,
          "internalType": "address",
          "name": "previousOwner",
          "type": "address"
        },
        {
          "indexed": true,
          "internalType": "address",
          "name": "newOwner",
          "type": "address"
        }
      ],
      "name": "OwnershipTransferred",
      "type": "event"
    },
    {
      "anonymous": false,
      "inputs": [
        {
          "indexed": true,
          "internalType": "address",
          "name": "user",
          "type": "address"
        },
        {
          "indexed": false,
          "internalType": "uint256",
          "name": "bonusAmount",
          "type": "uint256"
        },
        {
          "indexed": false,
          "internalType": "uint256",
          "name": "bonusLockIndex",
          "type": "uint256"
        }
      ],
      "name": "ReferralBonusAwarded",
      "type": "event"
    },
    {
      "anonymous": false,
      "inputs": [
        {
          "indexed": true,
          "internalType": "uint256",
          "name": "index",
          "type": "uint256"
        },
        {
          "indexed": true,
          "internalType": "uint16",
          "name": "apr",
          "type": "uint16"
        },
        {
          "indexed": false,
          "internalType": "uint256",
          "name": "lockTime",
          "type": "uint256"
        }
      ],
      "name": "RemoveAprLockOption",
      "type": "event"
    },
    {
      "anonymous": false,
      "inputs": [
        {
          "indexed": true,
          "internalType": "uint256",
          "name": "newApr",
          "type": "uint256"
        }
      ],
      "name": "SetAnnualApr",
      "type": "event"
    },
    {
      "anonymous": false,
      "inputs": [
        {
          "indexed": true,
          "internalType": "string",
          "name": "newUri",
          "type": "string"
        }
      ],
      "name": "SetBaseTokenURI",
      "type": "event"
    },
    {
      "anonymous": false,
      "inputs": [
        {
          "indexed": true,
          "internalType": "uint256",
          "name": "bonusAmount",
          "type": "uint256"
        }
      ],
      "name": "SetBonusAmount",
      "type": "event"
    },
    {
      "anonymous": false,
      "inputs": [
        {
          "indexed": true,
          "internalType": "uint256",
          "name": "lockIndex",
          "type": "uint256"
        }
      ],
      "name": "SetBonusLockIndex",
      "type": "event"
    },
    {
      "anonymous": false,
      "inputs": [
        {
          "indexed": true,
          "internalType": "uint256",
          "name": "bonusMinAmount",
          "type": "uint256"
        }
      ],
      "name": "SetBonusMinAmount",
      "type": "event"
    },
    {
      "anonymous": false,
      "inputs": [
        {
          "indexed": true,
          "internalType": "uint256",
          "name": "capacity",
          "type": "uint256"
        }
      ],
      "name": "SetCapacity",
      "type": "event"
    },
    {
      "anonymous": false,
      "inputs": [
        {
          "indexed": true,
          "internalType": "uint256",
          "name": "tokenId",
          "type": "uint256"
        },
        {
          "indexed": false,
          "internalType": "bool",
          "name": "isBlacklisted",
          "type": "bool"
        }
      ],
      "name": "SetTokenBlacklist",
      "type": "event"
    },
    {
      "anonymous": false,
      "inputs": [
        {
          "indexed": true,
          "internalType": "address",
          "name": "from",
          "type": "address"
        },
        {
          "indexed": true,
          "internalType": "address",
          "name": "to",
          "type": "address"
        },
        {
          "indexed": true,
          "internalType": "uint256",
          "name": "tokenId",
          "type": "uint256"
        }
      ],
      "name": "Transfer",
      "type": "event"
    },
    {
      "anonymous": false,
      "inputs": [
        {
          "indexed": true,
          "internalType": "address",
          "name": "user",
          "type": "address"
        },
        {
          "indexed": true,
          "internalType": "uint256",
          "name": "tokenId",
          "type": "uint256"
        },
        {
          "indexed": false,
          "internalType": "bool",
          "name": "toCompound",
          "type": "bool"
        },
        {
          "indexed": false,
          "internalType": "bool",
          "name": "earlyUnstake",
          "type": "bool"
        },
        {
          "indexed": false,
          "internalType": "bool",
          "name": "refunded",
          "type": "bool"
        }
      ],
      "name": "UnstakeTokens",
      "type": "event"
    },
    {
      "anonymous": false,
      "inputs": [
        {
          "indexed": true,
          "internalType": "uint256",
          "name": "index",
          "type": "uint256"
        },
        {
          "indexed": true,
          "internalType": "uint16",
          "name": "oldApr",
          "type": "uint16"
        },
        {
          "indexed": false,
          "internalType": "uint256",
          "name": "oldLockTime",
          "type": "uint256"
        },
        {
          "indexed": false,
          "internalType": "uint16",
          "name": "newApr",
          "type": "uint16"
        },
        {
          "indexed": false,
          "internalType": "uint256",
          "name": "newLockTime",
          "type": "uint256"
        }
      ],
      "name": "UpdateAprLockOption",
      "type": "event"
    },
    {
      "inputs": [
        {
          "internalType": "uint16",
          "name": "_apr",
          "type": "uint16"
        },
        {
          "internalType": "uint256",
          "name": "_lockTime",
          "type": "uint256"
        }
      ],
      "name": "addAprLockOption",
      "outputs": [],
      "stateMutability": "nonpayable",
      "type": "function"
    },
    {
      "inputs": [
        {
          "internalType": "uint256",
          "name": "_tokenId",
          "type": "uint256"
        }
      ],
      "name": "adminRefundDeposit",
      "outputs": [],
      "stateMutability": "nonpayable",
      "type": "function"
    },
    {
      "inputs": [
        {
          "internalType": "address",
          "name": "",
          "type": "address"
        },
        {
          "internalType": "uint256",
          "name": "",
          "type": "uint256"
        }
      ],
      "name": "allUserOwned",
      "outputs": [
        {
          "internalType": "uint256",
          "name": "",
          "type": "uint256"
        }
      ],
      "stateMutability": "view",
      "type": "function"
    },
    {
      "inputs": [],
      "name": "amountStaked",
      "outputs": [
        {
          "internalType": "uint256",
          "name": "",
          "type": "uint256"
        }
      ],
      "stateMutability": "view",
      "type": "function"
    },
    {
      "inputs": [
        {
          "internalType": "address",
          "name": "to",
          "type": "address"
        },
        {
          "internalType": "uint256",
          "name": "tokenId",
          "type": "uint256"
        }
      ],
      "name": "approve",
      "outputs": [],
      "stateMutability": "nonpayable",
      "type": "function"
    },
    {
      "inputs": [
        {
          "internalType": "address",
          "name": "owner",
          "type": "address"
        }
      ],
      "name": "balanceOf",
      "outputs": [
        {
          "internalType": "uint256",
          "name": "",
          "type": "uint256"
        }
      ],
      "stateMutability": "view",
      "type": "function"
    },
    {
      "inputs": [],
      "name": "capacity",
      "outputs": [
        {
          "internalType": "uint256",
          "name": "",
          "type": "uint256"
        }
      ],
      "stateMutability": "view",
      "type": "function"
    },
    {
      "inputs": [
        {
          "internalType": "address",
          "name": "_user",
          "type": "address"
        },
        {
          "internalType": "uint256",
          "name": "_tokenId",
          "type": "uint256"
        },
        {
          "internalType": "uint256",
          "name": "_lockOptIndex",
          "type": "uint256"
        }
      ],
      "name": "claimAndCompound",
      "outputs": [],
      "stateMutability": "nonpayable",
      "type": "function"
    },
    {
      "inputs": [
        {
          "internalType": "address",
          "name": "_user",
          "type": "address"
        },
        {
          "internalType": "uint256[]",
          "name": "_tokenIds",
          "type": "uint256[]"
        },
        {
          "internalType": "uint256",
          "name": "_lockOptIndex",
          "type": "uint256"
        }
      ],
      "name": "claimAndCompoundMulti",
      "outputs": [],
      "stateMutability": "nonpayable",
      "type": "function"
    },
    {
      "inputs": [],
      "name": "contractURI",
      "outputs": [
        {
          "internalType": "string",
          "name": "",
          "type": "string"
        }
      ],
      "stateMutability": "view",
      "type": "function"
    },
    {
      "inputs": [],
      "name": "endTime",
      "outputs": [
        {
          "internalType": "uint256",
          "name": "",
          "type": "uint256"
        }
      ],
      "stateMutability": "view",
      "type": "function"
    },
    {
      "inputs": [
        {
          "internalType": "address",
          "name": "_user",
          "type": "address"
        },
        {
          "internalType": "uint256",
          "name": "_amount",
          "type": "uint256"
        },
        {
          "internalType": "uint256",
          "name": "_lockOptIndex",
          "type": "uint256"
        }
      ],
      "name": "freeStakeBonus",
      "outputs": [],
      "stateMutability": "nonpayable",
      "type": "function"
    },
    {
      "inputs": [],
      "name": "getAllLockOptions",
      "outputs": [
        {
          "components": [
            {
              "internalType": "uint16",
              "name": "apr",
              "type": "uint16"
            },
            {
              "internalType": "uint256",
              "name": "lockTime",
              "type": "uint256"
            }
          ],
          "internalType": "struct StakingPosition.AprLock[]",
          "name": "",
          "type": "tuple[]"
        }
      ],
      "stateMutability": "view",
      "type": "function"
    },
    {
      "inputs": [
        {
          "internalType": "address",
          "name": "_user",
          "type": "address"
        }
      ],
      "name": "getAllUserOwned",
      "outputs": [
        {
          "internalType": "uint256[]",
          "name": "",
          "type": "uint256[]"
        }
      ],
      "stateMutability": "view",
      "type": "function"
    },
    {
      "inputs": [
        {
          "internalType": "uint256",
          "name": "tokenId",
          "type": "uint256"
        }
      ],
      "name": "getApproved",
      "outputs": [
        {
          "internalType": "address",
          "name": "",
          "type": "address"
        }
      ],
      "stateMutability": "view",
      "type": "function"
    },
    {
      "inputs": [],
      "name": "getLastMintedTokenId",
      "outputs": [
        {
          "internalType": "uint256",
          "name": "",
          "type": "uint256"
        }
      ],
      "stateMutability": "view",
      "type": "function"
    },
    {
      "inputs": [
        {
          "internalType": "uint256",
          "name": "_tokenId",
          "type": "uint256"
        }
      ],
      "name": "getTotalEarnedAmount",
      "outputs": [
        {
          "internalType": "uint256",
          "name": "",
          "type": "uint256"
        }
      ],
      "stateMutability": "view",
      "type": "function"
    },
    {
      "inputs": [
        {
          "internalType": "uint256",
          "name": "_tokenId",
          "type": "uint256"
        }
      ],
      "name": "getTotalValueAtMaturity",
      "outputs": [
        {
          "internalType": "uint256",
          "name": "",
          "type": "uint256"
        }
      ],
      "stateMutability": "view",
      "type": "function"
    },
    {
      "inputs": [
        {
          "internalType": "uint256",
          "name": "_tokenId",
          "type": "uint256"
        }
      ],
      "name": "getTotalYieldAtMaturity",
      "outputs": [
        {
          "internalType": "uint256",
          "name": "",
          "type": "uint256"
        }
      ],
      "stateMutability": "view",
      "type": "function"
    },
    {
      "inputs": [
        {
          "internalType": "contract IERC20",
          "name": "_token",
          "type": "address"
        },
        {
          "internalType": "address",
          "name": "_to",
          "type": "address"
        }
      ],
      "name": "governanceRecoverUnsupported",
      "outputs": [],
      "stateMutability": "nonpayable",
      "type": "function"
    },
    {
      "inputs": [
        {
          "internalType": "address",
          "name": "_user",
          "type": "address"
        }
      ],
      "name": "hasReceivedBonus",
      "outputs": [
        {
          "internalType": "bool",
          "name": "_receivedBonus",
          "type": "bool"
        }
      ],
      "stateMutability": "view",
      "type": "function"
    },
    {
      "inputs": [
        {
          "internalType": "uint256",
          "name": "_amount",
          "type": "uint256"
        }
      ],
      "name": "initialBonus",
      "outputs": [],
      "stateMutability": "nonpayable",
      "type": "function"
    },
    {
      "inputs": [
        {
          "internalType": "string",
          "name": "_name",
          "type": "string"
        },
        {
          "internalType": "string",
          "name": "_symbol",
          "type": "string"
        },
        {
          "internalType": "address",
          "name": "_stakeToken",
          "type": "address"
        },
        {
          "internalType": "string",
          "name": "_baseTokenURI",
          "type": "string"
        },
        {
          "internalType": "uint256",
          "name": "_referralBonusAmount",
          "type": "uint256"
        },
        {
          "internalType": "uint256",
          "name": "_referralMinAmount",
          "type": "uint256"
        }
      ],
      "name": "initialize",
      "outputs": [],
      "stateMutability": "nonpayable",
      "type": "function"
    },
    {
      "inputs": [
        {
          "internalType": "address",
          "name": "owner",
          "type": "address"
        },
        {
          "internalType": "address",
          "name": "operator",
          "type": "address"
        }
      ],
      "name": "isApprovedForAll",
      "outputs": [
        {
          "internalType": "bool",
          "name": "",
          "type": "bool"
        }
      ],
      "stateMutability": "view",
      "type": "function"
    },
    {
      "inputs": [
        {
          "internalType": "uint256",
          "name": "",
          "type": "uint256"
        }
      ],
      "name": "isBlacklisted",
      "outputs": [
        {
          "internalType": "bool",
          "name": "",
          "type": "bool"
        }
      ],
      "stateMutability": "view",
      "type": "function"
    },
    {
      "inputs": [
        {
          "internalType": "uint256",
          "name": "_tokenId",
          "type": "uint256"
        }
      ],
      "name": "isTokenMinted",
      "outputs": [
        {
          "internalType": "bool",
          "name": "",
          "type": "bool"
        }
      ],
      "stateMutability": "view",
      "type": "function"
    },
    {
      "inputs": [],
      "name": "masterContract",
      "outputs": [
        {
          "internalType": "contract StakingPosition",
          "name": "",
          "type": "address"
        }
      ],
      "stateMutability": "view",
      "type": "function"
    },
    {
      "inputs": [],
      "name": "name",
      "outputs": [
        {
          "internalType": "string",
          "name": "",
          "type": "string"
        }
      ],
      "stateMutability": "view",
      "type": "function"
    },
    {
      "inputs": [
        {
          "internalType": "uint256",
          "name": "",
          "type": "uint256"
        }
      ],
      "name": "ownedIndex",
      "outputs": [
        {
          "internalType": "uint256",
          "name": "",
          "type": "uint256"
        }
      ],
      "stateMutability": "view",
      "type": "function"
    },
    {
      "inputs": [],
      "name": "owner",
      "outputs": [
        {
          "internalType": "address",
          "name": "",
          "type": "address"
        }
      ],
      "stateMutability": "view",
      "type": "function"
    },
    {
      "inputs": [
        {
          "internalType": "uint256",
          "name": "tokenId",
          "type": "uint256"
        }
      ],
      "name": "ownerOf",
      "outputs": [
        {
          "internalType": "address",
          "name": "",
          "type": "address"
        }
      ],
      "stateMutability": "view",
      "type": "function"
    },
    {
      "inputs": [],
      "name": "referralBonusAmount",
      "outputs": [
        {
          "internalType": "uint256",
          "name": "",
          "type": "uint256"
        }
      ],
      "stateMutability": "view",
      "type": "function"
    },
    {
      "inputs": [],
      "name": "referralBonusLockIndex",
      "outputs": [
        {
          "internalType": "uint256",
          "name": "",
          "type": "uint256"
        }
      ],
      "stateMutability": "view",
      "type": "function"
    },
    {
      "inputs": [],
      "name": "referralMinAmount",
      "outputs": [
        {
          "internalType": "uint256",
          "name": "",
          "type": "uint256"
        }
      ],
      "stateMutability": "view",
      "type": "function"
    },
    {
      "inputs": [
        {
          "internalType": "uint256",
          "name": "_index",
          "type": "uint256"
        }
      ],
      "name": "removeAprLockOption",
      "outputs": [],
      "stateMutability": "nonpayable",
      "type": "function"
    },
    {
      "inputs": [],
      "name": "renounceOwnership",
      "outputs": [],
      "stateMutability": "nonpayable",
      "type": "function"
    },
    {
      "inputs": [
        {
          "internalType": "address",
          "name": "from",
          "type": "address"
        },
        {
          "internalType": "address",
          "name": "to",
          "type": "address"
        },
        {
          "internalType": "uint256",
          "name": "tokenId",
          "type": "uint256"
        }
      ],
      "name": "safeTransferFrom",
      "outputs": [],
      "stateMutability": "nonpayable",
      "type": "function"
    },
    {
      "inputs": [
        {
          "internalType": "address",
          "name": "from",
          "type": "address"
        },
        {
          "internalType": "address",
          "name": "to",
          "type": "address"
        },
        {
          "internalType": "uint256",
          "name": "tokenId",
          "type": "uint256"
        },
        {
          "internalType": "bytes",
          "name": "data",
          "type": "bytes"
        }
      ],
      "name": "safeTransferFrom",
      "outputs": [],
      "stateMutability": "nonpayable",
      "type": "function"
    },
    {
      "inputs": [
        {
          "internalType": "address",
          "name": "operator",
          "type": "address"
        },
        {
          "internalType": "bool",
          "name": "approved",
          "type": "bool"
        }
      ],
      "name": "setApprovalForAll",
      "outputs": [],
      "stateMutability": "nonpayable",
      "type": "function"
    },
    {
      "inputs": [
        {
          "internalType": "string",
          "name": "_uri",
          "type": "string"
        }
      ],
      "name": "setBaseURI",
      "outputs": [],
      "stateMutability": "nonpayable",
      "type": "function"
    },
    {
      "inputs": [
        {
          "internalType": "uint256",
          "name": "_bonusAmount",
          "type": "uint256"
        }
      ],
      "name": "setBonusAmount",
      "outputs": [],
      "stateMutability": "nonpayable",
      "type": "function"
    },
    {
      "inputs": [
        {
          "internalType": "uint256",
          "name": "_lockIndex",
          "type": "uint256"
        }
      ],
      "name": "setBonusLockIndex",
      "outputs": [],
      "stateMutability": "nonpayable",
      "type": "function"
    },
    {
      "inputs": [
        {
          "internalType": "uint256",
          "name": "_bonusMinAmount",
          "type": "uint256"
        }
      ],
      "name": "setBonusMinAmount",
      "outputs": [],
      "stateMutability": "nonpayable",
      "type": "function"
    },
    {
      "inputs": [
        {
          "internalType": "uint256",
          "name": "_capacity",
          "type": "uint256"
        }
      ],
      "name": "setCapacity",
      "outputs": [],
      "stateMutability": "nonpayable",
      "type": "function"
    },
    {
      "inputs": [
        {
          "internalType": "uint256",
          "name": "_tokenId",
          "type": "uint256"
        },
        {
          "internalType": "bool",
          "name": "_isBlacklisted",
          "type": "bool"
        }
      ],
      "name": "setIsBlacklisted",
      "outputs": [],
      "stateMutability": "nonpayable",
      "type": "function"
    },
    {
      "inputs": [
        {
          "internalType": "uint256",
          "name": "_amount",
          "type": "uint256"
        },
        {
          "internalType": "uint256",
          "name": "_lockOptIndex",
          "type": "uint256"
        }
      ],
      "name": "stake",
      "outputs": [],
      "stateMutability": "nonpayable",
      "type": "function"
    },
    {
      "inputs": [],
      "name": "stakeToken",
      "outputs": [
        {
          "internalType": "contract IERC20",
          "name": "",
          "type": "address"
        }
      ],
      "stateMutability": "view",
      "type": "function"
    },
    {
      "inputs": [
        {
          "internalType": "uint256",
          "name": "_amount",
          "type": "uint256"
        },
        {
          "internalType": "uint256",
          "name": "_lockOptIndex",
          "type": "uint256"
        },
        {
          "internalType": "address",
          "name": "_referrer",
          "type": "address"
        }
      ],
      "name": "stakeWithReferral",
      "outputs": [],
      "stateMutability": "nonpayable",
      "type": "function"
    },
    {
      "inputs": [
        {
          "internalType": "uint256",
          "name": "",
          "type": "uint256"
        }
      ],
      "name": "stakes",
      "outputs": [
        {
          "internalType": "uint256",
          "name": "created",
          "type": "uint256"
        },
        {
          "internalType": "uint256",
          "name": "amountStaked",
          "type": "uint256"
        },
        {
          "internalType": "uint16",
          "name": "apr",
          "type": "uint16"
        },
        {
          "internalType": "uint256",
          "name": "lockTime",
          "type": "uint256"
        },
        {
          "internalType": "bool",
          "name": "allowWithdrawEarly",
          "type": "bool"
        },
        {
          "internalType": "bool",
          "name": "assetTransferred",
          "type": "bool"
        },
        {
          "internalType": "bool",
          "name": "isBonusPosition",
          "type": "bool"
        }
      ],
      "stateMutability": "view",
      "type": "function"
    },
    {
      "inputs": [
        {
          "internalType": "bytes4",
          "name": "_interfaceId",
          "type": "bytes4"
        }
      ],
      "name": "supportsInterface",
      "outputs": [
        {
          "internalType": "bool",
          "name": "",
          "type": "bool"
        }
      ],
      "stateMutability": "view",
      "type": "function"
    },
    {
      "inputs": [],
      "name": "symbol",
      "outputs": [
        {
          "internalType": "string",
          "name": "",
          "type": "string"
        }
      ],
      "stateMutability": "view",
      "type": "function"
    },
    {
      "inputs": [
        {
          "internalType": "uint256",
          "name": "index",
          "type": "uint256"
        }
      ],
      "name": "tokenByIndex",
      "outputs": [
        {
          "internalType": "uint256",
          "name": "",
          "type": "uint256"
        }
      ],
      "stateMutability": "view",
      "type": "function"
    },
    {
      "inputs": [
        {
          "internalType": "uint256",
          "name": "",
          "type": "uint256"
        }
      ],
      "name": "tokenLastTransferred",
      "outputs": [
        {
          "internalType": "uint256",
          "name": "",
          "type": "uint256"
        }
      ],
      "stateMutability": "view",
      "type": "function"
    },
    {
      "inputs": [
        {
          "internalType": "uint256",
          "name": "",
          "type": "uint256"
        }
      ],
      "name": "tokenMintedAt",
      "outputs": [
        {
          "internalType": "uint256",
          "name": "",
          "type": "uint256"
        }
      ],
      "stateMutability": "view",
      "type": "function"
    },
    {
      "inputs": [
        {
          "internalType": "address",
          "name": "owner",
          "type": "address"
        },
        {
          "internalType": "uint256",
          "name": "index",
          "type": "uint256"
        }
      ],
      "name": "tokenOfOwnerByIndex",
      "outputs": [
        {
          "internalType": "uint256",
          "name": "",
          "type": "uint256"
        }
      ],
      "stateMutability": "view",
      "type": "function"
    },
    {
      "inputs": [
        {
          "internalType": "uint256",
          "name": "_tokenId",
          "type": "uint256"
        }
      ],
      "name": "tokenURI",
      "outputs": [
        {
          "internalType": "string",
          "name": "",
          "type": "string"
        }
      ],
      "stateMutability": "view",
      "type": "function"
    },
    {
      "inputs": [],
      "name": "totalSupply",
      "outputs": [
        {
          "internalType": "uint256",
          "name": "",
          "type": "uint256"
        }
      ],
      "stateMutability": "view",
      "type": "function"
    },
    {
      "inputs": [],
      "name": "totalYieldAtMaturity",
      "outputs": [
        {
          "internalType": "uint256",
          "name": "",
          "type": "uint256"
        }
      ],
      "stateMutability": "view",
      "type": "function"
    },
    {
      "inputs": [
        {
          "internalType": "address",
          "name": "from",
          "type": "address"
        },
        {
          "internalType": "address",
          "name": "to",
          "type": "address"
        },
        {
          "internalType": "uint256",
          "name": "tokenId",
          "type": "uint256"
        }
      ],
      "name": "transferFrom",
      "outputs": [],
      "stateMutability": "nonpayable",
      "type": "function"
    },
    {
      "inputs": [
        {
          "internalType": "address",
          "name": "newOwner",
          "type": "address"
        }
      ],
      "name": "transferOwnership",
      "outputs": [],
      "stateMutability": "nonpayable",
      "type": "function"
    },
    {
      "inputs": [
        {
          "internalType": "uint256",
          "name": "_index",
          "type": "uint256"
        },
        {
          "internalType": "uint16",
          "name": "_apr",
          "type": "uint16"
        },
        {
          "internalType": "uint256",
          "name": "_lockTime",
          "type": "uint256"
        }
      ],
      "name": "updateAprLockOption",
      "outputs": [],
      "stateMutability": "nonpayable",
      "type": "function"
    },
    {
      "inputs": [
        {
          "internalType": "address",
          "name": "_user",
          "type": "address"
        }
      ],
      "name": "usersBonus",
      "outputs": [
        {
          "internalType": "address",
          "name": "",
          "type": "address"
        },
        {
          "internalType": "uint256",
          "name": "",
          "type": "uint256"
        },
        {
          "internalType": "uint256",
          "name": "",
          "type": "uint256"
        },
        {
          "internalType": "uint256",
          "name": "",
          "type": "uint256"
        },
        {
          "internalType": "bool",
          "name": "",
          "type": "bool"
        }
      ],
      "stateMutability": "view",
      "type": "function"
    },
    {
      "inputs": [],
      "name": "vault",
      "outputs": [
        {
          "internalType": "contract IStakeVault",
          "name": "",
          "type": "address"
        }
      ],
      "stateMutability": "view",
      "type": "function"
    },
    {
      "inputs": [
        {
          "internalType": "uint256",
          "name": "_tokenId",
          "type": "uint256"
        },
        {
          "internalType": "bool",
          "name": "_isEarlyWithdraw",
          "type": "bool"
        }
      ],
      "name": "withdraw",
      "outputs": [],
      "stateMutability": "nonpayable",
      "type": "function"
    },
    {
      "inputs": [
        {
          "internalType": "uint256[]",
          "name": "_tokenIds",
          "type": "uint256[]"
        },
        {
          "internalType": "bool",
          "name": "isWithdrawEarly",
          "type": "bool"
        }
      ],
      "name": "withdrawMulti",
      "outputs": [],
      "stateMutability": "nonpayable",
      "type": "function"
    }
  ],
  "transactionHash": "0x7dd3c35b47e29d63063b8e015a583fed1593026e6ae1ccf58aaa21430cbbd228",
  "args": [
    "0x05bB64486d64a7455c3c6Df3DfC1426ed598D28f"
  ],
  "numDeployments": 1,
  "solcInputHash": "95cabe7333ec62b6f237d7a72a4f8d8c",
  "bytecode": "0x60c06040523480156200001157600080fd5b5060405162005c4f38038062005c4f833981016040819052620000349162000118565b6001600160a01b0381166080523060a0526200004f62000056565b506200014a565b600054610100900460ff1615620000c35760405162461bcd60e51b815260206004820152602760248201527f496e697469616c697a61626c653a20636f6e747261637420697320696e697469604482015266616c697a696e6760c81b606482015260840160405180910390fd5b60005460ff908116101562000116576000805460ff191660ff9081179091556040519081527f7f26b83ff96e1f2b6a682f133852f6798a09c465da95921460cefb38474024989060200160405180910390a15b565b6000602082840312156200012b57600080fd5b81516001600160a01b03811681146200014357600080fd5b9392505050565b60805160a0516159ce6200028160003960006107bb01526000818161098d015281816109d101528181610a0d01528181610d6001528181610d9c015281816110000152818161103c015281816113030152818161133f015281816117fb0152818161191001528181611a2f01528181611b2601528181611eec01528181611f28015281816121eb015281816122270152818161236c015281816123a8015281816124a9015281816124e5015281816125f501528181612631015281816129c601528181612a5d01528181612bad01528181612d5901528181612d9501528181612efc01528181612fb201528181612fee015281816130f7015281816131d30152818161320f015281816134130152818161344f015281816139ca01528181613de20152818161452001526145f201526159ce6000f3fe608060405234801561001057600080fd5b50600436106103db5760003560e01c80637974e46a1161020a578063b88d4fde11610125578063e92f6a15116100b8578063f2fde38b11610087578063f2fde38b14610961578063f9de8c0a14610974578063fab1e7471461097e578063fbfa77cf14610988578063ffa80136146109af57600080fd5b8063e92f6a15146108ec578063e985e9c5146108ff578063ed44e5691461093b578063eeb90ba91461094e57600080fd5b8063d1c6b0ca116100f4578063d1c6b0ca146107f0578063d5a44f8614610803578063dd0fb0881461089d578063e8a3d485146108e457600080fd5b8063b88d4fde14610790578063c87b56dd146107a3578063cd446e22146107b6578063d17b9e77146107dd57600080fd5b806399bbbbac1161019d578063ad63db3d1161016c578063ad63db3d1461073f578063afd50d8f14610749578063b275d0b71461076a578063b4f0c8301461077d57600080fd5b806399bbbbac146106f1578063a22cb46514610706578063a49991f314610719578063a6bba7671461072c57600080fd5b806390e78328116101d957806390e78328146106b057806391915ef8146106c357806395d89b41146106d657806397d3b573146106de57600080fd5b80637974e46a146106715780637b0472f0146106795780638da5cb5b1461068c5780638f96a7cb1461069d57600080fd5b806338d07436116102fa5780635cfc1a511161028d57806370a082311161025c57806370a0823114610622578063715018a61461063557806376772cf81461063d5780637869684c1461065e57600080fd5b80635cfc1a51146105e85780636305b715146105f25780636352211e146105fc57806364ed320d1461060f57600080fd5b80634752f9ef116102c95780634752f9ef1461058c5780634f6ccce7146105af57806351ed6a30146105c257806355f804b3146105d557600080fd5b806338d074361461054057806338f57ff31461055357806342842e0e146105665780634670dd2d1461057957600080fd5b806318160ddd11610372578063274de61e11610341578063274de61e146104ef5780632f745c59146105105780633197cbb6146105235780633649c4791461052d57600080fd5b806318160ddd146104ae57806320e3fa50146104b65780632374346c146104c957806323b872dd146104dc57600080fd5b806306fdde03116103ae57806306fdde0314610448578063081812fc1461045d57806308b7424514610488578063095ea7b31461049b57600080fd5b806301ede8dc146103e057806301ffc9a7146103f557806303b5ffc31461041d57806304ece58314610435575b600080fd5b6103f36103ee366004614d34565b6109cf565b005b610408610403366004614d74565b610bac565b60405190151581526020015b60405180910390f35b6104276101065481565b604051908152602001610414565b610427610443366004614d91565b610bbd565b610450610ca5565b6040516104149190614dfa565b61047061046b366004614d91565b610d37565b6040516001600160a01b039091168152602001610414565b6103f3610496366004614e1b565b610d5e565b6103f36104a9366004614e60565b610eb7565b609954610427565b6104276104c4366004614e60565b610fcc565b6103f36104d7366004614d91565b610ffe565b6103f36104ea366004614e7e565b61123a565b6104276104fd366004614d91565b6101026020526000908152604090205481565b61042761051e366004614e60565b61126b565b6104276101095481565b6103f361053b366004614f7e565b611301565b6103f361054e366004614e1b565b611572565b6103f361056136600461502d565b6119cc565b6103f3610574366004614e7e565b611c85565b6103f3610587366004615066565b611ca0565b61040861059a366004614d91565b60fe6020526000908152604090205460ff1681565b6104276105bd366004614d91565b611e57565b60fb54610470906001600160a01b031681565b6103f36105e336600461509b565b611eea565b6104276101085481565b6104276101055481565b61047061060a366004614d91565b612042565b61042761061d366004614d91565b6120a2565b6104276106303660046150d0565b61214f565b6103f36121d5565b61042761064b366004614d91565b6101036020526000908152604090205481565b6103f361066c366004614d91565b6121e9565b610427612326565b6103f36106873660046150ed565b612336565b60c9546001600160a01b0316610470565b6104086106ab366004614d91565b61234b565b6103f36106be366004614d91565b61236a565b6103f36106d1366004614d91565b6124a7565b6104506125e4565b6103f36106ec36600461510f565b6125f3565b6106f9612829565b604051610414919061513d565b6103f3610714366004615190565b612899565b610427610727366004614d91565b6128a4565b6103f361073a36600461523e565b612959565b61042761010b5481565b610427610757366004614d91565b6101046020526000908152604090205481565b6103f3610778366004614d91565b6129a1565b61040861078b3660046150d0565b612c7a565b6103f361079e366004615297565b612c8f565b6104506107b1366004614d91565b612cc1565b6104707f000000000000000000000000000000000000000000000000000000000000000081565b6103f36107eb366004614d91565b612d57565b6103f36107fe366004614d91565b612fb0565b61085b610811366004614d91565b60fd60205260009081526040902080546001820154600283015460038401546004909401549293919261ffff909116919060ff808216916101008104821691620100009091041687565b60408051978852602088019690965261ffff9094169486019490945260608501919091521515608084015290151560a0830152151560c082015260e001610414565b6108b06108ab3660046150d0565b6130ed565b604080516001600160a01b03909616865260208601949094529284019190915260608301521515608082015260a001610414565b6104506131a3565b6103f36108fa366004615317565b6131d1565b61040861090d36600461510f565b6001600160a01b039182166000908152606a6020908152604080832093909416825291909152205460ff1690565b6103f361094936600461534c565b6133d0565b6103f361095c366004615066565b613411565b6103f361096f3660046150d0565b613574565b6104276101075481565b61042761010a5481565b6104707f000000000000000000000000000000000000000000000000000000000000000081565b6109c26109bd3660046150d0565b6135ed565b6040516104149190615393565b7f00000000000000000000000000000000000000000000000000000000000000006001600160a01b0316331480610a985750336001600160a01b03167f00000000000000000000000000000000000000000000000000000000000000006001600160a01b031663f851a4406040518163ffffffff1660e01b8152600401602060405180830381865afa158015610a69573d6000803e3d6000fd5b505050506040513d601f19601f82011682018060405250810190610a8d91906153d7565b6001600160a01b0316145b80610abc575033610ab160c9546001600160a01b031690565b6001600160a01b0316145b610ae15760405162461bcd60e51b8152600401610ad8906153f4565b60405180910390fd5b6040805180820190915261ffff80841682526020820183815260fc805460018101825560009190915292517f371f36870d18f32a11fea0f144b021c8b407bb50f8e0267c711123f454b963c06002909402938401805461ffff19169190931617909155517f371f36870d18f32a11fea0f144b021c8b407bb50f8e0267c711123f454b963c1909101558161ffff167fe01fdf33dfdfd42d6dc9b85e62d6750214967dddff00304f34c3fed1939bde0b82604051610ba091815260200190565b60405180910390a25050565b6000610bb78261365a565b92915050565b600081815260fd60209081526040808320815160e0810183528154808252600183015494820194909452600282015461ffff1692810192909252600381015460608301526004015460ff8082161515608084015261010082048116151560a08401526201000090910416151560c0820152908290610c3b904261542a565b905060008260600151821115610c5657506060820151610c59565b50805b6301e1338061271061ffff1682856040015161ffff168660200151610c7e919061543d565b610c88919061543d565b610c929190615454565b610c9c9190615454565b95945050505050565b606060658054610cb490615476565b80601f0160208091040260200160405190810160405280929190818152602001828054610ce090615476565b8015610d2d5780601f10610d0257610100808354040283529160200191610d2d565b820191906000526020600020905b815481529060010190602001808311610d1057829003601f168201915b5050505050905090565b6000610d428261367f565b506000908152606960205260409020546001600160a01b031690565b7f00000000000000000000000000000000000000000000000000000000000000006001600160a01b0316331480610e275750336001600160a01b03167f00000000000000000000000000000000000000000000000000000000000000006001600160a01b031663f851a4406040518163ffffffff1660e01b8152600401602060405180830381865afa158015610df8573d6000803e3d6000fd5b505050506040513d601f19601f82011682018060405250810190610e1c91906153d7565b6001600160a01b0316145b80610e4b575033610e4060c9546001600160a01b031690565b6001600160a01b0316145b610e675760405162461bcd60e51b8152600401610ad8906153f4565b600082815260fe6020908152604091829020805460ff1916841515908117909155915191825283917fd07a67329d87579b1994579e69a7e1df196e41e2c912c37b7b9d80ef0030238d9101610ba0565b6000610ec282612042565b9050806001600160a01b0316836001600160a01b031603610f2f5760405162461bcd60e51b815260206004820152602160248201527f4552433732313a20617070726f76616c20746f2063757272656e74206f776e656044820152603960f91b6064820152608401610ad8565b336001600160a01b0382161480610f4b5750610f4b813361090d565b610fbd5760405162461bcd60e51b815260206004820152603d60248201527f4552433732313a20617070726f76652063616c6c6572206973206e6f7420746f60448201527f6b656e206f776e6572206f7220617070726f76656420666f7220616c6c0000006064820152608401610ad8565b610fc783836136de565b505050565b6101016020528160005260406000208181548110610fe957600080fd5b90600052602060002001600091509150505481565b7f00000000000000000000000000000000000000000000000000000000000000006001600160a01b03163314806110c75750336001600160a01b03167f00000000000000000000000000000000000000000000000000000000000000006001600160a01b031663f851a4406040518163ffffffff1660e01b8152600401602060405180830381865afa158015611098573d6000803e3d6000fd5b505050506040513d601f19601f820116820180604052508101906110bc91906153d7565b6001600160a01b0316145b806110eb5750336110e060c9546001600160a01b031690565b6001600160a01b0316145b6111075760405162461bcd60e51b8152600401610ad8906153f4565b600060fc828154811061111c5761111c6154b0565b600091825260209182902060408051808201909152600290920201805461ffff1682526001908101549282019290925260fc80549193509161115d9161542a565b8154811061116d5761116d6154b0565b906000526020600020906002020160fc838154811061118e5761118e6154b0565b600091825260209091208254600290920201805461ffff191661ffff90921691909117815560019182015491015560fc8054806111cd576111cd6154c6565b6000828152602080822060026000199490940193840201805461ffff1916815560010191909155915581518282015160405190815261ffff9091169184917f31c7ae07732186951f28c3aa4b019b67ff0b121028ec0baa0127467a57d3d340910160405180910390a35050565b611244338261374c565b6112605760405162461bcd60e51b8152600401610ad8906154dc565b610fc78383836137cb565b60006112768361214f565b82106112d85760405162461bcd60e51b815260206004820152602b60248201527f455243373231456e756d657261626c653a206f776e657220696e646578206f7560448201526a74206f6620626f756e647360a81b6064820152608401610ad8565b506001600160a01b03919091166000908152609760209081526040808320938352929052205490565b7f00000000000000000000000000000000000000000000000000000000000000006001600160a01b03163314806113ca5750336001600160a01b03167f00000000000000000000000000000000000000000000000000000000000000006001600160a01b031663f851a4406040518163ffffffff1660e01b8152600401602060405180830381865afa15801561139b573d6000803e3d6000fd5b505050506040513d601f19601f820116820180604052508101906113bf91906153d7565b6001600160a01b0316145b806113ee5750336113e360c9546001600160a01b031690565b6001600160a01b0316145b61140a5760405162461bcd60e51b8152600401610ad8906153f4565b600054610100900460ff161580801561142a5750600054600160ff909116105b806114445750303b158015611444575060005460ff166001145b6114a75760405162461bcd60e51b815260206004820152602e60248201527f496e697469616c697a61626c653a20636f6e747261637420697320616c72656160448201526d191e481a5b9a5d1a585b1a5e995960921b6064820152608401610ad8565b6000805460ff1916600117905580156114ca576000805461ff0019166101001790555b6114d48787613944565b6114dc613975565b60fb80546001600160a01b0319166001600160a01b0387161790556101006115048582615577565b506000610108819055610109556101058390556101068290556001610107558015611569576000805461ff0019169055604051600181527f7f26b83ff96e1f2b6a682f133852f6798a09c465da95921460cefb38474024989060200160405180910390a15b50505050505050565b600082815260fd6020908152604091829020825160e08101845281548152600182015492810192909252600281015461ffff16928201929092526003820154606082015260049091015460ff8082161515608084015261010082048116151560a08401526201000090910416151560c082015233906115f084612042565b6001600160a01b0316826001600160a01b0316146116685760405162461bcd60e51b815260206004820152602f60248201527f6f6e6c7920746865206f776e6572206f6620746865207374616b656420746f6b60448201526e656e732063616e20756e7374616b6560881b6064820152608401610ad8565b8060c00151156116ff5761167b826139a4565b6116ff5760405162461bcd60e51b815260206004820152604960248201527f4e6f7420656c696769626c6520746f20636c61696d20626f6e757320706f736960448201527f74696f6e2e2020456e73757265206164657175617465206465706f736974732060648201526877657265206d61646560b81b608482015260a401610ad8565b6060810151815160009161171291615637565b4210905080156118e35781608001516117865760405162461bcd60e51b815260206004820152603060248201527f5468697320706f736974696f6e206973206e6f7420656c696769626c6520666f60448201526f72206561726c7920776974686472617760801b6064820152608401610ad8565b836117f95760405162461bcd60e51b815260206004820152603960248201527f4d7573742061636b6e6f776c6564676520746865206561726c7920776974686460448201527f7261772064756520746f206c6f7373206f6620746f6b656e73000000000000006064820152608401610ad8565b7f00000000000000000000000000000000000000000000000000000000000000006001600160a01b031663f8d155e08460fb60009054906101000a90046001600160a01b0316600286602001516118509190615454565b60006040518563ffffffff1660e01b8152600401611871949392919061564a565b600060405180830381600087803b15801561188b57600080fd5b505af115801561189f573d6000803e3d6000fd5b5050604080516000808252600160208301528183015290518893506001600160a01b03871692506000805160206159798339815191529181900360600190a36119bc565b60006118ee86610bbd565b60fb5460208501516040516307c68aaf60e51b81529293506001600160a01b037f000000000000000000000000000000000000000000000000000000000000000081169363f8d155e09361194d938a939190911691879060040161564a565b600060405180830381600087803b15801561196757600080fd5b505af115801561197b573d6000803e3d6000fd5b5050604080516000808252602082018190528183015290518993506001600160a01b03881692506000805160206159798339815191529181900360600190a3505b6119c585613a67565b5050505050565b61010654831015611a1f5760405162461bcd60e51b815260206004820152601860248201527f4d757374207374616b65206c617267657220616d6f756e7400000000000000006044820152606401610ad8565b6000808080806001600160a01b037f00000000000000000000000000000000000000000000000000000000000000001663dd0fb088336040516001600160e01b031960e084901b1681526001600160a01b03909116600482015260240160a060405180830381865afa158015611a99573d6000803e3d6000fd5b505050506040513d601f19601f82011682018060405250810190611abd9190615673565b9398509196509450925090508015611b175760405162461bcd60e51b815260206004820152601d60248201527f5573657220616c7265616479207265636569766564206120626f6e75730000006044820152606401610ad8565b6040516353b5f30560e01b81527f00000000000000000000000000000000000000000000000000000000000000006001600160a01b0316906353b5f30590611b6e90339089908990899089906001906004016156cb565b600060405180830381600087803b158015611b8857600080fd5b505af1158015611b9c573d6000803e3d6000fd5b50505050611bb233898960016000806000613b14565b611bc9336101055461010754600080600080613b14565b611be0866101055461010754600080600080613b14565b610105546101075460405133927feaaedb2f797ad9311d3350873d350ad04080ad6baa897e9cd8b891bf151f3a5e92611c2192918252602082015260400190565b60405180910390a2856001600160a01b03167feaaedb2f797ad9311d3350873d350ad04080ad6baa897e9cd8b891bf151f3a5e6101055461010754604051611c73929190918252602082015260400190565b60405180910390a25050505050505050565b610fc783838360405180602001604052806000815250612c8f565b600082815260fe602052604090205460ff1615611cf15760405162461bcd60e51b815260206004820152600f60248201526e189b1858dadb1a5cdd195908139195608a1b6044820152606401610ad8565b611cfa82612042565b6001600160a01b0316836001600160a01b031614611d1757600080fd5b600082815260fd6020908152604091829020825160e0810184528154808252600183015493820193909352600282015461ffff169381019390935260038101546060840181905260049091015460ff8082161515608086015261010082048116151560a08601526201000090910416151560c0840152611d9691615637565b4211611de45760405162461bcd60e51b815260206004820152601b60248201527f506f736974696f6e206973206e6f74206174206d6174757269747900000000006044820152606401610ad8565b6000611def84610bbd565b9050611dfa84613a67565b604080516001815260006020820181905281830152905185916001600160a01b038816916000805160206159798339815191529181900360600190a36119c585828460200151611e4a9190615637565b8560006001806000613b14565b6000611e6260995490565b8210611ec55760405162461bcd60e51b815260206004820152602c60248201527f455243373231456e756d657261626c653a20676c6f62616c20696e646578206f60448201526b7574206f6620626f756e647360a01b6064820152608401610ad8565b60998281548110611ed857611ed86154b0565b90600052602060002001549050919050565b7f00000000000000000000000000000000000000000000000000000000000000006001600160a01b0316331480611fb35750336001600160a01b03167f00000000000000000000000000000000000000000000000000000000000000006001600160a01b031663f851a4406040518163ffffffff1660e01b8152600401602060405180830381865afa158015611f84573d6000803e3d6000fd5b505050506040513d601f19601f82011682018060405250810190611fa891906153d7565b6001600160a01b0316145b80611fd7575033611fcc60c9546001600160a01b031690565b6001600160a01b0316145b611ff35760405162461bcd60e51b8152600401610ad8906153f4565b6101006120008282615577565b508060405161200f9190615701565b604051908190038120907f199e933997358e1789d8b56ea8c551befeb05ce2fe3fe506199f1230f5a591b490600090a250565b6000818152606760205260408120546001600160a01b031680610bb75760405162461bcd60e51b8152602060048201526018602482015277115490cdcc8c4e881a5b9d985b1a59081d1bdad95b88125160421b6044820152606401610ad8565b600081815260fd60209081526040808320815160e081018352815481526001820154938101849052600282015461ffff1692810183905260038201546060820181905260049092015460ff8082161515608084015261010082048116151560a08401526201000090910416151560c0820152926301e1338092612710929161212a919061543d565b612134919061543d565b61213e9190615454565b6121489190615454565b9392505050565b60006001600160a01b0382166121b95760405162461bcd60e51b815260206004820152602960248201527f4552433732313a2061646472657373207a65726f206973206e6f7420612076616044820152683634b21037bbb732b960b91b6064820152608401610ad8565b506001600160a01b031660009081526068602052604090205490565b6121dd614003565b6121e7600061405d565b565b7f00000000000000000000000000000000000000000000000000000000000000006001600160a01b03163314806122b25750336001600160a01b03167f00000000000000000000000000000000000000000000000000000000000000006001600160a01b031663f851a4406040518163ffffffff1660e01b8152600401602060405180830381865afa158015612283573d6000803e3d6000fd5b505050506040513d601f19601f820116820180604052508101906122a791906153d7565b6001600160a01b0316145b806122d65750336122cb60c9546001600160a01b031690565b6001600160a01b0316145b6122f25760405162461bcd60e51b8152600401610ad8906153f4565b61010681905560405181907f2ebf7054fda26cce68709eab0e72f86f40153730d994609a775243bd16bd32f890600090a250565b600061233160ff5490565b905090565b612347338383600180600080613b14565b5050565b6000818152606760205260408120546001600160a01b03161515610bb7565b7f00000000000000000000000000000000000000000000000000000000000000006001600160a01b03163314806124335750336001600160a01b03167f00000000000000000000000000000000000000000000000000000000000000006001600160a01b031663f851a4406040518163ffffffff1660e01b8152600401602060405180830381865afa158015612404573d6000803e3d6000fd5b505050506040513d601f19601f8201168201806040525081019061242891906153d7565b6001600160a01b0316145b8061245757503361244c60c9546001600160a01b031690565b6001600160a01b0316145b6124735760405162461bcd60e51b8152600401610ad8906153f4565b61010781905560405181907fab03523d63fc2456e647e1335600dd48f2b3c9645b43f190cc1615863007e4ed90600090a250565b7f00000000000000000000000000000000000000000000000000000000000000006001600160a01b03163314806125705750336001600160a01b03167f00000000000000000000000000000000000000000000000000000000000000006001600160a01b031663f851a4406040518163ffffffff1660e01b8152600401602060405180830381865afa158015612541573d6000803e3d6000fd5b505050506040513d601f19601f8201168201806040525081019061256591906153d7565b6001600160a01b0316145b8061259457503361258960c9546001600160a01b031690565b6001600160a01b0316145b6125b05760405162461bcd60e51b8152600401610ad8906153f4565b61010881905560405181907f3e90590403178c03ff8343cdb359608fcc7678b15509de56e1be479af1b127be90600090a250565b606060668054610cb490615476565b7f00000000000000000000000000000000000000000000000000000000000000006001600160a01b03163314806126bc5750336001600160a01b03167f00000000000000000000000000000000000000000000000000000000000000006001600160a01b031663f851a4406040518163ffffffff1660e01b8152600401602060405180830381865afa15801561268d573d6000803e3d6000fd5b505050506040513d601f19601f820116820180604052508101906126b191906153d7565b6001600160a01b0316145b806126e05750336126d560c9546001600160a01b031690565b6001600160a01b0316145b6126fc5760405162461bcd60e51b8152600401610ad8906153f4565b6040516370a0823160e01b81523060048201526001600160a01b0383169063a9059cbb90839083906370a0823190602401602060405180830381865afa15801561274a573d6000803e3d6000fd5b505050506040513d601f19601f8201168201806040525081019061276e919061571d565b6040516001600160e01b031960e085901b1681526001600160a01b03909216600483015260248201526044016020604051808303816000875af11580156127b9573d6000803e3d6000fd5b505050506040513d601f19601f820116820180604052508101906127dd9190615736565b6123475760405162461bcd60e51b815260206004820152601860248201527f436f756c64206e6f74207472616e7366657220746f6b656e00000000000000006044820152606401610ad8565b606060fc805480602002602001604051908101604052809291908181526020016000905b828210156128905760008481526020908190206040805180820190915260028502909101805461ffff16825260019081015482840152908352909201910161284d565b50505050905090565b6123473383836140af565b600081815260fd60209081526040808320815160e081018352815481526001820154938101849052600282015461ffff1692810183905260038201546060820181905260049092015460ff8082161515608084015261010082048116151560a08401526201000090910416151560c0820152926301e1338092612710929161292c919061543d565b612936919061543d565b6129409190615454565b61294a9190615454565b81602001516121489190615637565b60005b825181101561299b576129898484838151811061297b5761297b6154b0565b602002602001015184611ca0565b8061299381615753565b91505061295c565b50505050565b60fb54604051636047f03360e11b81526001600160a01b0391821660048201526000917f0000000000000000000000000000000000000000000000000000000000000000169063c08fe0669060240161010060405180830381865afa158015612a0e573d6000803e3d6000fd5b505050506040513d601f19601f82011682018060405250810190612a32919061576c565b5060408051631ba1f61160e31b81523360048201529051919850600097508796506001600160a01b037f000000000000000000000000000000000000000000000000000000000000000016955063dd0fb08894506024808201945060a09350908290030181865afa158015612aab573d6000803e3d6000fd5b505050506040513d601f19601f82011682018060405250810190612acf9190615673565b9195509093505083159150612b2890505760405162461bcd60e51b815260206004820152601d60248201527f5573657220616c7265616479207265636569766564206120626f6e75730000006044820152606401610ad8565b82841115612b935760405162461bcd60e51b815260206004820152603260248201527f426f6e757320616d6f756e74206d757374206265206c657373207468616e206f6044820152710e440cae2eac2d840e8de40e8d0ca40dac2f60731b6064820152608401610ad8565b60fb546040516353b5f30560e01b81526001600160a01b037f00000000000000000000000000000000000000000000000000000000000000008116926353b5f30592612bee92339216908990429060009089906004016156cb565b600060405180830381600087803b158015612c0857600080fd5b505af1158015612c1c573d6000803e3d6000fd5b50505050612c39612c2a3390565b85600160008060006001613b14565b604080518581526001602082015233917f39411aa5454233dea52e69983fc74412c7abbe65976705dc07402ecdcb3a768b910160405180910390a250505050565b6000612c85826130ed565b9695505050505050565b612c99338361374c565b612cb55760405162461bcd60e51b8152600401610ad8906154dc565b61299b8484848461417d565b6000818152606760205260409020546060906001600160a01b0316612d1f5760405162461bcd60e51b81526020600482015260146024820152731d1bdad95b88191bd95cc81b9bdd08195e1a5cdd60621b6044820152606401610ad8565b612d276141b0565b612d30836141c0565b604051602001612d419291906157d6565b6040516020818303038152906040529050919050565b7f00000000000000000000000000000000000000000000000000000000000000006001600160a01b0316331480612e205750336001600160a01b03167f00000000000000000000000000000000000000000000000000000000000000006001600160a01b031663f851a4406040518163ffffffff1660e01b8152600401602060405180830381865afa158015612df1573d6000803e3d6000fd5b505050506040513d601f19601f82011682018060405250810190612e1591906153d7565b6001600160a01b0316145b80612e44575033612e3960c9546001600160a01b031690565b6001600160a01b0316145b612e605760405162461bcd60e51b8152600401610ad8906153f4565b600081815260fd60209081526040808320815160e08101835281548152600182015493810193909352600281015461ffff1691830191909152600381015460608301526004015460ff8082161515608084015261010082048116151560a08401526201000090910416151560c082015290612eda83612042565b60fb5460208401516040516307c68aaf60e51b81529293506001600160a01b037f000000000000000000000000000000000000000000000000000000000000000081169363f8d155e093612f3a938793919091169160009060040161564a565b600060405180830381600087803b158015612f5457600080fd5b505af1158015612f68573d6000803e3d6000fd5b5050604080516000808252602082015260018183015290518693506001600160a01b03851692506000805160206159798339815191529181900360600190a3610fc783613a67565b7f00000000000000000000000000000000000000000000000000000000000000006001600160a01b03163314806130795750336001600160a01b03167f00000000000000000000000000000000000000000000000000000000000000006001600160a01b031663f851a4406040518163ffffffff1660e01b8152600401602060405180830381865afa15801561304a573d6000803e3d6000fd5b505050506040513d601f19601f8201168201806040525081019061306e91906153d7565b6001600160a01b0316145b8061309d57503361309260c9546001600160a01b031690565b6001600160a01b0316145b6130b95760405162461bcd60e51b8152600401610ad8906153f4565b61010581905560405181907f489c861b26977ea518d7106a69d4254fbe2c3cfb9cbf5ca4f7784058ec1c6ba490600090a250565b60008060008060007f00000000000000000000000000000000000000000000000000000000000000006001600160a01b031663dd0fb088876040518263ffffffff1660e01b815260040161315091906001600160a01b0391909116815260200190565b60a060405180830381865afa15801561316d573d6000803e3d6000fd5b505050506040513d601f19601f820116820180604052508101906131919190615673565b939a9299509097509550909350915050565b60606131ad6141b0565b6040516020016131bd9190615815565b604051602081830303815290604052905090565b7f00000000000000000000000000000000000000000000000000000000000000006001600160a01b031633148061329a5750336001600160a01b03167f00000000000000000000000000000000000000000000000000000000000000006001600160a01b031663f851a4406040518163ffffffff1660e01b8152600401602060405180830381865afa15801561326b573d6000803e3d6000fd5b505050506040513d601f19601f8201168201806040525081019061328f91906153d7565b6001600160a01b0316145b806132be5750336132b360c9546001600160a01b031690565b6001600160a01b0316145b6132da5760405162461bcd60e51b8152600401610ad8906153f4565b600060fc84815481106132ef576132ef6154b0565b60009182526020918290206040805180820182526002909302909101805461ffff90811684526001909101548385015281518083019092528616815291820184905260fc80549193509086908110613349576133496154b0565b6000918252602091829020835160029290920201805461ffff191661ffff9283161781559282015160019093019290925582518382015160408051918252878516938201939093529182018590529091169085907f1d66929984041b98ee2942b02ecb1a94419d54cf725b2fff115bb7a6039a96c69060600160405180910390a350505050565b60005b8251811015610fc7576133ff8382815181106133f1576133f16154b0565b602002602001015183611572565b8061340981615753565b9150506133d3565b7f00000000000000000000000000000000000000000000000000000000000000006001600160a01b03163314806134da5750336001600160a01b03167f00000000000000000000000000000000000000000000000000000000000000006001600160a01b031663f851a4406040518163ffffffff1660e01b8152600401602060405180830381865afa1580156134ab573d6000803e3d6000fd5b505050506040513d601f19601f820116820180604052508101906134cf91906153d7565b6001600160a01b0316145b806134fe5750336134f360c9546001600160a01b031690565b6001600160a01b0316145b61351a5760405162461bcd60e51b8152600401610ad8906153f4565b61352b838383600080600080613b14565b60408051838152602081018390526001600160a01b038516917f39411aa5454233dea52e69983fc74412c7abbe65976705dc07402ecdcb3a768b910160405180910390a2505050565b61357c614003565b6001600160a01b0381166135e15760405162461bcd60e51b815260206004820152602660248201527f4f776e61626c653a206e6577206f776e657220697320746865207a65726f206160448201526564647265737360d01b6064820152608401610ad8565b6135ea8161405d565b50565b6001600160a01b0381166000908152610101602090815260409182902080548351818402810184019094528084526060939283018282801561364e57602002820191906000526020600020905b81548152602001906001019080831161363a575b50505050509050919050565b60006001600160e01b0319821663780e9d6360e01b1480610bb75750610bb782614253565b6000818152606760205260409020546001600160a01b03166135ea5760405162461bcd60e51b8152602060048201526018602482015277115490cdcc8c4e881a5b9d985b1a59081d1bdad95b88125160421b6044820152606401610ad8565b600081815260696020526040902080546001600160a01b0319166001600160a01b038416908117909155819061371382612042565b6001600160a01b03167f8c5be1e5ebec7d5bd14f71427d1e84f3dd0314c0f7b2291e5b200ac8c7c3b92560405160405180910390a45050565b60008061375883612042565b9050806001600160a01b0316846001600160a01b0316148061379f57506001600160a01b038082166000908152606a602090815260408083209388168352929052205460ff165b806137c35750836001600160a01b03166137b884610d37565b6001600160a01b0316145b949350505050565b826001600160a01b03166137de82612042565b6001600160a01b0316146138045760405162461bcd60e51b8152600401610ad890615846565b6001600160a01b0382166138665760405162461bcd60e51b8152602060048201526024808201527f4552433732313a207472616e7366657220746f20746865207a65726f206164646044820152637265737360e01b6064820152608401610ad8565b61387383838360016142a3565b826001600160a01b031661388682612042565b6001600160a01b0316146138ac5760405162461bcd60e51b8152600401610ad890615846565b600081815260696020908152604080832080546001600160a01b03199081169091556001600160a01b0387811680865260688552838620805460001901905590871680865283862080546001019055868652606790945282852080549092168417909155905184937fddf252ad1be2c89b69c2b068fc378daa952ba7f163c4a11628f55a4df523b3ef91a4610fc78383836001614312565b600054610100900460ff1661396b5760405162461bcd60e51b8152600401610ad89061588b565b61234782826144a6565b600054610100900460ff1661399c5760405162461bcd60e51b8152600401610ad89061588b565b6121e76144e6565b604051631ba1f61160e31b81526001600160a01b038281166004830152600091829182917f00000000000000000000000000000000000000000000000000000000000000009091169063dd0fb0889060240160a060405180830381865afa158015613a13573d6000803e3d6000fd5b505050506040513d601f19601f82011682018060405250810190613a379190615673565b50919450909250829150613a4e905083600a61543d565b11613a5d575060019392505050565b5060009392505050565b6000613a7282612042565b9050613a828160008460016142a3565b613a8b82612042565b600083815260696020908152604080832080546001600160a01b03199081169091556001600160a01b0385168085526068845282852080546000190190558785526067909352818420805490911690555192935084927fddf252ad1be2c89b69c2b068fc378daa952ba7f163c4a11628f55a4df523b3ef908390a4612347816000846001614312565b60fc548510613b5b5760405162461bcd60e51b815260206004820152601360248201527234b73b30b634b2103637b1b59037b83a34b7b760691b6044820152606401610ad8565b8515613b675785613bd5565b60fb546040516370a0823160e01b81526001600160a01b038981166004830152909116906370a0823190602401602060405180830381865afa158015613bb1573d6000803e3d6000fd5b505050506040513d601f19601f82011682018060405250810190613bd5919061571d565b955060008611613c3e5760405162461bcd60e51b815260206004820152602e60248201527f6d757374207374616b6520616e64206265206561726e696e67206174206c656160448201526d737420736f6d6520746f6b656e7360901b6064820152608401610ad8565b6101085461010a54613c509088615637565b111580613c5e575061010854155b613c9a5760405162461bcd60e51b815260206004820152600d60248201526c4f76657220636170616369747960981b6044820152606401610ad8565b6101095442111580613cad575061010954155b613ced5760405162461bcd60e51b815260206004820152601160248201527029ba30b5b2903832b934b7b21037bb32b960791b6044820152606401610ad8565b8561010a6000828254613d009190615637565b909155505060ff8054600101905560006301e1338061271061ffff1660fc8881548110613d2f57613d2f6154b0565b90600052602060002090600202016001015460fc8981548110613d5457613d546154b0565b6000918252602090912060029091020154613d739061ffff168b61543d565b613d7d919061543d565b613d879190615454565b613d919190615454565b90508061010b6000828254613da69190615637565b90915550508415613e4c5760fb54604051630909b0d560e11b81526001600160a01b038a811660048301529182166024820152604481018990527f00000000000000000000000000000000000000000000000000000000000000009091169063121361aa90606401600060405180830381600087803b158015613e2857600080fd5b505af1158015613e3c573d6000803e3d6000fd5b50505050613e4a8888614516565b505b6040518060e0016040528042815260200188815260200160fc8881548110613e7657613e766154b0565b60009182526020918290206002909102015461ffff16825260fc8054929091019189908110613ea757613ea76154b0565b90600052602060002090600202016001015481526020018515158152602001861515815260200183151581525060fd6000613ee160ff5490565b815260208082019290925260409081016000208351815591830151600183015582015160028201805461ffff90921661ffff199283161790556060830151600383015560808301516004909201805460a085015160c0909501511515620100000262ff0000199515156101000261ff00199515159590951691909316179290921792909216919091179055613f7e88613f7960ff5490565b614697565b426101036000613f8d60ff5490565b815260208101919091526040016000205560ff5460408051898152602081018990528515159181019190915283151560608201526001600160a01b038a16907f1e5878b7dcf3d6931c5620f2b711acd129181797fc121b28507730ba2cef8b2f9060800160405180910390a35050505050505050565b60c9546001600160a01b031633146121e75760405162461bcd60e51b815260206004820181905260248201527f4f776e61626c653a2063616c6c6572206973206e6f7420746865206f776e65726044820152606401610ad8565b60c980546001600160a01b038381166001600160a01b0319831681179093556040519116919082907f8be0079c531659141344cd1fd0a4f28419497f9722a3daafe3b4186f6b6457e090600090a35050565b816001600160a01b0316836001600160a01b0316036141105760405162461bcd60e51b815260206004820152601960248201527f4552433732313a20617070726f766520746f2063616c6c6572000000000000006044820152606401610ad8565b6001600160a01b038381166000818152606a6020908152604080832094871680845294825291829020805460ff191686151590811790915591519182527f17307eab39ab6107e8899845ad3d59bd9653f200f220920489ca2b5937696c31910160405180910390a3505050565b6141888484846137cb565b614194848484846146b1565b61299b5760405162461bcd60e51b8152600401610ad8906158d6565b60606101008054610cb490615476565b606060006141cd836147b2565b600101905060008167ffffffffffffffff8111156141ed576141ed614ebf565b6040519080825280601f01601f191660200182016040528015614217576020820181803683370190505b5090508181016020015b600019016f181899199a1a9b1b9c1cb0b131b232b360811b600a86061a8153600a850494508461422157509392505050565b60006001600160e01b031982166380ac58cd60e01b148061428457506001600160e01b03198216635b5e139f60e01b145b80610bb757506301ffc9a760e01b6001600160e01b0319831614610bb7565b600082815260fe602052604090205460ff16156142f45760405162461bcd60e51b815260206004820152600f60248201526e189b1858dadb1a5cdd195908139195608a1b6044820152606401610ad8565b60008281526101046020526040902042905561299b8484848461488a565b6001600160a01b0384161561445257600082815261010260209081526040808320546001600160a01b0388168452610101909252822080549192916143599060019061542a565b81548110614369576143696154b0565b60009182526020808320909101546001600160a01b038916835261010190915260409091208054919250906143a09060019061542a565b815481106143b0576143b06154b0565b90600052602060002001546101016000886001600160a01b03166001600160a01b0316815260200190815260200160002083815481106143f2576143f26154b0565b60009182526020808320909101929092556001600160a01b038816815261010190915260409020805480614428576144286154c6565b60008281526020808220830160001990810183905590920190925591815261010290915260409020555b6001600160a01b038316156144a1576001600160a01b03831660009081526101016020818152604080842080548786526101028452918520829055928252600181018355918352909120018290555b61299b565b600054610100900460ff166144cd5760405162461bcd60e51b8152600401610ad89061588b565b60656144d98382615577565b506066610fc78282615577565b600054610100900460ff1661450d5760405162461bcd60e51b8152600401610ad89061588b565b6121e73361405d565b60008060008060007f00000000000000000000000000000000000000000000000000000000000000006001600160a01b031663dd0fb088886040518263ffffffff1660e01b815260040161457991906001600160a01b0391909116815260200190565b60a060405180830381865afa158015614596573d6000803e3d6000fd5b505050506040513d601f19601f820116820180604052508101906145ba9190615673565b929750909550935091506145d5905060026301e13380615454565b6145df9084615637565b421161468a5760fb546001600160a01b037f00000000000000000000000000000000000000000000000000000000000000008116916353b5f305918a911687876146298c89615637565b876040518763ffffffff1660e01b815260040161464b969594939291906156cb565b600060405180830381600087803b15801561466557600080fd5b505af1158015614679573d6000803e3d6000fd5b505050506001945050505050610bb7565b5060009695505050505050565b6123478282604051806020016040528060008152506149b7565b60006001600160a01b0384163b156147a757604051630a85bd0160e11b81526001600160a01b0385169063150b7a02906146f5903390899088908890600401615928565b6020604051808303816000875af1925050508015614730575060408051601f3d908101601f1916820190925261472d9181019061595b565b60015b61478d573d80801561475e576040519150601f19603f3d011682016040523d82523d6000602084013e614763565b606091505b5080516000036147855760405162461bcd60e51b8152600401610ad8906158d6565b805181602001fd5b6001600160e01b031916630a85bd0160e11b1490506137c3565b506001949350505050565b60008072184f03e93ff9f4daa797ed6e38ed64bf6a1f0160401b83106147f15772184f03e93ff9f4daa797ed6e38ed64bf6a1f0160401b830492506040015b6d04ee2d6d415b85acef8100000000831061481d576d04ee2d6d415b85acef8100000000830492506020015b662386f26fc10000831061483b57662386f26fc10000830492506010015b6305f5e1008310614853576305f5e100830492506008015b612710831061486757612710830492506004015b60648310614879576064830492506002015b600a8310610bb75760010192915050565b60018111156148f95760405162461bcd60e51b815260206004820152603560248201527f455243373231456e756d657261626c653a20636f6e7365637574697665207472604482015274185b9cd9995c9cc81b9bdd081cdd5c1c1bdc9d1959605a1b6064820152608401610ad8565b816001600160a01b0385166149555761495081609980546000838152609a60205260408120829055600182018355919091527f72a152ddfb8e864297c917af52ea6c1c68aead0fee1a62673fcc7e0c94979d000155565b614978565b836001600160a01b0316856001600160a01b0316146149785761497885826149ea565b6001600160a01b0384166149945761498f81614a87565b6119c5565b846001600160a01b0316846001600160a01b0316146119c5576119c58482614b36565b6149c18383614b7a565b6149ce60008484846146b1565b610fc75760405162461bcd60e51b8152600401610ad8906158d6565b600060016149f78461214f565b614a01919061542a565b600083815260986020526040902054909150808214614a54576001600160a01b03841660009081526097602090815260408083208584528252808320548484528184208190558352609890915290208190555b5060009182526098602090815260408084208490556001600160a01b039094168352609781528383209183525290812055565b609954600090614a999060019061542a565b6000838152609a602052604081205460998054939450909284908110614ac157614ac16154b0565b906000526020600020015490508060998381548110614ae257614ae26154b0565b6000918252602080832090910192909255828152609a90915260408082208490558582528120556099805480614b1a57614b1a6154c6565b6001900381819060005260206000200160009055905550505050565b6000614b418361214f565b6001600160a01b039093166000908152609760209081526040808320868452825280832085905593825260989052919091209190915550565b6001600160a01b038216614bd05760405162461bcd60e51b815260206004820181905260248201527f4552433732313a206d696e7420746f20746865207a65726f20616464726573736044820152606401610ad8565b6000818152606760205260409020546001600160a01b031615614c355760405162461bcd60e51b815260206004820152601c60248201527f4552433732313a20746f6b656e20616c7265616479206d696e746564000000006044820152606401610ad8565b614c436000838360016142a3565b6000818152606760205260409020546001600160a01b031615614ca85760405162461bcd60e51b815260206004820152601c60248201527f4552433732313a20746f6b656e20616c7265616479206d696e746564000000006044820152606401610ad8565b6001600160a01b038216600081815260686020908152604080832080546001019055848352606790915280822080546001600160a01b0319168417905551839291907fddf252ad1be2c89b69c2b068fc378daa952ba7f163c4a11628f55a4df523b3ef908290a4612347600083836001614312565b803561ffff81168114614d2f57600080fd5b919050565b60008060408385031215614d4757600080fd5b614d5083614d1d565b946020939093013593505050565b6001600160e01b0319811681146135ea57600080fd5b600060208284031215614d8657600080fd5b813561214881614d5e565b600060208284031215614da357600080fd5b5035919050565b60005b83811015614dc5578181015183820152602001614dad565b50506000910152565b60008151808452614de6816020860160208601614daa565b601f01601f19169290920160200192915050565b6020815260006121486020830184614dce565b80151581146135ea57600080fd5b60008060408385031215614e2e57600080fd5b823591506020830135614e4081614e0d565b809150509250929050565b6001600160a01b03811681146135ea57600080fd5b60008060408385031215614e7357600080fd5b8235614d5081614e4b565b600080600060608486031215614e9357600080fd5b8335614e9e81614e4b565b92506020840135614eae81614e4b565b929592945050506040919091013590565b634e487b7160e01b600052604160045260246000fd5b604051601f8201601f1916810167ffffffffffffffff81118282101715614efe57614efe614ebf565b604052919050565b600067ffffffffffffffff831115614f2057614f20614ebf565b614f33601f8401601f1916602001614ed5565b9050828152838383011115614f4757600080fd5b828260208301376000602084830101529392505050565b600082601f830112614f6f57600080fd5b61214883833560208501614f06565b60008060008060008060c08789031215614f9757600080fd5b863567ffffffffffffffff80821115614faf57600080fd5b614fbb8a838b01614f5e565b97506020890135915080821115614fd157600080fd5b614fdd8a838b01614f5e565b965060408901359150614fef82614e4b565b9094506060880135908082111561500557600080fd5b5061501289828a01614f5e565b9350506080870135915060a087013590509295509295509295565b60008060006060848603121561504257600080fd5b8335925060208401359150604084013561505b81614e4b565b809150509250925092565b60008060006060848603121561507b57600080fd5b833561508681614e4b565b95602085013595506040909401359392505050565b6000602082840312156150ad57600080fd5b813567ffffffffffffffff8111156150c457600080fd5b6137c384828501614f5e565b6000602082840312156150e257600080fd5b813561214881614e4b565b6000806040838503121561510057600080fd5b50508035926020909101359150565b6000806040838503121561512257600080fd5b823561512d81614e4b565b91506020830135614e4081614e4b565b602080825282518282018190526000919060409081850190868401855b82811015615183578151805161ffff16855286015186850152928401929085019060010161515a565b5091979650505050505050565b600080604083850312156151a357600080fd5b82356151ae81614e4b565b91506020830135614e4081614e0d565b600082601f8301126151cf57600080fd5b8135602067ffffffffffffffff8211156151eb576151eb614ebf565b8160051b6151fa828201614ed5565b928352848101820192828101908785111561521457600080fd5b83870192505b848310156152335782358252918301919083019061521a565b979650505050505050565b60008060006060848603121561525357600080fd5b833561525e81614e4b565b9250602084013567ffffffffffffffff81111561527a57600080fd5b615286868287016151be565b925050604084013590509250925092565b600080600080608085870312156152ad57600080fd5b84356152b881614e4b565b935060208501356152c881614e4b565b925060408501359150606085013567ffffffffffffffff8111156152eb57600080fd5b8501601f810187136152fc57600080fd5b61530b87823560208401614f06565b91505092959194509250565b60008060006060848603121561532c57600080fd5b8335925061533c60208501614d1d565b9150604084013590509250925092565b6000806040838503121561535f57600080fd5b823567ffffffffffffffff81111561537657600080fd5b615382858286016151be565b9250506020830135614e4081614e0d565b6020808252825182820181905260009190848201906040850190845b818110156153cb578351835292840192918401916001016153af565b50909695505050505050565b6000602082840312156153e957600080fd5b815161214881614e4b565b60208082526006908201526510b7bbb732b960d11b604082015260600190565b634e487b7160e01b600052601160045260246000fd5b81810381811115610bb757610bb7615414565b8082028115828204841417610bb757610bb7615414565b60008261547157634e487b7160e01b600052601260045260246000fd5b500490565b600181811c9082168061548a57607f821691505b6020821081036154aa57634e487b7160e01b600052602260045260246000fd5b50919050565b634e487b7160e01b600052603260045260246000fd5b634e487b7160e01b600052603160045260246000fd5b6020808252602d908201527f4552433732313a2063616c6c6572206973206e6f7420746f6b656e206f776e6560408201526c1c881bdc88185c1c1c9bdd9959609a1b606082015260800190565b601f821115610fc757600081815260208120601f850160051c810160208610156155505750805b601f850160051c820191505b8181101561556f5782815560010161555c565b505050505050565b815167ffffffffffffffff81111561559157615591614ebf565b6155a58161559f8454615476565b84615529565b602080601f8311600181146155da57600084156155c25750858301515b600019600386901b1c1916600185901b17855561556f565b600085815260208120601f198616915b82811015615609578886015182559484019460019091019084016155ea565b50858210156156275787850151600019600388901b60f8161c191681555b5050505050600190811b01905550565b80820180821115610bb757610bb7615414565b6001600160a01b0394851681529290931660208301526040820152606081019190915260800190565b600080600080600060a0868803121561568b57600080fd5b855161569681614e4b565b8095505060208601519350604086015192506060860151915060808601516156bd81614e0d565b809150509295509295909350565b6001600160a01b03968716815294909516602085015260408401929092526060830152608082015290151560a082015260c00190565b60008251615713818460208701614daa565b9190910192915050565b60006020828403121561572f57600080fd5b5051919050565b60006020828403121561574857600080fd5b815161214881614e0d565b60006001820161576557615765615414565b5060010190565b600080600080600080600080610100898b03121561578957600080fd5b885197506020890151965060408901519550606089015194506080890151935060a0890151925060c0890151915060e08901516157c581614e0d565b809150509295985092959890939650565b600083516157e8818460208801614daa565b8351908301906157fc818360208801614daa565b64173539b7b760d91b9101908152600501949350505050565b60008251615827818460208701614daa565b6c31b7b73a3930b1ba173539b7b760991b920191825250600d01919050565b60208082526025908201527f4552433732313a207472616e736665722066726f6d20696e636f72726563742060408201526437bbb732b960d91b606082015260800190565b6020808252602b908201527f496e697469616c697a61626c653a20636f6e7472616374206973206e6f74206960408201526a6e697469616c697a696e6760a81b606082015260800190565b60208082526032908201527f4552433732313a207472616e7366657220746f206e6f6e20455243373231526560408201527131b2b4bb32b91034b6b83632b6b2b73a32b960711b606082015260800190565b6001600160a01b0385811682528416602082015260408101839052608060608201819052600090612c8590830184614dce565b60006020828403121561596d57600080fd5b815161214881614d5e56feddb878cba785b7e990dc6cf5429da531907ba82da43d525a522696e153ea45c6a2646970667358221220dbe65d228e823709f7d02b08c911765d42e0aafecefa7733aa6a3636bac985a164736f6c63430008110033",
  "devdoc": {
    "kind": "dev",
    "methods": {
      "approve(address,uint256)": {
        "details": "See {IERC721-approve}."
      },
      "balanceOf(address)": {
        "details": "See {IERC721-balanceOf}."
      },
      "getApproved(uint256)": {
        "details": "See {IERC721-getApproved}."
      },
      "isApprovedForAll(address,address)": {
        "details": "See {IERC721-isApprovedForAll}."
      },
      "name()": {
        "details": "See {IERC721Metadata-name}."
      },
      "owner()": {
        "details": "Returns the address of the current owner."
      },
      "ownerOf(uint256)": {
        "details": "See {IERC721-ownerOf}."
      },
      "renounceOwnership()": {
        "details": "Leaves the contract without owner. It will not be possible to call `onlyOwner` functions anymore. Can only be called by the current owner. NOTE: Renouncing ownership will leave the contract without an owner, thereby removing any functionality that is only available to the owner."
      },
      "safeTransferFrom(address,address,uint256)": {
        "details": "See {IERC721-safeTransferFrom}."
      },
      "safeTransferFrom(address,address,uint256,bytes)": {
        "details": "See {IERC721-safeTransferFrom}."
      },
      "setApprovalForAll(address,bool)": {
        "details": "See {IERC721-setApprovalForAll}."
      },
      "symbol()": {
        "details": "See {IERC721Metadata-symbol}."
      },
      "tokenByIndex(uint256)": {
        "details": "See {IERC721Enumerable-tokenByIndex}."
      },
      "tokenOfOwnerByIndex(address,uint256)": {
        "details": "See {IERC721Enumerable-tokenOfOwnerByIndex}."
      },
      "totalSupply()": {
        "details": "See {IERC721Enumerable-totalSupply}."
      },
      "transferFrom(address,address,uint256)": {
        "details": "See {IERC721-transferFrom}."
      },
      "transferOwnership(address)": {
        "details": "Transfers ownership of the contract to a new account (`newOwner`). Can only be called by the current owner."
      }
    },
    "version": 1
  },
  "userdoc": {
    "kind": "user",
    "methods": {},
    "version": 1
  },
  "storageLayout": {
    "storage": [
      {
        "astId": 138,
        "contract": "contracts/StakingPosition.sol:StakingPosition",
        "label": "_initialized",
        "offset": 0,
        "slot": "0",
        "type": "t_uint8"
      },
      {
        "astId": 141,
        "contract": "contracts/StakingPosition.sol:StakingPosition",
        "label": "_initializing",
        "offset": 1,
        "slot": "0",
        "type": "t_bool"
      },
      {
        "astId": 2143,
        "contract": "contracts/StakingPosition.sol:StakingPosition",
        "label": "__gap",
        "offset": 0,
        "slot": "1",
        "type": "t_array(t_uint256)50_storage"
      },
      {
        "astId": 2436,
        "contract": "contracts/StakingPosition.sol:StakingPosition",
        "label": "__gap",
        "offset": 0,
        "slot": "51",
        "type": "t_array(t_uint256)50_storage"
      },
      {
        "astId": 329,
        "contract": "contracts/StakingPosition.sol:StakingPosition",
        "label": "_name",
        "offset": 0,
        "slot": "101",
        "type": "t_string_storage"
      },
      {
        "astId": 331,
        "contract": "contracts/StakingPosition.sol:StakingPosition",
        "label": "_symbol",
        "offset": 0,
        "slot": "102",
        "type": "t_string_storage"
      },
      {
        "astId": 335,
        "contract": "contracts/StakingPosition.sol:StakingPosition",
        "label": "_owners",
        "offset": 0,
        "slot": "103",
        "type": "t_mapping(t_uint256,t_address)"
      },
      {
        "astId": 339,
        "contract": "contracts/StakingPosition.sol:StakingPosition",
        "label": "_balances",
        "offset": 0,
        "slot": "104",
        "type": "t_mapping(t_address,t_uint256)"
      },
      {
        "astId": 343,
        "contract": "contracts/StakingPosition.sol:StakingPosition",
        "label": "_tokenApprovals",
        "offset": 0,
        "slot": "105",
        "type": "t_mapping(t_uint256,t_address)"
      },
      {
        "astId": 349,
        "contract": "contracts/StakingPosition.sol:StakingPosition",
        "label": "_operatorApprovals",
        "offset": 0,
        "slot": "106",
        "type": "t_mapping(t_address,t_mapping(t_address,t_bool))"
      },
      {
        "astId": 1251,
        "contract": "contracts/StakingPosition.sol:StakingPosition",
        "label": "__gap",
        "offset": 0,
        "slot": "107",
        "type": "t_array(t_uint256)44_storage"
      },
      {
        "astId": 1416,
        "contract": "contracts/StakingPosition.sol:StakingPosition",
        "label": "_ownedTokens",
        "offset": 0,
        "slot": "151",
        "type": "t_mapping(t_address,t_mapping(t_uint256,t_uint256))"
      },
      {
        "astId": 1420,
        "contract": "contracts/StakingPosition.sol:StakingPosition",
        "label": "_ownedTokensIndex",
        "offset": 0,
        "slot": "152",
        "type": "t_mapping(t_uint256,t_uint256)"
      },
      {
        "astId": 1423,
        "contract": "contracts/StakingPosition.sol:StakingPosition",
        "label": "_allTokens",
        "offset": 0,
        "slot": "153",
        "type": "t_array(t_uint256)dyn_storage"
      },
      {
        "astId": 1427,
        "contract": "contracts/StakingPosition.sol:StakingPosition",
        "label": "_allTokensIndex",
        "offset": 0,
        "slot": "154",
        "type": "t_mapping(t_uint256,t_uint256)"
      },
      {
        "astId": 1759,
        "contract": "contracts/StakingPosition.sol:StakingPosition",
        "label": "__gap",
        "offset": 0,
        "slot": "155",
        "type": "t_array(t_uint256)46_storage"
      },
      {
        "astId": 10,
        "contract": "contracts/StakingPosition.sol:StakingPosition",
        "label": "_owner",
        "offset": 0,
        "slot": "201",
        "type": "t_address"
      },
      {
        "astId": 130,
        "contract": "contracts/StakingPosition.sol:StakingPosition",
        "label": "__gap",
        "offset": 0,
        "slot": "202",
        "type": "t_array(t_uint256)49_storage"
      },
      {
        "astId": 6153,
        "contract": "contracts/StakingPosition.sol:StakingPosition",
        "label": "stakeToken",
        "offset": 0,
        "slot": "251",
        "type": "t_contract(IERC20)3508"
      },
      {
        "astId": 6171,
        "contract": "contracts/StakingPosition.sol:StakingPosition",
        "label": "_aprLockOptions",
        "offset": 0,
        "slot": "252",
        "type": "t_array(t_struct(AprLock)6167_storage)dyn_storage"
      },
      {
        "astId": 6191,
        "contract": "contracts/StakingPosition.sol:StakingPosition",
        "label": "stakes",
        "offset": 0,
        "slot": "253",
        "type": "t_mapping(t_uint256,t_struct(Stake)6186_storage)"
      },
      {
        "astId": 6195,
        "contract": "contracts/StakingPosition.sol:StakingPosition",
        "label": "isBlacklisted",
        "offset": 0,
        "slot": "254",
        "type": "t_mapping(t_uint256,t_bool)"
      },
      {
        "astId": 6198,
        "contract": "contracts/StakingPosition.sol:StakingPosition",
        "label": "_ids",
        "offset": 0,
        "slot": "255",
        "type": "t_struct(Counter)2150_storage"
      },
      {
        "astId": 6200,
        "contract": "contracts/StakingPosition.sol:StakingPosition",
        "label": "baseTokenURI",
        "offset": 0,
        "slot": "256",
        "type": "t_string_storage"
      },
      {
        "astId": 6205,
        "contract": "contracts/StakingPosition.sol:StakingPosition",
        "label": "allUserOwned",
        "offset": 0,
        "slot": "257",
        "type": "t_mapping(t_address,t_array(t_uint256)dyn_storage)"
      },
      {
        "astId": 6209,
        "contract": "contracts/StakingPosition.sol:StakingPosition",
        "label": "ownedIndex",
        "offset": 0,
        "slot": "258",
        "type": "t_mapping(t_uint256,t_uint256)"
      },
      {
        "astId": 6213,
        "contract": "contracts/StakingPosition.sol:StakingPosition",
        "label": "tokenMintedAt",
        "offset": 0,
        "slot": "259",
        "type": "t_mapping(t_uint256,t_uint256)"
      },
      {
        "astId": 6217,
        "contract": "contracts/StakingPosition.sol:StakingPosition",
        "label": "tokenLastTransferred",
        "offset": 0,
        "slot": "260",
        "type": "t_mapping(t_uint256,t_uint256)"
      },
      {
        "astId": 6219,
        "contract": "contracts/StakingPosition.sol:StakingPosition",
        "label": "referralBonusAmount",
        "offset": 0,
        "slot": "261",
        "type": "t_uint256"
      },
      {
        "astId": 6221,
        "contract": "contracts/StakingPosition.sol:StakingPosition",
        "label": "referralMinAmount",
        "offset": 0,
        "slot": "262",
        "type": "t_uint256"
      },
      {
        "astId": 6223,
        "contract": "contracts/StakingPosition.sol:StakingPosition",
        "label": "referralBonusLockIndex",
        "offset": 0,
        "slot": "263",
        "type": "t_uint256"
      },
      {
        "astId": 6225,
        "contract": "contracts/StakingPosition.sol:StakingPosition",
        "label": "capacity",
        "offset": 0,
        "slot": "264",
        "type": "t_uint256"
      },
      {
        "astId": 6227,
        "contract": "contracts/StakingPosition.sol:StakingPosition",
        "label": "endTime",
        "offset": 0,
        "slot": "265",
        "type": "t_uint256"
      },
      {
        "astId": 6229,
        "contract": "contracts/StakingPosition.sol:StakingPosition",
        "label": "amountStaked",
        "offset": 0,
        "slot": "266",
        "type": "t_uint256"
      },
      {
        "astId": 6231,
        "contract": "contracts/StakingPosition.sol:StakingPosition",
        "label": "totalYieldAtMaturity",
        "offset": 0,
        "slot": "267",
        "type": "t_uint256"
      },
      {
        "astId": 6233,
        "contract": "contracts/StakingPosition.sol:StakingPosition",
        "label": "_operator",
        "offset": 0,
        "slot": "268",
        "type": "t_address"
      }
    ],
    "types": {
      "t_address": {
        "encoding": "inplace",
        "label": "address",
        "numberOfBytes": "20"
      },
      "t_array(t_struct(AprLock)6167_storage)dyn_storage": {
        "base": "t_struct(AprLock)6167_storage",
        "encoding": "dynamic_array",
        "label": "struct StakingPosition.AprLock[]",
        "numberOfBytes": "32"
      },
      "t_array(t_uint256)44_storage": {
        "base": "t_uint256",
        "encoding": "inplace",
        "label": "uint256[44]",
        "numberOfBytes": "1408"
      },
      "t_array(t_uint256)46_storage": {
        "base": "t_uint256",
        "encoding": "inplace",
        "label": "uint256[46]",
        "numberOfBytes": "1472"
      },
      "t_array(t_uint256)49_storage": {
        "base": "t_uint256",
        "encoding": "inplace",
        "label": "uint256[49]",
        "numberOfBytes": "1568"
      },
      "t_array(t_uint256)50_storage": {
        "base": "t_uint256",
        "encoding": "inplace",
        "label": "uint256[50]",
        "numberOfBytes": "1600"
      },
      "t_array(t_uint256)dyn_storage": {
        "base": "t_uint256",
        "encoding": "dynamic_array",
        "label": "uint256[]",
        "numberOfBytes": "32"
      },
      "t_bool": {
        "encoding": "inplace",
        "label": "bool",
        "numberOfBytes": "1"
      },
      "t_contract(IERC20)3508": {
        "encoding": "inplace",
        "label": "contract IERC20",
        "numberOfBytes": "20"
      },
      "t_mapping(t_address,t_array(t_uint256)dyn_storage)": {
        "encoding": "mapping",
        "key": "t_address",
        "label": "mapping(address => uint256[])",
        "numberOfBytes": "32",
        "value": "t_array(t_uint256)dyn_storage"
      },
      "t_mapping(t_address,t_bool)": {
        "encoding": "mapping",
        "key": "t_address",
        "label": "mapping(address => bool)",
        "numberOfBytes": "32",
        "value": "t_bool"
      },
      "t_mapping(t_address,t_mapping(t_address,t_bool))": {
        "encoding": "mapping",
        "key": "t_address",
        "label": "mapping(address => mapping(address => bool))",
        "numberOfBytes": "32",
        "value": "t_mapping(t_address,t_bool)"
      },
      "t_mapping(t_address,t_mapping(t_uint256,t_uint256))": {
        "encoding": "mapping",
        "key": "t_address",
        "label": "mapping(address => mapping(uint256 => uint256))",
        "numberOfBytes": "32",
        "value": "t_mapping(t_uint256,t_uint256)"
      },
      "t_mapping(t_address,t_uint256)": {
        "encoding": "mapping",
        "key": "t_address",
        "label": "mapping(address => uint256)",
        "numberOfBytes": "32",
        "value": "t_uint256"
      },
      "t_mapping(t_uint256,t_address)": {
        "encoding": "mapping",
        "key": "t_uint256",
        "label": "mapping(uint256 => address)",
        "numberOfBytes": "32",
        "value": "t_address"
      },
      "t_mapping(t_uint256,t_bool)": {
        "encoding": "mapping",
        "key": "t_uint256",
        "label": "mapping(uint256 => bool)",
        "numberOfBytes": "32",
        "value": "t_bool"
      },
      "t_mapping(t_uint256,t_struct(Stake)6186_storage)": {
        "encoding": "mapping",
        "key": "t_uint256",
        "label": "mapping(uint256 => struct StakingPosition.Stake)",
        "numberOfBytes": "32",
        "value": "t_struct(Stake)6186_storage"
      },
      "t_mapping(t_uint256,t_uint256)": {
        "encoding": "mapping",
        "key": "t_uint256",
        "label": "mapping(uint256 => uint256)",
        "numberOfBytes": "32",
        "value": "t_uint256"
      },
      "t_string_storage": {
        "encoding": "bytes",
        "label": "string",
        "numberOfBytes": "32"
      },
      "t_struct(AprLock)6167_storage": {
        "encoding": "inplace",
        "label": "struct StakingPosition.AprLock",
        "members": [
          {
            "astId": 6164,
            "contract": "contracts/StakingPosition.sol:StakingPosition",
            "label": "apr",
            "offset": 0,
            "slot": "0",
            "type": "t_uint16"
          },
          {
            "astId": 6166,
            "contract": "contracts/StakingPosition.sol:StakingPosition",
            "label": "lockTime",
            "offset": 0,
            "slot": "1",
            "type": "t_uint256"
          }
        ],
        "numberOfBytes": "64"
      },
      "t_struct(Counter)2150_storage": {
        "encoding": "inplace",
        "label": "struct CountersUpgradeable.Counter",
        "members": [
          {
            "astId": 2149,
            "contract": "contracts/StakingPosition.sol:StakingPosition",
            "label": "_value",
            "offset": 0,
            "slot": "0",
            "type": "t_uint256"
          }
        ],
        "numberOfBytes": "32"
      },
      "t_struct(Stake)6186_storage": {
        "encoding": "inplace",
        "label": "struct StakingPosition.Stake",
        "members": [
          {
            "astId": 6173,
            "contract": "contracts/StakingPosition.sol:StakingPosition",
            "label": "created",
            "offset": 0,
            "slot": "0",
            "type": "t_uint256"
          },
          {
            "astId": 6175,
            "contract": "contracts/StakingPosition.sol:StakingPosition",
            "label": "amountStaked",
            "offset": 0,
            "slot": "1",
            "type": "t_uint256"
          },
          {
            "astId": 6177,
            "contract": "contracts/StakingPosition.sol:StakingPosition",
            "label": "apr",
            "offset": 0,
            "slot": "2",
            "type": "t_uint16"
          },
          {
            "astId": 6179,
            "contract": "contracts/StakingPosition.sol:StakingPosition",
            "label": "lockTime",
            "offset": 0,
            "slot": "3",
            "type": "t_uint256"
          },
          {
            "astId": 6181,
            "contract": "contracts/StakingPosition.sol:StakingPosition",
            "label": "allowWithdrawEarly",
            "offset": 0,
            "slot": "4",
            "type": "t_bool"
          },
          {
            "astId": 6183,
            "contract": "contracts/StakingPosition.sol:StakingPosition",
            "label": "assetTransferred",
            "offset": 1,
            "slot": "4",
            "type": "t_bool"
          },
          {
            "astId": 6185,
            "contract": "contracts/StakingPosition.sol:StakingPosition",
            "label": "isBonusPosition",
            "offset": 2,
            "slot": "4",
            "type": "t_bool"
          }
        ],
        "numberOfBytes": "160"
      },
      "t_uint16": {
        "encoding": "inplace",
        "label": "uint16",
        "numberOfBytes": "2"
      },
      "t_uint256": {
        "encoding": "inplace",
        "label": "uint256",
        "numberOfBytes": "32"
      },
      "t_uint8": {
        "encoding": "inplace",
        "label": "uint8",
        "numberOfBytes": "1"
      }
    }
  }
}