{
  "address": "0x373bD251ABD9f270105A212458Df28ea0C574E37",
  "abi": [
    {
      "inputs": [],
      "stateMutability": "nonpayable",
      "type": "constructor"
    },
    {
      "anonymous": false,
      "inputs": [
        {
          "indexed": true,
          "internalType": "contract IERC20",
          "name": "_token",
          "type": "address"
        },
        {
          "indexed": false,
          "internalType": "address",
          "name": "_user",
          "type": "address"
        },
        {
          "indexed": false,
          "internalType": "uint256",
          "name": "_amount",
          "type": "uint256"
        }
      ],
      "name": "Deposit",
      "type": "event"
    },
    {
      "anonymous": false,
      "inputs": [
        {
          "indexed": true,
          "internalType": "contract IERC20",
          "name": "_stakeToken",
          "type": "address"
        },
        {
          "indexed": false,
          "internalType": "address",
          "name": "_user",
          "type": "address"
        },
        {
          "indexed": false,
          "internalType": "uint256",
          "name": "_amount",
          "type": "uint256"
        }
      ],
      "name": "FundsDeployed",
      "type": "event"
    },
    {
      "anonymous": false,
      "inputs": [
        {
          "indexed": true,
          "internalType": "contract IERC20",
          "name": "_stakeToken",
          "type": "address"
        },
        {
          "indexed": false,
          "internalType": "address",
          "name": "_user",
          "type": "address"
        },
        {
          "indexed": false,
          "internalType": "uint256",
          "name": "_amount",
          "type": "uint256"
        }
      ],
      "name": "FundsReturned",
      "type": "event"
    },
    {
      "anonymous": false,
      "inputs": [
        {
          "indexed": false,
          "internalType": "uint8",
          "name": "version",
          "type": "uint8"
        }
      ],
      "name": "Initialized",
      "type": "event"
    },
    {
      "anonymous": false,
      "inputs": [
        {
          "indexed": false,
          "internalType": "address",
          "name": "account",
          "type": "address"
        }
      ],
      "name": "Paused",
      "type": "event"
    },
    {
      "anonymous": false,
      "inputs": [
        {
          "indexed": true,
          "internalType": "bytes32",
          "name": "role",
          "type": "bytes32"
        },
        {
          "indexed": true,
          "internalType": "bytes32",
          "name": "previousAdminRole",
          "type": "bytes32"
        },
        {
          "indexed": true,
          "internalType": "bytes32",
          "name": "newAdminRole",
          "type": "bytes32"
        }
      ],
      "name": "RoleAdminChanged",
      "type": "event"
    },
    {
      "anonymous": false,
      "inputs": [
        {
          "indexed": true,
          "internalType": "bytes32",
          "name": "role",
          "type": "bytes32"
        },
        {
          "indexed": true,
          "internalType": "address",
          "name": "account",
          "type": "address"
        },
        {
          "indexed": true,
          "internalType": "address",
          "name": "sender",
          "type": "address"
        }
      ],
      "name": "RoleGranted",
      "type": "event"
    },
    {
      "anonymous": false,
      "inputs": [
        {
          "indexed": true,
          "internalType": "bytes32",
          "name": "role",
          "type": "bytes32"
        },
        {
          "indexed": true,
          "internalType": "address",
          "name": "account",
          "type": "address"
        },
        {
          "indexed": true,
          "internalType": "address",
          "name": "sender",
          "type": "address"
        }
      ],
      "name": "RoleRevoked",
      "type": "event"
    },
    {
      "anonymous": false,
      "inputs": [
        {
          "indexed": false,
          "internalType": "address",
          "name": "account",
          "type": "address"
        }
      ],
      "name": "Unpaused",
      "type": "event"
    },
    {
      "anonymous": false,
      "inputs": [
        {
          "indexed": true,
          "internalType": "contract IERC20",
          "name": "_stakeToken",
          "type": "address"
        },
        {
          "indexed": false,
          "internalType": "uint256",
          "name": "_capacity",
          "type": "uint256"
        },
        {
          "indexed": false,
          "internalType": "uint256",
          "name": "_endTime",
          "type": "uint256"
        },
        {
          "indexed": false,
          "internalType": "uint256",
          "name": "_bonusMax",
          "type": "uint256"
        },
        {
          "indexed": false,
          "internalType": "bool",
          "name": "_active",
          "type": "bool"
        }
      ],
      "name": "UpdateAssetMetadata",
      "type": "event"
    },
    {
      "anonymous": false,
      "inputs": [
        {
          "indexed": true,
          "internalType": "contract IERC20",
          "name": "_token",
          "type": "address"
        },
        {
          "indexed": false,
          "internalType": "address",
          "name": "_user",
          "type": "address"
        },
        {
          "indexed": false,
          "internalType": "uint256",
          "name": "_amount",
          "type": "uint256"
        }
      ],
      "name": "Withdraw",
      "type": "event"
    },
    {
      "inputs": [],
      "name": "DEFAULT_ADMIN_ROLE",
      "outputs": [
        {
          "internalType": "bytes32",
          "name": "",
          "type": "bytes32"
        }
      ],
      "stateMutability": "view",
      "type": "function"
    },
    {
      "inputs": [],
      "name": "OPERATOR_ROLE",
      "outputs": [
        {
          "internalType": "bytes32",
          "name": "",
          "type": "bytes32"
        }
      ],
      "stateMutability": "view",
      "type": "function"
    },
    {
      "inputs": [
        {
          "internalType": "address",
          "name": "_user",
          "type": "address"
        },
        {
          "internalType": "contract IERC20",
          "name": "_token",
          "type": "address"
        },
        {
          "internalType": "uint256",
          "name": "_amount",
          "type": "uint256"
        }
      ],
      "name": "_deposit",
      "outputs": [],
      "stateMutability": "nonpayable",
      "type": "function"
    },
    {
      "inputs": [
        {
          "internalType": "address",
          "name": "_user",
          "type": "address"
        },
        {
          "internalType": "contract IERC20",
          "name": "_token",
          "type": "address"
        },
        {
          "internalType": "uint256",
          "name": "_bonusAmount",
          "type": "uint256"
        },
        {
          "internalType": "uint256",
          "name": "_bonusCreated",
          "type": "uint256"
        },
        {
          "internalType": "uint256",
          "name": "_stakingDeposits",
          "type": "uint256"
        },
        {
          "internalType": "bool",
          "name": "_referralBonus",
          "type": "bool"
        }
      ],
      "name": "_updateUserBonus",
      "outputs": [],
      "stateMutability": "nonpayable",
      "type": "function"
    },
    {
      "inputs": [
        {
          "internalType": "address",
          "name": "_user",
          "type": "address"
        },
        {
          "internalType": "contract IERC20",
          "name": "_token",
          "type": "address"
        },
        {
          "internalType": "uint256",
          "name": "_amount",
          "type": "uint256"
        },
        {
          "internalType": "uint256",
          "name": "_yieldEarned",
          "type": "uint256"
        }
      ],
      "name": "_withdraw",
      "outputs": [],
      "stateMutability": "nonpayable",
      "type": "function"
    },
    {
      "inputs": [],
      "name": "admin",
      "outputs": [
        {
          "internalType": "address",
          "name": "",
          "type": "address"
        }
      ],
      "stateMutability": "view",
      "type": "function"
    },
    {
      "inputs": [
        {
          "internalType": "contract IStakingPosition",
          "name": "",
          "type": "address"
        }
      ],
      "name": "allStakePositions",
      "outputs": [
        {
          "internalType": "contract IERC20",
          "name": "",
          "type": "address"
        }
      ],
      "stateMutability": "view",
      "type": "function"
    },
    {
      "inputs": [
        {
          "internalType": "address",
          "name": "masterContract",
          "type": "address"
        },
        {
          "internalType": "bool",
          "name": "approved",
          "type": "bool"
        }
      ],
      "name": "allowMasterContract",
      "outputs": [],
      "stateMutability": "nonpayable",
      "type": "function"
    },
    {
      "inputs": [
        {
          "internalType": "address",
          "name": "",
          "type": "address"
        }
      ],
      "name": "allowedMasterContracts",
      "outputs": [
        {
          "internalType": "bool",
          "name": "",
          "type": "bool"
        }
      ],
      "stateMutability": "view",
      "type": "function"
    },
    {
      "inputs": [
        {
          "internalType": "contract IERC20",
          "name": "_token",
          "type": "address"
        },
        {
          "internalType": "uint256",
          "name": "_amount",
          "type": "uint256"
        },
        {
          "internalType": "address",
          "name": "_to",
          "type": "address"
        }
      ],
      "name": "deployFunds",
      "outputs": [],
      "stateMutability": "nonpayable",
      "type": "function"
    },
    {
      "inputs": [
        {
          "internalType": "address",
          "name": "_masterContract",
          "type": "address"
        },
        {
          "internalType": "string",
          "name": "_name",
          "type": "string"
        },
        {
          "internalType": "string",
          "name": "_symbol",
          "type": "string"
        },
        {
          "internalType": "contract IERC20",
          "name": "_stakeToken",
          "type": "address"
        },
        {
          "internalType": "string",
          "name": "_baseTokenURI",
          "type": "string"
        },
        {
          "internalType": "uint256",
          "name": "_capacity",
          "type": "uint256"
        },
        {
          "internalType": "uint256",
          "name": "_endTime",
          "type": "uint256"
        },
        {
          "internalType": "uint256",
          "name": "_bonusMax",
          "type": "uint256"
        },
        {
          "internalType": "uint256",
          "name": "_referralBonusAmount",
          "type": "uint256"
        },
        {
          "internalType": "uint256",
          "name": "_referralMinAmount",
          "type": "uint256"
        },
        {
          "internalType": "uint16[]",
          "name": "_aprAmounts",
          "type": "uint16[]"
        }
      ],
      "name": "deployStake",
      "outputs": [],
      "stateMutability": "nonpayable",
      "type": "function"
    },
    {
      "inputs": [
        {
          "internalType": "bytes32",
          "name": "role",
          "type": "bytes32"
        }
      ],
      "name": "getRoleAdmin",
      "outputs": [
        {
          "internalType": "bytes32",
          "name": "",
          "type": "bytes32"
        }
      ],
      "stateMutability": "view",
      "type": "function"
    },
    {
      "inputs": [
        {
          "internalType": "bytes32",
          "name": "role",
          "type": "bytes32"
        },
        {
          "internalType": "uint256",
          "name": "index",
          "type": "uint256"
        }
      ],
      "name": "getRoleMember",
      "outputs": [
        {
          "internalType": "address",
          "name": "",
          "type": "address"
        }
      ],
      "stateMutability": "view",
      "type": "function"
    },
    {
      "inputs": [
        {
          "internalType": "bytes32",
          "name": "role",
          "type": "bytes32"
        }
      ],
      "name": "getRoleMemberCount",
      "outputs": [
        {
          "internalType": "uint256",
          "name": "",
          "type": "uint256"
        }
      ],
      "stateMutability": "view",
      "type": "function"
    },
    {
      "inputs": [
        {
          "internalType": "contract IERC20",
          "name": "_token",
          "type": "address"
        },
        {
          "internalType": "address",
          "name": "_to",
          "type": "address"
        }
      ],
      "name": "governanceRecoverUnsupported",
      "outputs": [],
      "stateMutability": "nonpayable",
      "type": "function"
    },
    {
      "inputs": [
        {
          "internalType": "bytes32",
          "name": "role",
          "type": "bytes32"
        },
        {
          "internalType": "address",
          "name": "account",
          "type": "address"
        }
      ],
      "name": "grantRole",
      "outputs": [],
      "stateMutability": "nonpayable",
      "type": "function"
    },
    {
      "inputs": [
        {
          "internalType": "bytes32",
          "name": "role",
          "type": "bytes32"
        },
        {
          "internalType": "address",
          "name": "account",
          "type": "address"
        }
      ],
      "name": "hasRole",
      "outputs": [
        {
          "internalType": "bool",
          "name": "",
          "type": "bool"
        }
      ],
      "stateMutability": "view",
      "type": "function"
    },
    {
      "inputs": [
        {
          "internalType": "address",
          "name": "_admin",
          "type": "address"
        }
      ],
      "name": "initialize",
      "outputs": [],
      "stateMutability": "nonpayable",
      "type": "function"
    },
    {
      "inputs": [
        {
          "internalType": "address",
          "name": "",
          "type": "address"
        }
      ],
      "name": "masterContractOf",
      "outputs": [
        {
          "internalType": "address",
          "name": "",
          "type": "address"
        }
      ],
      "stateMutability": "view",
      "type": "function"
    },
    {
      "inputs": [],
      "name": "paused",
      "outputs": [
        {
          "internalType": "bool",
          "name": "",
          "type": "bool"
        }
      ],
      "stateMutability": "view",
      "type": "function"
    },
    {
      "inputs": [
        {
          "internalType": "bytes32",
          "name": "role",
          "type": "bytes32"
        },
        {
          "internalType": "address",
          "name": "account",
          "type": "address"
        }
      ],
      "name": "renounceRole",
      "outputs": [],
      "stateMutability": "nonpayable",
      "type": "function"
    },
    {
      "inputs": [
        {
          "internalType": "contract IERC20",
          "name": "_token",
          "type": "address"
        },
        {
          "internalType": "uint256",
          "name": "_amount",
          "type": "uint256"
        },
        {
          "internalType": "address",
          "name": "_from",
          "type": "address"
        }
      ],
      "name": "returnDeployedFunds",
      "outputs": [],
      "stateMutability": "nonpayable",
      "type": "function"
    },
    {
      "inputs": [
        {
          "internalType": "bytes32",
          "name": "role",
          "type": "bytes32"
        },
        {
          "internalType": "address",
          "name": "account",
          "type": "address"
        }
      ],
      "name": "revokeRole",
      "outputs": [],
      "stateMutability": "nonpayable",
      "type": "function"
    },
    {
      "inputs": [
        {
          "internalType": "contract IERC20",
          "name": "",
          "type": "address"
        }
      ],
      "name": "stakePosition",
      "outputs": [
        {
          "internalType": "contract IStakingPosition",
          "name": "",
          "type": "address"
        }
      ],
      "stateMutability": "view",
      "type": "function"
    },
    {
      "inputs": [
        {
          "internalType": "contract IERC20",
          "name": "",
          "type": "address"
        }
      ],
      "name": "stakePositionData",
      "outputs": [
        {
          "internalType": "uint256",
          "name": "created",
          "type": "uint256"
        },
        {
          "internalType": "uint256",
          "name": "capacity",
          "type": "uint256"
        },
        {
          "internalType": "uint256",
          "name": "stakedAmount",
          "type": "uint256"
        },
        {
          "internalType": "uint256",
          "name": "yieldEarned",
          "type": "uint256"
        },
        {
          "internalType": "uint256",
          "name": "endTime",
          "type": "uint256"
        },
        {
          "internalType": "uint256",
          "name": "deployedAmount",
          "type": "uint256"
        },
        {
          "internalType": "uint256",
          "name": "bonusMax",
          "type": "uint256"
        },
        {
          "internalType": "bool",
          "name": "active",
          "type": "bool"
        }
      ],
      "stateMutability": "view",
      "type": "function"
    },
    {
      "inputs": [
        {
          "internalType": "bytes4",
          "name": "interfaceId",
          "type": "bytes4"
        }
      ],
      "name": "supportsInterface",
      "outputs": [
        {
          "internalType": "bool",
          "name": "",
          "type": "bool"
        }
      ],
      "stateMutability": "view",
      "type": "function"
    },
    {
      "inputs": [
        {
          "internalType": "contract IERC20",
          "name": "_stakeToken",
          "type": "address"
        },
        {
          "internalType": "uint256",
          "name": "_capacity",
          "type": "uint256"
        },
        {
          "internalType": "uint256",
          "name": "_endTime",
          "type": "uint256"
        },
        {
          "internalType": "uint256",
          "name": "_bonusMax",
          "type": "uint256"
        },
        {
          "internalType": "bool",
          "name": "_active",
          "type": "bool"
        }
      ],
      "name": "updateAsset",
      "outputs": [],
      "stateMutability": "nonpayable",
      "type": "function"
    },
    {
      "inputs": [
        {
          "internalType": "address",
          "name": "",
          "type": "address"
        }
      ],
      "name": "usersBonus",
      "outputs": [
        {
          "internalType": "contract IERC20",
          "name": "bonusToken",
          "type": "address"
        },
        {
          "internalType": "uint256",
          "name": "bonusAmount",
          "type": "uint256"
        },
        {
          "internalType": "uint256",
          "name": "bonusCreated",
          "type": "uint256"
        },
        {
          "internalType": "uint256",
          "name": "stakingDeposits",
          "type": "uint256"
        },
        {
          "internalType": "bool",
          "name": "referralBonus",
          "type": "bool"
        }
      ],
      "stateMutability": "view",
      "type": "function"
    }
  ],
  "transactionHash": "0x7c49afc63b72da0f0d2441363c8eabc360178c6cca4dea847de8e8cc054247ea",
  "args": [],
  "numDeployments": 1,
  "solcInputHash": "4c2a491a0de22c380ecf681f4274f0b4",
  "bytecode": "0x608060405234801561001057600080fd5b5061001961001e565b6100de565b600054610100900460ff161561008a5760405162461bcd60e51b815260206004820152602760248201527f496e697469616c697a61626c653a20636f6e747261637420697320696e697469604482015266616c697a696e6760c81b606482015260840160405180910390fd5b60005460ff90811610156100dc576000805460ff191660ff9081179091556040519081527f7f26b83ff96e1f2b6a682f133852f6798a09c465da95921460cefb38474024989060200160405180910390a15b565b6123fc80620000ee6000396000f3fe608060405234801561001057600080fd5b50600436106101c45760003560e01c806397d3b573116100f9578063d1964ac311610097578063e401050311610071578063e4010503146104f5578063f5b541a61461051f578063f851a44014610546578063f8d155e01461055a57600080fd5b8063d1964ac314610450578063d547741f14610463578063dd0fb0881461047657600080fd5b8063bafe4f14116100d3578063bafe4f141461036e578063c08fe06614610398578063c4d66de81461042a578063ca15c8731461043d57600080fd5b806397d3b573146103405780639f13d57914610353578063a217fddf1461036657600080fd5b80633daf2491116101665780637160b02a116101405780637160b02a146102f45780639010d07c1461030757806391d148541461031a57806393537a4a1461032d57600080fd5b80633daf24911461029457806353b5f305146102d65780635c975abb146102e957600080fd5b80632f2ff15d116101a25780632f2ff15d1461023757806336568abe1461024a5780633ce5a14a1461025d5780633d9abadb1461027057600080fd5b806301ffc9a7146101c9578063121361aa146101f1578063248a9ca314610206575b600080fd5b6101dc6101d7366004611bc9565b61056d565b60405190151581526020015b60405180910390f35b6102046101ff366004611c13565b610598565b005b610229610214366004611c54565b60009081526097602052604090206001015490565b6040519081526020016101e8565b610204610245366004611c6d565b6106da565b610204610258366004611c6d565b610704565b61020461026b366004611cab565b610782565b6101dc61027e366004611d01565b61012d6020526000908152604090205460ff1681565b6102be6102a2366004611d01565b610132602052600090815260409020546001600160a01b031681565b6040516001600160a01b0390911681526020016101e8565b6102046102e4366004611d1e565b610879565b60335460ff166101dc565b610204610302366004611d85565b6108f6565b6102be610315366004611dc7565b610a69565b6101dc610328366004611c6d565b610a88565b61020461033b366004611d85565b610ab3565b61020461034e366004611de9565b610c18565b610204610361366004611e17565b610d42565b610229600081565b6102be61037c366004611d01565b61012e602052600090815260409020546001600160a01b031681565b6103ed6103a6366004611d01565b610131602052600090815260409020805460018201546002830154600384015460048501546005860154600687015460079097015495969495939492939192909160ff1688565b604080519889526020890197909752958701949094526060860192909252608085015260a084015260c0830152151560e0820152610100016101e8565b610204610438366004611d01565b610df2565b61022961044b366004611c54565b610f64565b61020461045e366004611f8d565b610f7b565b610204610471366004611c6d565b611302565b6104c1610484366004611d01565b61013460205260009081526040902080546001820154600283015460038401546004909401546001600160a01b0390931693919290919060ff1685565b604080516001600160a01b03909616865260208601949094529284019190915260608301521515608082015260a0016101e8565b6102be610503366004611d01565b610130602052600090815260409020546001600160a01b031681565b6102297f97667070c54ef182b0f5858b034beac1b6f3089aa2d3188bb1e8929f4fa9b92981565b610133546102be906001600160a01b031681565b610204610568366004612095565b611327565b60006001600160e01b03198216635a05180f60e01b14806105925750610592826114bb565b92915050565b6105a1336114f0565b6105c65760405162461bcd60e51b81526004016105bd906120db565b60405180910390fd5b6001600160a01b038216600090815261013160205260408120600281018054919284926105f4908490612111565b90915550506040516323b872dd60e01b81526001600160a01b038581166004830152306024830152604482018490528416906323b872dd906064016020604051808303816000875af115801561064e573d6000803e3d6000fd5b505050506040513d601f19601f820116820180604052508101906106729190612124565b61068e5760405162461bcd60e51b81526004016105bd90612141565b604080516001600160a01b038681168252602082018590528516917f5548c837ab068cf56a2c2479df0882a4922fd203edb7517321831d95078c5f62910160405180910390a250505050565b6000828152609760205260409020600101546106f581611556565b6106ff8383611563565b505050565b6001600160a01b03811633146107745760405162461bcd60e51b815260206004820152602f60248201527f416363657373436f6e74726f6c3a2063616e206f6e6c792072656e6f756e636560448201526e103937b632b9903337b91039b2b63360891b60648201526084016105bd565b61077e8282611585565b5050565b6101335433906001600160a01b031681146107af5760405162461bcd60e51b81526004016105bd906120db565b6001600160a01b038616600090815261013160205260409020546107e55760405162461bcd60e51b81526004016105bd90612178565b6001600160a01b03861660008181526101316020908152604091829020600181018990556004810188905560078101805487151560ff1990911681179091556006820188905583518a8152928301899052828401889052606083015291519192917fff736299849b4ac882035e9864f5eef06938a1ac64d5260a98892fa1caf139159181900360800190a250505050505050565b610882336114f0565b61089e5760405162461bcd60e51b81526004016105bd906120db565b6001600160a01b0395861660009081526101346020526040902080546001600160a01b031916959096169490941785556001850192909255600284015560038301556004909101805460ff1916911515919091179055565b6101335433906001600160a01b031681146109235760405162461bcd60e51b81526004016105bd906120db565b6001600160a01b038416600090815261013160205260409020546109595760405162461bcd60e51b81526004016105bd90612178565b6001600160a01b03841660009081526101316020526040812060058101805491928692610987908490612111565b909155505060405163a9059cbb60e01b81526001600160a01b0384811660048301526024820186905286169063a9059cbb906044016020604051808303816000875af11580156109db573d6000803e3d6000fd5b505050506040513d601f19601f820116820180604052508101906109ff9190612124565b610a1b5760405162461bcd60e51b81526004016105bd90612141565b604080516001600160a01b038581168252602082018790528716917f4e8dab10d05a07ef957b7628e008e14816b97a8fead4810029ffede230d1e17b91015b60405180910390a25050505050565b600082815260c960205260408120610a8190836115a7565b9392505050565b60009182526097602090815260408084206001600160a01b0393909316845291905290205460ff1690565b6101335433906001600160a01b03168114610ae05760405162461bcd60e51b81526004016105bd906120db565b6001600160a01b03841660009081526101316020526040902054610b165760405162461bcd60e51b81526004016105bd90612178565b6001600160a01b03848116600081815261013160205260409081902090516323b872dd60e01b8152928516600484015230602484015260448301869052916323b872dd906064016020604051808303816000875af1158015610b7c573d6000803e3d6000fd5b505050506040513d601f19601f82011682018060405250810190610ba09190612124565b610bbc5760405162461bcd60e51b81526004016105bd90612141565b83816005016000828254610bd091906121a6565b9091555050604080516001600160a01b038581168252602082018790528716917fd94415916610c60b0e0e439fd308b171a6e28fad608830cf17f14ff5928e22799101610a5a565b6101335433906001600160a01b03168114610c455760405162461bcd60e51b81526004016105bd906120db565b6040516370a0823160e01b81523060048201526001600160a01b0384169063a9059cbb90849083906370a0823190602401602060405180830381865afa158015610c93573d6000803e3d6000fd5b505050506040513d601f19601f82011682018060405250810190610cb791906121b9565b6040516001600160e01b031960e085901b1681526001600160a01b03909216600483015260248201526044016020604051808303816000875af1158015610d02573d6000803e3d6000fd5b505050506040513d601f19601f82011682018060405250810190610d269190612124565b6106ff5760405162461bcd60e51b81526004016105bd90612141565b6101335433906001600160a01b03168114610d6f5760405162461bcd60e51b81526004016105bd906120db565b6001600160a01b038316610dc55760405162461bcd60e51b815260206004820152601d60248201527f43616e6e6f742061646420636f6e74726163742061646472657373203000000060448201526064016105bd565b506001600160a01b0391909116600090815261012d60205260409020805460ff1916911515919091179055565b600054610100900460ff1615808015610e125750600054600160ff909116105b80610e2c5750303b158015610e2c575060005460ff166001145b610e8f5760405162461bcd60e51b815260206004820152602e60248201527f496e697469616c697a61626c653a20636f6e747261637420697320616c72656160448201526d191e481a5b9a5d1a585b1a5e995960921b60648201526084016105bd565b6000805460ff191660011790558015610eb2576000805461ff0019166101001790555b610eba6115b3565b610ec26115dc565b610eca61160b565b61013380546001600160a01b0319166001600160a01b038416179055610ef1600083611563565b610f1b7f97667070c54ef182b0f5858b034beac1b6f3089aa2d3188bb1e8929f4fa9b92983611563565b801561077e576000805461ff0019169055604051600181527f7f26b83ff96e1f2b6a682f133852f6798a09c465da95921460cefb38474024989060200160405180910390a15050565b600081815260c9602052604081206105929061163a565b6101335433906001600160a01b03168114610fa85760405162461bcd60e51b81526004016105bd906120db565b6001600160a01b038c16600090815261012d602052604090205460ff166110115760405162461bcd60e51b815260206004820152601d60248201527f436f6e747261637420686173206e6f74206265656e20616c6c6f77656400000060448201526064016105bd565b600061101c8d611644565b604051633649c47960e01b81529091506001600160a01b03821690633649c47990611055908f908f908f908f908c908c90600401612222565b600060405180830381600087803b15801561106f57600080fd5b505af1158015611083573d6000803e3d6000fd5b505050506111318a878a8a604080516101008101825242815260208082019485526000828401818152606084018281526080850196875260a0850183815260c08601998a52600160e087018181526001600160a01b03909c16855261013190955295909220935184559551918301919091559351600282015592516003840155905160048301555160058201559051600682015590516007909101805491151560ff19909216919091179055565b8061013060008c6001600160a01b03166001600160a01b0316815260200190815260200160002060006101000a8154816001600160a01b0302191690836001600160a01b03160217905550896101326000836001600160a01b03166001600160a01b0316815260200190815260200160002060006101000a8154816001600160a01b0302191690836001600160a01b031602179055508c61012e6000836001600160a01b03166001600160a01b0316815260200190815260200160002060006101000a8154816001600160a01b0302191690836001600160a01b0316021790555060008351905060008111156112f25760005b818110156112f0576001600160a01b03808d166000908152610130602052604090205486519116906301ede8dc9087908490811061126457611264612280565b60200260200101518360016112799190612111565b611286906276a700612296565b6040516001600160e01b031960e085901b16815261ffff90921660048301526024820152604401600060405180830381600087803b1580156112c757600080fd5b505af11580156112db573d6000803e3d6000fd5b50505050806112e9906122ad565b9050611224565b505b5050505050505050505050505050565b60008281526097602052604090206001015461131d81611556565b6106ff8383611585565b611330336114f0565b61134c5760405162461bcd60e51b81526004016105bd906120db565b6001600160a01b03831660009081526101316020526040902080546113835760405162461bcd60e51b81526004016105bd90612178565b8281600201600082825461139791906121a6565b92505081905550818160030160008282546113b29190612111565b90915550506001600160a01b0384167f9b1bfa7fa9ee420a16e124f794c35ac9f90472acc99140eb2f6447c714cad8eb866113ed8587612111565b604080516001600160a01b03909316835260208301919091520160405180910390a26001600160a01b03841663a9059cbb866114298587612111565b6040516001600160e01b031960e085901b1681526001600160a01b03909216600483015260248201526044016020604051808303816000875af1158015611474573d6000803e3d6000fd5b505050506040513d601f19601f820116820180604052508101906114989190612124565b6114b45760405162461bcd60e51b81526004016105bd90612141565b5050505050565b60006001600160e01b03198216637965db0b60e01b148061059257506301ffc9a760e01b6001600160e01b0319831614610592565b6001600160a01b03818116600090815261013260205260408120549091161561154e576001600160a01b0380831660008181526101326020908152604080832054851683526101309091529020549091160361154e57506001919050565b506000919050565b61156081336116de565b50565b61156d8282611737565b600082815260c9602052604090206106ff90826117bd565b61158f82826117d2565b600082815260c9602052604090206106ff9082611839565b6000610a81838361184e565b600054610100900460ff166115da5760405162461bcd60e51b81526004016105bd906122c6565b565b600054610100900460ff166116035760405162461bcd60e51b81526004016105bd906122c6565b6115da611878565b600054610100900460ff166116325760405162461bcd60e51b81526004016105bd906122c6565b6115da6118a6565b6000610592825490565b6000763d602d80600a3d3981f3363d3d373d3d3d363d730000008260601b60e81c176000526e5af43d82803e903d91602b57fd5bf38260781b17602052603760096000f090506001600160a01b0381166116d95760405162461bcd60e51b8152602060048201526016602482015275115490cc4c4d8dce8818dc99585d194819985a5b195960521b60448201526064016105bd565b919050565b6116e88282610a88565b61077e576116f5816118d9565b6117008360206118eb565b604051602001611711929190612311565b60408051601f198184030181529082905262461bcd60e51b82526105bd91600401612386565b6117418282610a88565b61077e5760008281526097602090815260408083206001600160a01b03851684529091529020805460ff191660011790556117793390565b6001600160a01b0316816001600160a01b0316837f2f8788117e7eff1d82e926ec794901d17c78024a50270940304540a733656f0d60405160405180910390a45050565b6000610a81836001600160a01b038416611a87565b6117dc8282610a88565b1561077e5760008281526097602090815260408083206001600160a01b0385168085529252808320805460ff1916905551339285917ff6391f5c32d9c69d2a47ea670b442974b53935d1edc7fd64eb21e047a839171b9190a45050565b6000610a81836001600160a01b038416611ad6565b600082600001828154811061186557611865612280565b9060005260206000200154905092915050565b600054610100900460ff1661189f5760405162461bcd60e51b81526004016105bd906122c6565b600160fb55565b600054610100900460ff166118cd5760405162461bcd60e51b81526004016105bd906122c6565b6033805460ff19169055565b60606105926001600160a01b03831660145b606060006118fa836002612296565b611905906002612111565b67ffffffffffffffff81111561191d5761191d611e45565b6040519080825280601f01601f191660200182016040528015611947576020820181803683370190505b509050600360fc1b8160008151811061196257611962612280565b60200101906001600160f81b031916908160001a905350600f60fb1b8160018151811061199157611991612280565b60200101906001600160f81b031916908160001a90535060006119b5846002612296565b6119c0906001612111565b90505b6001811115611a38576f181899199a1a9b1b9c1cb0b131b232b360811b85600f16601081106119f4576119f4612280565b1a60f81b828281518110611a0a57611a0a612280565b60200101906001600160f81b031916908160001a90535060049490941c93611a3181612399565b90506119c3565b508315610a815760405162461bcd60e51b815260206004820181905260248201527f537472696e67733a20686578206c656e67746820696e73756666696369656e7460448201526064016105bd565b6000818152600183016020526040812054611ace57508154600181810184556000848152602080822090930184905584548482528286019093526040902091909155610592565b506000610592565b60008181526001830160205260408120548015611bbf576000611afa6001836121a6565b8554909150600090611b0e906001906121a6565b9050818114611b73576000866000018281548110611b2e57611b2e612280565b9060005260206000200154905080876000018481548110611b5157611b51612280565b6000918252602080832090910192909255918252600188019052604090208390555b8554869080611b8457611b846123b0565b600190038181906000526020600020016000905590558560010160008681526020019081526020016000206000905560019350505050610592565b6000915050610592565b600060208284031215611bdb57600080fd5b81356001600160e01b031981168114610a8157600080fd5b6001600160a01b038116811461156057600080fd5b80356116d981611bf3565b600080600060608486031215611c2857600080fd5b8335611c3381611bf3565b92506020840135611c4381611bf3565b929592945050506040919091013590565b600060208284031215611c6657600080fd5b5035919050565b60008060408385031215611c8057600080fd5b823591506020830135611c9281611bf3565b809150509250929050565b801515811461156057600080fd5b600080600080600060a08688031215611cc357600080fd5b8535611cce81611bf3565b94506020860135935060408601359250606086013591506080860135611cf381611c9d565b809150509295509295909350565b600060208284031215611d1357600080fd5b8135610a8181611bf3565b60008060008060008060c08789031215611d3757600080fd5b8635611d4281611bf3565b95506020870135611d5281611bf3565b945060408701359350606087013592506080870135915060a0870135611d7781611c9d565b809150509295509295509295565b600080600060608486031215611d9a57600080fd5b8335611da581611bf3565b9250602084013591506040840135611dbc81611bf3565b809150509250925092565b60008060408385031215611dda57600080fd5b50508035926020909101359150565b60008060408385031215611dfc57600080fd5b8235611e0781611bf3565b91506020830135611c9281611bf3565b60008060408385031215611e2a57600080fd5b8235611e3581611bf3565b91506020830135611c9281611c9d565b634e487b7160e01b600052604160045260246000fd5b604051601f8201601f1916810167ffffffffffffffff81118282101715611e8457611e84611e45565b604052919050565b600082601f830112611e9d57600080fd5b813567ffffffffffffffff811115611eb757611eb7611e45565b611eca601f8201601f1916602001611e5b565b818152846020838601011115611edf57600080fd5b816020850160208301376000918101602001919091529392505050565b600082601f830112611f0d57600080fd5b8135602067ffffffffffffffff821115611f2957611f29611e45565b8160051b611f38828201611e5b565b9283528481018201928281019087851115611f5257600080fd5b83870192505b84831015611f8257823561ffff81168114611f735760008081fd5b82529183019190830190611f58565b979650505050505050565b60008060008060008060008060008060006101608c8e031215611faf57600080fd5b611fb88c611c08565b9a5067ffffffffffffffff8060208e01351115611fd457600080fd5b611fe48e60208f01358f01611e8c565b9a508060408e01351115611ff757600080fd5b6120078e60408f01358f01611e8c565b995061201560608e01611c08565b98508060808e0135111561202857600080fd5b6120388e60808f01358f01611e8c565b975060a08d0135965060c08d0135955060e08d013594506101008d013593506101208d01359250806101408e0135111561207157600080fd5b506120838d6101408e01358e01611efc565b90509295989b509295989b9093969950565b600080600080608085870312156120ab57600080fd5b84356120b681611bf3565b935060208501356120c681611bf3565b93969395505050506040820135916060013590565b60208082526006908201526510b7bbb732b960d11b604082015260600190565b634e487b7160e01b600052601160045260246000fd5b80820180821115610592576105926120fb565b60006020828403121561213657600080fd5b8151610a8181611c9d565b6020808252601e908201527f546f6b656e20636f756c64206e6f74206265207472616e736665727265640000604082015260600190565b60208082526014908201527314dd185ad948191bd95cc81b9bdd08195e1a5cdd60621b604082015260600190565b81810381811115610592576105926120fb565b6000602082840312156121cb57600080fd5b5051919050565b60005b838110156121ed5781810151838201526020016121d5565b50506000910152565b6000815180845261220e8160208601602086016121d2565b601f01601f19169290920160200192915050565b60c08152600061223560c08301896121f6565b828103602084015261224781896121f6565b6001600160a01b03881660408501528381036060850152905061226a81876121f6565b6080840195909552505060a00152949350505050565b634e487b7160e01b600052603260045260246000fd5b8082028115828204841417610592576105926120fb565b6000600182016122bf576122bf6120fb565b5060010190565b6020808252602b908201527f496e697469616c697a61626c653a20636f6e7472616374206973206e6f74206960408201526a6e697469616c697a696e6760a81b606082015260800190565b7f416363657373436f6e74726f6c3a206163636f756e74200000000000000000008152600083516123498160178501602088016121d2565b7001034b99036b4b9b9b4b733903937b6329607d1b601791840191820152835161237a8160288401602088016121d2565b01602801949350505050565b602081526000610a8160208301846121f6565b6000816123a8576123a86120fb565b506000190190565b634e487b7160e01b600052603160045260246000fdfea2646970667358221220032a980dfd391fc37b08d0a7f62f22c6fcd911124a43e92b88ca9cc5149b0db464736f6c63430008110033",
  "devdoc": {
    "kind": "dev",
    "methods": {
      "constructor": {
        "custom:oz-upgrades-unsafe-allow": "constructor"
      },
      "getRoleAdmin(bytes32)": {
        "details": "Returns the admin role that controls `role`. See {grantRole} and {revokeRole}. To change a role's admin, use {_setRoleAdmin}."
      },
      "getRoleMember(bytes32,uint256)": {
        "details": "Returns one of the accounts that have `role`. `index` must be a value between 0 and {getRoleMemberCount}, non-inclusive. Role bearers are not sorted in any particular way, and their ordering may change at any point. WARNING: When using {getRoleMember} and {getRoleMemberCount}, make sure you perform all queries on the same block. See the following https://forum.openzeppelin.com/t/iterating-over-elements-on-enumerableset-in-openzeppelin-contracts/2296[forum post] for more information."
      },
      "getRoleMemberCount(bytes32)": {
        "details": "Returns the number of accounts that have `role`. Can be used together with {getRoleMember} to enumerate all bearers of a role."
      },
      "grantRole(bytes32,address)": {
        "details": "Grants `role` to `account`. If `account` had not been already granted `role`, emits a {RoleGranted} event. Requirements: - the caller must have ``role``'s admin role. May emit a {RoleGranted} event."
      },
      "hasRole(bytes32,address)": {
        "details": "Returns `true` if `account` has been granted `role`."
      },
      "paused()": {
        "details": "Returns true if the contract is paused, and false otherwise."
      },
      "renounceRole(bytes32,address)": {
        "details": "Revokes `role` from the calling account. Roles are often managed via {grantRole} and {revokeRole}: this function's purpose is to provide a mechanism for accounts to lose their privileges if they are compromised (such as when a trusted device is misplaced). If the calling account had been revoked `role`, emits a {RoleRevoked} event. Requirements: - the caller must be `account`. May emit a {RoleRevoked} event."
      },
      "revokeRole(bytes32,address)": {
        "details": "Revokes `role` from `account`. If `account` had been granted `role`, emits a {RoleRevoked} event. Requirements: - the caller must have ``role``'s admin role. May emit a {RoleRevoked} event."
      },
      "supportsInterface(bytes4)": {
        "details": "See {IERC165-supportsInterface}."
      }
    },
    "version": 1
  },
  "userdoc": {
    "kind": "user",
    "methods": {},
    "version": 1
  },
  "storageLayout": {
    "storage": [
      {
        "astId": 797,
        "contract": "contracts/StakeVaultV2.sol:StakeVaultV2",
        "label": "_initialized",
        "offset": 0,
        "slot": "0",
        "type": "t_uint8"
      },
      {
        "astId": 800,
        "contract": "contracts/StakeVaultV2.sol:StakeVaultV2",
        "label": "_initializing",
        "offset": 1,
        "slot": "0",
        "type": "t_bool"
      },
      {
        "astId": 3080,
        "contract": "contracts/StakeVaultV2.sol:StakeVaultV2",
        "label": "__gap",
        "offset": 0,
        "slot": "1",
        "type": "t_array(t_uint256)50_storage"
      },
      {
        "astId": 980,
        "contract": "contracts/StakeVaultV2.sol:StakeVaultV2",
        "label": "_paused",
        "offset": 0,
        "slot": "51",
        "type": "t_bool"
      },
      {
        "astId": 1085,
        "contract": "contracts/StakeVaultV2.sol:StakeVaultV2",
        "label": "__gap",
        "offset": 0,
        "slot": "52",
        "type": "t_array(t_uint256)49_storage"
      },
      {
        "astId": 3373,
        "contract": "contracts/StakeVaultV2.sol:StakeVaultV2",
        "label": "__gap",
        "offset": 0,
        "slot": "101",
        "type": "t_array(t_uint256)50_storage"
      },
      {
        "astId": 184,
        "contract": "contracts/StakeVaultV2.sol:StakeVaultV2",
        "label": "_roles",
        "offset": 0,
        "slot": "151",
        "type": "t_mapping(t_bytes32,t_struct(RoleData)179_storage)"
      },
      {
        "astId": 479,
        "contract": "contracts/StakeVaultV2.sol:StakeVaultV2",
        "label": "__gap",
        "offset": 0,
        "slot": "152",
        "type": "t_array(t_uint256)49_storage"
      },
      {
        "astId": 33,
        "contract": "contracts/StakeVaultV2.sol:StakeVaultV2",
        "label": "_roleMembers",
        "offset": 0,
        "slot": "201",
        "type": "t_mapping(t_bytes32,t_struct(AddressSet)4577_storage)"
      },
      {
        "astId": 143,
        "contract": "contracts/StakeVaultV2.sol:StakeVaultV2",
        "label": "__gap",
        "offset": 0,
        "slot": "202",
        "type": "t_array(t_uint256)49_storage"
      },
      {
        "astId": 1100,
        "contract": "contracts/StakeVaultV2.sol:StakeVaultV2",
        "label": "_status",
        "offset": 0,
        "slot": "251",
        "type": "t_uint256"
      },
      {
        "astId": 1158,
        "contract": "contracts/StakeVaultV2.sol:StakeVaultV2",
        "label": "__gap",
        "offset": 0,
        "slot": "252",
        "type": "t_array(t_uint256)49_storage"
      },
      {
        "astId": 7632,
        "contract": "contracts/StakeVaultV2.sol:StakeVaultV2",
        "label": "allowedMasterContracts",
        "offset": 0,
        "slot": "301",
        "type": "t_mapping(t_address,t_bool)"
      },
      {
        "astId": 7636,
        "contract": "contracts/StakeVaultV2.sol:StakeVaultV2",
        "label": "masterContractOf",
        "offset": 0,
        "slot": "302",
        "type": "t_mapping(t_address,t_address)"
      },
      {
        "astId": 7640,
        "contract": "contracts/StakeVaultV2.sol:StakeVaultV2",
        "label": "_defaultAprLockOptions",
        "offset": 0,
        "slot": "303",
        "type": "t_array(t_struct(AprLockDefaults)7628_storage)dyn_storage"
      },
      {
        "astId": 7646,
        "contract": "contracts/StakeVaultV2.sol:StakeVaultV2",
        "label": "stakePosition",
        "offset": 0,
        "slot": "304",
        "type": "t_mapping(t_contract(IERC20)5058,t_contract(IStakingPosition)10310)"
      },
      {
        "astId": 7652,
        "contract": "contracts/StakeVaultV2.sol:StakeVaultV2",
        "label": "stakePositionData",
        "offset": 0,
        "slot": "305",
        "type": "t_mapping(t_contract(IERC20)5058,t_struct(StakeAsset)7611_storage)"
      },
      {
        "astId": 7658,
        "contract": "contracts/StakeVaultV2.sol:StakeVaultV2",
        "label": "allStakePositions",
        "offset": 0,
        "slot": "306",
        "type": "t_mapping(t_contract(IStakingPosition)10310,t_contract(IERC20)5058)"
      },
      {
        "astId": 7660,
        "contract": "contracts/StakeVaultV2.sol:StakeVaultV2",
        "label": "admin",
        "offset": 0,
        "slot": "307",
        "type": "t_address"
      },
      {
        "astId": 7670,
        "contract": "contracts/StakeVaultV2.sol:StakeVaultV2",
        "label": "usersBonus",
        "offset": 0,
        "slot": "308",
        "type": "t_mapping(t_address,t_struct(UserBonusData)7623_storage)"
      }
    ],
    "types": {
      "t_address": {
        "encoding": "inplace",
        "label": "address",
        "numberOfBytes": "20"
      },
      "t_array(t_bytes32)dyn_storage": {
        "base": "t_bytes32",
        "encoding": "dynamic_array",
        "label": "bytes32[]",
        "numberOfBytes": "32"
      },
      "t_array(t_struct(AprLockDefaults)7628_storage)dyn_storage": {
        "base": "t_struct(AprLockDefaults)7628_storage",
        "encoding": "dynamic_array",
        "label": "struct StakeVaultV2.AprLockDefaults[]",
        "numberOfBytes": "32"
      },
      "t_array(t_uint256)49_storage": {
        "base": "t_uint256",
        "encoding": "inplace",
        "label": "uint256[49]",
        "numberOfBytes": "1568"
      },
      "t_array(t_uint256)50_storage": {
        "base": "t_uint256",
        "encoding": "inplace",
        "label": "uint256[50]",
        "numberOfBytes": "1600"
      },
      "t_bool": {
        "encoding": "inplace",
        "label": "bool",
        "numberOfBytes": "1"
      },
      "t_bytes32": {
        "encoding": "inplace",
        "label": "bytes32",
        "numberOfBytes": "32"
      },
      "t_contract(IERC20)5058": {
        "encoding": "inplace",
        "label": "contract IERC20",
        "numberOfBytes": "20"
      },
      "t_contract(IStakingPosition)10310": {
        "encoding": "inplace",
        "label": "contract IStakingPosition",
        "numberOfBytes": "20"
      },
      "t_mapping(t_address,t_address)": {
        "encoding": "mapping",
        "key": "t_address",
        "label": "mapping(address => address)",
        "numberOfBytes": "32",
        "value": "t_address"
      },
      "t_mapping(t_address,t_bool)": {
        "encoding": "mapping",
        "key": "t_address",
        "label": "mapping(address => bool)",
        "numberOfBytes": "32",
        "value": "t_bool"
      },
      "t_mapping(t_address,t_struct(UserBonusData)7623_storage)": {
        "encoding": "mapping",
        "key": "t_address",
        "label": "mapping(address => struct StakeVaultV2.UserBonusData)",
        "numberOfBytes": "32",
        "value": "t_struct(UserBonusData)7623_storage"
      },
      "t_mapping(t_bytes32,t_struct(AddressSet)4577_storage)": {
        "encoding": "mapping",
        "key": "t_bytes32",
        "label": "mapping(bytes32 => struct EnumerableSetUpgradeable.AddressSet)",
        "numberOfBytes": "32",
        "value": "t_struct(AddressSet)4577_storage"
      },
      "t_mapping(t_bytes32,t_struct(RoleData)179_storage)": {
        "encoding": "mapping",
        "key": "t_bytes32",
        "label": "mapping(bytes32 => struct AccessControlUpgradeable.RoleData)",
        "numberOfBytes": "32",
        "value": "t_struct(RoleData)179_storage"
      },
      "t_mapping(t_bytes32,t_uint256)": {
        "encoding": "mapping",
        "key": "t_bytes32",
        "label": "mapping(bytes32 => uint256)",
        "numberOfBytes": "32",
        "value": "t_uint256"
      },
      "t_mapping(t_contract(IERC20)5058,t_contract(IStakingPosition)10310)": {
        "encoding": "mapping",
        "key": "t_contract(IERC20)5058",
        "label": "mapping(contract IERC20 => contract IStakingPosition)",
        "numberOfBytes": "32",
        "value": "t_contract(IStakingPosition)10310"
      },
      "t_mapping(t_contract(IERC20)5058,t_struct(StakeAsset)7611_storage)": {
        "encoding": "mapping",
        "key": "t_contract(IERC20)5058",
        "label": "mapping(contract IERC20 => struct StakeVaultV2.StakeAsset)",
        "numberOfBytes": "32",
        "value": "t_struct(StakeAsset)7611_storage"
      },
      "t_mapping(t_contract(IStakingPosition)10310,t_contract(IERC20)5058)": {
        "encoding": "mapping",
        "key": "t_contract(IStakingPosition)10310",
        "label": "mapping(contract IStakingPosition => contract IERC20)",
        "numberOfBytes": "32",
        "value": "t_contract(IERC20)5058"
      },
      "t_struct(AddressSet)4577_storage": {
        "encoding": "inplace",
        "label": "struct EnumerableSetUpgradeable.AddressSet",
        "members": [
          {
            "astId": 4576,
            "contract": "contracts/StakeVaultV2.sol:StakeVaultV2",
            "label": "_inner",
            "offset": 0,
            "slot": "0",
            "type": "t_struct(Set)4262_storage"
          }
        ],
        "numberOfBytes": "64"
      },
      "t_struct(AprLockDefaults)7628_storage": {
        "encoding": "inplace",
        "label": "struct StakeVaultV2.AprLockDefaults",
        "members": [
          {
            "astId": 7625,
            "contract": "contracts/StakeVaultV2.sol:StakeVaultV2",
            "label": "apr",
            "offset": 0,
            "slot": "0",
            "type": "t_uint16"
          },
          {
            "astId": 7627,
            "contract": "contracts/StakeVaultV2.sol:StakeVaultV2",
            "label": "lockTime",
            "offset": 0,
            "slot": "1",
            "type": "t_uint256"
          }
        ],
        "numberOfBytes": "64"
      },
      "t_struct(RoleData)179_storage": {
        "encoding": "inplace",
        "label": "struct AccessControlUpgradeable.RoleData",
        "members": [
          {
            "astId": 176,
            "contract": "contracts/StakeVaultV2.sol:StakeVaultV2",
            "label": "members",
            "offset": 0,
            "slot": "0",
            "type": "t_mapping(t_address,t_bool)"
          },
          {
            "astId": 178,
            "contract": "contracts/StakeVaultV2.sol:StakeVaultV2",
            "label": "adminRole",
            "offset": 0,
            "slot": "1",
            "type": "t_bytes32"
          }
        ],
        "numberOfBytes": "64"
      },
      "t_struct(Set)4262_storage": {
        "encoding": "inplace",
        "label": "struct EnumerableSetUpgradeable.Set",
        "members": [
          {
            "astId": 4257,
            "contract": "contracts/StakeVaultV2.sol:StakeVaultV2",
            "label": "_values",
            "offset": 0,
            "slot": "0",
            "type": "t_array(t_bytes32)dyn_storage"
          },
          {
            "astId": 4261,
            "contract": "contracts/StakeVaultV2.sol:StakeVaultV2",
            "label": "_indexes",
            "offset": 0,
            "slot": "1",
            "type": "t_mapping(t_bytes32,t_uint256)"
          }
        ],
        "numberOfBytes": "64"
      },
      "t_struct(StakeAsset)7611_storage": {
        "encoding": "inplace",
        "label": "struct StakeVaultV2.StakeAsset",
        "members": [
          {
            "astId": 7596,
            "contract": "contracts/StakeVaultV2.sol:StakeVaultV2",
            "label": "created",
            "offset": 0,
            "slot": "0",
            "type": "t_uint256"
          },
          {
            "astId": 7598,
            "contract": "contracts/StakeVaultV2.sol:StakeVaultV2",
            "label": "capacity",
            "offset": 0,
            "slot": "1",
            "type": "t_uint256"
          },
          {
            "astId": 7600,
            "contract": "contracts/StakeVaultV2.sol:StakeVaultV2",
            "label": "stakedAmount",
            "offset": 0,
            "slot": "2",
            "type": "t_uint256"
          },
          {
            "astId": 7602,
            "contract": "contracts/StakeVaultV2.sol:StakeVaultV2",
            "label": "yieldEarned",
            "offset": 0,
            "slot": "3",
            "type": "t_uint256"
          },
          {
            "astId": 7604,
            "contract": "contracts/StakeVaultV2.sol:StakeVaultV2",
            "label": "endTime",
            "offset": 0,
            "slot": "4",
            "type": "t_uint256"
          },
          {
            "astId": 7606,
            "contract": "contracts/StakeVaultV2.sol:StakeVaultV2",
            "label": "deployedAmount",
            "offset": 0,
            "slot": "5",
            "type": "t_uint256"
          },
          {
            "astId": 7608,
            "contract": "contracts/StakeVaultV2.sol:StakeVaultV2",
            "label": "bonusMax",
            "offset": 0,
            "slot": "6",
            "type": "t_uint256"
          },
          {
            "astId": 7610,
            "contract": "contracts/StakeVaultV2.sol:StakeVaultV2",
            "label": "active",
            "offset": 0,
            "slot": "7",
            "type": "t_bool"
          }
        ],
        "numberOfBytes": "256"
      },
      "t_struct(UserBonusData)7623_storage": {
        "encoding": "inplace",
        "label": "struct StakeVaultV2.UserBonusData",
        "members": [
          {
            "astId": 7614,
            "contract": "contracts/StakeVaultV2.sol:StakeVaultV2",
            "label": "bonusToken",
            "offset": 0,
            "slot": "0",
            "type": "t_contract(IERC20)5058"
          },
          {
            "astId": 7616,
            "contract": "contracts/StakeVaultV2.sol:StakeVaultV2",
            "label": "bonusAmount",
            "offset": 0,
            "slot": "1",
            "type": "t_uint256"
          },
          {
            "astId": 7618,
            "contract": "contracts/StakeVaultV2.sol:StakeVaultV2",
            "label": "bonusCreated",
            "offset": 0,
            "slot": "2",
            "type": "t_uint256"
          },
          {
            "astId": 7620,
            "contract": "contracts/StakeVaultV2.sol:StakeVaultV2",
            "label": "stakingDeposits",
            "offset": 0,
            "slot": "3",
            "type": "t_uint256"
          },
          {
            "astId": 7622,
            "contract": "contracts/StakeVaultV2.sol:StakeVaultV2",
            "label": "referralBonus",
            "offset": 0,
            "slot": "4",
            "type": "t_bool"
          }
        ],
        "numberOfBytes": "160"
      },
      "t_uint16": {
        "encoding": "inplace",
        "label": "uint16",
        "numberOfBytes": "2"
      },
      "t_uint256": {
        "encoding": "inplace",
        "label": "uint256",
        "numberOfBytes": "32"
      },
      "t_uint8": {
        "encoding": "inplace",
        "label": "uint8",
        "numberOfBytes": "1"
      }
    }
  }
}