{
  "address": "0xbbA10fB8BeE329D8f7E973B3787ad325061EC7c3",
  "abi": [
    {
      "inputs": [
        {
          "internalType": "address",
          "name": "_devAddress",
          "type": "address"
        }
      ],
      "stateMutability": "nonpayable",
      "type": "constructor"
    },
    {
      "anonymous": false,
      "inputs": [
        {
          "indexed": true,
          "internalType": "uint16",
          "name": "apr",
          "type": "uint16"
        },
        {
          "indexed": false,
          "internalType": "uint256",
          "name": "lockTime",
          "type": "uint256"
        }
      ],
      "name": "AddDefaultAprLockOption",
      "type": "event"
    },
    {
      "anonymous": false,
      "inputs": [
        {
          "indexed": true,
          "internalType": "address",
          "name": "previousOwner",
          "type": "address"
        },
        {
          "indexed": true,
          "internalType": "address",
          "name": "newOwner",
          "type": "address"
        }
      ],
      "name": "OwnershipTransferred",
      "type": "event"
    },
    {
      "anonymous": false,
      "inputs": [
        {
          "indexed": true,
          "internalType": "uint256",
          "name": "index",
          "type": "uint256"
        },
        {
          "indexed": true,
          "internalType": "uint16",
          "name": "apr",
          "type": "uint16"
        },
        {
          "indexed": false,
          "internalType": "uint256",
          "name": "lockTime",
          "type": "uint256"
        }
      ],
      "name": "RemoveDefaultAprLockOption",
      "type": "event"
    },
    {
      "anonymous": false,
      "inputs": [
        {
          "indexed": true,
          "internalType": "uint256",
          "name": "_stakeId",
          "type": "uint256"
        },
        {
          "indexed": false,
          "internalType": "uint256",
          "name": "_capacity",
          "type": "uint256"
        },
        {
          "indexed": false,
          "internalType": "uint256",
          "name": "_endTime",
          "type": "uint256"
        },
        {
          "indexed": false,
          "internalType": "bool",
          "name": "_active",
          "type": "bool"
        }
      ],
      "name": "UpdateAssetMetadata",
      "type": "event"
    },
    {
      "anonymous": false,
      "inputs": [
        {
          "indexed": true,
          "internalType": "uint256",
          "name": "index",
          "type": "uint256"
        },
        {
          "indexed": true,
          "internalType": "uint16",
          "name": "oldApr",
          "type": "uint16"
        },
        {
          "indexed": false,
          "internalType": "uint256",
          "name": "oldLockTime",
          "type": "uint256"
        },
        {
          "indexed": false,
          "internalType": "uint16",
          "name": "newApr",
          "type": "uint16"
        },
        {
          "indexed": false,
          "internalType": "uint256",
          "name": "newLockTime",
          "type": "uint256"
        }
      ],
      "name": "UpdateDefaultAprLockOption",
      "type": "event"
    },
    {
      "inputs": [
        {
          "internalType": "address",
          "name": "_user",
          "type": "address"
        },
        {
          "internalType": "address",
          "name": "_token",
          "type": "address"
        },
        {
          "internalType": "uint256",
          "name": "_amount",
          "type": "uint256"
        },
        {
          "internalType": "uint256",
          "name": "_yieldAtMaturity",
          "type": "uint256"
        }
      ],
      "name": "_deposit",
      "outputs": [],
      "stateMutability": "nonpayable",
      "type": "function"
    },
    {
      "inputs": [
        {
          "internalType": "address",
          "name": "_user",
          "type": "address"
        },
        {
          "internalType": "address",
          "name": "_token",
          "type": "address"
        },
        {
          "internalType": "uint256",
          "name": "_amount",
          "type": "uint256"
        }
      ],
      "name": "_withdraw",
      "outputs": [],
      "stateMutability": "nonpayable",
      "type": "function"
    },
    {
      "inputs": [
        {
          "internalType": "uint16",
          "name": "_apr",
          "type": "uint16"
        },
        {
          "internalType": "uint256",
          "name": "_lockTime",
          "type": "uint256"
        }
      ],
      "name": "defaultsAddAprLockOption",
      "outputs": [],
      "stateMutability": "nonpayable",
      "type": "function"
    },
    {
      "inputs": [],
      "name": "defaultsGetAllLockOptions",
      "outputs": [
        {
          "components": [
            {
              "internalType": "uint16",
              "name": "apr",
              "type": "uint16"
            },
            {
              "internalType": "uint256",
              "name": "lockTime",
              "type": "uint256"
            }
          ],
          "internalType": "struct StakeVault.AprLockDefaults[]",
          "name": "",
          "type": "tuple[]"
        }
      ],
      "stateMutability": "view",
      "type": "function"
    },
    {
      "inputs": [
        {
          "internalType": "uint256",
          "name": "_index",
          "type": "uint256"
        }
      ],
      "name": "defaultsRemoveAprLockOption",
      "outputs": [],
      "stateMutability": "nonpayable",
      "type": "function"
    },
    {
      "inputs": [
        {
          "internalType": "uint256",
          "name": "_index",
          "type": "uint256"
        },
        {
          "internalType": "uint16",
          "name": "_apr",
          "type": "uint16"
        },
        {
          "internalType": "uint256",
          "name": "_lockTime",
          "type": "uint256"
        }
      ],
      "name": "defaultsUpdateAprLockOption",
      "outputs": [],
      "stateMutability": "nonpayable",
      "type": "function"
    },
    {
      "inputs": [
        {
          "internalType": "string",
          "name": "_name",
          "type": "string"
        },
        {
          "internalType": "string",
          "name": "_symbol",
          "type": "string"
        },
        {
          "internalType": "address",
          "name": "_stakeToken",
          "type": "address"
        },
        {
          "internalType": "string",
          "name": "_baseTokenURI",
          "type": "string"
        },
        {
          "internalType": "uint256",
          "name": "_capacity",
          "type": "uint256"
        },
        {
          "internalType": "uint256",
          "name": "_endTime",
          "type": "uint256"
        },
        {
          "internalType": "bool",
          "name": "useDefaultLocks",
          "type": "bool"
        }
      ],
      "name": "deployStake",
      "outputs": [],
      "stateMutability": "nonpayable",
      "type": "function"
    },
    {
      "inputs": [
        {
          "internalType": "contract ERC20",
          "name": "_token",
          "type": "address"
        },
        {
          "internalType": "address",
          "name": "_to",
          "type": "address"
        }
      ],
      "name": "governanceRecoverUnsupported",
      "outputs": [],
      "stateMutability": "nonpayable",
      "type": "function"
    },
    {
      "inputs": [],
      "name": "owner",
      "outputs": [
        {
          "internalType": "address",
          "name": "",
          "type": "address"
        }
      ],
      "stateMutability": "view",
      "type": "function"
    },
    {
      "inputs": [
        {
          "internalType": "address",
          "name": "",
          "type": "address"
        }
      ],
      "name": "positionForAsset",
      "outputs": [
        {
          "internalType": "address",
          "name": "",
          "type": "address"
        }
      ],
      "stateMutability": "view",
      "type": "function"
    },
    {
      "inputs": [],
      "name": "renounceOwnership",
      "outputs": [],
      "stateMutability": "nonpayable",
      "type": "function"
    },
    {
      "inputs": [
        {
          "internalType": "uint256",
          "name": "",
          "type": "uint256"
        }
      ],
      "name": "stakeAssets",
      "outputs": [
        {
          "internalType": "address",
          "name": "stakeToken",
          "type": "address"
        },
        {
          "internalType": "address",
          "name": "positionToken",
          "type": "address"
        },
        {
          "internalType": "uint256",
          "name": "created",
          "type": "uint256"
        },
        {
          "internalType": "uint256",
          "name": "capacity",
          "type": "uint256"
        },
        {
          "internalType": "uint256",
          "name": "stakedAmount",
          "type": "uint256"
        },
        {
          "internalType": "uint256",
          "name": "yieldAtMaturity",
          "type": "uint256"
        },
        {
          "internalType": "uint256",
          "name": "endTime",
          "type": "uint256"
        },
        {
          "internalType": "bool",
          "name": "active",
          "type": "bool"
        }
      ],
      "stateMutability": "view",
      "type": "function"
    },
    {
      "inputs": [
        {
          "internalType": "address",
          "name": "",
          "type": "address"
        }
      ],
      "name": "stakePositionId",
      "outputs": [
        {
          "internalType": "uint256",
          "name": "",
          "type": "uint256"
        }
      ],
      "stateMutability": "view",
      "type": "function"
    },
    {
      "inputs": [
        {
          "internalType": "address",
          "name": "newOwner",
          "type": "address"
        }
      ],
      "name": "transferOwnership",
      "outputs": [],
      "stateMutability": "nonpayable",
      "type": "function"
    },
    {
      "inputs": [
        {
          "internalType": "uint256",
          "name": "_stakeId",
          "type": "uint256"
        },
        {
          "internalType": "uint256",
          "name": "_capacity",
          "type": "uint256"
        },
        {
          "internalType": "uint256",
          "name": "_endTime",
          "type": "uint256"
        },
        {
          "internalType": "bool",
          "name": "_active",
          "type": "bool"
        }
      ],
      "name": "updateAsset",
      "outputs": [],
      "stateMutability": "nonpayable",
      "type": "function"
    }
  ],
  "transactionHash": "0xc7bf0827e62448e0b0f1bde0dabe1ae549342080f4ebf77a2a10ab5cbcd4a4f5",
  "args": [
    "0x0D8e060CA2D847553ec14394ee6B304623E0d1d6"
  ],
  "numDeployments": 4,
  "solcInputHash": "896449a617454f7975f4975c191cd7fb",
  "bytecode": "0x60806040523480156200001157600080fd5b506040516200599238038062005992833981016040819052620000349162000229565b600160005562000044336200009a565b6200005461232861012c620000ec565b62000064612328610e10620000ec565b620000766109c4630163f500620000ec565b62000088610bb86301da9c00620000ec565b62000093816200009a565b506200025b565b600180546001600160a01b038381166001600160a01b0319831681179093556040519116919082907f8be0079c531659141344cd1fd0a4f28419497f9722a3daafe3b4186f6b6457e090600090a35050565b620000f6620001c8565b6200018582826040805180820190915261ffff92831681526020810191825260028054600181018255600082905291517f405787fa12a823e0f2b7631cc41b3ba8828b3321ca811111fa75cd3aa3bb5ace92909102918201805461ffff19169190941617909255517f405787fa12a823e0f2b7631cc41b3ba8828b3321ca811111fa75cd3aa3bb5acf90910155565b8161ffff167f9a2686eca6c511a01418325c6bbaf5fa57878dc2ca52091f4295990c2ab9ece682604051620001bc91815260200190565b60405180910390a25050565b6001546001600160a01b03163314620002275760405162461bcd60e51b815260206004820181905260248201527f4f776e61626c653a2063616c6c6572206973206e6f7420746865206f776e6572604482015260640160405180910390fd5b565b6000602082840312156200023c57600080fd5b81516001600160a01b03811681146200025457600080fd5b9392505050565b615727806200026b6000396000f3fe60806040523480156200001157600080fd5b5060043610620001095760003560e01c80637d848db211620000a3578063c14cfe09116200006e578063c14cfe091462000279578063d769b6f81462000290578063f2fde38b14620002bc578063f744070314620002d357600080fd5b80637d848db2146200020e5780638da5cb5b146200022557806397d3b573146200024b578063b2d35f81146200026257600080fd5b806350d86ba711620000e457806350d86ba714620001765780635831991f146200018d578063687a5f5e14620001ed578063715018a6146200020457600080fd5b806302db2b7a146200010e5780630d6af89014620001445780631208333a146200015d575b600080fd5b620001316200011f36600462001278565b60056020526000908152604090205481565b6040519081526020015b60405180910390f35b6200014e620002ea565b6040516200013b91906200129f565b620001746200016e366004620012f4565b6200035c565b005b6200017462000187366004620013f4565b62000458565b620001a46200019e366004620014c7565b620005ca565b604080516001600160a01b03998a168152989097166020890152958701949094526060860192909252608085015260a084015260c0830152151560e0820152610100016200013b565b62000174620001fe366004620014f9565b62000630565b6200017462000704565b620001746200021f36600462001526565b6200071c565b6001546001600160a01b03165b6040516001600160a01b0390911681526020016200013b565b620001746200025c3660046200156a565b6200082a565b6200017462000273366004620015a8565b6200093e565b620001746200028a366004620015e0565b62000a41565b62000232620002a136600462001278565b6004602052600090815260409020546001600160a01b031681565b62000174620002cd36600462001278565b62000bae565b62000174620002e4366004620014c7565b62000c2d565b60606002805480602002602001604051908101604052809291908181526020016000905b82821015620003535760008481526020908190206040805180820190915260028502909101805461ffff1682526001908101548284015290835290920191016200030e565b50505050905090565b620003673362000d7c565b806200037d57506001546001600160a01b031633145b620003b85760405162461bcd60e51b815260206004820152600660248201526510b7bbb732b960d11b60448201526064015b60405180910390fd5b6040516323b872dd60e01b81523060048201526001600160a01b038481166024830152604482018390528316906323b872dd906064016020604051808303816000875af11580156200040e573d6000803e3d6000fd5b505050506040513d601f19601f820116820180604052508101906200043491906200162b565b620004535760405162461bcd60e51b8152600401620003af906200164b565b505050565b6200046262000df7565b6200046d8562000e53565b15620004da5760405162461bcd60e51b815260206004820152603560248201527f5374616b6520616c72656164792065786973747320666f7220746869732061736044820152741cd95d0b081c1b19585cd9481d5c19185d19481a5d605a1b6064820152608401620003af565b600087878730888888604051620004f19062001254565b620005039796959493929190620016ca565b604051809103906000f08015801562000520573d6000803e3d6000fd5b509050620005318682868662000ec1565b8115620005435762000543816200106b565b806001600160a01b031663f2fde38b620005656001546001600160a01b031690565b6040516001600160e01b031960e084901b1681526001600160a01b039091166004820152602401600060405180830381600087803b158015620005a757600080fd5b505af1158015620005bc573d6000803e3d6000fd5b505050505050505050505050565b60038181548110620005db57600080fd5b6000918252602090912060089091020180546001820154600283015460038401546004850154600586015460068701546007909701546001600160a01b03968716985094909516959294919390929060ff1688565b6200063a62000df7565b6040805180820190915261ffff80841682526020820183815260028054600181018255600082905293517f405787fa12a823e0f2b7631cc41b3ba8828b3321ca811111fa75cd3aa3bb5ace94909102938401805461ffff19169190931617909155517f405787fa12a823e0f2b7631cc41b3ba8828b3321ca811111fa75cd3aa3bb5acf909101558161ffff167f9a2686eca6c511a01418325c6bbaf5fa57878dc2ca52091f4295990c2ab9ece682604051620006f891815260200190565b60405180910390a25050565b6200070e62000df7565b6200071a600062001202565b565b6200072662000df7565b6000600385815481106200073e576200073e62001737565b9060005260206000209060080201905060006003868154811062000766576200076662001737565b90600052602060002090600802016002015411620007be5760405162461bcd60e51b815260206004820152601460248201527314dd185ad948191bd95cc81b9bdd08195e1a5cdd60621b6044820152606401620003af565b600381018490556006810183905560078101805460ff191683151590811790915560408051868152602081018690529081019190915285907fa6f88a8445931d6b529a698670508303a971e39660d8e73f5ee2b18517fb9f1b9060600160405180910390a25050505050565b6200083462000df7565b6040516370a0823160e01b81523060048201526001600160a01b0383169063a9059cbb90839083906370a0823190602401602060405180830381865afa15801562000883573d6000803e3d6000fd5b505050506040513d601f19601f82011682018060405250810190620008a991906200174d565b6040516001600160e01b031960e085901b1681526001600160a01b03909216600483015260248201526044016020604051808303816000875af1158015620008f5573d6000803e3d6000fd5b505050506040513d601f19601f820116820180604052508101906200091b91906200162b565b6200093a5760405162461bcd60e51b8152600401620003af906200164b565b5050565b6200094862000df7565b60006002848154811062000960576200096062001737565b60009182526020918290206040805180820182526002938402909201805461ffff908116845260019091015483860152815180830190925287168152928301859052815490935086908110620009ba57620009ba62001737565b6000918252602091829020835160029290920201805461ffff191661ffff9283161781559282015160019093019290925582518382015160408051918252878516938201939093529182018590529091169085907fdd320d208886917751211c12be8869bc5eccc1b087e7202587c6068bc172a8809060600160405180910390a350505050565b62000a4c3362000d7c565b8062000a6257506001546001600160a01b031633145b62000a995760405162461bcd60e51b815260206004820152600660248201526510b7bbb732b960d11b6044820152606401620003af565b33600090815260056020526040812054600380549192918390811062000ac35762000ac362001737565b906000526020600020906008020190508381600401600082825462000ae991906200177d565b925050819055508281600501600082825462000b0691906200177d565b90915550506040516323b872dd60e01b81526001600160a01b038781166004830152306024830152604482018690528616906323b872dd906064016020604051808303816000875af115801562000b61573d6000803e3d6000fd5b505050506040513d601f19601f8201168201806040525081019062000b8791906200162b565b62000ba65760405162461bcd60e51b8152600401620003af906200164b565b505050505050565b62000bb862000df7565b6001600160a01b03811662000c1f5760405162461bcd60e51b815260206004820152602660248201527f4f776e61626c653a206e6577206f776e657220697320746865207a65726f206160448201526564647265737360d01b6064820152608401620003af565b62000c2a8162001202565b50565b62000c3762000df7565b60006002828154811062000c4f5762000c4f62001737565b6000918252602091829020604080518082019091526002928302909101805461ffff168252600190810154938201939093528154909350909162000c939162001799565b8154811062000ca65762000ca662001737565b90600052602060002090600202016002838154811062000cca5762000cca62001737565b6000918252602090912082546002928302909101805461ffff191661ffff90921691909117815560019283015492019190915580548062000d0f5762000d0f620017af565b6000828152602080822060026000199490940193840201805461ffff1916815560010191909155915581518282015160405190815261ffff9091169184917fced45780dc6f269221fefb37ed810ee28651e62e92dc7f655d574197b14105b5910160405180910390a35050565b600354600090815b8181101562000ded57836001600160a01b03166003828154811062000dad5762000dad62001737565b60009182526020909120600160089092020101546001600160a01b03160362000dda575060019392505050565b62000de581620017c5565b905062000d84565b5060009392505050565b6001546001600160a01b031633146200071a5760405162461bcd60e51b815260206004820181905260248201527f4f776e61626c653a2063616c6c6572206973206e6f7420746865206f776e65726044820152606401620003af565b600354600090815b8181101562000ded57836001600160a01b03166003828154811062000e845762000e8462001737565b60009182526020909120600890910201546001600160a01b03160362000eae575060019392505050565b62000eb981620017c5565b905062000e5b565b6003604051806101000160405280866001600160a01b03168152602001856001600160a01b03168152602001428152602001848152602001600081526020016000815260200183815260200160011515815250908060018154018082558091505060019003906000526020600020906008020160009091909190915060008201518160000160006101000a8154816001600160a01b0302191690836001600160a01b0316021790555060208201518160010160006101000a8154816001600160a01b0302191690836001600160a01b0316021790555060408201518160020155606082015181600301556080820151816004015560a0820151816005015560c0820151816006015560e08201518160070160006101000a81548160ff02191690831515021790555050508260046000866001600160a01b03166001600160a01b0316815260200190815260200160002060006101000a8154816001600160a01b0302191690836001600160a01b03160217905550600160038054905062001049919062001799565b6001600160a01b03909416600090815260056020526040902093909355505050565b604051627b7a3760e21b8152612328600482015261012c60248201526001600160a01b038216906301ede8dc90604401600060405180830381600087803b158015620010b657600080fd5b505af1158015620010cb573d6000803e3d6000fd5b5050604051627b7a3760e21b81526123286004820152610e1060248201526001600160a01b03841692506301ede8dc9150604401600060405180830381600087803b1580156200111a57600080fd5b505af11580156200112f573d6000803e3d6000fd5b5050604051627b7a3760e21b81526109c46004820152630163f50060248201526001600160a01b03841692506301ede8dc9150604401600060405180830381600087803b1580156200118057600080fd5b505af115801562001195573d6000803e3d6000fd5b5050604051627b7a3760e21b8152610bb860048201526301da9c0060248201526001600160a01b03841692506301ede8dc9150604401600060405180830381600087803b158015620011e657600080fd5b505af1158015620011fb573d6000803e3d6000fd5b5050505050565b600180546001600160a01b038381166001600160a01b0319831681179093556040519116919082907f8be0079c531659141344cd1fd0a4f28419497f9722a3daafe3b4186f6b6457e090600090a35050565b613f1080620017e283390190565b6001600160a01b038116811462000c2a57600080fd5b6000602082840312156200128b57600080fd5b8135620012988162001262565b9392505050565b602080825282518282018190526000919060409081850190868401855b82811015620012e7578151805161ffff168552860151868501529284019290850190600101620012bc565b5091979650505050505050565b6000806000606084860312156200130a57600080fd5b8335620013178162001262565b92506020840135620013298162001262565b929592945050506040919091013590565b634e487b7160e01b600052604160045260246000fd5b600082601f8301126200136257600080fd5b813567ffffffffffffffff808211156200138057620013806200133a565b604051601f8301601f19908116603f01168101908282118183101715620013ab57620013ab6200133a565b81604052838152866020858801011115620013c557600080fd5b836020870160208301376000602085830101528094505050505092915050565b801515811462000c2a57600080fd5b600080600080600080600060e0888a0312156200141057600080fd5b873567ffffffffffffffff808211156200142957600080fd5b620014378b838c0162001350565b985060208a01359150808211156200144e57600080fd5b6200145c8b838c0162001350565b975060408a01359150620014708262001262565b909550606089013590808211156200148757600080fd5b50620014968a828b0162001350565b9450506080880135925060a0880135915060c0880135620014b781620013e5565b8091505092959891949750929550565b600060208284031215620014da57600080fd5b5035919050565b803561ffff81168114620014f457600080fd5b919050565b600080604083850312156200150d57600080fd5b6200151883620014e1565b946020939093013593505050565b600080600080608085870312156200153d57600080fd5b84359350602085013592506040850135915060608501356200155f81620013e5565b939692955090935050565b600080604083850312156200157e57600080fd5b82356200158b8162001262565b915060208301356200159d8162001262565b809150509250929050565b600080600060608486031215620015be57600080fd5b83359250620015d060208501620014e1565b9150604084013590509250925092565b60008060008060808587031215620015f757600080fd5b8435620016048162001262565b93506020850135620016168162001262565b93969395505050506040820135916060013590565b6000602082840312156200163e57600080fd5b81516200129881620013e5565b6020808252601e908201527f546f6b656e20636f756c64206e6f74206265207472616e736665727265640000604082015260600190565b6000815180845260005b81811015620016aa576020818501810151868301820152016200168c565b506000602082860101526020601f19601f83011685010191505092915050565b60e081526000620016df60e083018a62001682565b8281036020840152620016f3818a62001682565b6001600160a01b038981166040860152881660608501528381036080850152905062001720818762001682565b60a0840195909552505060c0015295945050505050565b634e487b7160e01b600052603260045260246000fd5b6000602082840312156200176057600080fd5b5051919050565b634e487b7160e01b600052601160045260246000fd5b8082018082111562001793576200179362001767565b92915050565b8181038181111562001793576200179362001767565b634e487b7160e01b600052603160045260246000fd5b600060018201620017da57620017da62001767565b506001019056fe6080604052660aa87bee53800060175560016018553480156200002157600080fd5b5060405162003f1038038062003f10833981016040819052620000449162000214565b868660006200005483826200036d565b5060016200006382826200036d565b505050620000806200007a620000dc60201b60201c565b620000e0565b600b80546001600160a01b0319166001600160a01b0387161790556011620000a984826200036d565b50600c80546001600160a01b0319166001600160a01b03959095169490941790935560195550601a555062000439915050565b3390565b600a80546001600160a01b038381166001600160a01b0319831681179093556040519116919082907f8be0079c531659141344cd1fd0a4f28419497f9722a3daafe3b4186f6b6457e090600090a35050565b634e487b7160e01b600052604160045260246000fd5b600082601f8301126200015a57600080fd5b81516001600160401b038082111562000177576200017762000132565b604051601f8301601f19908116603f01168101908282118183101715620001a257620001a262000132565b81604052838152602092508683858801011115620001bf57600080fd5b600091505b83821015620001e35785820183015181830184015290820190620001c4565b600093810190920192909252949350505050565b80516001600160a01b03811681146200020f57600080fd5b919050565b600080600080600080600060e0888a0312156200023057600080fd5b87516001600160401b03808211156200024857600080fd5b620002568b838c0162000148565b985060208a01519150808211156200026d57600080fd5b6200027b8b838c0162000148565b97506200028b60408b01620001f7565b96506200029b60608b01620001f7565b955060808a0151915080821115620002b257600080fd5b50620002c18a828b0162000148565b93505060a0880151915060c0880151905092959891949750929550565b600181811c90821680620002f357607f821691505b6020821081036200031457634e487b7160e01b600052602260045260246000fd5b50919050565b601f8211156200036857600081815260208120601f850160051c81016020861015620003435750805b601f850160051c820191505b8181101562000364578281556001016200034f565b5050505b505050565b81516001600160401b0381111562000389576200038962000132565b620003a1816200039a8454620002de565b846200031a565b602080601f831160018114620003d95760008415620003c05750858301515b600019600386901b1c1916600185901b17855562000364565b600085815260208120601f198616915b828110156200040a57888601518255948401946001909101908401620003e9565b5085821015620004295787850151600019600388901b60f8161c191681555b5050505050600190811b01905550565b613ac780620004496000396000f3fe608060405234801561001057600080fd5b506004361061035d5760003560e01c8063715018a6116101d3578063ad63db3d11610104578063e8a3d485116100a2578063f2fde38b1161007c578063f2fde38b146107e8578063fab1e747146107fb578063fbfa77cf14610804578063ffa801361461081757600080fd5b8063e8a3d48514610791578063e92f6a1514610799578063e985e9c5146107ac57600080fd5b8063b88d4fde116100de578063b88d4fde146106e0578063c87b56dd146106f3578063d1c6b0ca14610706578063d5a44f861461071957600080fd5b8063ad63db3d14610694578063afd50d8f1461069d578063b4f0c830146106bd57600080fd5b806391915ef81161017157806399bbbbac1161014b57806399bbbbac14610646578063a22cb4651461065b578063a49991f31461066e578063a6bba7671461068157600080fd5b806391915ef81461061857806395d89b411461062b57806397d3b5731461063357600080fd5b80637b0472f0116101ad5780637b0472f0146105ce5780638da5cb5b146105e15780638f96a7cb146105f257806390e783281461060557600080fd5b8063715018a61461059e57806376772cf8146105a65780637974e46a146105c657600080fd5b80632f745c59116102ad5780634f6ccce71161024b5780635cfc1a51116102255780635cfc1a511461055c5780636352211e1461056557806364ed320d1461057857806370a082311461058b57600080fd5b80634f6ccce714610525578063500a15641461053857806355f804b31461054957600080fd5b806338f57ff31161028757806338f57ff3146104c957806342842e0e146104dc5780634670dd2d146104ef5780634752f9ef1461050257600080fd5b80632f745c591461049a5780633197cbb6146104ad57806338d07436146104b657600080fd5b8063095ea7b31161031a57806321e38514116102f457806321e38514146104415780632374346c1461045457806323b872dd14610467578063274de61e1461047a57600080fd5b8063095ea7b31461041357806318160ddd1461042657806320e3fa501461042e57600080fd5b806301ede8dc1461036257806301ffc9a71461037757806304ece5831461039f57806306fdde03146103c0578063081812fc146103d557806308b7424514610400575b600080fd5b6103756103703660046130af565b610837565b005b61038a6103853660046130ef565b610959565b60405190151581526020015b60405180910390f35b6103b26103ad36600461310c565b61096a565b604051908152602001610396565b6103c8610a33565b6040516103969190613175565b6103e86103e336600461310c565b610ac5565b6040516001600160a01b039091168152602001610396565b61037561040e366004613196565b610aec565b6103756104213660046131db565b610b44565b6008546103b2565b6103b261043c3660046131db565b610c59565b61037561044f3660046132c0565b610c8a565b61037561046236600461310c565b610ccb565b610375610475366004613307565b610e4c565b6103b261048836600461310c565b60136020526000908152604090205481565b6103b26104a83660046131db565b610e7d565b6103b2601a5481565b6103756104c4366004613196565b610f13565b6103756104d7366004613348565b611267565b6103756104ea366004613307565b61138f565b6103756104fd366004613381565b6113aa565b61038a61051036600461310c565b600f6020526000908152604090205460ff1681565b6103b261053336600461310c565b61150a565b600b546001600160a01b03166103e8565b61037561055736600461340e565b61159d565b6103b260195481565b6103e861057336600461310c565b6115f3565b6103b261058636600461310c565b611653565b6103b2610599366004613457565b6116e1565b610375611767565b6103b26105b436600461310c565b60146020526000908152604090205481565b6103b261177b565b6103756105dc366004613474565b61178b565b600a546001600160a01b03166103e8565b61038a61060036600461310c565b61179d565b61037561061336600461310c565b6117bc565b61037561062636600461310c565b6117f7565b6103c8611832565b610375610641366004613496565b611841565b61064e6119bc565b60405161039691906134c4565b610375610669366004613517565b611a2c565b6103b261067c36600461310c565b611a37565b61037561068f366004613545565b611acd565b6103b2601c5481565b6103b26106ab36600461310c565b60156020526000908152604090205481565b61038a6106cb366004613457565b60166020526000908152604090205460ff1681565b6103756106ee36600461359e565b611b15565b6103c861070136600461310c565b611b47565b61037561071436600461310c565b611bdd565b61075e61072736600461310c565b600e60205260009081526040902080546001820154600283015460038401546004909401549293919261ffff909116919060ff1685565b60408051958652602086019490945261ffff9092169284019290925260608301919091521515608082015260a001610396565b6103c8611c18565b6103756107a736600461361e565b611c46565b61038a6107ba366004613496565b6001600160a01b03918216600090815260056020908152604080832093909416825291909152205460ff1690565b6103756107f6366004613457565b611d8a565b6103b2601b5481565b600c546103e8906001600160a01b031681565b61082a610825366004613457565b611e03565b6040516103969190613653565b600c546001600160a01b031633148061086957503361085e600a546001600160a01b031690565b6001600160a01b0316145b61088e5760405162461bcd60e51b815260040161088590613697565b60405180910390fd5b6040805180820190915261ffff808416825260208201838152600d805460018101825560009190915292517fd7b6990105719101dabeb77144f2a3385c8033acd3af97e9423a695e81ad1eb56002909402938401805461ffff19169190931617909155517fd7b6990105719101dabeb77144f2a3385c8033acd3af97e9423a695e81ad1eb6909101558161ffff167fe01fdf33dfdfd42d6dc9b85e62d6750214967dddff00304f34c3fed1939bde0b8260405161094d91815260200190565b60405180910390a25050565b600061096482611e6f565b92915050565b6000818152600e60209081526040808320815160a0810183528154808252600183015494820194909452600282015461ffff1692810192909252600381015460608301526004015460ff16151560808201529082906109c990426136cd565b9050600082606001518211156109e4575060608201516109e7565b50805b6301e1338061271061ffff1682856040015161ffff168660200151610a0c91906136e0565b610a1691906136e0565b610a20919061370d565b610a2a919061370d565b95945050505050565b606060008054610a4290613721565b80601f0160208091040260200160405190810160405280929190818152602001828054610a6e90613721565b8015610abb5780601f10610a9057610100808354040283529160200191610abb565b820191906000526020600020905b815481529060010190602001808311610a9e57829003601f168201915b5050505050905090565b6000610ad082611e94565b506000908152600460205260409020546001600160a01b031690565b610af4611ef3565b6000828152600f6020908152604091829020805460ff1916841515908117909155915191825283917fd07a67329d87579b1994579e69a7e1df196e41e2c912c37b7b9d80ef0030238d910161094d565b6000610b4f826115f3565b9050806001600160a01b0316836001600160a01b031603610bbc5760405162461bcd60e51b815260206004820152602160248201527f4552433732313a20617070726f76616c20746f2063757272656e74206f776e656044820152603960f91b6064820152608401610885565b336001600160a01b0382161480610bd85750610bd881336107ba565b610c4a5760405162461bcd60e51b815260206004820152603e60248201527f4552433732313a20617070726f76652063616c6c6572206973206e6f7420746f60448201527f6b656e206f776e6572206e6f7220617070726f76656420666f7220616c6c00006064820152608401610885565b610c548383611f4d565b505050565b60126020528160005260406000208181548110610c7557600080fd5b90600052602060002001600091509150505481565b60005b8251811015610c5457610cb9838281518110610cab57610cab61375b565b602002602001015183610f13565b80610cc381613771565b915050610c8d565b600c546001600160a01b0316331480610cfd575033610cf2600a546001600160a01b031690565b6001600160a01b0316145b610d195760405162461bcd60e51b815260040161088590613697565b6000600d8281548110610d2e57610d2e61375b565b600091825260209182902060408051808201909152600290920201805461ffff16825260019081015492820192909252600d805491935091610d6f916136cd565b81548110610d7f57610d7f61375b565b9060005260206000209060020201600d8381548110610da057610da061375b565b600091825260209091208254600290920201805461ffff191661ffff909216919091178155600191820154910155600d805480610ddf57610ddf61378a565b6000828152602080822060026000199490940193840201805461ffff1916815560010191909155915581518282015160405190815261ffff9091169184917f31c7ae07732186951f28c3aa4b019b67ff0b121028ec0baa0127467a57d3d340910160405180910390a35050565b610e563382611fbb565b610e725760405162461bcd60e51b8152600401610885906137a0565b610c5483838361203a565b6000610e88836116e1565b8210610eea5760405162461bcd60e51b815260206004820152602b60248201527f455243373231456e756d657261626c653a206f776e657220696e646578206f7560448201526a74206f6620626f756e647360a81b6064820152608401610885565b506001600160a01b03919091166000908152600660209081526040808320938352929052205490565b6000828152600e6020908152604091829020825160a08101845281548152600182015492810192909252600281015461ffff16928201929092526003820154606082015260049091015460ff16151560808201523390610f72846115f3565b6001600160a01b0316826001600160a01b031614610fea5760405162461bcd60e51b815260206004820152602f60248201527f6f6e6c7920746865206f776e6572206f6620746865207374616b656420746f6b60448201526e656e732063616e20756e7374616b6560881b6064820152608401610885565b60608101518151600091610ffd916137ee565b42109050801561117e5781608001516110715760405162461bcd60e51b815260206004820152603060248201527f5468697320706f736974696f6e206973206e6f7420656c696769626c6520666f60448201526f72206561726c7920776974686472617760801b6064820152608401610885565b836110e45760405162461bcd60e51b815260206004820152603960248201527f4d7573742061636b6e6f776c6564676520746865206561726c7920776974686460448201527f7261772064756520746f206c6f7373206f6620746f6b656e73000000000000006064820152608401610885565b600c54600b5460208401516001600160a01b0392831692631208333a9287929116906111129060029061370d565b6040516001600160e01b031960e086901b1681526001600160a01b0393841660048201529290911660248301526044820152606401600060405180830381600087803b15801561116157600080fd5b505af1158015611175573d6000803e3d6000fd5b50505050611221565b60006111898661096a565b600c54600b5460208601519293506001600160a01b0391821692631208333a92889216906111b89086906137ee565b6040516001600160e01b031960e086901b1681526001600160a01b0393841660048201529290911660248301526044820152606401600060405180830381600087803b15801561120757600080fd5b505af115801561121b573d6000803e3d6000fd5b50505050505b61122a856121e7565b60405185906001600160a01b038516907ff74a79d13d6fdbdf26b2c779e6a24490a43e65d60cc7e064740f8d40b2b5ea2c90600090a35050505050565b3360009081526016602052604090205460ff16156112c05760405162461bcd60e51b8152602060048201526016602482015275109bdb9d5cc8185b1c9958591e481c9958d95a5d995960521b6044820152606401610885565b6112cf33848460016000612296565b6112e133601754601854600080612296565b6112f381601754601854600080612296565b60175460185460405133927feaaedb2f797ad9311d3350873d350ad04080ad6baa897e9cd8b891bf151f3a5e9261133292918252602082015260400190565b60405180910390a2806001600160a01b03167feaaedb2f797ad9311d3350873d350ad04080ad6baa897e9cd8b891bf151f3a5e601754601854604051611382929190918252602082015260400190565b60405180910390a2505050565b610c5483838360405180602001604052806000815250611b15565b6000828152600f602052604090205460ff16156113fb5760405162461bcd60e51b815260206004820152600f60248201526e189b1858dadb1a5cdd195908139195608a1b6044820152606401610885565b611404826115f3565b6001600160a01b0316836001600160a01b03161461142157600080fd5b6000828152600e6020908152604091829020825160a0810184528154808252600183015493820193909352600282015461ffff169381019390935260038101546060840181905260049091015460ff1615156080840152611481916137ee565b42116114cf5760405162461bcd60e51b815260206004820152601b60248201527f506f736974696f6e206973206e6f74206174206d6174757269747900000000006044820152606401610885565b60006114da8461096a565b90506114e5846121e7565b611503858284602001516114f991906137ee565b8560006001612296565b5050505050565b600061151560085490565b82106115785760405162461bcd60e51b815260206004820152602c60248201527f455243373231456e756d657261626c653a20676c6f62616c20696e646578206f60448201526b7574206f6620626f756e647360a01b6064820152608401610885565b6008828154811061158b5761158b61375b565b90600052602060002001549050919050565b6115a5611ef3565b60116115b1828261384f565b50806040516115c0919061390f565b604051908190038120907f199e933997358e1789d8b56ea8c551befeb05ce2fe3fe506199f1230f5a591b490600090a250565b6000818152600260205260408120546001600160a01b0316806109645760405162461bcd60e51b8152602060048201526018602482015277115490cdcc8c4e881a5b9d985b1a59081d1bdad95b88125160421b6044820152606401610885565b6000818152600e60209081526040808320815160a081018352815481526001820154938101849052600282015461ffff1692810183905260038201546060820181905260049092015460ff1615156080820152926301e133809261271092916116bc91906136e0565b6116c691906136e0565b6116d0919061370d565b6116da919061370d565b9392505050565b60006001600160a01b03821661174b5760405162461bcd60e51b815260206004820152602960248201527f4552433732313a2061646472657373207a65726f206973206e6f7420612076616044820152683634b21037bbb732b960b91b6064820152608401610885565b506001600160a01b031660009081526003602052604090205490565b61176f611ef3565b6117796000612703565b565b600061178660105490565b905090565b611799338383600180612296565b5050565b6000818152600260205260408120546001600160a01b03161515610964565b6117c4611ef3565b601881905560405181907fab03523d63fc2456e647e1335600dd48f2b3c9645b43f190cc1615863007e4ed90600090a250565b6117ff611ef3565b601981905560405181907f3e90590403178c03ff8343cdb359608fcc7678b15509de56e1be479af1b127be90600090a250565b606060018054610a4290613721565b600c546001600160a01b0316331480611873575033611868600a546001600160a01b031690565b6001600160a01b0316145b61188f5760405162461bcd60e51b815260040161088590613697565b6040516370a0823160e01b81523060048201526001600160a01b0383169063a9059cbb90839083906370a0823190602401602060405180830381865afa1580156118dd573d6000803e3d6000fd5b505050506040513d601f19601f82011682018060405250810190611901919061392b565b6040516001600160e01b031960e085901b1681526001600160a01b03909216600483015260248201526044016020604051808303816000875af115801561194c573d6000803e3d6000fd5b505050506040513d601f19601f820116820180604052508101906119709190613944565b6117995760405162461bcd60e51b815260206004820152601860248201527f436f756c64206e6f74207472616e7366657220746f6b656e00000000000000006044820152606401610885565b6060600d805480602002602001604051908101604052809291908181526020016000905b82821015611a235760008481526020908190206040805180820190915260028502909101805461ffff1682526001908101548284015290835290920191016119e0565b50505050905090565b611799338383612755565b6000818152600e60209081526040808320815160a081018352815481526001820154938101849052600282015461ffff1692810183905260038201546060820181905260049092015460ff1615156080820152926301e13380926127109291611aa091906136e0565b611aaa91906136e0565b611ab4919061370d565b611abe919061370d565b81602001516116da91906137ee565b60005b8251811015611b0f57611afd84848381518110611aef57611aef61375b565b6020026020010151846113aa565b80611b0781613771565b915050611ad0565b50505050565b611b1f3383611fbb565b611b3b5760405162461bcd60e51b8152600401610885906137a0565b611b0f84848484612823565b6000818152600260205260409020546060906001600160a01b0316611ba55760405162461bcd60e51b81526020600482015260146024820152731d1bdad95b88191bd95cc81b9bdd08195e1a5cdd60621b6044820152606401610885565b611bad612856565b611bb683612865565b604051602001611bc7929190613961565b6040516020818303038152906040529050919050565b611be5611ef3565b601781905560405181907f489c861b26977ea518d7106a69d4254fbe2c3cfb9cbf5ca4f7784058ec1c6ba490600090a250565b6060611c22612856565b604051602001611c3291906139a0565b604051602081830303815290604052905090565b600c546001600160a01b0316331480611c78575033611c6d600a546001600160a01b031690565b6001600160a01b0316145b611c945760405162461bcd60e51b815260040161088590613697565b6000600d8481548110611ca957611ca961375b565b60009182526020918290206040805180820182526002909302909101805461ffff908116845260019091015483850152815180830190925286168152918201849052600d80549193509086908110611d0357611d0361375b565b6000918252602091829020835160029290920201805461ffff191661ffff9283161781559282015160019093019290925582518382015160408051918252878516938201939093529182018590529091169085907f1d66929984041b98ee2942b02ecb1a94419d54cf725b2fff115bb7a6039a96c69060600160405180910390a350505050565b611d92611ef3565b6001600160a01b038116611df75760405162461bcd60e51b815260206004820152602660248201527f4f776e61626c653a206e6577206f776e657220697320746865207a65726f206160448201526564647265737360d01b6064820152608401610885565b611e0081612703565b50565b6001600160a01b038116600090815260126020908152604091829020805483518184028101840190945280845260609392830182828015611e6357602002820191906000526020600020905b815481526020019060010190808311611e4f575b50505050509050919050565b60006001600160e01b0319821663780e9d6360e01b1480610964575061096482612966565b6000818152600260205260409020546001600160a01b0316611e005760405162461bcd60e51b8152602060048201526018602482015277115490cdcc8c4e881a5b9d985b1a59081d1bdad95b88125160421b6044820152606401610885565b600a546001600160a01b031633146117795760405162461bcd60e51b815260206004820181905260248201527f4f776e61626c653a2063616c6c6572206973206e6f7420746865206f776e65726044820152606401610885565b600081815260046020526040902080546001600160a01b0319166001600160a01b0384169081179091558190611f82826115f3565b6001600160a01b03167f8c5be1e5ebec7d5bd14f71427d1e84f3dd0314c0f7b2291e5b200ac8c7c3b92560405160405180910390a45050565b600080611fc7836115f3565b9050806001600160a01b0316846001600160a01b0316148061200e57506001600160a01b0380821660009081526005602090815260408083209388168352929052205460ff165b806120325750836001600160a01b031661202784610ac5565b6001600160a01b0316145b949350505050565b826001600160a01b031661204d826115f3565b6001600160a01b0316146120b15760405162461bcd60e51b815260206004820152602560248201527f4552433732313a207472616e736665722066726f6d20696e636f72726563742060448201526437bbb732b960d91b6064820152608401610885565b6001600160a01b0382166121135760405162461bcd60e51b8152602060048201526024808201527f4552433732313a207472616e7366657220746f20746865207a65726f206164646044820152637265737360e01b6064820152608401610885565b61211e8383836129b6565b612129600082611f4d565b6001600160a01b03831660009081526003602052604081208054600192906121529084906136cd565b90915550506001600160a01b03821660009081526003602052604081208054600192906121809084906137ee565b909155505060008181526002602052604080822080546001600160a01b0319166001600160a01b0386811691821790925591518493918716917fddf252ad1be2c89b69c2b068fc378daa952ba7f163c4a11628f55a4df523b3ef91a4610c54838383612a23565b60006121f2826115f3565b9050612200816000846129b6565b61220b600083611f4d565b6001600160a01b03811660009081526003602052604081208054600192906122349084906136cd565b909155505060008281526002602052604080822080546001600160a01b0319169055518391906001600160a01b038416907fddf252ad1be2c89b69c2b068fc378daa952ba7f163c4a11628f55a4df523b3ef908390a461179981600084612a23565b600d5483106122dd5760405162461bcd60e51b815260206004820152601360248201527234b73b30b634b2103637b1b59037b83a34b7b760691b6044820152606401610885565b83156122e95783612357565b600b546040516370a0823160e01b81526001600160a01b038781166004830152909116906370a0823190602401602060405180830381865afa158015612333573d6000803e3d6000fd5b505050506040513d601f19601f82011682018060405250810190612357919061392b565b9350600084116123c05760405162461bcd60e51b815260206004820152602e60248201527f6d757374207374616b6520616e64206265206561726e696e67206174206c656160448201526d737420736f6d6520746f6b656e7360901b6064820152608401610885565b601954601b546123d090866137ee565b1115806123dd5750601954155b6124195760405162461bcd60e51b815260206004820152600d60248201526c4f76657220636170616369747960981b6044820152606401610885565b601a544211158061242a5750601a54155b61246a5760405162461bcd60e51b815260206004820152601160248201527029ba30b5b2903832b934b7b21037bb32b960791b6044820152606401610885565b83601b600082825461247c91906137ee565b909155505060108054600101905560006301e1338061271061ffff16600d86815481106124ab576124ab61375b565b906000526020600020906002020160010154600d87815481106124d0576124d061375b565b60009182526020909120600290910201546124ef9061ffff16896136e0565b6124f991906136e0565b612503919061370d565b61250d919061370d565b905080601c600082825461252191906137ee565b909155505082156125a457600c54600b5460405163c14cfe0960e01b81526001600160a01b0389811660048301529182166024820152604481018890526064810184905291169063c14cfe0990608401600060405180830381600087803b15801561258b57600080fd5b505af115801561259f573d6000803e3d6000fd5b505050505b6040518060a00160405280428152602001868152602001600d86815481106125ce576125ce61375b565b60009182526020918290206002909102015461ffff168252600d80549290910191879081106125ff576125ff61375b565b9060005260206000209060020201600101548152602001831515815250600e600061262960105490565b815260208082019290925260409081016000208351815591830151600183015582015160028201805461ffff191661ffff909216919091179055606082015160038201556080909101516004909101805460ff1916911515919091179055601054612695908790612bac565b42601460006126a360105490565b815260208101919091526040016000205560105460408051878152602081018790526001600160a01b038916917f7cc860bef2fa56b3d46227731e60b3b6ce0af9627bfdfbeca273f9ea5dae8a18910160405180910390a3505050505050565b600a80546001600160a01b038381166001600160a01b0319831681179093556040519116919082907f8be0079c531659141344cd1fd0a4f28419497f9722a3daafe3b4186f6b6457e090600090a35050565b816001600160a01b0316836001600160a01b0316036127b65760405162461bcd60e51b815260206004820152601960248201527f4552433732313a20617070726f766520746f2063616c6c6572000000000000006044820152606401610885565b6001600160a01b03838116600081815260056020908152604080832094871680845294825291829020805460ff191686151590811790915591519182527f17307eab39ab6107e8899845ad3d59bd9653f200f220920489ca2b5937696c31910160405180910390a3505050565b61282e84848461203a565b61283a84848484612bc6565b611b0f5760405162461bcd60e51b8152600401610885906139d1565b606060118054610a4290613721565b60608160000361288c5750506040805180820190915260018152600360fc1b602082015290565b8160005b81156128b657806128a081613771565b91506128af9050600a8361370d565b9150612890565b60008167ffffffffffffffff8111156128d1576128d16131f9565b6040519080825280601f01601f1916602001820160405280156128fb576020820181803683370190505b5090505b8415612032576129106001836136cd565b915061291d600a86613a23565b6129289060306137ee565b60f81b81838151811061293d5761293d61375b565b60200101906001600160f81b031916908160001a90535061295f600a8661370d565b94506128ff565b60006001600160e01b031982166380ac58cd60e01b148061299757506001600160e01b03198216635b5e139f60e01b145b8061096457506301ffc9a760e01b6001600160e01b0319831614610964565b6000818152600f602052604090205460ff1615612a075760405162461bcd60e51b815260206004820152600f60248201526e189b1858dadb1a5cdd195908139195608a1b6044820152606401610885565b6000818152601560205260409020429055610c54838383612cc7565b6001600160a01b03831615612b5d576000818152601360209081526040808320546001600160a01b0387168452601290925282208054919291612a68906001906136cd565b81548110612a7857612a7861375b565b60009182526020808320909101546001600160a01b038816835260129091526040909120805491925090612aae906001906136cd565b81548110612abe57612abe61375b565b906000526020600020015460126000876001600160a01b03166001600160a01b031681526020019081526020016000208381548110612aff57612aff61375b565b60009182526020808320909101929092556001600160a01b0387168152601290915260409020805480612b3457612b3461378a565b600082815260208082208301600019908101839055909201909255918152601390915260409020555b6001600160a01b03821615610c54576001600160a01b03919091166000908152601260208181526040808420805486865260138452918520829055928252600181018355918352909120015550565b611799828260405180602001604052806000815250612d7f565b60006001600160a01b0384163b15612cbc57604051630a85bd0160e11b81526001600160a01b0385169063150b7a0290612c0a903390899088908890600401613a37565b6020604051808303816000875af1925050508015612c45575060408051601f3d908101601f19168201909252612c4291810190613a74565b60015b612ca2573d808015612c73576040519150601f19603f3d011682016040523d82523d6000602084013e612c78565b606091505b508051600003612c9a5760405162461bcd60e51b8152600401610885906139d1565b805181602001fd5b6001600160e01b031916630a85bd0160e11b149050612032565b506001949350505050565b6001600160a01b038316612d2257612d1d81600880546000838152600960205260408120829055600182018355919091527ff3f7a9fe364faab93b216da50a3214154f22a0a2b415b23a84c8169e8b636ee30155565b612d45565b816001600160a01b0316836001600160a01b031614612d4557612d458382612db2565b6001600160a01b038216612d5c57610c5481612e4f565b826001600160a01b0316826001600160a01b031614610c5457610c548282612efe565b612d898383612f42565b612d966000848484612bc6565b610c545760405162461bcd60e51b8152600401610885906139d1565b60006001612dbf846116e1565b612dc991906136cd565b600083815260076020526040902054909150808214612e1c576001600160a01b03841660009081526006602090815260408083208584528252808320548484528184208190558352600790915290208190555b5060009182526007602090815260408084208490556001600160a01b039094168352600681528383209183525290812055565b600854600090612e61906001906136cd565b60008381526009602052604081205460088054939450909284908110612e8957612e8961375b565b906000526020600020015490508060088381548110612eaa57612eaa61375b565b6000918252602080832090910192909255828152600990915260408082208490558582528120556008805480612ee257612ee261378a565b6001900381819060005260206000200160009055905550505050565b6000612f09836116e1565b6001600160a01b039093166000908152600660209081526040808320868452825280832085905593825260079052919091209190915550565b6001600160a01b038216612f985760405162461bcd60e51b815260206004820181905260248201527f4552433732313a206d696e7420746f20746865207a65726f20616464726573736044820152606401610885565b6000818152600260205260409020546001600160a01b031615612ffd5760405162461bcd60e51b815260206004820152601c60248201527f4552433732313a20746f6b656e20616c7265616479206d696e746564000000006044820152606401610885565b613009600083836129b6565b6001600160a01b03821660009081526003602052604081208054600192906130329084906137ee565b909155505060008181526002602052604080822080546001600160a01b0319166001600160a01b03861690811790915590518392907fddf252ad1be2c89b69c2b068fc378daa952ba7f163c4a11628f55a4df523b3ef908290a461179960008383612a23565b803561ffff811681146130aa57600080fd5b919050565b600080604083850312156130c257600080fd5b6130cb83613098565b946020939093013593505050565b6001600160e01b031981168114611e0057600080fd5b60006020828403121561310157600080fd5b81356116da816130d9565b60006020828403121561311e57600080fd5b5035919050565b60005b83811015613140578181015183820152602001613128565b50506000910152565b60008151808452613161816020860160208601613125565b601f01601f19169290920160200192915050565b6020815260006116da6020830184613149565b8015158114611e0057600080fd5b600080604083850312156131a957600080fd5b8235915060208301356131bb81613188565b809150509250929050565b6001600160a01b0381168114611e0057600080fd5b600080604083850312156131ee57600080fd5b82356130cb816131c6565b634e487b7160e01b600052604160045260246000fd5b604051601f8201601f1916810167ffffffffffffffff81118282101715613238576132386131f9565b604052919050565b600082601f83011261325157600080fd5b8135602067ffffffffffffffff82111561326d5761326d6131f9565b8160051b61327c82820161320f565b928352848101820192828101908785111561329657600080fd5b83870192505b848310156132b55782358252918301919083019061329c565b979650505050505050565b600080604083850312156132d357600080fd5b823567ffffffffffffffff8111156132ea57600080fd5b6132f685828601613240565b92505060208301356131bb81613188565b60008060006060848603121561331c57600080fd5b8335613327816131c6565b92506020840135613337816131c6565b929592945050506040919091013590565b60008060006060848603121561335d57600080fd5b83359250602084013591506040840135613376816131c6565b809150509250925092565b60008060006060848603121561339657600080fd5b83356133a1816131c6565b95602085013595506040909401359392505050565b600067ffffffffffffffff8311156133d0576133d06131f9565b6133e3601f8401601f191660200161320f565b90508281528383830111156133f757600080fd5b828260208301376000602084830101529392505050565b60006020828403121561342057600080fd5b813567ffffffffffffffff81111561343757600080fd5b8201601f8101841361344857600080fd5b612032848235602084016133b6565b60006020828403121561346957600080fd5b81356116da816131c6565b6000806040838503121561348757600080fd5b50508035926020909101359150565b600080604083850312156134a957600080fd5b82356134b4816131c6565b915060208301356131bb816131c6565b602080825282518282018190526000919060409081850190868401855b8281101561350a578151805161ffff1685528601518685015292840192908501906001016134e1565b5091979650505050505050565b6000806040838503121561352a57600080fd5b8235613535816131c6565b915060208301356131bb81613188565b60008060006060848603121561355a57600080fd5b8335613565816131c6565b9250602084013567ffffffffffffffff81111561358157600080fd5b61358d86828701613240565b925050604084013590509250925092565b600080600080608085870312156135b457600080fd5b84356135bf816131c6565b935060208501356135cf816131c6565b925060408501359150606085013567ffffffffffffffff8111156135f257600080fd5b8501601f8101871361360357600080fd5b613612878235602084016133b6565b91505092959194509250565b60008060006060848603121561363357600080fd5b8335925061364360208501613098565b9150604084013590509250925092565b6020808252825182820181905260009190848201906040850190845b8181101561368b5783518352928401929184019160010161366f565b50909695505050505050565b60208082526006908201526510b7bbb732b960d11b604082015260600190565b634e487b7160e01b600052601160045260246000fd5b81810381811115610964576109646136b7565b8082028115828204841417610964576109646136b7565b634e487b7160e01b600052601260045260246000fd5b60008261371c5761371c6136f7565b500490565b600181811c9082168061373557607f821691505b60208210810361375557634e487b7160e01b600052602260045260246000fd5b50919050565b634e487b7160e01b600052603260045260246000fd5b600060018201613783576137836136b7565b5060010190565b634e487b7160e01b600052603160045260246000fd5b6020808252602e908201527f4552433732313a2063616c6c6572206973206e6f7420746f6b656e206f776e6560408201526d1c881b9bdc88185c1c1c9bdd995960921b606082015260800190565b80820180821115610964576109646136b7565b601f821115610c5457600081815260208120601f850160051c810160208610156138285750805b601f850160051c820191505b8181101561384757828155600101613834565b505050505050565b815167ffffffffffffffff811115613869576138696131f9565b61387d816138778454613721565b84613801565b602080601f8311600181146138b2576000841561389a5750858301515b600019600386901b1c1916600185901b178555613847565b600085815260208120601f198616915b828110156138e1578886015182559484019460019091019084016138c2565b50858210156138ff5787850151600019600388901b60f8161c191681555b5050505050600190811b01905550565b60008251613921818460208701613125565b9190910192915050565b60006020828403121561393d57600080fd5b5051919050565b60006020828403121561395657600080fd5b81516116da81613188565b60008351613973818460208801613125565b835190830190613987818360208801613125565b64173539b7b760d91b9101908152600501949350505050565b600082516139b2818460208701613125565b6c31b7b73a3930b1ba173539b7b760991b920191825250600d01919050565b60208082526032908201527f4552433732313a207472616e7366657220746f206e6f6e20455243373231526560408201527131b2b4bb32b91034b6b83632b6b2b73a32b960711b606082015260800190565b600082613a3257613a326136f7565b500690565b6001600160a01b0385811682528416602082015260408101839052608060608201819052600090613a6a90830184613149565b9695505050505050565b600060208284031215613a8657600080fd5b81516116da816130d956fea2646970667358221220f81833e37f17f47a886c41bb6fad0244eda098c835be52b6ef0d4fa3e145d80f64736f6c63430008110033a2646970667358221220451321da90dc4b7627a32839184b8fda0c3e92896aa6d574c843f272a158cec664736f6c63430008110033",
  "devdoc": {
    "kind": "dev",
    "methods": {
      "owner()": {
        "details": "Returns the address of the current owner."
      },
      "renounceOwnership()": {
        "details": "Leaves the contract without owner. It will not be possible to call `onlyOwner` functions anymore. Can only be called by the current owner. NOTE: Renouncing ownership will leave the contract without an owner, thereby removing any functionality that is only available to the owner."
      },
      "transferOwnership(address)": {
        "details": "Transfers ownership of the contract to a new account (`newOwner`). Can only be called by the current owner."
      }
    },
    "version": 1
  },
  "userdoc": {
    "kind": "user",
    "methods": {},
    "version": 1
  },
  "storageLayout": {
    "storage": [
      {
        "astId": 126,
        "contract": "contracts/StakeVault.sol:StakeVault",
        "label": "_status",
        "offset": 0,
        "slot": "0",
        "type": "t_uint256"
      },
      {
        "astId": 7,
        "contract": "contracts/StakeVault.sol:StakeVault",
        "label": "_owner",
        "offset": 0,
        "slot": "1",
        "type": "t_address"
      },
      {
        "astId": 2940,
        "contract": "contracts/StakeVault.sol:StakeVault",
        "label": "_defaultAprLockOptions",
        "offset": 0,
        "slot": "2",
        "type": "t_array(t_struct(AprLockDefaults)2936_storage)dyn_storage"
      },
      {
        "astId": 2944,
        "contract": "contracts/StakeVault.sol:StakeVault",
        "label": "stakeAssets",
        "offset": 0,
        "slot": "3",
        "type": "t_array(t_struct(StakeAsset)2931_storage)dyn_storage"
      },
      {
        "astId": 2948,
        "contract": "contracts/StakeVault.sol:StakeVault",
        "label": "positionForAsset",
        "offset": 0,
        "slot": "4",
        "type": "t_mapping(t_address,t_address)"
      },
      {
        "astId": 2952,
        "contract": "contracts/StakeVault.sol:StakeVault",
        "label": "stakePositionId",
        "offset": 0,
        "slot": "5",
        "type": "t_mapping(t_address,t_uint256)"
      },
      {
        "astId": 2955,
        "contract": "contracts/StakeVault.sol:StakeVault",
        "label": "_ids",
        "offset": 0,
        "slot": "6",
        "type": "t_struct(Counter)2564_storage"
      }
    ],
    "types": {
      "t_address": {
        "encoding": "inplace",
        "label": "address",
        "numberOfBytes": "20"
      },
      "t_array(t_struct(AprLockDefaults)2936_storage)dyn_storage": {
        "base": "t_struct(AprLockDefaults)2936_storage",
        "encoding": "dynamic_array",
        "label": "struct StakeVault.AprLockDefaults[]",
        "numberOfBytes": "32"
      },
      "t_array(t_struct(StakeAsset)2931_storage)dyn_storage": {
        "base": "t_struct(StakeAsset)2931_storage",
        "encoding": "dynamic_array",
        "label": "struct StakeVault.StakeAsset[]",
        "numberOfBytes": "32"
      },
      "t_bool": {
        "encoding": "inplace",
        "label": "bool",
        "numberOfBytes": "1"
      },
      "t_mapping(t_address,t_address)": {
        "encoding": "mapping",
        "key": "t_address",
        "label": "mapping(address => address)",
        "numberOfBytes": "32",
        "value": "t_address"
      },
      "t_mapping(t_address,t_uint256)": {
        "encoding": "mapping",
        "key": "t_address",
        "label": "mapping(address => uint256)",
        "numberOfBytes": "32",
        "value": "t_uint256"
      },
      "t_struct(AprLockDefaults)2936_storage": {
        "encoding": "inplace",
        "label": "struct StakeVault.AprLockDefaults",
        "members": [
          {
            "astId": 2933,
            "contract": "contracts/StakeVault.sol:StakeVault",
            "label": "apr",
            "offset": 0,
            "slot": "0",
            "type": "t_uint16"
          },
          {
            "astId": 2935,
            "contract": "contracts/StakeVault.sol:StakeVault",
            "label": "lockTime",
            "offset": 0,
            "slot": "1",
            "type": "t_uint256"
          }
        ],
        "numberOfBytes": "64"
      },
      "t_struct(Counter)2564_storage": {
        "encoding": "inplace",
        "label": "struct Counters.Counter",
        "members": [
          {
            "astId": 2563,
            "contract": "contracts/StakeVault.sol:StakeVault",
            "label": "_value",
            "offset": 0,
            "slot": "0",
            "type": "t_uint256"
          }
        ],
        "numberOfBytes": "32"
      },
      "t_struct(StakeAsset)2931_storage": {
        "encoding": "inplace",
        "label": "struct StakeVault.StakeAsset",
        "members": [
          {
            "astId": 2916,
            "contract": "contracts/StakeVault.sol:StakeVault",
            "label": "stakeToken",
            "offset": 0,
            "slot": "0",
            "type": "t_address"
          },
          {
            "astId": 2918,
            "contract": "contracts/StakeVault.sol:StakeVault",
            "label": "positionToken",
            "offset": 0,
            "slot": "1",
            "type": "t_address"
          },
          {
            "astId": 2920,
            "contract": "contracts/StakeVault.sol:StakeVault",
            "label": "created",
            "offset": 0,
            "slot": "2",
            "type": "t_uint256"
          },
          {
            "astId": 2922,
            "contract": "contracts/StakeVault.sol:StakeVault",
            "label": "capacity",
            "offset": 0,
            "slot": "3",
            "type": "t_uint256"
          },
          {
            "astId": 2924,
            "contract": "contracts/StakeVault.sol:StakeVault",
            "label": "stakedAmount",
            "offset": 0,
            "slot": "4",
            "type": "t_uint256"
          },
          {
            "astId": 2926,
            "contract": "contracts/StakeVault.sol:StakeVault",
            "label": "yieldAtMaturity",
            "offset": 0,
            "slot": "5",
            "type": "t_uint256"
          },
          {
            "astId": 2928,
            "contract": "contracts/StakeVault.sol:StakeVault",
            "label": "endTime",
            "offset": 0,
            "slot": "6",
            "type": "t_uint256"
          },
          {
            "astId": 2930,
            "contract": "contracts/StakeVault.sol:StakeVault",
            "label": "active",
            "offset": 0,
            "slot": "7",
            "type": "t_bool"
          }
        ],
        "numberOfBytes": "256"
      },
      "t_uint16": {
        "encoding": "inplace",
        "label": "uint16",
        "numberOfBytes": "2"
      },
      "t_uint256": {
        "encoding": "inplace",
        "label": "uint256",
        "numberOfBytes": "32"
      }
    }
  }
}