{
  "address": "0xd5ABcFEDA591A33B6A2d9e0c2B5C31Dc8f238A60",
  "abi": [
    {
      "inputs": [
        {
          "internalType": "address",
          "name": "_devAddress",
          "type": "address"
        }
      ],
      "stateMutability": "nonpayable",
      "type": "constructor"
    },
    {
      "anonymous": false,
      "inputs": [
        {
          "indexed": true,
          "internalType": "address",
          "name": "_token",
          "type": "address"
        },
        {
          "indexed": false,
          "internalType": "uint256",
          "name": "_amount",
          "type": "uint256"
        }
      ],
      "name": "Deposit",
      "type": "event"
    },
    {
      "anonymous": false,
      "inputs": [
        {
          "indexed": true,
          "internalType": "uint256",
          "name": "_stakeId",
          "type": "uint256"
        },
        {
          "indexed": false,
          "internalType": "uint256",
          "name": "_amount",
          "type": "uint256"
        }
      ],
      "name": "FundsDeployed",
      "type": "event"
    },
    {
      "anonymous": false,
      "inputs": [
        {
          "indexed": true,
          "internalType": "uint256",
          "name": "_stakeId",
          "type": "uint256"
        },
        {
          "indexed": false,
          "internalType": "uint256",
          "name": "_amount",
          "type": "uint256"
        }
      ],
      "name": "FundsReturned",
      "type": "event"
    },
    {
      "anonymous": false,
      "inputs": [
        {
          "indexed": true,
          "internalType": "address",
          "name": "previousOperator",
          "type": "address"
        },
        {
          "indexed": true,
          "internalType": "address",
          "name": "newOperator",
          "type": "address"
        }
      ],
      "name": "OperatorTransferred",
      "type": "event"
    },
    {
      "anonymous": false,
      "inputs": [
        {
          "indexed": true,
          "internalType": "address",
          "name": "previousOwner",
          "type": "address"
        },
        {
          "indexed": true,
          "internalType": "address",
          "name": "newOwner",
          "type": "address"
        }
      ],
      "name": "OwnershipTransferred",
      "type": "event"
    },
    {
      "anonymous": false,
      "inputs": [
        {
          "indexed": true,
          "internalType": "uint256",
          "name": "_stakeId",
          "type": "uint256"
        },
        {
          "indexed": false,
          "internalType": "uint256",
          "name": "_capacity",
          "type": "uint256"
        },
        {
          "indexed": false,
          "internalType": "uint256",
          "name": "_endTime",
          "type": "uint256"
        },
        {
          "indexed": false,
          "internalType": "bool",
          "name": "_active",
          "type": "bool"
        }
      ],
      "name": "UpdateAssetMetadata",
      "type": "event"
    },
    {
      "anonymous": false,
      "inputs": [
        {
          "indexed": true,
          "internalType": "address",
          "name": "_token",
          "type": "address"
        },
        {
          "indexed": false,
          "internalType": "uint256",
          "name": "_amount",
          "type": "uint256"
        }
      ],
      "name": "Withdraw",
      "type": "event"
    },
    {
      "inputs": [
        {
          "internalType": "address",
          "name": "_user",
          "type": "address"
        },
        {
          "internalType": "address",
          "name": "_token",
          "type": "address"
        },
        {
          "internalType": "uint256",
          "name": "_amount",
          "type": "uint256"
        }
      ],
      "name": "_deposit",
      "outputs": [],
      "stateMutability": "nonpayable",
      "type": "function"
    },
    {
      "inputs": [
        {
          "internalType": "address",
          "name": "_user",
          "type": "address"
        },
        {
          "internalType": "address",
          "name": "_token",
          "type": "address"
        },
        {
          "internalType": "uint256",
          "name": "_amount",
          "type": "uint256"
        },
        {
          "internalType": "uint256",
          "name": "_yieldEarned",
          "type": "uint256"
        }
      ],
      "name": "_withdraw",
      "outputs": [],
      "stateMutability": "nonpayable",
      "type": "function"
    },
    {
      "inputs": [
        {
          "internalType": "uint256",
          "name": "_stakeId",
          "type": "uint256"
        },
        {
          "internalType": "uint256",
          "name": "_amount",
          "type": "uint256"
        },
        {
          "internalType": "address",
          "name": "_to",
          "type": "address"
        }
      ],
      "name": "deployFunds",
      "outputs": [],
      "stateMutability": "nonpayable",
      "type": "function"
    },
    {
      "inputs": [
        {
          "internalType": "string",
          "name": "_name",
          "type": "string"
        },
        {
          "internalType": "string",
          "name": "_symbol",
          "type": "string"
        },
        {
          "internalType": "address",
          "name": "_stakeToken",
          "type": "address"
        },
        {
          "internalType": "string",
          "name": "_baseTokenURI",
          "type": "string"
        },
        {
          "internalType": "uint256",
          "name": "_capacity",
          "type": "uint256"
        },
        {
          "internalType": "uint256",
          "name": "_endTime",
          "type": "uint256"
        },
        {
          "internalType": "bool",
          "name": "useDefaultLocks",
          "type": "bool"
        }
      ],
      "name": "deployStake",
      "outputs": [],
      "stateMutability": "nonpayable",
      "type": "function"
    },
    {
      "inputs": [
        {
          "internalType": "contract ERC20",
          "name": "_token",
          "type": "address"
        },
        {
          "internalType": "address",
          "name": "_to",
          "type": "address"
        }
      ],
      "name": "governanceRecoverUnsupported",
      "outputs": [],
      "stateMutability": "nonpayable",
      "type": "function"
    },
    {
      "inputs": [],
      "name": "isOperator",
      "outputs": [
        {
          "internalType": "bool",
          "name": "",
          "type": "bool"
        }
      ],
      "stateMutability": "view",
      "type": "function"
    },
    {
      "inputs": [],
      "name": "operator",
      "outputs": [
        {
          "internalType": "address",
          "name": "",
          "type": "address"
        }
      ],
      "stateMutability": "view",
      "type": "function"
    },
    {
      "inputs": [],
      "name": "owner",
      "outputs": [
        {
          "internalType": "address",
          "name": "",
          "type": "address"
        }
      ],
      "stateMutability": "view",
      "type": "function"
    },
    {
      "inputs": [
        {
          "internalType": "address",
          "name": "",
          "type": "address"
        }
      ],
      "name": "positionForAsset",
      "outputs": [
        {
          "internalType": "address",
          "name": "",
          "type": "address"
        }
      ],
      "stateMutability": "view",
      "type": "function"
    },
    {
      "inputs": [],
      "name": "renounceOwnership",
      "outputs": [],
      "stateMutability": "nonpayable",
      "type": "function"
    },
    {
      "inputs": [
        {
          "internalType": "uint256",
          "name": "_stakeId",
          "type": "uint256"
        },
        {
          "internalType": "uint256",
          "name": "_amount",
          "type": "uint256"
        },
        {
          "internalType": "address",
          "name": "_from",
          "type": "address"
        }
      ],
      "name": "returnDeployedFunds",
      "outputs": [],
      "stateMutability": "nonpayable",
      "type": "function"
    },
    {
      "inputs": [
        {
          "internalType": "uint256",
          "name": "",
          "type": "uint256"
        }
      ],
      "name": "stakeAssets",
      "outputs": [
        {
          "internalType": "address",
          "name": "stakeToken",
          "type": "address"
        },
        {
          "internalType": "address",
          "name": "positionToken",
          "type": "address"
        },
        {
          "internalType": "uint256",
          "name": "created",
          "type": "uint256"
        },
        {
          "internalType": "uint256",
          "name": "capacity",
          "type": "uint256"
        },
        {
          "internalType": "uint256",
          "name": "stakedAmount",
          "type": "uint256"
        },
        {
          "internalType": "uint256",
          "name": "yieldEarned",
          "type": "uint256"
        },
        {
          "internalType": "uint256",
          "name": "endTime",
          "type": "uint256"
        },
        {
          "internalType": "uint256",
          "name": "deployedAmount",
          "type": "uint256"
        },
        {
          "internalType": "bool",
          "name": "active",
          "type": "bool"
        }
      ],
      "stateMutability": "view",
      "type": "function"
    },
    {
      "inputs": [
        {
          "internalType": "address",
          "name": "",
          "type": "address"
        }
      ],
      "name": "stakePositionId",
      "outputs": [
        {
          "internalType": "uint256",
          "name": "",
          "type": "uint256"
        }
      ],
      "stateMutability": "view",
      "type": "function"
    },
    {
      "inputs": [
        {
          "internalType": "address",
          "name": "newOperator_",
          "type": "address"
        }
      ],
      "name": "transferOperator",
      "outputs": [],
      "stateMutability": "nonpayable",
      "type": "function"
    },
    {
      "inputs": [
        {
          "internalType": "address",
          "name": "newOwner",
          "type": "address"
        }
      ],
      "name": "transferOwnership",
      "outputs": [],
      "stateMutability": "nonpayable",
      "type": "function"
    },
    {
      "inputs": [
        {
          "internalType": "uint256",
          "name": "_stakeId",
          "type": "uint256"
        },
        {
          "internalType": "uint256",
          "name": "_capacity",
          "type": "uint256"
        },
        {
          "internalType": "uint256",
          "name": "_endTime",
          "type": "uint256"
        },
        {
          "internalType": "bool",
          "name": "_active",
          "type": "bool"
        }
      ],
      "name": "updateAsset",
      "outputs": [],
      "stateMutability": "nonpayable",
      "type": "function"
    }
  ],
  "transactionHash": "0xf27954b51bdbd763f670aa475f3246577faeed30c0c2dfabd63c4e8efdede939",
  "args": [
    "0x0D8e060CA2D847553ec14394ee6B304623E0d1d6"
  ],
  "numDeployments": 6,
  "solcInputHash": "6678ef7a47126913d3d5b66d58e438d6",
  "bytecode": "0x60806040523480156200001157600080fd5b506040516200619a3803806200619a83398101604081905262000034916200019a565b6001600055620000443362000090565b600280546001600160a01b031916339081179091556040516000906000805160206200617a833981519152908290a36200007e81620000e2565b620000898162000090565b50620001cc565b600180546001600160a01b038381166001600160a01b0319831681179093556040519116919082907f8be0079c531659141344cd1fd0a4f28419497f9722a3daafe3b4186f6b6457e090600090a35050565b6001600160a01b038116620001535760405162461bcd60e51b815260206004820152602d60248201527f6f70657261746f723a207a65726f206164647265737320676976656e20666f7260448201526c103732bb9037b832b930ba37b960991b606482015260840160405180910390fd5b6040516001600160a01b038216906000906000805160206200617a833981519152908290a3600280546001600160a01b0319166001600160a01b0392909216919091179055565b600060208284031215620001ad57600080fd5b81516001600160a01b0381168114620001c557600080fd5b9392505050565b615f9e80620001dc6000396000f3fe60806040523480156200001157600080fd5b5060043610620001155760003560e01c8063715018a611620000a3578063d769b6f8116200006e578063d769b6f814620002a6578063dca9fedf14620002d2578063f2fde38b14620002e9578063f8d155e0146200030057600080fd5b8063715018a6146200025c5780637d848db214620002665780638da5cb5b146200027d57806397d3b573146200028f57600080fd5b80634456eda211620000e45780634456eda2146200019757806350d86ba714620001b6578063570ca73514620001cd5780635831991f14620001f357600080fd5b806302db2b7a146200011a5780630858dcdc1462000150578063121361aa146200016957806329605e771462000180575b600080fd5b6200013d6200012b36600462001431565b60066020526000908152604090205481565b6040519081526020015b60405180910390f35b620001676200016136600462001458565b62000317565b005b620001676200017a36600462001494565b620004cf565b620001676200019136600462001431565b6200065c565b6002546001600160a01b03163314604051901515815260200162000147565b62000167620001c736600462001594565b62000674565b6002546001600160a01b03165b6040516001600160a01b03909116815260200162000147565b6200020a6200020436600462001667565b620007e6565b604080516001600160a01b039a8b1681529990981660208a0152968801959095526060870193909352608086019190915260a085015260c084015260e083015215156101008201526101200162000147565b6200016762000852565b620001676200027736600462001681565b6200086a565b6001546001600160a01b0316620001da565b62000167620002a0366004620016c5565b62000947565b620001da620002b736600462001431565b6005602052600090815260409020546001600160a01b031681565b62000167620002e336600462001458565b62000a5b565b62000167620002fa36600462001431565b62000bf8565b620001676200031136600462001703565b62000c74565b6002546001600160a01b03163314806200033b57506001546001600160a01b031633145b620003635760405162461bcd60e51b81526004016200035a906200174e565b60405180910390fd5b6000600484815481106200037b576200037b62001792565b90600052602060002090600902016002015411620003ad5760405162461bcd60e51b81526004016200035a90620017a8565b600060048481548110620003c557620003c562001792565b6000918252602090912060099091020180546040516323b872dd60e01b81526001600160a01b0385811660048301523060248301526044820187905292935091169081906323b872dd906064016020604051808303816000875af115801562000432573d6000803e3d6000fd5b505050506040513d601f19601f82011682018060405250810190620004589190620017d6565b620004775760405162461bcd60e51b81526004016200035a90620017f6565b838260070160008282546200048d919062001843565b909155505060405184815285907fe5e9cfeede9ff1fc77b415bf8346e29706d16794b3bdeca347ac54a7fd3e0c3c906020015b60405180910390a25050505050565b620004da3362000e62565b80620004f057506001546001600160a01b031633145b620005275760405162461bcd60e51b815260206004820152600660248201526510b7bbb732b960d11b60448201526064016200035a565b33600090815260066020526040812054600480549192918390811062000551576200055162001792565b90600052602060002090600902019050828160040160008282546200057791906200185f565b90915550506040518381526001600160a01b038516907fe1fffcc4923d04b559f4d29a8bfc6cda04eb5b0d3c460751c2402c5c5cc9109c9060200160405180910390a26040516323b872dd60e01b81526001600160a01b038681166004830152306024830152604482018590528516906323b872dd906064016020604051808303816000875af115801562000610573d6000803e3d6000fd5b505050506040513d601f19601f82011682018060405250810190620006369190620017d6565b620006555760405162461bcd60e51b81526004016200035a90620017f6565b5050505050565b6200066662000edd565b620006718162000f39565b50565b6200067e62000edd565b620006898562000fff565b15620006f65760405162461bcd60e51b815260206004820152603560248201527f5374616b6520616c72656164792065786973747320666f7220746869732061736044820152741cd95d0b081c1b19585cd9481d5c19185d19481a5d605a1b60648201526084016200035a565b6000878787308888886040516200070d906200140d565b6200071f9796959493929190620018bd565b604051809103906000f0801580156200073c573d6000803e3d6000fd5b5090506200074d868286866200106d565b81156200075f576200075f8162001229565b806001600160a01b031663f2fde38b620007816001546001600160a01b031690565b6040516001600160e01b031960e084901b1681526001600160a01b039091166004820152602401600060405180830381600087803b158015620007c357600080fd5b505af1158015620007d8573d6000803e3d6000fd5b505050505050505050505050565b60048181548110620007f757600080fd5b60009182526020909120600990910201805460018201546002830154600384015460048501546005860154600687015460078801546008909801546001600160a01b0397881699509690951696939592949193909260ff1689565b6200085c62000edd565b620008686000620013bb565b565b6200087462000edd565b6000600485815481106200088c576200088c62001792565b90600052602060002090600902016002015411620008be5760405162461bcd60e51b81526004016200035a90620017a8565b600060048581548110620008d657620008d662001792565b6000918252602091829020600990910201600381018690556006810185905560088101805460ff191685151590811790915560408051888152938401879052830152915085907fa6f88a8445931d6b529a698670508303a971e39660d8e73f5ee2b18517fb9f1b90606001620004c0565b6200095162000edd565b6040516370a0823160e01b81523060048201526001600160a01b0383169063a9059cbb90839083906370a0823190602401602060405180830381865afa158015620009a0573d6000803e3d6000fd5b505050506040513d601f19601f82011682018060405250810190620009c691906200192a565b6040516001600160e01b031960e085901b1681526001600160a01b03909216600483015260248201526044016020604051808303816000875af115801562000a12573d6000803e3d6000fd5b505050506040513d601f19601f8201168201806040525081019062000a389190620017d6565b62000a575760405162461bcd60e51b81526004016200035a90620017f6565b5050565b6002546001600160a01b031633148062000a7f57506001546001600160a01b031633145b62000a9e5760405162461bcd60e51b81526004016200035a906200174e565b60006004848154811062000ab65762000ab662001792565b9060005260206000209060090201600201541162000ae85760405162461bcd60e51b81526004016200035a90620017a8565b60006004848154811062000b005762000b0062001792565b906000526020600020906009020190508281600701600082825462000b2691906200185f565b9091555050805460405163a9059cbb60e01b81526001600160a01b0384811660048301526024820186905290911690819063a9059cbb906044016020604051808303816000875af115801562000b80573d6000803e3d6000fd5b505050506040513d601f19601f8201168201806040525081019062000ba69190620017d6565b62000bc55760405162461bcd60e51b81526004016200035a90620017f6565b847fcbbfe903010163b2e4bb69941762cc2f49ba81cf7b571811ef70743a03d385d785604051620004c091815260200190565b62000c0262000edd565b6001600160a01b03811662000c695760405162461bcd60e51b815260206004820152602660248201527f4f776e61626c653a206e6577206f776e657220697320746865207a65726f206160448201526564647265737360d01b60648201526084016200035a565b6200067181620013bb565b62000c7f3362000e62565b8062000c9557506001546001600160a01b031633145b62000ccc5760405162461bcd60e51b815260206004820152600660248201526510b7bbb732b960d11b60448201526064016200035a565b33600090815260066020526040812054600480549192918390811062000cf65762000cf662001792565b90600052602060002090600902019050600081600201541162000d2d5760405162461bcd60e51b81526004016200035a90620017a8565b8381600401600082825462000d43919062001843565b925050819055508281600501600082825462000d6091906200185f565b90915550506001600160a01b0385167f884edad9ce6fa2440d8a54cc123490eb96d2768479d49ff9c7366125a942436462000d9c85876200185f565b60405190815260200160405180910390a26001600160a01b03851663a9059cbb8762000dc986886200185f565b6040516001600160e01b031960e085901b1681526001600160a01b03909216600483015260248201526044016020604051808303816000875af115801562000e15573d6000803e3d6000fd5b505050506040513d601f19601f8201168201806040525081019062000e3b9190620017d6565b62000e5a5760405162461bcd60e51b81526004016200035a90620017f6565b505050505050565b600454600090815b8181101562000ed357836001600160a01b03166004828154811062000e935762000e9362001792565b60009182526020909120600160099092020101546001600160a01b03160362000ec0575060019392505050565b62000ecb8162001944565b905062000e6a565b5060009392505050565b6001546001600160a01b03163314620008685760405162461bcd60e51b815260206004820181905260248201527f4f776e61626c653a2063616c6c6572206973206e6f7420746865206f776e657260448201526064016200035a565b6001600160a01b03811662000fa75760405162461bcd60e51b815260206004820152602d60248201527f6f70657261746f723a207a65726f206164647265737320676976656e20666f7260448201526c103732bb9037b832b930ba37b960991b60648201526084016200035a565b6040516001600160a01b038216906000907f74da04524d50c64947f5dd5381ef1a4dca5cba8ed1d816243f9e48aa0b5617ed908290a3600280546001600160a01b0319166001600160a01b0392909216919091179055565b600454600090815b8181101562000ed357836001600160a01b03166004828154811062001030576200103062001792565b60009182526020909120600990910201546001600160a01b0316036200105a575060019392505050565b620010658162001944565b905062001007565b6004604051806101200160405280866001600160a01b03168152602001856001600160a01b0316815260200142815260200184815260200160008152602001600081526020018381526020016000815260200160011515815250908060018154018082558091505060019003906000526020600020906009020160009091909190915060008201518160000160006101000a8154816001600160a01b0302191690836001600160a01b0316021790555060208201518160010160006101000a8154816001600160a01b0302191690836001600160a01b0316021790555060408201518160020155606082015181600301556080820151816004015560a0820151816005015560c0820151816006015560e082015181600701556101008201518160080160006101000a81548160ff02191690831515021790555050508260056000866001600160a01b03166001600160a01b0316815260200190815260200160002060006101000a8154816001600160a01b0302191690836001600160a01b03160217905550600160048054905062001207919062001843565b6001600160a01b03909416600090815260066020526040902093909355505050565b604051627b7a3760e21b815261039860048201526276a70060248201526001600160a01b038216906301ede8dc90604401600060405180830381600087803b1580156200127557600080fd5b505af11580156200128a573d6000803e3d6000fd5b5050604051627b7a3760e21b81526105d2600482015262ed4e0060248201526001600160a01b03841692506301ede8dc9150604401600060405180830381600087803b158015620012da57600080fd5b505af1158015620012ef573d6000803e3d6000fd5b5050604051627b7a3760e21b815261087a6004820152630163f50060248201526001600160a01b03841692506301ede8dc9150604401600060405180830381600087803b1580156200134057600080fd5b505af115801562001355573d6000803e3d6000fd5b5050604051627b7a3760e21b8152610ba460048201526301da9c0060248201526001600160a01b03841692506301ede8dc9150604401600060405180830381600087803b158015620013a657600080fd5b505af115801562000655573d6000803e3d6000fd5b600180546001600160a01b038381166001600160a01b0319831681179093556040519116919082907f8be0079c531659141344cd1fd0a4f28419497f9722a3daafe3b4186f6b6457e090600090a35050565b614608806200196183390190565b6001600160a01b03811681146200067157600080fd5b6000602082840312156200144457600080fd5b813562001451816200141b565b9392505050565b6000806000606084860312156200146e57600080fd5b8335925060208401359150604084013562001489816200141b565b809150509250925092565b600080600060608486031215620014aa57600080fd5b8335620014b7816200141b565b92506020840135620014c9816200141b565b929592945050506040919091013590565b634e487b7160e01b600052604160045260246000fd5b600082601f8301126200150257600080fd5b813567ffffffffffffffff80821115620015205762001520620014da565b604051601f8301601f19908116603f011681019082821181831017156200154b576200154b620014da565b816040528381528660208588010111156200156557600080fd5b836020870160208301376000602085830101528094505050505092915050565b80151581146200067157600080fd5b600080600080600080600060e0888a031215620015b057600080fd5b873567ffffffffffffffff80821115620015c957600080fd5b620015d78b838c01620014f0565b985060208a0135915080821115620015ee57600080fd5b620015fc8b838c01620014f0565b975060408a0135915062001610826200141b565b909550606089013590808211156200162757600080fd5b50620016368a828b01620014f0565b9450506080880135925060a0880135915060c0880135620016578162001585565b8091505092959891949750929550565b6000602082840312156200167a57600080fd5b5035919050565b600080600080608085870312156200169857600080fd5b8435935060208501359250604085013591506060850135620016ba8162001585565b939692955090935050565b60008060408385031215620016d957600080fd5b8235620016e6816200141b565b91506020830135620016f8816200141b565b809150509250929050565b600080600080608085870312156200171a57600080fd5b843562001727816200141b565b9350602085013562001739816200141b565b93969395505050506040820135916060013590565b60208082526024908201527f6f70657261746f723a2063616c6c6572206973206e6f7420746865206f70657260408201526330ba37b960e11b606082015260800190565b634e487b7160e01b600052603260045260246000fd5b60208082526014908201527314dd185ad948191bd95cc81b9bdd08195e1a5cdd60621b604082015260600190565b600060208284031215620017e957600080fd5b8151620014518162001585565b6020808252601e908201527f546f6b656e20636f756c64206e6f74206265207472616e736665727265640000604082015260600190565b634e487b7160e01b600052601160045260246000fd5b818103818111156200185957620018596200182d565b92915050565b808201808211156200185957620018596200182d565b6000815180845260005b818110156200189d576020818501810151868301820152016200187f565b506000602082860101526020601f19601f83011685010191505092915050565b60e081526000620018d260e083018a62001875565b8281036020840152620018e6818a62001875565b6001600160a01b038981166040860152881660608501528381036080850152905062001913818762001875565b60a0840195909552505060c0015295945050505050565b6000602082840312156200193d57600080fd5b5051919050565b6000600182016200195957620019596200182d565b506001019056fe6080604052660aa87bee538000601855662386f26fc100006019556001601a553480156200002c57600080fd5b5060405162004608380380620046088339810160408190526200004f9162000376565b868660006200005f8382620004cf565b5060016200006e8282620004cf565b5050506200008b620000856200018660201b60201c565b6200018a565b600b80546001600160a01b03191633908117909155604051600090600080516020620045e8833981519152908290a3600c80546001600160a01b0319166001600160a01b0387161790556012620000e38482620004cf565b50600d80546001600160a01b0319166001600160a01b038616908117909155601b839055601c82905560408051638da5cb5b60e01b81529051620001799291638da5cb5b9160048083019260209291908290030181865afa1580156200014d573d6000803e3d6000fd5b505050506040513d601f19601f820116820180604052508101906200017391906200059b565b620001dc565b50505050505050620005c0565b3390565b600a80546001600160a01b038381166001600160a01b0319831681179093556040519116919082907f8be0079c531659141344cd1fd0a4f28419497f9722a3daafe3b4186f6b6457e090600090a35050565b6001600160a01b0381166200024d5760405162461bcd60e51b815260206004820152602d60248201527f6f70657261746f723a207a65726f206164647265737320676976656e20666f7260448201526c103732bb9037b832b930ba37b960991b606482015260840160405180910390fd5b6040516001600160a01b03821690600090600080516020620045e8833981519152908290a3600b80546001600160a01b0319166001600160a01b0392909216919091179055565b634e487b7160e01b600052604160045260246000fd5b600082601f830112620002bc57600080fd5b81516001600160401b0380821115620002d957620002d962000294565b604051601f8301601f19908116603f0116810190828211818310171562000304576200030462000294565b816040528381526020925086838588010111156200032157600080fd5b600091505b8382101562000345578582018301518183018401529082019062000326565b600093810190920192909252949350505050565b80516001600160a01b03811681146200037157600080fd5b919050565b600080600080600080600060e0888a0312156200039257600080fd5b87516001600160401b0380821115620003aa57600080fd5b620003b88b838c01620002aa565b985060208a0151915080821115620003cf57600080fd5b620003dd8b838c01620002aa565b9750620003ed60408b0162000359565b9650620003fd60608b0162000359565b955060808a01519150808211156200041457600080fd5b50620004238a828b01620002aa565b93505060a0880151915060c0880151905092959891949750929550565b600181811c908216806200045557607f821691505b6020821081036200047657634e487b7160e01b600052602260045260246000fd5b50919050565b601f821115620004ca57600081815260208120601f850160051c81016020861015620004a55750805b601f850160051c820191505b81811015620004c657828155600101620004b1565b5050505b505050565b81516001600160401b03811115620004eb57620004eb62000294565b6200050381620004fc845462000440565b846200047c565b602080601f8311600181146200053b5760008415620005225750858301515b600019600386901b1c1916600185901b178555620004c6565b600085815260208120601f198616915b828110156200056c578886015182559484019460019091019084016200054b565b50858210156200058b5787850151600019600388901b60f8161c191681555b5050505050600190811b01905550565b600060208284031215620005ae57600080fd5b620005b98262000359565b9392505050565b61401880620005d06000396000f3fe608060405234801561001057600080fd5b50600436106103a45760003560e01c80637869684c116101e9578063b4f0c8301161010f578063e92f6a15116100ad578063f2fde38b1161007c578063f2fde38b1461089c578063fab1e747146108af578063fbfa77cf146108b8578063ffa80136146108cb57600080fd5b8063e92f6a1514610827578063e985e9c51461083a578063ed44e56914610876578063eeb90ba91461088957600080fd5b8063d17b9e77116100e9578063d17b9e7714610773578063d1c6b0ca14610786578063d5a44f8614610799578063e8a3d4851461081f57600080fd5b8063b4f0c8301461072a578063b88d4fde1461074d578063c87b56dd1461076057600080fd5b806395d89b4111610187578063a49991f311610156578063a49991f3146106db578063a6bba767146106ee578063ad63db3d14610701578063afd50d8f1461070a57600080fd5b806395d89b411461069857806397d3b573146106a057806399bbbbac146106b3578063a22cb465146106c857600080fd5b80638da5cb5b116101c35780638da5cb5b1461064e5780638f96a7cb1461065f57806390e783281461067257806391915ef81461068557600080fd5b80637869684c146106205780637974e46a146106335780637b0472f01461063b57600080fd5b806338d07436116102ce57806355f804b31161026c57806364ed320d1161023b57806364ed320d146105d257806370a08231146105e5578063715018a6146105f857806376772cf81461060057600080fd5b806355f804b314610592578063570ca735146105a55780635cfc1a51146105b65780636352211e146105bf57600080fd5b80634456eda2116102a85780634456eda2146105365780634670dd2d146105495780634752f9ef1461055c5780634f6ccce71461057f57600080fd5b806338d07436146104fd57806338f57ff31461051057806342842e0e1461052357600080fd5b806318160ddd11610346578063274de61e11610315578063274de61e146104ae57806329605e77146104ce5780632f745c59146104e15780633197cbb6146104f457600080fd5b806318160ddd1461046d57806320e3fa50146104755780632374346c1461048857806323b872dd1461049b57600080fd5b806306fdde031161038257806306fdde0314610407578063081812fc1461041c57806308b7424514610447578063095ea7b31461045a57600080fd5b806301ede8dc146103a957806301ffc9a7146103be57806304ece583146103e6575b600080fd5b6103bc6103b7366004613573565b6108eb565b005b6103d16103cc3660046135b3565b610a0d565b60405190151581526020015b60405180910390f35b6103f96103f43660046135d0565b610a1e565b6040519081526020016103dd565b61040f610af7565b6040516103dd9190613639565b61042f61042a3660046135d0565b610b89565b6040516001600160a01b0390911681526020016103dd565b6103bc61045536600461365a565b610bb0565b6103bc61046836600461369f565b610c08565b6008546103f9565b6103f961048336600461369f565b610d1d565b6103bc6104963660046135d0565b610d4e565b6103bc6104a93660046136bd565b610ecf565b6103f96104bc3660046135d0565b60146020526000908152604090205481565b6103bc6104dc3660046136fe565b610f00565b6103f96104ef36600461369f565b610f14565b6103f9601c5481565b6103bc61050b36600461365a565b610faa565b6103bc61051e36600461371b565b611316565b6103bc6105313660046136bd565b6114ad565b600b546001600160a01b031633146103d1565b6103bc610557366004613754565b6114c8565b6103d161056a3660046135d0565b60106020526000908152604090205460ff1681565b6103f961058d3660046135d0565b61166e565b6103bc6105a0366004613828565b611701565b600b546001600160a01b031661042f565b6103f9601b5481565b61042f6105cd3660046135d0565b611757565b6103f96105e03660046135d0565b6117b7565b6103f96105f33660046136fe565b611855565b6103bc6118db565b6103f961060e3660046135d0565b60156020526000908152604090205481565b6103bc61062e3660046135d0565b6118ef565b6103f961192a565b6103bc610649366004613871565b61193a565b600a546001600160a01b031661042f565b6103d161066d3660046135d0565b61194e565b6103bc6106803660046135d0565b61196d565b6103bc6106933660046135d0565b6119a8565b61040f6119e3565b6103bc6106ae366004613893565b6119f2565b6106bb611b6d565b6040516103dd91906138c1565b6103bc6106d6366004613914565b611bdd565b6103f96106e93660046135d0565b611be8565b6103bc6106fc3660046139c2565b611c8e565b6103f9601e5481565b6103f96107183660046135d0565b60166020526000908152604090205481565b6103d16107383660046136fe565b60176020526000908152604090205460ff1681565b6103bc61075b366004613a1b565b611cd6565b61040f61076e3660046135d0565b611d08565b6103bc6107813660046135d0565b611d9e565b6103bc6107943660046135d0565b611eff565b6107e76107a73660046135d0565b600f60205260009081526040902080546001820154600283015460038401546004909401549293919261ffff909116919060ff8082169161010090041686565b60408051968752602087019590955261ffff9093169385019390935260608401529015156080830152151560a082015260c0016103dd565b61040f611f3a565b6103bc610835366004613a9b565b611f68565b6103d1610848366004613893565b6001600160a01b03918216600090815260056020908152604080832093909416825291909152205460ff1690565b6103bc610884366004613ad0565b6120ac565b6103bc610897366004613754565b6120ed565b6103bc6108aa3660046136fe565b612168565b6103f9601d5481565b600d5461042f906001600160a01b031681565b6108de6108d93660046136fe565b6121de565b6040516103dd9190613b17565b600d546001600160a01b031633148061091d575033610912600a546001600160a01b031690565b6001600160a01b0316145b6109425760405162461bcd60e51b815260040161093990613b5b565b60405180910390fd5b6040805180820190915261ffff808416825260208201838152600e805460018101825560009190915292517fbb7b4a454dc3493923482f07822329ed19e8244eff582cc204f8554c3620c3fd6002909402938401805461ffff19169190931617909155517fbb7b4a454dc3493923482f07822329ed19e8244eff582cc204f8554c3620c3fe909101558161ffff167fe01fdf33dfdfd42d6dc9b85e62d6750214967dddff00304f34c3fed1939bde0b82604051610a0191815260200190565b60405180910390a25050565b6000610a188261224a565b92915050565b6000818152600f60209081526040808320815160c0810183528154808252600183015494820194909452600282015461ffff1692810192909252600381015460608301526004015460ff8082161515608084015261010090910416151560a0820152908290610a8d9042613b91565b905060008260600151821115610aa857506060820151610aab565b50805b6301e1338061271061ffff1682856040015161ffff168660200151610ad09190613ba4565b610ada9190613ba4565b610ae49190613bd1565b610aee9190613bd1565b95945050505050565b606060008054610b0690613be5565b80601f0160208091040260200160405190810160405280929190818152602001828054610b3290613be5565b8015610b7f5780601f10610b5457610100808354040283529160200191610b7f565b820191906000526020600020905b815481529060010190602001808311610b6257829003601f168201915b5050505050905090565b6000610b948261226f565b506000908152600460205260409020546001600160a01b031690565b610bb86122ce565b600082815260106020908152604091829020805460ff1916841515908117909155915191825283917fd07a67329d87579b1994579e69a7e1df196e41e2c912c37b7b9d80ef0030238d9101610a01565b6000610c1382611757565b9050806001600160a01b0316836001600160a01b031603610c805760405162461bcd60e51b815260206004820152602160248201527f4552433732313a20617070726f76616c20746f2063757272656e74206f776e656044820152603960f91b6064820152608401610939565b336001600160a01b0382161480610c9c5750610c9c8133610848565b610d0e5760405162461bcd60e51b815260206004820152603e60248201527f4552433732313a20617070726f76652063616c6c6572206973206e6f7420746f60448201527f6b656e206f776e6572206e6f7220617070726f76656420666f7220616c6c00006064820152608401610939565b610d188383612328565b505050565b60136020528160005260406000208181548110610d3957600080fd5b90600052602060002001600091509150505481565b600d546001600160a01b0316331480610d80575033610d75600a546001600160a01b031690565b6001600160a01b0316145b610d9c5760405162461bcd60e51b815260040161093990613b5b565b6000600e8281548110610db157610db1613c1f565b600091825260209182902060408051808201909152600290920201805461ffff16825260019081015492820192909252600e805491935091610df291613b91565b81548110610e0257610e02613c1f565b9060005260206000209060020201600e8381548110610e2357610e23613c1f565b600091825260209091208254600290920201805461ffff191661ffff909216919091178155600191820154910155600e805480610e6257610e62613c35565b6000828152602080822060026000199490940193840201805461ffff1916815560010191909155915581518282015160405190815261ffff9091169184917f31c7ae07732186951f28c3aa4b019b67ff0b121028ec0baa0127467a57d3d340910160405180910390a35050565b610ed93382612396565b610ef55760405162461bcd60e51b815260040161093990613c4b565b610d18838383612415565b610f086122ce565b610f11816125c2565b50565b6000610f1f83611855565b8210610f815760405162461bcd60e51b815260206004820152602b60248201527f455243373231456e756d657261626c653a206f776e657220696e646578206f7560448201526a74206f6620626f756e647360a81b6064820152608401610939565b506001600160a01b03919091166000908152600660209081526040808320938352929052205490565b6000828152600f6020908152604091829020825160c08101845281548152600182015492810192909252600281015461ffff16928201929092526003820154606082015260049091015460ff8082161515608084015261010090910416151560a0820152339061101984611757565b6001600160a01b0316826001600160a01b0316146110915760405162461bcd60e51b815260206004820152602f60248201527f6f6e6c7920746865206f776e6572206f6620746865207374616b656420746f6b60448201526e656e732063616e20756e7374616b6560881b6064820152608401610939565b606081015181516000916110a491613c99565b42109050801561124c5781608001516111185760405162461bcd60e51b815260206004820152603060248201527f5468697320706f736974696f6e206973206e6f7420656c696769626c6520666f60448201526f72206561726c7920776974686472617760801b6064820152608401610939565b8361118b5760405162461bcd60e51b815260206004820152603960248201527f4d7573742061636b6e6f776c6564676520746865206561726c7920776974686460448201527f7261772064756520746f206c6f7373206f6620746f6b656e73000000000000006064820152608401610939565b600d54600c5460208401516001600160a01b039283169263f8d155e09287929116906111b990600290613bd1565b60006040518563ffffffff1660e01b81526004016111da9493929190613cac565b600060405180830381600087803b1580156111f457600080fd5b505af1158015611208573d6000803e3d6000fd5b5050604080516000808252600160208301528183015290518893506001600160a01b0387169250600080516020613fc38339815191529181900360600190a3611306565b600061125786610a1e565b600d54600c5460208601516040516307c68aaf60e51b81529394506001600160a01b039283169363f8d155e093611297938a939116918790600401613cac565b600060405180830381600087803b1580156112b157600080fd5b505af11580156112c5573d6000803e3d6000fd5b5050604080516000808252602082018190528183015290518993506001600160a01b0388169250600080516020613fc38339815191529181900360600190a3505b61130f85612686565b5050505050565b3360009081526017602052604090205460ff161561136f5760405162461bcd60e51b8152602060048201526016602482015275109bdb9d5cc8185b1c9958591e481c9958d95a5d995960521b6044820152606401610939565b6019548310156113c15760405162461bcd60e51b815260206004820152601860248201527f4d757374207374616b65206c617267657220616d6f756e7400000000000000006044820152606401610939565b6113d13384846001600080612735565b336000818152601760205260408120805460ff19166001179055601854601a546113fd93928080612735565b61141181601854601a546000806000612735565b601854601a5460405133927feaaedb2f797ad9311d3350873d350ad04080ad6baa897e9cd8b891bf151f3a5e9261145092918252602082015260400190565b60405180910390a2806001600160a01b03167feaaedb2f797ad9311d3350873d350ad04080ad6baa897e9cd8b891bf151f3a5e601854601a546040516114a0929190918252602082015260400190565b60405180910390a2505050565b610d1883838360405180602001604052806000815250611cd6565b60008281526010602052604090205460ff16156115195760405162461bcd60e51b815260206004820152600f60248201526e189b1858dadb1a5cdd195908139195608a1b6044820152606401610939565b61152282611757565b6001600160a01b0316836001600160a01b03161461153f57600080fd5b6000828152600f6020908152604091829020825160c0810184528154808252600183015493820193909352600282015461ffff169381019390935260038101546060840181905260049091015460ff8082161515608086015261010090910416151560a08401526115af91613c99565b42116115fd5760405162461bcd60e51b815260206004820152601b60248201527f506f736974696f6e206973206e6f74206174206d6174757269747900000000006044820152606401610939565b600061160884610a1e565b905061161384612686565b604080516001815260006020820181905281830152905185916001600160a01b03881691600080516020613fc38339815191529181900360600190a361130f858284602001516116639190613c99565b856000600180612735565b600061167960085490565b82106116dc5760405162461bcd60e51b815260206004820152602c60248201527f455243373231456e756d657261626c653a20676c6f62616c20696e646578206f60448201526b7574206f6620626f756e647360a01b6064820152608401610939565b600882815481106116ef576116ef613c1f565b90600052602060002001549050919050565b6117096122ce565b60126117158282613d23565b50806040516117249190613de3565b604051908190038120907f199e933997358e1789d8b56ea8c551befeb05ce2fe3fe506199f1230f5a591b490600090a250565b6000818152600260205260408120546001600160a01b031680610a185760405162461bcd60e51b8152602060048201526018602482015277115490cdcc8c4e881a5b9d985b1a59081d1bdad95b88125160421b6044820152606401610939565b6000818152600f60209081526040808320815160c081018352815481526001820154938101849052600282015461ffff1692810183905260038201546060820181905260049092015460ff8082161515608084015261010090910416151560a0820152926301e133809261271092916118309190613ba4565b61183a9190613ba4565b6118449190613bd1565b61184e9190613bd1565b9392505050565b60006001600160a01b0382166118bf5760405162461bcd60e51b815260206004820152602960248201527f4552433732313a2061646472657373207a65726f206973206e6f7420612076616044820152683634b21037bbb732b960b91b6064820152608401610939565b506001600160a01b031660009081526003602052604090205490565b6118e36122ce565b6118ed6000612bc7565b565b6118f76122ce565b601981905560405181907f2ebf7054fda26cce68709eab0e72f86f40153730d994609a775243bd16bd32f890600090a250565b600061193560115490565b905090565b61194a3383836001806000612735565b5050565b6000818152600260205260408120546001600160a01b03161515610a18565b6119756122ce565b601a81905560405181907fab03523d63fc2456e647e1335600dd48f2b3c9645b43f190cc1615863007e4ed90600090a250565b6119b06122ce565b601b81905560405181907f3e90590403178c03ff8343cdb359608fcc7678b15509de56e1be479af1b127be90600090a250565b606060018054610b0690613be5565b600d546001600160a01b0316331480611a24575033611a19600a546001600160a01b031690565b6001600160a01b0316145b611a405760405162461bcd60e51b815260040161093990613b5b565b6040516370a0823160e01b81523060048201526001600160a01b0383169063a9059cbb90839083906370a0823190602401602060405180830381865afa158015611a8e573d6000803e3d6000fd5b505050506040513d601f19601f82011682018060405250810190611ab29190613dff565b6040516001600160e01b031960e085901b1681526001600160a01b03909216600483015260248201526044016020604051808303816000875af1158015611afd573d6000803e3d6000fd5b505050506040513d601f19601f82011682018060405250810190611b219190613e18565b61194a5760405162461bcd60e51b815260206004820152601860248201527f436f756c64206e6f74207472616e7366657220746f6b656e00000000000000006044820152606401610939565b6060600e805480602002602001604051908101604052809291908181526020016000905b82821015611bd45760008481526020908190206040805180820190915260028502909101805461ffff168252600190810154828401529083529092019101611b91565b50505050905090565b61194a338383612c19565b6000818152600f60209081526040808320815160c081018352815481526001820154938101849052600282015461ffff1692810183905260038201546060820181905260049092015460ff8082161515608084015261010090910416151560a0820152926301e13380926127109291611c619190613ba4565b611c6b9190613ba4565b611c759190613bd1565b611c7f9190613bd1565b816020015161184e9190613c99565b60005b8251811015611cd057611cbe84848381518110611cb057611cb0613c1f565b6020026020010151846114c8565b80611cc881613e35565b915050611c91565b50505050565b611ce03383612396565b611cfc5760405162461bcd60e51b815260040161093990613c4b565b611cd084848484612ce7565b6000818152600260205260409020546060906001600160a01b0316611d665760405162461bcd60e51b81526020600482015260146024820152731d1bdad95b88191bd95cc81b9bdd08195e1a5cdd60621b6044820152606401610939565b611d6e612d1a565b611d7783612d29565b604051602001611d88929190613e4e565b6040516020818303038152906040529050919050565b600b546001600160a01b0316331480611dc15750600a546001600160a01b031633145b611ddd5760405162461bcd60e51b815260040161093990613e8d565b6000818152600f60209081526040808320815160c08101835281548152600182015493810193909352600281015461ffff1691830191909152600381015460608301526004015460ff8082161515608084015261010090910416151560a082015290611e4883611757565b600d54600c5460208501516040516307c68aaf60e51b81529394506001600160a01b039283169363f8d155e093611e89938793911691600090600401613cac565b600060405180830381600087803b158015611ea357600080fd5b505af1158015611eb7573d6000803e3d6000fd5b5050604080516000808252602082015260018183015290518693506001600160a01b0385169250600080516020613fc38339815191529181900360600190a3610d1883612686565b611f076122ce565b601881905560405181907f489c861b26977ea518d7106a69d4254fbe2c3cfb9cbf5ca4f7784058ec1c6ba490600090a250565b6060611f44612d1a565b604051602001611f549190613ed1565b604051602081830303815290604052905090565b600d546001600160a01b0316331480611f9a575033611f8f600a546001600160a01b031690565b6001600160a01b0316145b611fb65760405162461bcd60e51b815260040161093990613b5b565b6000600e8481548110611fcb57611fcb613c1f565b60009182526020918290206040805180820182526002909302909101805461ffff908116845260019091015483850152815180830190925286168152918201849052600e8054919350908690811061202557612025613c1f565b6000918252602091829020835160029290920201805461ffff191661ffff9283161781559282015160019093019290925582518382015160408051918252878516938201939093529182018590529091169085907f1d66929984041b98ee2942b02ecb1a94419d54cf725b2fff115bb7a6039a96c69060600160405180910390a350505050565b60005b8251811015610d18576120db8382815181106120cd576120cd613c1f565b602002602001015183610faa565b806120e581613e35565b9150506120af565b600b546001600160a01b031633146121175760405162461bcd60e51b815260040161093990613e8d565b6121278383836000806000612735565b60408051838152602081018390526001600160a01b038516917f39411aa5454233dea52e69983fc74412c7abbe65976705dc07402ecdcb3a768b91016114a0565b6121706122ce565b6001600160a01b0381166121d55760405162461bcd60e51b815260206004820152602660248201527f4f776e61626c653a206e6577206f776e657220697320746865207a65726f206160448201526564647265737360d01b6064820152608401610939565b610f1181612bc7565b6001600160a01b03811660009081526013602090815260409182902080548351818402810184019094528084526060939283018282801561223e57602002820191906000526020600020905b81548152602001906001019080831161222a575b50505050509050919050565b60006001600160e01b0319821663780e9d6360e01b1480610a185750610a1882612e2a565b6000818152600260205260409020546001600160a01b0316610f115760405162461bcd60e51b8152602060048201526018602482015277115490cdcc8c4e881a5b9d985b1a59081d1bdad95b88125160421b6044820152606401610939565b600a546001600160a01b031633146118ed5760405162461bcd60e51b815260206004820181905260248201527f4f776e61626c653a2063616c6c6572206973206e6f7420746865206f776e65726044820152606401610939565b600081815260046020526040902080546001600160a01b0319166001600160a01b038416908117909155819061235d82611757565b6001600160a01b03167f8c5be1e5ebec7d5bd14f71427d1e84f3dd0314c0f7b2291e5b200ac8c7c3b92560405160405180910390a45050565b6000806123a283611757565b9050806001600160a01b0316846001600160a01b031614806123e957506001600160a01b0380821660009081526005602090815260408083209388168352929052205460ff165b8061240d5750836001600160a01b031661240284610b89565b6001600160a01b0316145b949350505050565b826001600160a01b031661242882611757565b6001600160a01b03161461248c5760405162461bcd60e51b815260206004820152602560248201527f4552433732313a207472616e736665722066726f6d20696e636f72726563742060448201526437bbb732b960d91b6064820152608401610939565b6001600160a01b0382166124ee5760405162461bcd60e51b8152602060048201526024808201527f4552433732313a207472616e7366657220746f20746865207a65726f206164646044820152637265737360e01b6064820152608401610939565b6124f9838383612e7a565b612504600082612328565b6001600160a01b038316600090815260036020526040812080546001929061252d908490613b91565b90915550506001600160a01b038216600090815260036020526040812080546001929061255b908490613c99565b909155505060008181526002602052604080822080546001600160a01b0319166001600160a01b0386811691821790925591518493918716917fddf252ad1be2c89b69c2b068fc378daa952ba7f163c4a11628f55a4df523b3ef91a4610d18838383612ee7565b6001600160a01b03811661262e5760405162461bcd60e51b815260206004820152602d60248201527f6f70657261746f723a207a65726f206164647265737320676976656e20666f7260448201526c103732bb9037b832b930ba37b960991b6064820152608401610939565b6040516001600160a01b038216906000907f74da04524d50c64947f5dd5381ef1a4dca5cba8ed1d816243f9e48aa0b5617ed908290a3600b80546001600160a01b0319166001600160a01b0392909216919091179055565b600061269182611757565b905061269f81600084612e7a565b6126aa600083612328565b6001600160a01b03811660009081526003602052604081208054600192906126d3908490613b91565b909155505060008281526002602052604080822080546001600160a01b0319169055518391906001600160a01b038416907fddf252ad1be2c89b69c2b068fc378daa952ba7f163c4a11628f55a4df523b3ef908390a461194a81600084612ee7565b600e54841061277c5760405162461bcd60e51b815260206004820152601360248201527234b73b30b634b2103637b1b59037b83a34b7b760691b6044820152606401610939565b841561278857846127f6565b600c546040516370a0823160e01b81526001600160a01b038881166004830152909116906370a0823190602401602060405180830381865afa1580156127d2573d6000803e3d6000fd5b505050506040513d601f19601f820116820180604052508101906127f69190613dff565b94506000851161285f5760405162461bcd60e51b815260206004820152602e60248201527f6d757374207374616b6520616e64206265206561726e696e67206174206c656160448201526d737420736f6d6520746f6b656e7360901b6064820152608401610939565b601b54601d5461286f9087613c99565b11158061287c5750601b54155b6128b85760405162461bcd60e51b815260206004820152600d60248201526c4f76657220636170616369747960981b6044820152606401610939565b601c54421115806128c95750601c54155b6129095760405162461bcd60e51b815260206004820152601160248201527029ba30b5b2903832b934b7b21037bb32b960791b6044820152606401610939565b84601d600082825461291b9190613c99565b909155505060118054600101905560006301e1338061271061ffff16600e878154811061294a5761294a613c1f565b906000526020600020906002020160010154600e888154811061296f5761296f613c1f565b600091825260209091206002909102015461298e9061ffff168a613ba4565b6129989190613ba4565b6129a29190613bd1565b6129ac9190613bd1565b905080601e60008282546129c09190613c99565b90915550508315612a3c57600d54600c54604051630909b0d560e11b81526001600160a01b038a8116600483015291821660248201526044810189905291169063121361aa90606401600060405180830381600087803b158015612a2357600080fd5b505af1158015612a37573d6000803e3d6000fd5b505050505b6040518060c00160405280428152602001878152602001600e8781548110612a6657612a66613c1f565b60009182526020918290206002909102015461ffff168252600e8054929091019188908110612a9757612a97613c1f565b90600052602060002090600202016001015481526020018415158152602001851515815250600f6000612ac960115490565b815260208082019290925260409081016000208351815591830151600183015582015160028201805461ffff90921661ffff199283161790556060830151600383015560808301516004909201805460a09094015115156101000261ff0019931515939093169390911692909217179055612b4c87612b4760115490565b613070565b4260156000612b5a60115490565b81526020810191909152604001600020556011546040805188815260208101889052841515918101919091526001600160a01b038916907fa49c1c928980f2db155623150cf810e7c643408e6f25c3b315d0e2c476a076dd9060600160405180910390a350505050505050565b600a80546001600160a01b038381166001600160a01b0319831681179093556040519116919082907f8be0079c531659141344cd1fd0a4f28419497f9722a3daafe3b4186f6b6457e090600090a35050565b816001600160a01b0316836001600160a01b031603612c7a5760405162461bcd60e51b815260206004820152601960248201527f4552433732313a20617070726f766520746f2063616c6c6572000000000000006044820152606401610939565b6001600160a01b03838116600081815260056020908152604080832094871680845294825291829020805460ff191686151590811790915591519182527f17307eab39ab6107e8899845ad3d59bd9653f200f220920489ca2b5937696c31910160405180910390a3505050565b612cf2848484612415565b612cfe8484848461308a565b611cd05760405162461bcd60e51b815260040161093990613f02565b606060128054610b0690613be5565b606081600003612d505750506040805180820190915260018152600360fc1b602082015290565b8160005b8115612d7a5780612d6481613e35565b9150612d739050600a83613bd1565b9150612d54565b60008167ffffffffffffffff811115612d9557612d95613789565b6040519080825280601f01601f191660200182016040528015612dbf576020820181803683370190505b5090505b841561240d57612dd4600183613b91565b9150612de1600a86613f54565b612dec906030613c99565b60f81b818381518110612e0157612e01613c1f565b60200101906001600160f81b031916908160001a905350612e23600a86613bd1565b9450612dc3565b60006001600160e01b031982166380ac58cd60e01b1480612e5b57506001600160e01b03198216635b5e139f60e01b145b80610a1857506301ffc9a760e01b6001600160e01b0319831614610a18565b60008181526010602052604090205460ff1615612ecb5760405162461bcd60e51b815260206004820152600f60248201526e189b1858dadb1a5cdd195908139195608a1b6044820152606401610939565b6000818152601660205260409020429055610d1883838361318b565b6001600160a01b03831615613021576000818152601460209081526040808320546001600160a01b0387168452601390925282208054919291612f2c90600190613b91565b81548110612f3c57612f3c613c1f565b60009182526020808320909101546001600160a01b038816835260139091526040909120805491925090612f7290600190613b91565b81548110612f8257612f82613c1f565b906000526020600020015460136000876001600160a01b03166001600160a01b031681526020019081526020016000208381548110612fc357612fc3613c1f565b60009182526020808320909101929092556001600160a01b0387168152601390915260409020805480612ff857612ff8613c35565b600082815260208082208301600019908101839055909201909255918152601490915260409020555b6001600160a01b03821615610d18576001600160a01b03919091166000908152601360208181526040808420805486865260148452918520829055928252600181018355918352909120015550565b61194a828260405180602001604052806000815250613243565b60006001600160a01b0384163b1561318057604051630a85bd0160e11b81526001600160a01b0385169063150b7a02906130ce903390899088908890600401613f68565b6020604051808303816000875af1925050508015613109575060408051601f3d908101601f1916820190925261310691810190613fa5565b60015b613166573d808015613137576040519150601f19603f3d011682016040523d82523d6000602084013e61313c565b606091505b50805160000361315e5760405162461bcd60e51b815260040161093990613f02565b805181602001fd5b6001600160e01b031916630a85bd0160e11b14905061240d565b506001949350505050565b6001600160a01b0383166131e6576131e181600880546000838152600960205260408120829055600182018355919091527ff3f7a9fe364faab93b216da50a3214154f22a0a2b415b23a84c8169e8b636ee30155565b613209565b816001600160a01b0316836001600160a01b031614613209576132098382613276565b6001600160a01b03821661322057610d1881613313565b826001600160a01b0316826001600160a01b031614610d1857610d1882826133c2565b61324d8383613406565b61325a600084848461308a565b610d185760405162461bcd60e51b815260040161093990613f02565b6000600161328384611855565b61328d9190613b91565b6000838152600760205260409020549091508082146132e0576001600160a01b03841660009081526006602090815260408083208584528252808320548484528184208190558352600790915290208190555b5060009182526007602090815260408084208490556001600160a01b039094168352600681528383209183525290812055565b60085460009061332590600190613b91565b6000838152600960205260408120546008805493945090928490811061334d5761334d613c1f565b90600052602060002001549050806008838154811061336e5761336e613c1f565b60009182526020808320909101929092558281526009909152604080822084905585825281205560088054806133a6576133a6613c35565b6001900381819060005260206000200160009055905550505050565b60006133cd83611855565b6001600160a01b039093166000908152600660209081526040808320868452825280832085905593825260079052919091209190915550565b6001600160a01b03821661345c5760405162461bcd60e51b815260206004820181905260248201527f4552433732313a206d696e7420746f20746865207a65726f20616464726573736044820152606401610939565b6000818152600260205260409020546001600160a01b0316156134c15760405162461bcd60e51b815260206004820152601c60248201527f4552433732313a20746f6b656e20616c7265616479206d696e746564000000006044820152606401610939565b6134cd60008383612e7a565b6001600160a01b03821660009081526003602052604081208054600192906134f6908490613c99565b909155505060008181526002602052604080822080546001600160a01b0319166001600160a01b03861690811790915590518392907fddf252ad1be2c89b69c2b068fc378daa952ba7f163c4a11628f55a4df523b3ef908290a461194a60008383612ee7565b803561ffff8116811461356e57600080fd5b919050565b6000806040838503121561358657600080fd5b61358f8361355c565b946020939093013593505050565b6001600160e01b031981168114610f1157600080fd5b6000602082840312156135c557600080fd5b813561184e8161359d565b6000602082840312156135e257600080fd5b5035919050565b60005b838110156136045781810151838201526020016135ec565b50506000910152565b600081518084526136258160208601602086016135e9565b601f01601f19169290920160200192915050565b60208152600061184e602083018461360d565b8015158114610f1157600080fd5b6000806040838503121561366d57600080fd5b82359150602083013561367f8161364c565b809150509250929050565b6001600160a01b0381168114610f1157600080fd5b600080604083850312156136b257600080fd5b823561358f8161368a565b6000806000606084860312156136d257600080fd5b83356136dd8161368a565b925060208401356136ed8161368a565b929592945050506040919091013590565b60006020828403121561371057600080fd5b813561184e8161368a565b60008060006060848603121561373057600080fd5b833592506020840135915060408401356137498161368a565b809150509250925092565b60008060006060848603121561376957600080fd5b83356137748161368a565b95602085013595506040909401359392505050565b634e487b7160e01b600052604160045260246000fd5b604051601f8201601f1916810167ffffffffffffffff811182821017156137c8576137c8613789565b604052919050565b600067ffffffffffffffff8311156137ea576137ea613789565b6137fd601f8401601f191660200161379f565b905082815283838301111561381157600080fd5b828260208301376000602084830101529392505050565b60006020828403121561383a57600080fd5b813567ffffffffffffffff81111561385157600080fd5b8201601f8101841361386257600080fd5b61240d848235602084016137d0565b6000806040838503121561388457600080fd5b50508035926020909101359150565b600080604083850312156138a657600080fd5b82356138b18161368a565b9150602083013561367f8161368a565b602080825282518282018190526000919060409081850190868401855b82811015613907578151805161ffff1685528601518685015292840192908501906001016138de565b5091979650505050505050565b6000806040838503121561392757600080fd5b82356139328161368a565b9150602083013561367f8161364c565b600082601f83011261395357600080fd5b8135602067ffffffffffffffff82111561396f5761396f613789565b8160051b61397e82820161379f565b928352848101820192828101908785111561399857600080fd5b83870192505b848310156139b75782358252918301919083019061399e565b979650505050505050565b6000806000606084860312156139d757600080fd5b83356139e28161368a565b9250602084013567ffffffffffffffff8111156139fe57600080fd5b613a0a86828701613942565b925050604084013590509250925092565b60008060008060808587031215613a3157600080fd5b8435613a3c8161368a565b93506020850135613a4c8161368a565b925060408501359150606085013567ffffffffffffffff811115613a6f57600080fd5b8501601f81018713613a8057600080fd5b613a8f878235602084016137d0565b91505092959194509250565b600080600060608486031215613ab057600080fd5b83359250613ac06020850161355c565b9150604084013590509250925092565b60008060408385031215613ae357600080fd5b823567ffffffffffffffff811115613afa57600080fd5b613b0685828601613942565b925050602083013561367f8161364c565b6020808252825182820181905260009190848201906040850190845b81811015613b4f57835183529284019291840191600101613b33565b50909695505050505050565b60208082526006908201526510b7bbb732b960d11b604082015260600190565b634e487b7160e01b600052601160045260246000fd5b81810381811115610a1857610a18613b7b565b8082028115828204841417610a1857610a18613b7b565b634e487b7160e01b600052601260045260246000fd5b600082613be057613be0613bbb565b500490565b600181811c90821680613bf957607f821691505b602082108103613c1957634e487b7160e01b600052602260045260246000fd5b50919050565b634e487b7160e01b600052603260045260246000fd5b634e487b7160e01b600052603160045260246000fd5b6020808252602e908201527f4552433732313a2063616c6c6572206973206e6f7420746f6b656e206f776e6560408201526d1c881b9bdc88185c1c1c9bdd995960921b606082015260800190565b80820180821115610a1857610a18613b7b565b6001600160a01b0394851681529290931660208301526040820152606081019190915260800190565b601f821115610d1857600081815260208120601f850160051c81016020861015613cfc5750805b601f850160051c820191505b81811015613d1b57828155600101613d08565b505050505050565b815167ffffffffffffffff811115613d3d57613d3d613789565b613d5181613d4b8454613be5565b84613cd5565b602080601f831160018114613d865760008415613d6e5750858301515b600019600386901b1c1916600185901b178555613d1b565b600085815260208120601f198616915b82811015613db557888601518255948401946001909101908401613d96565b5085821015613dd35787850151600019600388901b60f8161c191681555b5050505050600190811b01905550565b60008251613df58184602087016135e9565b9190910192915050565b600060208284031215613e1157600080fd5b5051919050565b600060208284031215613e2a57600080fd5b815161184e8161364c565b600060018201613e4757613e47613b7b565b5060010190565b60008351613e608184602088016135e9565b835190830190613e748183602088016135e9565b64173539b7b760d91b9101908152600501949350505050565b60208082526024908201527f6f70657261746f723a2063616c6c6572206973206e6f7420746865206f70657260408201526330ba37b960e11b606082015260800190565b60008251613ee38184602087016135e9565b6c31b7b73a3930b1ba173539b7b760991b920191825250600d01919050565b60208082526032908201527f4552433732313a207472616e7366657220746f206e6f6e20455243373231526560408201527131b2b4bb32b91034b6b83632b6b2b73a32b960711b606082015260800190565b600082613f6357613f63613bbb565b500690565b6001600160a01b0385811682528416602082015260408101839052608060608201819052600090613f9b9083018461360d565b9695505050505050565b600060208284031215613fb757600080fd5b815161184e8161359d56feddb878cba785b7e990dc6cf5429da531907ba82da43d525a522696e153ea45c6a26469706673582212206fd62b2228b45e933616b95372346d55a5b74df233b961d186cd7edb6e91edc764736f6c6343000811003374da04524d50c64947f5dd5381ef1a4dca5cba8ed1d816243f9e48aa0b5617eda26469706673582212205dabd1b104bf0699548285dc6448665e4a7f98447870091a4aca478350a37c4164736f6c6343000811003374da04524d50c64947f5dd5381ef1a4dca5cba8ed1d816243f9e48aa0b5617ed",
  "devdoc": {
    "kind": "dev",
    "methods": {
      "owner()": {
        "details": "Returns the address of the current owner."
      },
      "renounceOwnership()": {
        "details": "Leaves the contract without owner. It will not be possible to call `onlyOwner` functions anymore. Can only be called by the current owner. NOTE: Renouncing ownership will leave the contract without an owner, thereby removing any functionality that is only available to the owner."
      },
      "transferOwnership(address)": {
        "details": "Transfers ownership of the contract to a new account (`newOwner`). Can only be called by the current owner."
      }
    },
    "version": 1
  },
  "userdoc": {
    "kind": "user",
    "methods": {},
    "version": 1
  },
  "storageLayout": {
    "storage": [
      {
        "astId": 126,
        "contract": "contracts/StakeVault.sol:StakeVault",
        "label": "_status",
        "offset": 0,
        "slot": "0",
        "type": "t_uint256"
      },
      {
        "astId": 7,
        "contract": "contracts/StakeVault.sol:StakeVault",
        "label": "_owner",
        "offset": 0,
        "slot": "1",
        "type": "t_address"
      },
      {
        "astId": 5132,
        "contract": "contracts/StakeVault.sol:StakeVault",
        "label": "_operator",
        "offset": 0,
        "slot": "2",
        "type": "t_address"
      },
      {
        "astId": 2943,
        "contract": "contracts/StakeVault.sol:StakeVault",
        "label": "_defaultAprLockOptions",
        "offset": 0,
        "slot": "3",
        "type": "t_array(t_struct(AprLockDefaults)2939_storage)dyn_storage"
      },
      {
        "astId": 2947,
        "contract": "contracts/StakeVault.sol:StakeVault",
        "label": "stakeAssets",
        "offset": 0,
        "slot": "4",
        "type": "t_array(t_struct(StakeAsset)2934_storage)dyn_storage"
      },
      {
        "astId": 2951,
        "contract": "contracts/StakeVault.sol:StakeVault",
        "label": "positionForAsset",
        "offset": 0,
        "slot": "5",
        "type": "t_mapping(t_address,t_address)"
      },
      {
        "astId": 2955,
        "contract": "contracts/StakeVault.sol:StakeVault",
        "label": "stakePositionId",
        "offset": 0,
        "slot": "6",
        "type": "t_mapping(t_address,t_uint256)"
      },
      {
        "astId": 2958,
        "contract": "contracts/StakeVault.sol:StakeVault",
        "label": "_ids",
        "offset": 0,
        "slot": "7",
        "type": "t_struct(Counter)2564_storage"
      }
    ],
    "types": {
      "t_address": {
        "encoding": "inplace",
        "label": "address",
        "numberOfBytes": "20"
      },
      "t_array(t_struct(AprLockDefaults)2939_storage)dyn_storage": {
        "base": "t_struct(AprLockDefaults)2939_storage",
        "encoding": "dynamic_array",
        "label": "struct StakeVault.AprLockDefaults[]",
        "numberOfBytes": "32"
      },
      "t_array(t_struct(StakeAsset)2934_storage)dyn_storage": {
        "base": "t_struct(StakeAsset)2934_storage",
        "encoding": "dynamic_array",
        "label": "struct StakeVault.StakeAsset[]",
        "numberOfBytes": "32"
      },
      "t_bool": {
        "encoding": "inplace",
        "label": "bool",
        "numberOfBytes": "1"
      },
      "t_mapping(t_address,t_address)": {
        "encoding": "mapping",
        "key": "t_address",
        "label": "mapping(address => address)",
        "numberOfBytes": "32",
        "value": "t_address"
      },
      "t_mapping(t_address,t_uint256)": {
        "encoding": "mapping",
        "key": "t_address",
        "label": "mapping(address => uint256)",
        "numberOfBytes": "32",
        "value": "t_uint256"
      },
      "t_struct(AprLockDefaults)2939_storage": {
        "encoding": "inplace",
        "label": "struct StakeVault.AprLockDefaults",
        "members": [
          {
            "astId": 2936,
            "contract": "contracts/StakeVault.sol:StakeVault",
            "label": "apr",
            "offset": 0,
            "slot": "0",
            "type": "t_uint16"
          },
          {
            "astId": 2938,
            "contract": "contracts/StakeVault.sol:StakeVault",
            "label": "lockTime",
            "offset": 0,
            "slot": "1",
            "type": "t_uint256"
          }
        ],
        "numberOfBytes": "64"
      },
      "t_struct(Counter)2564_storage": {
        "encoding": "inplace",
        "label": "struct Counters.Counter",
        "members": [
          {
            "astId": 2563,
            "contract": "contracts/StakeVault.sol:StakeVault",
            "label": "_value",
            "offset": 0,
            "slot": "0",
            "type": "t_uint256"
          }
        ],
        "numberOfBytes": "32"
      },
      "t_struct(StakeAsset)2934_storage": {
        "encoding": "inplace",
        "label": "struct StakeVault.StakeAsset",
        "members": [
          {
            "astId": 2917,
            "contract": "contracts/StakeVault.sol:StakeVault",
            "label": "stakeToken",
            "offset": 0,
            "slot": "0",
            "type": "t_address"
          },
          {
            "astId": 2919,
            "contract": "contracts/StakeVault.sol:StakeVault",
            "label": "positionToken",
            "offset": 0,
            "slot": "1",
            "type": "t_address"
          },
          {
            "astId": 2921,
            "contract": "contracts/StakeVault.sol:StakeVault",
            "label": "created",
            "offset": 0,
            "slot": "2",
            "type": "t_uint256"
          },
          {
            "astId": 2923,
            "contract": "contracts/StakeVault.sol:StakeVault",
            "label": "capacity",
            "offset": 0,
            "slot": "3",
            "type": "t_uint256"
          },
          {
            "astId": 2925,
            "contract": "contracts/StakeVault.sol:StakeVault",
            "label": "stakedAmount",
            "offset": 0,
            "slot": "4",
            "type": "t_uint256"
          },
          {
            "astId": 2927,
            "contract": "contracts/StakeVault.sol:StakeVault",
            "label": "yieldEarned",
            "offset": 0,
            "slot": "5",
            "type": "t_uint256"
          },
          {
            "astId": 2929,
            "contract": "contracts/StakeVault.sol:StakeVault",
            "label": "endTime",
            "offset": 0,
            "slot": "6",
            "type": "t_uint256"
          },
          {
            "astId": 2931,
            "contract": "contracts/StakeVault.sol:StakeVault",
            "label": "deployedAmount",
            "offset": 0,
            "slot": "7",
            "type": "t_uint256"
          },
          {
            "astId": 2933,
            "contract": "contracts/StakeVault.sol:StakeVault",
            "label": "active",
            "offset": 0,
            "slot": "8",
            "type": "t_bool"
          }
        ],
        "numberOfBytes": "288"
      },
      "t_uint16": {
        "encoding": "inplace",
        "label": "uint16",
        "numberOfBytes": "2"
      },
      "t_uint256": {
        "encoding": "inplace",
        "label": "uint256",
        "numberOfBytes": "32"
      }
    }
  }
}